:100000007AC0000097C0000095C0000093C00000B7
:1000100091C000008FC000008DC000008BC00000A8
:1000200089C0000087C0000085C0000083C00000B8
:1000300081C000007FC000007DC000007BC00000C8
:1000400079C0000077C000003CC1000008C100007A
:1000500071C0000070C000006DC000006BC00000E7
:1000600069C0000067C0000065C0000063C00000F8
:1000700061C000005FC0000095C1000060C10000C9
:1000800059C0000057C0000055C00000B013011453
:100090001B145C14A114E6147515901523163E1656
:1000A000841690169C16A816B416D716D716D7160F
:1000B000D716D716D716D716D716D716D716D716D8
:1000C000D716D716D716D716D716D716D716D716C8
:1000D000D716D716D716D716D716D716D716D716B8
:1000E000D716D716D716D716D716D716D716D716A8
:1000F000D716C016CC1611241FBECFEFD0E1DEBF3D
:10010000CDBF11E0A0E0B1E0E8E3F9E300E00BBF10
:1001100002C007900D92A83BB107D9F723E0A8EBE6
:10012000B1E001C01D92A938B207E1F70E94121395
:100130000C949A1C65CF1F920F920FB60F92112448
:100140000BB60F922F933F934F935F936F937F93D1
:100150008F939F93AF93BF93EF93FF93E0913D02F3
:10016000F0913E02808191810E9404139093E302FA
:100170008093E2022091B801243080F42091B801EC
:100180002F5F2093B8012091B9013091BA01820FFD
:10019000931F9093BA018093B9014EC0E091BB01C7
:1001A000F091BC018091B9019091BA019595879524
:1001B00095958795EE0FFF1FE350FE4F9183808347
:1001C0001092BA011092B9011092B8012091BB01AE
:1001D0003091BC018091E0029091E102281739072B
:1001E00054F48091BB019091BC0101969093BC01A5
:1001F0008093BB0104C01092BC011092BB01A0917E
:100200003D02B0913E0213968C911397807E139617
:100210008C931397E091BB01F091BC01EE0FFF1F8F
:10022000E354FE4F808191818F7113969C911397B7
:10023000907E892B13968C93FF91EF91BF91AF9194
:100240009F918F917F916F915F914F913F912F91EE
:100250000F900BBE0F900FBE0F901F9018951F921E
:100260000F920FB60F9211240BB60F922F933F935C
:100270004F935F936F937F938F939F93AF93BF93AE
:10028000EF93FF930E94E112FC0191819F7D918386
:10029000FF91EF91BF91AF919F918F917F916F915E
:1002A0005F914F913F912F910F900BBE0F900FBE1A
:1002B0000F901F9018958BB142E063E00C94E71209
:1002C00008951F920F920FB60F9211240BB60F9242
:1002D0002F933F934F935F936F937F938F939F934E
:1002E000AF93BF93CF93EF93FF93E5DFC82F0E94A7
:1002F000E112FC018181C111C09312030E94E1123D
:10030000FC01638160930503E0910C03F0910D0300
:1003100086E093E00995FF91EF91CF91BF91AF9166
:100320009F918F917F916F915F914F913F912F910D
:100330000F900BBE0F900FBE0F901F9018951F923D
:100340000F920FB60F9211240BB60F922F933F937B
:100350004F935F936F937F938F939F93AF93BF93CD
:10036000EF93FF930E94E412FC0192819F7D9283A0
:10037000FF91EF91BF91AF919F918F917F916F917D
:100380005F914F913F912F910F900BBE0F900FBE39
:100390000F901F90189580919B0042E063E00C94B1
:1003A000E71208951F920F920FB60F9211240BB609
:1003B0000F922F933F934F935F936F937F938F93FE
:1003C0009F93AF93BF93CF93EF93FF93E4DFC82F37
:1003D0000E94E412FC018281C111C09335030E9486
:1003E000E412FC01648160931303E0913C03F091FB
:1003F0003D0386E393E00995FF91EF91CF91BF9183
:10040000AF919F918F917F916F915F914F913F91AC
:100410002F910F900BBE0F900FBE0F901F9018954D
:10042000EFE3F2E023E43CE13183208325E83CE183
:10043000338322832FE53CE1358324832BE43CE1A5
:100440003783268327E93CE13187208728E73CE191
:100450003387228722E93CE13787268722E93CE17E
:10046000358B248B20E73CE1378B268B23E33CE163
:10047000318F208F2CE73CE1338F228F20E53CE148
:10048000358F248F2EE1DC0101900D922A95E1F742
:10049000089521E030E0042E02C0220F331F0A9499
:1004A000E2F72150310962237323822393239C01B5
:1004B0002627372762237323CB0102C0880F991F99
:1004C0004A95E2F7822B932B0895CF92DF92EF9219
:1004D000FF920F931F93FC010081118122813381D0
:1004E000FB01C080D180E280F380FC01C082D18218
:1004F000E282F382FB0100831183228333831F9105
:100500000F91FF90EF90DF90CF900895FB01208135
:10051000FC012083222339F0DB01119631969D9155
:1005200091939111FCCF0895CF93DF93EC019881C3
:10053000992399F0FE01319620E030E0492F50E0F8
:100540004617570731F0DE01A20FB31F9C932F5FB0
:100550003F4F91919111F2CF02C020E030E0FE01B7
:10056000E20FF31F1082DF91CF9108952F923F92F7
:100570004F925F926F927F928F929F92AF92BF92B3
:10058000CF92DF92EF92FF920F931F93CF93DF935F
:1005900000D000D0CDB7DEB72C011B014B01772373
:1005A0001CF42FEF821A920A959487941814190458
:1005B0000CF451C06AC09601DD209CF1F501408128
:1005C0005181F401608171816417750754F58C01C4
:1005D0000A0D1B1DD401BC82AB82BA82A982EB81B9
:1005E000FC817183608311965C934E932E193F09B1
:1005F000C2F0F80140815181E981FA816081718105
:10060000080F191FE80FF91FFA83E983EB81FC81BA
:10061000E80FF91FFC83EB83A80FB91F6417750758
:10062000F4F2FFEFCF1ADF0A22E0A20EB11CE2E0E3
:100630008E0E911CC614D70409F0BDCF4701FF20D0
:100640001CF4FFEF8F1A9F0A9594879418141904CD
:10065000E4F4740101C07401821493047CF7640112
:10066000CE18DF085601AA0CBB1CA40CB51C880CC4
:10067000991C840C951C31016E187F08C701880FE6
:10068000991F91958195910996CF0F900F900F909A
:100690000F90DF91CF911F910F91FF90EF90DF901E
:1006A000CF90BF90AF909F908F907F906F905F9012
:1006B0004F903F902F900895861797070CF4CB0129
:1006C00008959B01672B11F408959A01B9010E94C6
:1006D000DB18AC01822F932F41155105B1F7089516
:1006E000FC01908180ED890F8A30D0F4319620E0B2
:1006F00030E0A901440F551F220F331F220F331F73
:10070000220F331F420F531F292F30E0205331098E
:10071000240F351F919180ED890F8A3050F302C06C
:1007200020E030E0C901089587FF08C091958195C8
:100730009109992791958195910908958F77992726
:10074000089591FF08C091958195910993709195B5
:1007500081959109089591700895615021E030E0EC
:1007600002C0220F331F6A95E2F7A90141505109D7
:10077000B90168237923672B29F084239523821BF1
:10078000930B08958423952308959DEC899F912DC3
:100790001124969596959695392F330F232F220F76
:1007A000220F230F821B20E1929F800D11240895B8
:1007B000982F92959F70990F292F220F220F920F39
:1007C0008F70890F0895FC01DB01A35ABD4F1C9265
:1007D0001616170614F5908191110CC017C091914F
:1007E00091110DC015C081932F5F3F4F261737071A
:1007F000D4F313C0ADE5B2E0319620E030E09D9334
:100800002F5F3F4F6217730751F707C020E030E0BA
:10081000F901E35AFD4F80E2E6CF8DE592E00895BD
:100820004F925F926F927F92AF92BF92CF92DF9280
:10083000EF92FF920F931F93CF93DF93CDB7DEB765
:1008400029013A019B01AC012419350946095709D0
:1008500089899A89AB89BC89BC01CD016A197B0958
:100860008C099D090E94B818A8019701241935091F
:10087000460957090E941019CA01B9016A0D7B1D6A
:100880008C1D9D1DDF91CF911F910F91FF90EF90D7
:10089000DF90CF90BF90AF907F906F905F904F9020
:1008A0000895FC012081222341F0319680E090E000
:1008B000019621912111FCCF089580E090E00895E8
:1008C000CF93DF93EC01EDDF9C012150310962F001
:1008D000FE01E80FF91F9291903219F09950923071
:1008E00018F421503109B8F7C20FD31F1982C9017A
:1008F000DF91CF910895CF93DF93EC01D2DF9C017C
:10090000215031091216130684F4DE01A80FB91F15
:10091000FE0180E090E040815E9151934C930196FE
:100920002150310982179307B4F3DF91CF910895D5
:10093000CF92DF92EF92FF921F93CF93DF932AE043
:1009400030E040E050E00E94EE18605D60935D0290
:10095000622F732F842F952F6115710581059105E5
:10096000F1F0C1E00F2EFAE0CF2ED12CE12CF12CCA
:10097000F02D11E01C0FD0E0C35ADD4FA701960106
:100980000E94EE18605D6883622F732F842F952F6D
:10099000C12F611571058105910559F701C011E05D
:1009A000E12FF0E0E35AFD4F10828DE592E0A3DFE6
:1009B0008DE592E0DF91CF911F91FF90EF90DF9056
:1009C000CF9008958F929F92AF92BF92CF92DF9275
:1009D000EF92FF920F931F93CF93DF936B017C01F4
:1009E000DC01CB01FF203CF488279927DC018C191E
:1009F0009D09AE09BF09BC01CD0110E00F2EFAE040
:100A00008F2E912CA12CB12CF02D01C0102F01E0C4
:100A1000010FC12FD0E0C35ADD4FA50194010E9400
:100A20001019605D6883622F732F842F952F16161F
:100A300017061806190654F3FF2044F4E02FF0E0DF
:100A4000E35AFD4F8DE2808302E0010FE02FF0E0DA
:100A5000E35AFD4F10828DE592E04DDF8DE592E087
:100A6000DF91CF911F910F91FF90EF90DF90CF908A
:100A7000BF90AF909F908F9008950F931F93CF9347
:100A8000DF93EC01992324F4882799278C1B9D0B75
:100A900020E00AE010E001C0232F31E0320FE22F06
:100AA000F0E0E35AFD4FB8010E94DB18805D8083BF
:100AB000862F972F181619067CF3DD2344F4E32FB5
:100AC000F0E0E35AFD4F8DE2808332E0320FE32FF6
:100AD000F0E0E35AFD4F10828DE592E00CDF8DE5EA
:100AE00092E0DF91CF911F910F910895CF93AC01C8
:100AF0009C01ADECBCEC0E943519969587959695B6
:100B00008795969587959C01220F331F880F991F13
:100B1000880F991F880F991F820F931F9A01281B16
:100B2000390BC901805D80935D029A010E943519DD
:100B3000AC0156954795569547955695479541155D
:100B4000510589F1E1E0C1E0CE0FF0E0E35AFD4F3D
:100B50009A01ADECBCEC0E94351996958795969557
:100B60008795969587959C01220F331F880F991FB3
:100B7000880F991F880F991F820F931F9A01281BB6
:100B8000390BC901805D80839A010E943519AC013F
:100B9000569547955695479556954795EC2F41158F
:100BA000510589F601C0C1E0EC2FF0E0E35AFD4F9A
:100BB00010828DE592E09FDE8DE592E0CF91089561
:100BC000982F92959F70990F292F220F220F920F25
:100BD0008F70890F0895AC019C01ADECBCEC0E94B4
:100BE0003519969587959695879596958795BC0125
:100BF000660F771F9C01220F331F220F331F220F16
:100C0000331F260F371F421B530B342F20E1829FC7
:100C1000300D1124832F0895CF92DF92EF92FF922F
:100C2000CF93DF93CDB7DEB728970FB6F894DEBF2A
:100C30000FBECDBF6B017C0169837A838B839C835C
:100C40002D833E834F835887C216D306E406F506EC
:100C500034F4BE016B5F7F4FCE01019636DC8D818F
:100C60009E81AF81B885892B8A2B8B2B71F469818A
:100C70007A818B819C8120E030E0A9010E941019CB
:100C8000611571058105910529F46D817E818F8142
:100C9000988505C06D837E838F839887F6CF2896CD
:100CA0000FB6F894DEBF0FBECDBFDF91CF91FF909E
:100CB000EF90DF90CF9008959C012150310981E0A1
:100CC00090E002C0880F991F2A95E2F70097B1F0D3
:100CD000EDE5F2E020E030E0B0E3A1E3AB01482332
:100CE0005923452B11F0A08301C0B08396958795B9
:100CF0002F5F3F4F3196009789F702C020E030E028
:100D0000F901E35AFD4F10828DE592E00895AB01A1
:100D1000BC0110925D02411551056105710509F490
:100D200042C021E0EFEFE20FDB01CA018F7099278B
:100D3000AA27B078BB2354F40197A109B109806FA9
:100D40009F6FAF6FBF6F0196A11DB11D8A309105D6
:100D5000A105B10534F4F0E0E35AFD4F805D8083D6
:100D600005C0F0E0E35AFD4F895C8083E22FF0E09C
:100D7000E35AFD4F1082DB01CA0177231CF40F9662
:100D8000A11DB11DAC01BD01689413F8759567955F
:100D9000579547951694D1F72F5F41155105610579
:100DA000710509F0BFCF8DE592E0A5DD8DE592E0FC
:100DB00008959827892798270895FB0120812223E9
:100DC00039F0A82FB92F31962D9321912111FCCF05
:100DD0000895CF93DF93CDB7DEB79E012B5F3F4FD2
:100DE000F901419151919F016FE170E08DE592E031
:100DF0000E944E1999231CF08DE592E002C080E01C
:100E000090E0DF91CF91089510927C02EDE7F2E03F
:100E100021E534E0318320832BE734E033832283E0
:100E200029E432E03583248325E632E037832683C4
:100E300026E832E03187208724E932E033872287B1
:100E400026EB32E0358724872DE335E03787268788
:100E500026E735E0318B208B22EE34E0338B228B7A
:100E600028E934E0358B248B20E634E0378B268B61
:100E70002CE533E0318F208F21E633E0338F228F52
:100E800020E733E0358F248F24E933E0378F268F36
:100E900021EA33E031A320A32DEA33E033A322A3D8
:100EA00025EC33E035A324A328ED33E037A326A3B4
:100EB00023EE33E031A720A720E134E033A722A7B7
:100EC00020EE35E035A724A72BEE35E037A726A77F
:100ED0002CE036E031AB20AB2CE536E033AB22AB77
:100EE00028E238E035AB24AB27E836E037AB26AB59
:100EF00029ED36E031AF20AF29EE36E033AF22AF37
:100F00002DED36E035AF24AF2EE3DC0101900D92DC
:100F10002A95E1F70895CF92DF92EF92FF920F9317
:100F20001F93CF93DF93C1E0C40F042F10E0035A47
:100F30001D4F2AE030E040E050E00E94EE18605D76
:100F4000F8016083622F732F842F952F611571052F
:100F500081059105E9F00F2EFAE0CF2ED12CE12C7E
:100F6000F12CF02D11E01C0FD0E0C35ADD4FA7018A
:100F700096010E94EE18605D6883622F732F842FA4
:100F8000952FC12F611571058105910559F701C094
:100F90001C2FE12FF0E0E35AFD4F1082812FDF91EB
:100FA000CF911F910F91FF90EF90DF90CF90089518
:100FB000CF92DF92EF92FF920F931F93CF93DF9325
:100FC000C42F022F20E030E040E251E40E94551887
:100FD0006B017C01002361F10C0F11E01C0FD0E0CC
:100FE000C35ADD4F20E030E040E452E4C701B601CF
:100FF0000E940F170E9477176883C701B6010E94ED
:10100000771770E080E090E00E94A5179B01AC018B
:10101000C701B6010E940E1720E030E040E251E423
:101020000E9455186B017C01C12F0113D6CF01C05E
:101030000C2FE02FF0E0E35AFD4F1082802FDF915C
:10104000CF911F910F91FF90EF90DF90CF90089577
:101050008F929F92AF92BF92CF92DF92EF92FF92C8
:101060000F931F93CF93DF936B017C01D42F20E06C
:1010700030E0A9010E94731788230CF5F7FAF09469
:10108000F7F8F094C701B6010E9477174B015C0195
:101090000E94A3179B01AC01C701B6010E940E1765
:1010A0006B017C0140E0C501B40135DFC1E0C80F30
:1010B000E82FF0E0E35AFD4F8DE2808315C0C701B1
:1010C000B6010E9477174B015C010E94A3179B0198
:1010D000AC01C701B6010E940E176B017C0140E014
:1010E000C501B40118DFC82F0C2F10E0035A1D4FA3
:1010F000F80110828DE592E0FEDB8EE2F80180833C
:1011000041E04C0F2D2FC701B60152DF8DE592E073
:10111000DF91CF911F910F91FF90EF90DF90CF90D3
:10112000BF90AF909F908F90089510924C03EBEB7F
:10113000F2E080E280838FE493E092838183948362
:1011400083830895CF93DF9321E080E0A4E4B3E0AC
:10115000E8E4F3E060E071E001C02F5F9FEF920FE1
:10116000913009F44BC038F0923009F48CC09330C0
:1011700009F4CEC00EC14091510350915203EA01CF
:101180009881906898834091420350914303EA010B
:1011900098819F77988340914D0350914E03EA01C7
:1011A000388134773C939081432F492794233083AF
:1011B000992399F0943019F4EB0188810AC0903199
:1011C00019F4EB01898109C0903219F4EB018A818D
:1011D00004C0903411F4EB018B8140915103509184
:1011E0005203EA0198819F7798834091420350917E
:1011F0004303EA01988190689883AFCF40915103EF
:1012000050915203EA019881916098834091420382
:1012100050914303EA0198819E7F988340914D034A
:1012200050914E03EA013881347711963C9311971F
:101230009181432F492794233183992399F0943046
:1012400019F4EB018C810AC0903119F4EB018D8106
:1012500009C0903219F4EB018E8104C0903411F46E
:10126000EB018F814091510350915203EA01988123
:101270009E7F98834091420350914303EA019881F5
:10128000916098836ACF4091510350915203EA01D3
:101290009881926098834091420350914303EA0100
:1012A00098819D7F988340914D0350914E03EA01B0
:1012B0003881347712963C9312979281432F4927B5
:1012C00094233283992399F0943019F4EB018885A3
:1012D0000AC0903119F4EB01898509C0903219F4E4
:1012E000EB018A8504C0903411F4EB018B854091A9
:1012F000510350915203EA0198819D7F9883409158
:10130000420350914303EA0198819260988325CF6C
:10131000E0915103F0915203908198609083E091A5
:101320004203F09143039081977F9083E0914D03B6
:10133000F0914E032081247720934703E8E4F3E003
:101340009381322F392793232383992399F0943063
:1013500019F480910C010AC0903119F480910D01AB
:1013600009C0903219F480910E0104C0903411F438
:1013700080910F01E0915103F09152039081977F8A
:101380009083E0914203F0914303908198609083B1
:1013900003C0243008F4E1CEDF91CF910895D2DE6E
:1013A000882309F445C08093BB02843499F4E0910A
:1013B0004C03F0E0ED5AFC4F108210924C03EBEB23
:1013C000F2E08FE493E09283818383E593E094835A
:1013D00083830895E0914C03E630B8F4AE2FB0E07B
:1013E000AD5ABC4F8C93EF5FE0934C03F0E0ED5AA5
:1013F000FC4F1082EBEBF2E083E593E09283818374
:101400008FE493E0948383830895E3E5F3E080839E
:1014100081E080934C031182ABEBB2E01296FC9317
:10142000EE9311978FE493E014969C938E93139709
:101430000895CF93DF93CDB7DEB728970FB6F89412
:10144000DEBF0FBECDBFDA012BEB32E050E2F90177
:101450005083EFE4F3E05083118290935203809322
:10146000510370934E0360934D03B0934303A093D5
:1014700042034BE8FC014083E0914203F0914303B7
:1014800084E78083A4E4B3E08C93E8E4F3E0808312
:1014900011968C931197818312968C931297828365
:1014A00013968C93838310924C03E0ECF2E031832B
:1014B000208382EA98E0938382838FEC99E095837E
:1014C000848385E998E097838683E0914203F091D5
:1014D000430380818B68808388E0E0ECF2E0DE01EA
:1014E000119601900D928A95E1F729813A814B81FD
:1014F0005C816D817E818F81988528960FB6F894E6
:10150000DEBF0FBECDBFDF91CF910895E0916403A0
:10151000F091650380818B7F8083E0916403F0917B
:10152000650380818460808308950F931F93CF9318
:10153000C82F8B01E0916403F091650380818D7F5A
:101540008083E0916103F09162038081806F8083EA
:10155000672B41F0E0916403F09165038081816025
:10156000808307C0E0916403F091650380818E7FE2
:10157000808380E090E0CADFCC2344F4E0916403F0
:10158000F091650380818068808307C0E0916403E7
:10159000F091650380818F778083C6FF08C0E0915A
:1015A0006403F091650380818064808307C0E091CB
:1015B0006403F091650380818F7B8083C5FF08C041
:1015C000E0916403F091650380818062808307C0AD
:1015D000E0916403F091650380818F7D8083C4FF77
:1015E00008C0E0916403F09165038081806180838D
:1015F00007C0E0916403F091650380818F7E808352
:10160000012B41F0E0916403F091650380818160DA
:10161000808307C0E0916403F091650380818E7F31
:10162000808380E090E072DFC3FF08C0E091640334
:10163000F091650380818068808307C0E091640336
:10164000F091650380818F778083C2FF08C0E091AD
:101650006403F091650380818064808307C0E0911A
:101660006403F091650380818F7B8083C1FF08C094
:10167000E0916403F091650380818062808307C0FC
:10168000E0916403F091650380818F7D8083C0FFCA
:1016900008C0E0916403F0916503808180618083DC
:1016A00007C0E0916403F091650380818F7E8083A1
:1016B000E0916403F091650380818B7F8083CF91FB
:1016C0001F910F91089560E070E081E02EDF87EEBA
:1016D00097E10197F1F700C0000008950F931F9361
:1016E000CF938C01E0916103F091620380818F7050
:1016F0008083E0916403F09165038081806F808333
:10170000E0916403F091650380818260808301151C
:10171000110541F0E0916403F091650380818160DF
:10172000808307C0E0916403F091650380818E7F20
:10173000808380E090E0EADEE0915A03F0915B0361
:101740008081882314F0C0E001C0C0E8808186FF5A
:1017500002C0C06401C0CF7B808185FF02C0C0622F
:1017600001C0CF7D808184FF02C0C06101C0CF7EF7
:10177000012B41F0E0916403F09165038081816069
:10178000808307C0E0916403F091650380818E7FC0
:10179000808380E090E0BADEE0915A03F0915B0331
:1017A000808188231CF48C2F886002C08C2F877F57
:1017B000908196FF02C0846001C08B7F908195FF6D
:1017C00002C0826001C08D7F908194FF02C0816061
:1017D00001C08E7FE0916403F091650390819B7F4F
:1017E0009083CF911F910F91089580E090E076DF74
:1017F000882344F480E090E071DF88231CF480E0CB
:1018000090E06CCF089561E070E08FDEEECF089538
:10181000CF93DF93EC018881882329F02196F3DFB1
:1018200089918111FCCFDF91CF9108950F931F9380
:10183000CF93DF93FC01D62F8081882351F08F0155
:101840000F5F1F4F611109C015C0CF5FDC1730F467
:1018500001C0C0E0CD1748F00DC0C1E0D4DFF801F1
:1018600081918F018111F1CFF5CF80E2CCDFCF5F85
:10187000CD17D8F3DF91CF911F910F910895CF939A
:10188000C82F882321F080E2BEDFC150E1F7CF915D
:101890000895262F8130910571F030F08230910546
:1018A00089F00397B1F0089560E070E080E8820F5E
:1018B0003CDE9BCF089560E070E080EC820F35DE67
:1018C00094CF089560E070E084E9820F2EDE8DCF22
:1018D000089560E070E084ED820F27DE86CF0895E2
:1018E000E0916103F091620387E08083E0916403FB
:1018F000F091650388E080832FEF83EF91E0215022
:1019000080409040E1F700C0000060E070E088E3B4
:101910000CDE20ED2A95F1F760E070E088E305DE4B
:1019200080ED8A95F1F760E070E088E3FEDD90EDF0
:101930009A95F1F760E070E088E2F7DD25EC2A95F2
:10194000F1F7000060E070E088E2EFDD85EC8A9559
:10195000F1F7000060E070E088E2E7DD46DF60E07C
:1019600070E088E2E2DD41DF60E070E08CE0DDDD28
:101970003CDF60E070E08CE0D8DD37DF60E070E0F5
:1019800081E0D3DD32DF60E070E081E0CEDD2DDF8D
:1019900060E070E086E0C9DD28DF60E070E086E0AE
:1019A000C4DD23DF60E070E080E090E072CF089556
:1019B000CF93DF93EC0170936203609361035093C4
:1019C0005B0340935A033093650320936403FB0148
:1019D0001082E0916403F09165038FEF8083E091C2
:1019E0005A03F0915B038081887080936303E8EC75
:1019F000F2E085E99AE0918380838EE69BE0938311
:101A0000828385EF9BE09583848383E09CE09783CA
:101A1000868383E49DE09187808788E09CE09387BC
:101A2000828786E19CE0958784878FE39CE0978797
:101A3000868783E69BE0918B808B89E49CE0938B87
:101A4000828B82E39DE0958B848B4ADF86E1E8EC14
:101A5000F2E0DE0101900D928A95E1F7CE01DF916F
:101A6000CF910895CF93E0915A03F0915B03C08129
:101A7000C870809163038C278C2309F031DFC093F9
:101A80006303CF910895CF9381E090E027DEC82FC4
:101A9000ACDE8C2FCF910895AF92BF92CF92DF92A0
:101AA000EF92FF920F931F93CF93DF93DC01149675
:101AB000CC90149712962D913C911397232B21F1E2
:101AC0007C01D12C00E010E0A12CB12CC0E0D0E0D2
:101AD000D701ED91FC91008CF18DE02DA601B801AC
:101AE00083E793E0099580917303882319F0BFEF92
:101AF000AB1ABB0A21960C0D1D1DF7018281938143
:101B0000C817D90728F302C0A12CB12CC501DF9159
:101B1000CF911F910F91FF90EF90DF90CF90BF90EA
:101B2000AF900895AF92BF92CF92DF92EF92FF9263
:101B30000F931F93CF93DF937C01DC011496CC901D
:101B4000149712968D919C911397892B81F1D12C2A
:101B5000C0E0D0E0A12C00E010E0BB24B394D7019A
:101B6000ED91FC91008CF18DE02DA601BE0183E783
:101B700093E0099580917303882371F010927303A9
:101B8000D701ED91FC91048CF58DE02DA601BE01ED
:101B900083E793E00995AB2C0F5F1F4FCC0DDD1D44
:101BA000F7018281938108171907C8F201C0A12C9F
:101BB000D70118961C921E92179719961C928A2D7F
:101BC000DF91CF911F910F91FF90EF90DF90CF9019
:101BD000BF90AF900895FC01878190850895FC0126
:101BE00081850895FC017087678311860895FC0143
:101BF00085810895FC01658308952F923F924F924D
:101C00005F926F927F928F929F92AF92BF92CF928C
:101C1000DF92EF92FF920F931F93CF93DF938C018C
:101C2000762EDC011696CC90A62EAC24CA20D12CA0
:101C3000A622B12CC114D10431F0F8018281938124
:101C4000892B29F4B3C0A114B104B9F74AC1E480C7
:101C5000558033243A9444244A9466246394C0E023
:101C6000D0E0F12C852C912C6894222421F8EC9E54
:101C7000B001ED9E700DFC9E700D1124D801ED9108
:101C8000FC91008CF18DE02DA70183E793E009958D
:101C900080917303882309F470C0813099F42091F6
:101CA000760330E02C153D0509F067C020917703DD
:101CB00030E02A153B0509F060C0F801C281D381EC
:101CC000622C5BC0E3E7F3E041815281D8011796B3
:101CD0002D913C911897242735274581568124233F
:101CE0003523232B09F049C02091760330E02C15D1
:101CF0003D0509F042C02091770330E02A153B05ED
:101D0000E1F5282F30E02819390949F41296CD91D0
:101D1000DC9113970F2EF3E06F2EF02D2EC01216CC
:101D200013069CF4442D50E02417350774F49BE00F
:101D3000E3E7F3E0AEE7B3E001900D929A95E1F7A7
:101D4000482E45186894662462F83323B4F4432D72
:101D500050E05195419551094217530774F49BE0A7
:101D6000E3E7F3E0A8E6B3E001900D929A95E1F77E
:101D7000352C381A6894662462F82196F80122817D
:101D80003381C217D30708F472CFF2E06F1689F0DF
:101D9000F61520F081E0681649F0A3C093E06916BB
:101DA00069F1A4E06A1609F44BC09BC0F801768281
:101DB00098C0D80115968C93159716967C92169715
:101DC000E3E7F3E065817681218532852623372399
:101DD00017964D915C911897242B352B8781908510
:101DE00086239723809590958223932318969C931E
:101DF0008E93179782E019968C9373C0F8018583B0
:101E00007682E3E7F3E065817681218532852623BA
:101E10003723D80117964D915C911897242B352BB9
:101E2000878190858623972380959095822393239D
:101E300018969C938E93179783E019968C9351C0B4
:101E4000F80176828FEF840D8E3F20F5EEE7F3E008
:101E50008081D80115968C931597658176812185AF
:101E60003285AB014223532317962D913C9118974D
:101E7000242B352B878190858623972380959095F9
:101E80008223932318969C938E93179789E2199631
:101E90008C9327C08FEF830D8E3F18F5E8E6F3E0B3
:101EA0008081D80115968C9315976581768121855F
:101EB0003285AB014223532317962D913C911897FD
:101EC000242B352B878190858623972380959095A9
:101ED0008223932318969C938E9317978AE21996E0
:101EE0008C93F8018185DF91CF911F910F91FF9025
:101EF000EF90DF90CF90BF90AF909F908F907F90AA
:101F00006F905F904F903F902F9008952F923F9247
:101F10004F925F926F927F928F929F92AF92BF92F9
:101F2000CF92DF92EF92FF920F931F93CF93DF93A5
:101F3000DC0114960C91149710927E03442309F44B
:101F400087C01696AC90262F2A25A222B12C2623D4
:101F5000822E912CA114B10441F0FC012281338125
:101F6000232B41F4442443948DC081149104A9F798
:101F7000412C88C0542E7C0144244394C0E0D0E01E
:101F8000612C712C10E00F2EF3E03F2EF02D6894A1
:101F9000222421F868010C9FB0010D9F700D1C9F39
:101FA000700D1124D701ED91FC91008CF18DE02D85
:101FB000A80183E793E0099580917303581214C038
:101FC0008091760390E08A159B0571F480917703E8
:101FD00090E08815990541F4B1E05B1241C03E01E3
:101FE000F701C281D381422C2196D70112968D919F
:101FF0009C911397C817D90768F2B2E04B1621F0ED
:10200000E3E04E1699F03EC06C9CB0016D9C700DE3
:102010007C9C700D1124D701ED91FC91048CF58D01
:10202000E02DA6018EE793E009952CC06C9CB001D1
:102030006D9C700D7C9C700D1124D701ED91FC916D
:10204000048CF58DE02DA6018EE793E009951AC06A
:10205000412C18C03E01F701C281D381432CC4CF6B
:10206000E3E7F3E021813281D70117968D919C91AE
:102070001897282739278581968182239323892BD6
:1020800049F3B2CF842DDF91CF911F910F91FF9033
:10209000EF90DF90CF90BF90AF909F908F907F9008
:1020A0006F905F904F903F902F9008952F923F92A6
:1020B0004F925F926F927F928F929F92AF92BF9258
:1020C000CF92DF92EF92FF920F931F93CF93DF9304
:1020D000CDB7DEB729970FB6F894DEBF0FBECDBFE0
:1020E000FC0184818F8310927E03E680962F9E25CB
:1020F000E922F12C9623A92EB12CE114F10439F038
:1021000082819381892B41F491E09983FEC0A114CF
:10211000B104B1F71982F9C08F01558044244A9463
:10212000AFEFAA83B1E0B983812C912C1E821D826E
:102130001C821B82212C312CFF81EF2FF0E0652CBB
:10214000712CF987E887C884D984C89CB001C99CE0
:10215000700DD89C700D1124D801ED91FC91008C6C
:10216000F18DE02DA60183E793E00995809173033B
:10217000882309F461C08130A9F48091760390E04E
:102180008E159F0509F058C08091770390E08A155D
:102190009B0509F051C01401F80182809380F2E0A0
:1021A000F9834AC0E3E7F3E041815281D8011796F1
:1021B0002D913C911897242735274581568124235A
:1021C0003523232BC9F52091760330E02E153F05EA
:1021D00099F52091770330E02A153B0569F5282F02
:1021E00030E02619370941F4140112968D909C9025
:1021F0001397B3E0B98320C0121613066CF4EA817A
:102200004E2F50E0241735073CF4F82FF519FA83C8
:102210009C828B8294E09983332374F4442D50E0A4
:102220005195419551094217530734F4452C481AEA
:102230009E828D82A4E0A983BFEF8B1A9B0AF801CE
:10224000828193818816990608F47DCFF981F33055
:10225000B9F0F43039F1F23009F057C02C9CB001DC
:102260002D9C700D3C9C700D1124D801ED91FC91BA
:10227000048CF58DE02DA6018EE793E0099545C00D
:102280002C9CB0012D9C700D3C9C700D1124D8012C
:10229000ED91FC91048CF58DE02DA6018EE793E085
:1022A000099533C08A8181508E3FB0F4EB81FC8167
:1022B000EC9DB001ED9D700DFC9D700D1124D801B9
:1022C000ED91FC91048CF58DE02DA6018EE793E055
:1022D0000995B9E2B98319C08FEF840D8E3FA8F438
:1022E000ED81FE81EC9DB001ED9D700DFC9D700DAA
:1022F0001124D801ED91FC91048CF58DE02DA601FF
:102300008EE793E00995BAE2B983898129960FB6E1
:10231000F894DEBF0FBECDBFDF91CF911F910F911B
:10232000FF90EF90DF90CF90BF90AF909F908F90F5
:102330007F906F905F904F903F902F9008952F92D5
:102340003F924F925F926F927F928F929F92AF9245
:10235000BF92CF92DF92EF92FF920F931F93CF9392
:10236000DF9300D01F92CDB7DEB74901002309F4F7
:10237000C2C0DC0116961C91362F31271323612E23
:10238000712C63236983262E312C6114710439F07A
:10239000FC0122813381232B39F480E0C4C0211455
:1023A0003104B1F780E0BFC02A019B838A83E480B7
:1023B000F12CC12CD12CA12CB12CAA81BB81ED9187
:1023C000FC91008CF18DE02DA701B60183E793E02D
:1023D0000995809173038823F9F0813081F0081307
:1023E0001BC02091740330917503EA81FB818781C2
:1023F00090858227932788219921892B69F48091E0
:10240000760390E08615970539F48091770390E084
:102410008215930509F471C0FFEFAF1ABF0ACE0C05
:10242000DF1CAA81BB8112968D919C911397A816EF
:10243000B90618F264C0EEE7F3E0C90184259525DA
:10244000882199218223932390878783AA81BB8146
:1024500017962D913C911897242535258222932299
:1024600048205920528641860DC0EEE7F3E0C201B4
:102470008095909588219921908787838420952045
:1024800092868186EA81FB8182819381892B89F101
:1024900000E010E0C12CD12CAA81BB81ED91FC9110
:1024A000008CF18DE02DA701B80183E793E0099539
:1024B0008091730381110FC0AA81BB81ED91FC91C2
:1024C000048CF58DE02DA701602F712F8EE793E02E
:1024D000099582E028C0BFEFCB1ADB0A0E0D1F1D45
:1024E000EA81FB8182819381C816D906A8F283E034
:1024F0001AC081E018C080E016C084E014C0EEE786
:10250000F3E00083AA81BB8117962D913C91189727
:10251000328321831383B981B4839682858202300A
:1025200008F089CFA2CF0F900F900F90DF91CF913D
:102530001F910F91FF90EF90DF90CF90BF90AF90E1
:102540009F908F907F906F905F904F903F902F90D3
:102550000895FC0171836083538342838BE08483FD
:102560001582108617828DEF9DE0938782878FE911
:1025700091E1958784878CE49DE09787868786E53F
:1025800090E1918B808B86E89FE0938B828B82E930
:102590009DE0958B848B8BEE9DE0978B868B8FEEE9
:1025A0009DE0918F808F82EF9DE0938F828F87EFE8
:1025B0009DE0958F848F8AEF9DE0978F868FCF0166
:1025C000089589E290E0089588E990E00895483000
:1025D00008F040E0693008F068E021E030E002C037
:1025E000220F331F6A95E2F7215030E0042E02C01B
:1025F000220F331F0A94E2F7822390E002C09595E0
:1026000087954A95E2F70895292F30E0322F222747
:10261000A901482BCA01089517BA8FEF88BB84BB64
:1026200015BA0895CF93DF93CDB7DEB7C55AD10958
:102630000FB6F894DEBF0FBECDBFEEDF43E250E031
:1026400061E270E082E290E00E94190A29833A83F5
:102650004B835C836D837E838F8398876F807884C0
:102660002BE330E049E350E06AE370E0CE010996E5
:102670009FD98B899C89C556DF4F99838883CB5915
:10268000D040ED88FE882F88388CE98DFA8DCC55A6
:10269000DF4FF983E883C45AD040CB8CDC8CCE0169
:1026A0004F960E9410024BE651E0BE01615E7F4FE3
:1026B000CE01CD964EDFCE01835A9F4F0E94040774
:1026C000AF968EAC9FACAF97EB968EAD9FADEB9770
:1026D000C356DF4F99838883CD59D0406996EEADBC
:1026E000FFAD699760E070E0CE01CD960995CE55BB
:1026F000DF4F19821882C25AD040C056DF4F19826C
:102700001882C05AD040C156DF4F1882CF59D040EE
:10271000512C6894442443F8ED8DFE8D0995ED818C
:10272000FE810995A980BA8016B36EE070E080E062
:1027300090E0F6010995812F90E0F40109959093BE
:10274000DF028093DE0265E0F7010995852D90E0B8
:102750008A30910508F03DC3FC01EA5BFF4F7CC560
:1027600060E070E080E090E0F6010995642D80E182
:1027700091E0F70109956B96EEADFFAD6B97CE0139
:10278000CD96099590E0F40109959093DF0280932E
:10279000DE0263E0F7010995F5018081813451F48F
:1027A000CC55DF4FE881F981C45AD0400995F30137
:1027B0000995B2CF823459F4CC55DF4FE881F981C5
:1027C000C45AD0400995F301099555245394F50155
:1027D0008081833469F4CC55DF4FE881F981C45A94
:1027E000D0400995F30109950F2EF6E05F2EF02DEC
:1027F0002996EEADFFAD2997612FCE01CD960995B3
:10280000E8C260E070E080E090E0F60109956CE0DD
:1028100089E191E0F701099560E070E081E090E0E6
:10282000F601099564E181E291E0F7010995689468
:10283000552451F8CEC267E070E080E090E0F601E8
:10284000099564E0F50181819281F7010995F5010F
:102850008081843441F583819481C356DF4FE881C0
:10286000F981CD59D04009958C01C156DF4F88833D
:10287000CF59D04060E070E082E090E0F601099529
:10288000C8019927F40109959093DF028093DE0235
:10289000C556DF4FE881F981CB59D0400995F30146
:1028A000099593E001C0952DF5018081833409F0ED
:1028B00089C2F30109958DC267E070E080E090E085
:1028C000F601099564E0F50181819281F70109958E
:1028D000F5018081843461F583819481C356DF4F93
:1028E000E881F981CD59D0400995C056DF4F9983D1
:1028F0008883C05AD04065E070E082E090E0F60145
:102900000995C056DF4F88819981C05AD040F401A3
:1029100009959093DF028093DE02C556DF4FE88170
:10292000F981CB59D0400995F301099594E001C094
:10293000952DF5018081833409F046C2F301099594
:1029400048C267E070E080E090E0F601099564E03D
:10295000F50181819281F7010995F5018081843427
:1029600061F583819481C356DF4FE881F981CD59A8
:10297000D0400995CE55DF4F99838883C25AD04005
:102980006AE070E082E090E0F6010995CE55DF4FF5
:1029900088819981C25AD040F40109959093DF0251
:1029A0008093DE02C556DF4FE881F981CB59D040D4
:1029B0000995F301099595E001C0952DF5018081F8
:1029C000833409F003C2F301099503C267E070E0A4
:1029D00080E090E0F601099564E0F5018181928143
:1029E000F7010995F5018081843409F075C0838170
:1029F0009481C356DF4FE881F981CD59D0400995C4
:102A00008C016FE070E082E090E0F6010995C8016A
:102A10009927F40109959093DF028093DE02C55651
:102A2000DF4FE881F981CB59D04009952B96EEAD67
:102A3000FFAD2B97CE55DF4F28813981C25AD04048
:102A4000C056DF4F48815981C05AD040C156DF4F30
:102A50006881CF59D040CE01CD960995823009F1D9
:102A600018F4882331F034C0833039F1843069F0B0
:102A70002FC06CE070E083E090E0F601099567E01C
:102A800085E391E0F701099523C06CE070E083E0F5
:102A900090E0F601099567E08EE391E0F701099572
:102AA00017C06CE070E083E090E0F601099567E004
:102AB00085E491E0F70109950BC06CE070E083E0DC
:102AC00090E0F601099567E08CE491E0F701099543
:102AD000F301099590E001C0952DF50180818334C3
:102AE00009F076C1F301099574C160E070E081E0FE
:102AF00090E0F601099560E181E591E0F701099523
:102B000060E070E082E090E0F601099560E182E625
:102B100091E0F70109950F2EF7E05F2EF02D59C1D6
:102B2000F5018081813381F560E070E081E090E023
:102B3000F601099581E1F101099560E070E082E01C
:102B400090E0F601099581E1F10109956396EEADFA
:102B5000FFAD6397CE01CD9609956D96EEADFFADB5
:102B60006D9760E0CE01CD960995F30109956CE073
:102B700070E083E090E0F601099567E082E791E07C
:102B8000F7010995512C25C18233B1F460E070E062
:102B900081E090E0F601099581E1F101099560E09D
:102BA00070E082E090E0F601099581E1F10109957C
:102BB000F3010995542C0DC18333B1F460E070E04A
:102BC00081E090E0F601099581E1F101099560E06D
:102BD00070E082E090E0F601099581E1F10109954C
:102BE000F3010995512CF5C0843309F0F2C060E07F
:102BF00070E081E090E0F601099581E1F10109952D
:102C000060E070E082E090E0F601099581E1F10179
:102C100009956CE070E083E090E0F6010995AD96CF
:102C20000EAD1FADAD972D96EEADFFAD2D97CE013C
:102C3000CD960995F801099567E0F7010995F3012B
:102C40000995512CC6C060E070E080E090E0F6018C
:102C500009956CE089E191E0F701099560E070E089
:102C600081E090E0F601099564E18AE791E0F701DF
:102C700009950F2EF9E05F2EF02DABC067E070E0F4
:102C800080E090E0F601099564E0F5018181928190
:102C9000F7010995F5018081843409F08BC08381A7
:102CA0009481C356DF4FE881F981CD59D040099511
:102CB0008C01C156DF4F8883CF59D04060E070E06F
:102CC00082E090E0F6010995C8019927F401099581
:102CD0009093DF028093DE02C556DF4FE881F981D1
:102CE000CB59D04009952F96EEADFFAD2F97602FB1
:102CF000CE01CD96099590E08B32910508F057C032
:102D0000FC01E05BFF4FA8C26CE070E083E090E064
:102D1000F601099567E080E891E0F701099547C061
:102D20006CE070E083E090E0F601099567E084E8EC
:102D300091E0F70109953BC06CE070E083E090E022
:102D4000F601099567E08CE891E0F70109952FC03D
:102D50006CE070E083E090E0F601099567E084E9BB
:102D600091E0F701099523C06CE070E083E090E00A
:102D7000F601099567E08CE991E0F701099517C024
:102D80006CE070E083E090E0F601099567E082EA8C
:102D900091E0F70109950BC06CE070E083E090E0F2
:102DA000F601099567E088EA91E0F7010995F301DA
:102DB0000995512CF5018081833459F4F30109956B
:102DC000542C07C0592E05C0592E03C0592E01C0DE
:102DD000592E60E070E083E090E0F601099567E02D
:102DE0008FEA91E0F70109956596EEADFFAD659725
:102DF000CE01CD960995F40109959093DF02809359
:102E0000DE0264E0F70109956596EEADFFAD6597CA
:102E1000CE01CD960995809585BB7ECC5058BB27B9
:102E2000AA270ED008C1F9D030F0FED020F031F43E
:102E30009F3F11F41EF4EEC00EF4E095E7FBE4C0F2
:102E4000E92F0AD180F3BA17620773078407950741
:102E500018F071F49EF522C10EF4E0950B2EBA2FF6
:102E6000A02D0B01B90190010C01CA01A001112490
:102E7000FF27591B99F0593F50F4503E68F11A163C
:102E8000F040A22F232F342F4427585FF3CF4695CD
:102E900037952795A795F0405395C9F77EF41F16EF
:102EA000BA0B620B730B840BBAF09150A1F0FF0FB9
:102EB000BB1F661F771F881FC2F70EC0BA0F621FA5
:102EC000731F841F48F4879577956795B795F79595
:102ED0009E3F08F0B3CF9395880F08F09927EE0F27
:102EE0009795879508956CD008F481E00895BCD03B
:102EF00088F09F5790F0B92F9927B751A0F0D1F0E3
:102F0000660F771F881F991F1AF0BA95C9F712C06C
:102F1000B13081F0C3D0B1E00895C0C0672F782FE1
:102F20008827B85F39F0B93FCCF3869577956795D8
:102F3000B395D9F73EF490958095709561957F4F44
:102F40008F4F9F4F0895E89409C097FB3EF49095EA
:102F50008095709561957F4F8F4F9F4F9923A9F072
:102F6000F92F96E9BB279395F69587957795679501
:102F7000B795F111F8CFFAF4BB0F11F460FF1BC045
:102F80006F5F7F4F8F4F9F4F16C0882311F096E9D8
:102F900011C0772321F09EE8872F762F05C0662386
:102FA00071F096E8862F70E060E02AF09A95660F3F
:102FB000771F881FDAF7880F9695879597F90895F8
:102FC000990F0008550FAA0BE0E8FEEF161617063A
:102FD000E807F907C0F012161306E407F50798F0A2
:102FE000621B730B840B950B39F40A2661F0232BBB
:102FF000242B252B21F408950A2609F4A140A69537
:103000008FEF811D811D089597F99F6780E870E01B
:1030100060E008959FEF80EC089500240A9416164E
:10302000170618060906089500240A9412161306B6
:10303000140605060895092E0394000C11F4882344
:1030400052F0BB0F40F4BF2B11F460FF04C06F5F60
:103050007F4F8F4F9F4F089557FD9058440F551F36
:1030600059F05F3F71F04795880F97FB991F61F00A
:103070009F3F79F087950895121613061406551F81
:10308000F2CF4695F1DF08C0161617061806991FED
:10309000F1CF86957105610508940895E894BB27E2
:1030A00066277727CB0197F908950BD0C4CFB5DFFA
:1030B00028F0BADF18F0952309F0A6CFABCF112482
:1030C000EECFCADFA0F3959FD1F3950F50E0551FC7
:1030D000629FF001729FBB27F00DB11D639FAA276D
:1030E000F00DB11DAA1F649F6627B00DA11D661FBC
:1030F000829F2227B00DA11D621F739FB00DA11DDD
:10310000621F839FA00D611D221F749F3327A00D96
:10311000611D231F849F600D211D822F762F6A2F32
:1031200011249F5750408AF0E1F088234AF0EE0FB7
:10313000FF1FBB1F661F771F881F91505040A9F7C4
:103140009E3F510570F060CFAACF5F3FECF3983EF1
:10315000DCF3869577956795B795F795E7959F5F2B
:10316000C1F7FE2B880F911D9695879597F90895C5
:10317000DB018F939F9388D0BF91AF91A29F800D69
:10318000911DA39F900DB29F900D11240895AA1B2D
:10319000BB1B51E107C0AA1FBB1FA617B70710F042
:1031A000A61BB70B881F991F5A95A9F78095909574
:1031B000BC01CD01089597FB072E16F4009406D0AC
:1031C00077FD08D0E4DF07FC05D03EF490958195AB
:1031D0009F4F0895709561957F4F0895A1E21A2E33
:1031E000AA1BBB1BFD010DC0AA1FBB1FEE1FFF1FAB
:1031F000A217B307E407F50720F0A21BB30BE40BFB
:10320000F50B661F771F881F991F1A9469F7609541
:103210007095809590959B01AC01BD01CF010895FB
:10322000052E97FB16F400940FD057FD05D0D6DF7E
:1032300007FC02D046F408C0509540953095219582
:103240003F4F4F4F5F4F08959095809570956195D2
:103250007F4F8F4F9F4F0895EE0FFF1F0024001CDC
:103260000BBE0790F691E02D0994A29FB001B39F89
:10327000C001A39F700D811D1124911DB29F700D7F
:10328000811D1124911D0895F0DFA59F900DB49F1D
:10329000900DA49F800D911D112408950F931F93ED
:1032A000CF93DF93CDB7DEB72E970FB6F894DEBF7E
:1032B0000FBECDBF8C01FA0186E08C831A8309838F
:1032C00077FF02C060E070E8CB0101979E838D8399
:1032D000A901BF01CE01019619D04D815E8157FD34
:1032E0000AC02F813885421753070CF49A01F80160
:1032F000E20FF31F10822E960FB6F894DEBF0FBEBA
:10330000CDBFDF91CF911F910F9108952F923F92E2
:103310004F925F926F927F928F929F92AF92BF92E5
:10332000CF92DF92EF92FF920F931F93CF93DF9391
:10333000CDB7DEB72B970FB6F894DEBF0FBECDBF6B
:103340006C017B018A01FC0117821682838181FF57
:10335000BFC1CE0101963C01F6019381F70193FDB7
:10336000859193FF81917F01882309F4ADC1853256
:1033700039F493FD859193FF81917F01853221F48A
:10338000B60190E0D6D1E8CF912C212C312CFFE171
:10339000F315D8F08B3279F038F4803279F083323B
:1033A000A1F4232D20611DC08D3261F0803369F4BA
:1033B000232D216016C0832D8260382EE32DE4601A
:1033C0003E2E2AC0F32DF8601DC037FC2DC020ED25
:1033D000280F2A3040F08E32B9F436FC75C1232D07
:1033E0002064322E19C036FE06C08AE0989E200D59
:1033F0001124922E11C0EAE02E9E200D1124222EBF
:10340000F32DF0623F2E08C08C3621F4832D8068A6
:10341000382E02C0883641F4F70193FD859193FF61
:1034200081917F018111B3CF982F9F7D9554933067
:1034300028F40C5F1F4F9FE399830DC0833631F052
:10344000833771F0833509F055C020C0F8018081C1
:1034500089830E5F1F4F88248394912C530112C0DF
:103460002801F2E04F0E511CF801A080B18036FE19
:1034700003C0692D70E002C06FEF7FEFC5014ED130
:103480004C018201F32DFF773F2E15C0280122E069
:10349000420E511CF801A080B18036FE03C0692D98
:1034A00070E002C06FEF7FEFC5012DD14C01F32D0D
:1034B000F0683F2E820133FC19C0822D90E08816FF
:1034C0009906A0F4B60180E290E033D12A94F5CFBA
:1034D000F50137FC859137FE81915F01B60190E0DF
:1034E00028D121102A9421E0821A91088114910494
:1034F00079F7E1C0843611F0893639F5F80137FEE5
:1035000007C060817181828193810C5F1F4F08C069
:1035100060817181072E000C880B990B0E5F1F4F85
:10352000F32DFF763F2E97FF09C0909580957095FB
:1035300061957F4F8F4F9F4FF0683F2E2AE030E01C
:10354000A30133D1882E861844C0853731F4232D4A
:103550002F7EB22E2AE030E025C0932D997FB92E20
:103560008F36C1F018F4883579F0AEC0803719F085
:10357000883721F0A9C0E92FE061BE2EB4FE0DC04E
:10358000FB2DF460BF2E09C034FE0AC0292F26602F
:10359000B22E06C028E030E005C020E130E002C0D5
:1035A00020E132E0F801B7FE07C0608171818281BD
:1035B00093810C5F1F4F06C06081718180E090E0B5
:1035C0000E5F1F4FA301F1D0882E8618FB2DFF77C9
:1035D0003F2E36FE0DC0232D2E7FA22E891458F4C7
:1035E00034FE0BC032FC09C0832D8E7EA82E05C090
:1035F000B82CA32C03C0B82C01C0B92CA4FE0FC05A
:10360000FE01E80DF11D8081803321F49A2D997E11
:10361000A92E09C0A2FE06C0B394B39404C08A2D9B
:10362000867809F0B394A3FC10C0A0FE06C0B214C3
:1036300080F4280C922C9B180DC0B21458F4B601DB
:1036400080E290E076D0B394F8CFB21418F42B183F
:1036500002C0982C212CA4FE0FC0B60180E390E09C
:1036600068D0A2FE16C0A1FC03C088E790E002C0AB
:1036700088E590E0B6010CC08A2D867851F0A1FE55
:1036800002C08BE201C080E2A7FC8DE2B60190E0AF
:1036900050D0891430F4B60180E390E04AD09A9477
:1036A000F8CF8A94F301E80DF11D8081B60190E016
:1036B00040D08110F6CF222009F44ECEB60180E230
:1036C00090E037D02A94F7CFF6018681978102C027
:1036D0008FEF9FEF2B960FB6F894DEBF0FBECDBFD6
:1036E000DF91CF911F910F91FF90EF90DF90CF90DE
:1036F000BF90AF909F908F907F906F905F904F9012
:103700003F902F900895FC0105906150704001108A
:10371000D8F7809590958E0F9F1F0895FC016150FA
:10372000704001900110D8F7809590958E0F9F1FE3
:1037300008950F931F93CF93DF93FB01238121FD06
:1037400003C08FEF9FEF2CC022FF16C04681578128
:10375000248135814217530744F4A081B1819D0132
:103760002F5F3F4F318320838C93268137812F5FDA
:103770003F4F3783268314C08B01EC01FB0100848B
:10378000F185E02D0995892BE1F6D80116968D91EA
:103790009C911797019617969C938E931697CE013E
:1037A000DF91CF911F910F910895FA01AA27283038
:1037B00051F1203181F1E8946F936E7F6E5F7F4FFE
:1037C0008F4F9F4FAF4FB1E03ED0B4E03CD0670F7A
:1037D000781F891F9A1FA11D680F791F8A1F911DCD
:1037E000A11D6A0F711D811D911DA11D20D009F41D
:1037F00068943F912AE0269F11243019305D31935F
:10380000DEF6CF010895462F4770405D4193B3E047
:103810000FD0C9F7F6CF462F4F70405D4A3318F0EE
:10382000495D31FD4052419302D0A9F7EACFB4E09F
:10383000A6959795879577956795BA95C9F7009757
:103840006105710508959B01AC010A2E06945795F8
:10385000479537952795BA95C9F7620F731F841F4F
:10386000951FA01D0895DC01CB01FC01E199FECF5D
:1038700006C0FFBBEEBBE09A31960DB20D924150EF
:103880005040B8F70895E199FECF9FBB8EBBE09AF8
:1038900099278DB30895A8E1B0E042E050E0E5CF6C
:1038A000DC01A40FB51F4150504040F0CB01840F04
:1038B000951F2E9105D041505040D8F70895262FDE
:1038C000E199FECF9FBB8EBBE09A01970DB2021625
:1038D00031F02DBB0FB6F894E29AE19A0FBE08952D
:1038E0000396272FEDDFEBDF252FEADF242FE8CF2C
:1038F0000196272FE5DFE3CFDC01CB0102C02D913C
:1039000005D041505040D8F70895262FE199FECFB9
:103910009FBB8EBB2DBB0FB6F894E29AE19A0FBE07
:1039200001960895242FF2DF252FF0DF00C0EDDF90
:08393000272FECCFF894FFCF24
:103938003132334134353642373839432A3023441B
:1039480052756E6E696E672000456E7465723A2016
:1039580000496E20204F757420204D61736B202024
:10396800506167650064697361626C6564006578BD
:10397800697374730075706C6F61640066756C6C44
:1039880000312D44656C65746520342D7175616E48
:103998007400322D52656D6F766520332D45786938
:1039A800740064656C6574656400496E70757400B4
:1039B8004E6F6E00556E6B6E6F776E0067206C6F82
:1039C800676963006C206C6F676963006C6F636183
:1039D8006C0061626F76650062656C6C6F77004F92
:0839E800757470757420000075
:00000001FF
