S011000041746D6567613132382E7372656329
S1130000DBC00000F8C00000F6C00000F4C000002F
S1130010F2C00000F0C00000EEC00000ECC0000020
S1130020EAC000000C941A39E6C00000E4C00000E5
S1130030E2C00000E0C00000DEC000000C94B33851
S1130040DAC00000D8C000000C948D1A0C94C51AB4
S1130050D2C00000BFC50000CEC00000CCC000006C
S1130060CAC00000C8C00000C6C00000C4C0000070
S1130070C2C00000C0C000000C94E01A0C94181B0D
S1130080BAC00000B8C00000B6C00000B206D7066F
S1130090FC06210746078407C20700084E085608D5
S11300A05E0866086E0876087E0886089E08AF0813
S11300B0C008D108E208F30804091509291131110F
S11300C03911411149115A116B117C118411951187
S11300D0A611B711BF11D011E11118122612341252
S11300E042124D125B12691277128E129C12AA12DE
S11300F0C11247144D14531459145F146814711425
S11301007A148014891492149B14A114AA14B3149D
S1130110D314DF14EA14F61401150D15181524155B
S11301202F153B1546155215A62B8D2D002F333256
S1130130D834B835C83707634236B79BD8A71A39BD
S1130140685618AEBAAB558C1D3CB7CC5763BD6D21
S1130150EDFD753EF6177231BF000000803F0800C8
S11301600000BE922449123EABAAAA2ABECDCCCC32
S11301704C3E00000080BEABAAAAAA3E00000000CC
S1130180BF000000803F0000000000084178D3BB9E
S11301904387D1133D190E3CC3BD4282AD2B3E684B
S11301A0EC8276BED98FE1A93E4C80EFFFBE01C43C
S11301B0FF7F3F000000000011241FBECFEFD0E1FD
S11301C0DEBFCDBF18E0A0E0B1E0EAEDF0E800E06A
S11301D00BBF02C007900D92A23DB107D9F72DE0E5
S11301E0A2EDB8E001C01D92A736B207E1F70E9464
S11301F00C290C946B4004CF882389F0E091C10949
S1130200F091C209208181E090E00090C30902C00E
S1130210880F991F0A94E2F7822B808311C0E09122
S1130220C109F091C209208181E090E00090C309E6
S113023002C0880F991F0A94E2F780958223808375
S1130240E091C109F091C209408181E090E09C01F4
S11302500090C50902C0220F331F0A94E2F7242B31
S11302602083E091C109F091C20920810090C50961
S113027002C0880F991F0A94E2F780958223808335
S11302800895E091C109F091C209408181E090E0B4
S11302909C010090C40902C0220F331F0A94E2F7A4
S11302A0242B2083E091C109F091C20920810090A0
S11302B0C40902C0880F991F0A94E2F7809582232B
S11302C080830895FF920F931F93CF93DF93F82EAB
S11302D0C0E0D0E001E010E0C8010C2E02C0880F9D
S11302E0991F0A94E2F78F2187DF2196C830D10540
S11302F099F7C7DFDF91CF911F910F91FF90089578
S1130300FF920F931F93CF93DF93F82EC7E0D0E0B3
S113031001E010E0C8010C2E02C0880F991F0A9456
S1130320E2F78F2169DF2197A8F7ABDFDF91CF9147
S11303301F910F91FF9008950F93CF93DF93CDB743
S1130340DEB728970FB6F894DEBF0FBECDBF9093EB
S1130350C0098093BF097093C2096093C109409397
S1130360C3092093C5090093C409FC01308161E0ED
S113037070E0DB0102C0AA0FBB1F2A95E2F7FB0164
S113038002C0EE0FFF1F0A95E2F7EA2B02C0660FC8
S1130390771F4A95E2F76E2B232F262BFC0120832F
S11303A0E091C109F091C20980816095682360835E
S11303B02CEF30E03A83298342E651E05C834B839F
S11303C060E871E07E836D8381E491E098878F8398
S11303D03A815C817E81988528960FB6F894DEBFB9
S11303E00FBECDBFDF91CF910F9108958636910551
S11303F009F41FC108F05FC08231910509F4EBC113
S113040080F58B30910509F432C1B8F4833091053D
S113041009F4DDC040F48130910509F4C4C00297A9
S113042009F4CBC096C28530910509F4E4C008F400
S1130430D8C00A9709F4E9C08CC28E30910509F43A
S113044098C140F48C30910509F41BC10D9709F44F
S113045068C17FC28031910509F4A9C108F49DC126
S1130460B0C18931910509F4FCC188F48531910545
S113047009F4CFC140F48331910509F4B6C144971E
S113048009F4BDC166C2489708F0E1C16BC28D3161
S1130490910509F4FAC120F44B9709F4ECC162C246
S11304A08F31910509F4FBC108F45CC285369105CE
S11304B009F4B5C04EC282399105E8F58D3891052D
S11304C008F050C28C37910509F403C1C8F4893689
S11304D0910509F4CCC048F48736910509F4B3C0FA
S11304E08836910509F4B9C034C28A37910509F4F4
S11304F0DCC008F0E4C08937910509F4CCC029C2F6
S11305008F37910509F403C148F48D37910509F437
S1130510EAC08E37910509F4F0C01BC284389105F6
S113052009F413C18538910509F419C1833891057B
S113053009F00FC200C1823223E0920709F4C3C15B
S1130540B0F48539910528F48339910508F41BC169
S113055009C2843D910509F470C1813223E09207F8
S113056009F4A7C1833D910509F0F3C15CC1863844
S113057023E0920709F4C5C150F4833223E09207C3
S113058009F4ABC18538934009F4B1C1E2C188389C
S113059023E0920709F4C9C108F4BDC18938934026
S11305A009F4CDC1D6C185E0E8E3F1E0A6ECB9E0F9
S11305B001900D928A95E1F7D5C18DE0E0E1F1E07B
S11305C0A6ECB9E001900D928A95E1F7CBC18AE0DF
S11305D0EDE1F1E0A6ECB9E001900D928A95E1F726
S11305E0C1C189E0E7E2F1E0A6ECB9E001900D9227
S11305F08A95E1F7B7C18DE0E0E3F1E0A6ECB9E05C
S113060001900D928A95E1F7ADC18AE0EDE3F1E046
S1130610A6ECB9E001900D928A95E1F7A3C18BE0B5
S1130620E7E4F1E0A6ECB9E001900D928A95E1F7D8
S113063099C18BE0E2E5F1E0A6ECB9E001900D92FE
S11306408A95E1F78FC18BE0EDE5F1E0A6ECB9E026
S113065001900D928A95E1F785C18BE0E8E6F1E01F
S1130660A6ECB9E001900D928A95E1F77BC18BE08D
S1130670E3E7F1E0A6ECB9E001900D928A95E1F789
S113068071C18AE0EEE7F1E0A6ECB9E001900D92C9
S11306908A95E1F767C18BE0E8E8F1E0A6ECB9E000
S11306A001900D928A95E1F75DC18BE0E3E9F1E0F9
S11306B0A6ECB9E001900D928A95E1F753C18BE065
S11306C0EEE9F1E0A6ECB9E001900D928A95E1F72C
S11306D049C18BE0E9EAF1E0A6ECB9E001900D92A2
S11306E08A95E1F73FC18BE0E4EBF1E0A6ECB9E0D9
S11306F001900D928A95E1F735C18BE0EFEBF1E0C3
S1130700A6ECB9E001900D928A95E1F72BC18BE03C
S1130710EAECF1E0A6ECB9E001900D928A95E1F7DC
S113072021C18AE0E5EDF1E0A6ECB9E001900D927B
S11307308A95E1F717C18BE0EFEDF1E0A6ECB9E0A3
S113074001900D928A95E1F70DC18BE0EAEEF1E09C
S1130750A6ECB9E001900D928A95E1F703C18BE014
S1130760E5EFF1E0A6ECB9E001900D928A95E1F78E
S1130770F9C08AE0E0E0F2E0A6ECB9E001900D9265
S11307808A95E1F7EFC08BE0EAE0F2E0A6ECB9E08D
S113079001900D928A95E1F7E5C08AE0E5E1F2E087
S11307A0A6ECB9E001900D928A95E1F7DBC08AE0EE
S11307B0EFE1F2E0A6ECB9E001900D928A95E1F741
S11307C0D1C08DE0E9E2F2E0A6ECB9E001900D922F
S11307D08A95E1F7C7C08BE0E6E3F2E0A6ECB9E066
S11307E001900D928A95E1F7BDC08BE0E1E4F2E05F
S11307F0A6ECB9E001900D928A95E1F7B3C08BE0C5
S1130800ECE4F2E0A6ECB9E001900D928A95E1F7F0
S1130810A9C089E0E7E5F2E0A6ECB9E001900D9209
S11308208A95E1F79FC08AE0E0E6F2E0A6ECB9E041
S113083001900D928A95E1F795C08AE0EAE6F2E02C
S1130840A6ECB9E001900D928A95E1F78BC08AE09D
S1130850E4E7F2E0A6ECB9E001900D928A95E1F7A5
S113086081C08DE0EEE7F2E0A6ECB9E001900D92D4
S11308708A95E1F777C08AE0EBE8F2E0A6ECB9E00C
S113088001900D928A95E1F76DC08BE0E5E9F2E005
S1130890A6ECB9E001900D928A95E1F763C08AE075
S11308A0E0EAF2E0A6ECB9E001900D928A95E1F756
S11308B059C08FE0EAEAF2E0A6ECB9E001900D92AB
S11308C08A95E1F74FC08FE0E9EBF2E0A6ECB9E0DE
S11308D001900D928A95E1F745C08FE0E8ECF2E0D3
S11308E0A6ECB9E001900D928A95E1F73BC08EE049
S11308F0E7EDF2E0A6ECB9E001900D928A95E1F7FC
S113090031C08FE0E5EEF2E0A6ECB9E001900D9283
S11309108A95E1F727C08FE0E4EFF2E0A6ECB9E0B6
S113092001900D928A95E1F71DC08FE0E3E0F3E0BA
S1130930A6ECB9E001900D928A95E1F713C08FE01F
S1130940E2E1F3E0A6ECB9E001900D928A95E1F7BB
S113095009C085E0E8E3F1E0A6ECB9E001900D926E
S11309608A95E1F786EC99E00895E091EC09F0911D
S1130970ED09228126FD02C020642283FC01EE0FD2
S1130980FF1FE95EF64F808191810895EF92FF92F7
S11309900F931F93CF93DF93CDB7DEB7C255D10921
S11309A00FB6F894DEBF0FBECDBF6C960FAD6C973B
S11309B06D961FAD6D976F96EEACFFAC6F97C70148
S11309C08F7199279093E7098093E6091092D608CE
S11309D01092D5081092D208CE0101968AD482E5ED
S11309E0FE013196A8EEB9E001900D928A95E1F7E7
S11309F0E091EC09F091ED0983818F7383830130D9
S1130A0019F0033051F012C0E091EC09F091ED09B6
S1130A1083818064838341E00AC0E091EC09F09112
S1130A20ED098381806C838343E001C040E0E09161
S1130A30EC09F091ED0983818F7D83831E141F04DB
S1130A4094F4DE01A15ABF4F80E090E02D913D91D6
S1130A50FC01EE0FFF1FE952F74F3183208301960B
S1130A60E816F90699F7E8EEF9E0A481B581139642
S1130A708C911397807E13968C93A091D508B09196
S1130A80D608AA0FBB1FA952B74F8D919C91A48180
S1130A90B5818F71992713969C911397892B13967F
S1130AA08C93A481B58112968C91129780681296CA
S1130AB08C93A481B58112968C91129780641296BE
S1130AC08C93A481B58112968C9112978F7D129686
S1130AD08C93A481B58112968C911297886012969A
S1130AE08C930480F581E02D8281887F828310318C
S1130AF061F140F41430B9F01830F1F0123009F01B
S1130B0048C008C0103499F11038D1F1103209F0FE
S1130B1040C024C0E091EC09F091ED09828181602C
S1130B20828322E03EC0E091EC09F091ED098281DC
S1130B308260828324E035C0E091EC09F091ED09F4
S1130B4082818360828328E02CC0E091EC09F091DB
S1130B50ED0982818460828320E123C0E091EC0965
S1130B60F091ED0982818560828320E21AC0E091D0
S1130B70EC09F091ED0982818660828320E411C042
S1130B80E091EC09F091ED0982818760828320E88D
S1130B9008C0E091EC09F091ED09828187608283BD
S1130BA020E8E091F209F091F30983858068838756
S1130BB0642F722F85EB94E0CE5ADF4F0FB6F89472
S1130BC0DEBF0FBECDBFDF91CF911F910F91FF907C
S1130BD0EF9008951F920F920FB60F9211240BB647
S1130BE00F922F933F934F935F936F937F938F93C2
S1130BF09F93AF93BF93EF93FF93E091EC09F09130
S1130C00ED09808191815CD390933B0A80933A0AE9
S1130C102091D208243080F42091D2082F5F2093B1
S1130C20D2082091D3083091D408820F931F909357
S1130C30D4088093D3084DC0E091D508F091D6082C
S1130C408091D3089091D40895958795959587952B
S1130C50EE0FFF1FE95EF64F918380831092D40854
S1130C601092D3081092D2082091D5083091D6085A
S1130C708091E6099091E7092817390754F4809187
S1130C80D5089091D60801969093D6088093D508FC
S1130C9004C01092D6081092D508A8EEB9E01496B4
S1130CA0ED91FC9115978381807E8383E091D50833
S1130CB0F091D608EE0FFF1FE952F74F8081918122
S1130CC01496ED91FC9115978F7199279381892B37
S1130CD08383FF91EF91BF91AF919F918F917F910A
S1130CE06F915F914F913F912F910F900BBE0F9099
S1130CF00FBE0F901F901895E091460AF091470A95
S1130D008081982F9F71943099F028F4913041F0AC
S1130D10923051F019C0983079F0903189F014C0B4
S1130D208E7F808380E008958D7F808381E00895A5
S1130D308B7F808382E00895877F808383E008959A
S1130D408F7E808384E00895807E808380E0089590
S1130D5090E08830910508F091C1FC01EA5BFF4FF7
S1130D600C94453DECE3FAE0A685B78511968C9189
S1130D7011978E7F11968C930684F785E02D8289D6
S1130D808C7F623021F0633029F0828B05C0826051
S1130D90828B02C08360828B818181608183E09138
S1130DA0460AF091470A8385806883870895ECE3B7
S1130DB0FAE0A685B78511968C9111978D7F1196CF
S1130DC08C930684F785E02D8289837F623021F03D
S1130DD0633029F0828B05C08860828B02C08C60EE
S1130DE0828B818182608183E091460AF091470A77
S1130DF08385806883870895ECE3FAE0A685B78548
S1130E0011968C9111978B7F11968C930684F7859C
S1130E10E02D82898F7C623021F0633029F0828B4F
S1130E2005C08062828B02C08063828B8181846072
S1130E308183E091460AF091470A8385806883871D
S1130E400895ECE3FAE0A685B78511968C91119785
S1130E50877F11968C930684F785E02D82898F73A2
S1130E60623021F0633029F0828B05C08068828B68
S1130E7002C0806C828B818188608183E091460A04
S1130E80F091470A8385806883870895ECE3FAE04C
S1130E90A685B78511968C9111978F7E11968C93A8
S1130EA00684F785E02D82818C7F8283623061F035
S1130EB0633091F06130B9F4E0914A0AF0914B0A41
S1130EC08281816082830FC0E0914A0AF0914B0ACB
S1130ED082818260828307C0E0914A0AF0914B0AC2
S1130EE0828183608283ECE3FAE0A685B78511965C
S1130EF08C911197806111968C930284F385E02D77
S1130F008385806883870895ECE3FAE0A685B78536
S1130F1011968C9111978F7D11968C930684F78589
S1130F20E02D8281837F8283623061F0633091F0AF
S1130F306130B9F4E0914A0AF0914B0A82818460ED
S1130F4082830FC0E0914A0AF0914B0A8281886043
S1130F50828307C0E0914A0AF0914B0A82818C6037
S1130F608283ECE3FAE0A685B78511968C911197FC
S1130F70806211968C930284F385E02D83858068CA
S1130F8083870895ECE3FAE0A685B78511968C91E2
S1130F9011978F7B11968C930684F785E02D8281BF
S1130FA08F7C8283623061F0633091F06130B9F4F8
S1130FB0E0914A0AF0914B0A8281806182830FC0DA
S1130FC0E0914A0AF0914B0A82818062828307C0D1
S1130FD0E0914A0AF0914B0A828180638283ECE3B8
S1130FE0FAE0A685B78511968C91119780641196C5
S1130FF08C930284F385E02D83858068838708952C
S1131000ECE3FAE0A685B78511968C9111978F775A
S113101011968C930684F785E02D82818F738283E9
S1131020623061F0633091F06130B9F4E0914A0AC2
S1131030F0914B0A8281806482830FC0E0914A0A56
S1131040F0914B0A82818068828307C0E0914A0A4A
S1131050F0914B0A8281806C8283ECE3FAE0A685EE
S1131060B78511968C911197806811968C930284A0
S1131070F385E02D8385806883870895E0914A0A8B
S1131080F0914B0A1182089590E08830910508F0A0
S113109045C0FC01E25BFF4F0C94453DE0914A0AD8
S11310A0F0914B0A81818E7F81830895E0914A0AF1
S11310B0F0914B0A81818D7F81830895E0914A0AE2
S11310C0F0914B0A81818B7F81830895E0914A0AD4
S11310D0F0914B0A8181877F81830895E0914A0AC8
S11310E0F0914B0A81818F7E81830895E0914A0AB1
S11310F0F0914B0A81818F7D81830895E0914A0AA2
S1131100F0914B0A81818F7B81830895E0914A0A93
S1131110F0914B0A81818F7781830895E0914A0A87
S1131120F0914B0A1182089590E08830910508F0FF
S11311308CC0FC01EA5AFF4F0C94453DECE3FAE005
S1131140A685B78511968C911197816011968C9321
S11311500284F385E02D8385806883870895ECE31A
S1131160FAE0A685B78511968C9111978260119645
S11311708C930284F385E02D8385806883870895AA
S1131180ECE3FAE0A685B78511968C9111978460FB
S113119011968C930284F385E02D83858068838780
S11311A00895ECE3FAE0A685B78511968C91119722
S11311B0886011968C930284F385E02D8385806882
S11311C083870895ECE3FAE0A685B78511968C91A0
S11311D01197806111968C930284F385E02D8385A9
S11311E0806883870895ECE3FAE0A685B7851196B5
S11311F08C911197806211968C930284F385E02D73
S11312008385806883870895ECE3FAE0A685B78533
S113121011968C911197806411968C930284F385B6
S1131220E02D8385806883870895ECE3FAE0A68542
S1131230B78511968C911197806811968C930284CE
S1131240F385E02D8385806883870895CF93DF93AA
S1131250CDB7DEB7CA55D1090FB6F894DEBF0FBEBD
S1131260CDBFCE01099645D082E5FE013996ACE3A7
S1131270BAE001900D928A95E1F7E0914A0AF09163
S11312804B0A118228EA36E03A83298344E458E081
S11312905C834B8364E978E07E836D838CE796E01E
S11312A098878F833A815C817E819885C65ADF4F07
S11312B00FB6F894DEBF0FBECDBFDF91CF91089576
S11312C0292F30E0322F2227A901482BCA01089583
S11312D0282F30E0322F2227A901492BCA01089573
S11312E00895282F892F922F0895982789279827C2
S11312F00895FC011182108288E290E09383828336
S113130084E290E09583848386EC94E097838683DB
S113131088E690E09187808784E590E093878287D0
S11313208CE390E09587848788E590E097878687AB
S113133086E299E0918B808B89E390E0938B828B9A
S113134086E390E0958B848B83E390E0978B868B88
S113135080E390E0918F808F81E290E0938F828F81
S113136080E290E0958F848F83E690E0978F868F5C
S113137082E490E091A380A380E490E093A382A30D
S11313802DE230E035A324A322E83AE037A326A3D4
S113139091A780A729EE30E133A722A795A784A7B8
S11313A028E034E137A726A723E430E031AB20ABB3
S11313B020E533E133AB22AB95AB84AB81E390E121
S11313C097AB86AB80E790E091AF80AF87E596E17D
S11313D093AF82AF89E290E095AF84AF85E897E15F
S11313E097AF86AFDF01A05CBF4F88E990E011960C
S11313F09C938E93129687E199E111969C938E9318
S1131400129681E490E011969C938E93149680E654
S113141099E011969C938E93129688E699E0119622
S11314209C938E93129680E799E011969C938E93E9
S1131430129681E799E011969C938E93129685E714
S113144099E08D939C93CF0108950F931F93CF93AD
S1131450DF93442319F1FC01062F172F415050E06C
S11314604F5F5F4F480F591F2EE83AE0D901949619
S1131470CD91DC91959791919A8394960D90BC911E
S1131480A02D11969C9111979923F4F712969C9193
S1131490E80199938E01E417F50741F7DF91CF91A5
S11314A01F910F910895CF93DF936623D1F0FC0130
S11314B06150262F30E02F5F3F4F280F391FAEE8D1
S11314C0BAE09496CD91DC91959791919A839496F4
S11314D0CD91DC91959799819923F4F7E217F3075D
S11314E081F7DF91CF910895EEE8FAE0A4A1B5A1C8
S11314F012968C9304A0F5A1E02D81818823F4F742
S113150082810895EF92FF920F931F93CF93DF93FD
S1131510CDB7DEB7C855D1090FB6F894DEBF0FBEFC
S1131520CDBFF82EE62E042F122FCE010796E1DE52
S113153082E5FE013796AEE8BAE001900D928A95F5
S1131540E1F7E091A20AF091A30A8181807F81836F
S1131550FF20C9F081E0F81224C0EEE8FAE0A4A16B
S1131560B5A18C9180618C93A489B58911968C91D5
S11315701197876011968C930488F589E02D8281F8
S1131580816082831BC0EEE8FAE0A4A1B5A18C912E
S113159080618C930488F589E02D81818860818342
S11315A00DC0EEE8FAE0A4A1B5A18C9180618C9302
S11315B00488F589E02D818187608183EE2059F0CC
S11315C081E0E81210C0E091B20AF091B30A808180
S11315D0806280830FC0E091B20AF091B30A8081E7
S11315E08F7D808307C0E091B20AF091B30A8081B5
S11315F08F7D8083013071F028F0023099F0033040
S1131600C9F020C0E091B20AF091B30A8081837FCF
S113161080831FC0E091B20AF091B30A8081846094
S1131620808317C0E091B20AF091B30A8081886088
S113163080830FC0E091B20AF091B30A80818C607C
S1131640808307C0E091B20AF091B30A8081837F5E
S11316508083103109F446C040F4143009F1183085
S113166081F1123009F082C00AC0103409F45CC060
S1131670103809F46AC0103209F078C044C0EEE8AA
S1131680FAE0A4A1B5A111968C91119781601196ED
S11316908C9304A0F5A1E02D80818C7F808376C09B
S11316A0EEE8FAE0A4A1B5A111968C9111978E7F72
S11316B011968C9304A0F5A1E02D80818C7F80830A
S11316C065C0EEE8FAE0A4A1B5A111968C9111973A
S11316D0816011968C9304A0F5A1E02D8081816036
S11316E0808354C0EEE8FAE0A4A1B5A111968C91D0
S11316F011978E7F11968C9304A0F5A1E02D808123
S11317008160808343C0EEE8FAE0A4A1B5A11196FC
S11317108C911197816011968C9304A0F5A1E02D12
S113172080818260808332C0EEE8FAE0A4A1B5A192
S113173011968C9111978E7F11968C9304A0F5A12C
S1131740E02D80818260808321C0EEE8FAE0A4A1CC
S1131750B5A111968C911197817011968C9304A068
S1131760F5A1E02D80818360808310C0EEE8FAE06B
S1131770A4A1B5A111968C911197816011968C93B7
S113178004A0F5A1E02D808181608083E091B20AFC
S1131790F091B30A80818064808325E23AE03A8341
S11317A0298343E55AE05C834B8364E77AE07E83D4
S11317B06D833A815C817E8180E090E0C85ADF4F7E
S11317C00FB6F894DEBF0FBECDBFDF91CF911F914E
S11317D00F91FF90EF9008952091350B211163C074
S11317E0E091150BF091160B2389287F238B80340D
S11317F0910579F150F488309105D9F08032910542
S113180001F1019709F045C00CC0811521E0920750
S113181081F1811524E09207A1F180389105C9F581
S113182020C0E091150BF091160B83898160838BA6
S113183037C0E091150BF091160B83898260838B7E
S11318402FC0E091150BF091160B83898360838B75
S113185027C0E091150BF091160B83898460838B6C
S11318601FC0E091150BF091160B83898560838B63
S113187017C0E091150BF091160B83898660838B5A
S11318800FC0E091150BF091160B83898760838B51
S113189007C0E091150BF091160B83898760838B49
S11318A085E58093350B8091350B0895E091150BF8
S11318B0F091160B93899F7C938B823091F0833047
S11318C0F1F0813049F5E1EEFAE0A489B58980E1CF
S11318D011968C9304A8F5A9E02D83898061838BEC
S11318E00895E1EEFAE0A489B58980E111968C931C
S11318F004A8F5A9E02D83898062838B0895E1EE25
S1131900FAE0A489B58980E111968C9304A8F5A91D
S1131910E02D83898063838B0895E091150BF0910A
S1131920160B818B0895E091150BF091160B8389AA
S1131930887F838B1092350B80E008952091E00A14
S1131940211161C0E091090BF0910A0B2685287FD3
S1131950268788309105E9F040F486309105C9F175
S113196008F03FC0019769F044C0811521E0920757
S113197001F1811524E0920721F180349105C9F524
S113198010C0E091090BF0910A0B8685816086876F
S113199037C0E091090BF0910A0B86858260868737
S11319A02FC0E091090BF0910A0B8685836086872E
S11319B027C0E091090BF0910A0B86858460868725
S11319C01FC0E091090BF0910A0B8685856086871C
S11319D017C0E091090BF0910A0B86858660868713
S11319E00FC0E091090BF0910A0B8685876086870A
S11319F007C0E091090BF0910A0B86858560868704
S1131A0085E58093E00A8091E00A0895E091090B4E
S1131A10F0910A0B97859F7397878230A9F08330E2
S1131A2021F1813091F5E1EEFAE0A489B5891196AE
S1131A308C911197806211968C9300A4F1A5E02DEE
S1131A408785806487870895E1EEFAE0A489B589E3
S1131A5011968C911197806211968C9300A4F1A534
S1131A60E02D8785806887870895E1EEFAE0A489F0
S1131A70B58911968C911197806211968C9300A46C
S1131A80F1A5E02D8785806C87870895E091090B87
S1131A90F0910A0B97859F7C97878230A9F0833059
S1131AA021F1813091F5E1EEFAE0A489B58911962E
S1131AB08C911197806411968C9300A4F1A5E02D6C
S1131AC08785806187870895E1EEFAE0A489B58966
S1131AD011968C911197806411968C9300A4F1A5B2
S1131AE0E02D8785806287870895E1EEFAE0A48976
S1131AF0B58911968C911197806411968C9300A4EA
S1131B00F1A5E02D8785806387870895E091090B0F
S1131B10F0910A0B9785937F97878230A9F08330E1
S1131B2021F1813091F5E1EEFAE0A489B5891196AD
S1131B308C911197806811968C9300A4F1A5E02DE7
S1131B408785846087870895E1EEFAE0A489B589E2
S1131B5011968C911197806811968C9300A4F1A52D
S1131B60E02D8785886087870895E1EEFAE0A489EF
S1131B70B58911968C911197806811968C9300A465
S1131B80F1A5E02D87858C6087870895CF93DF9337
S1131B90C091090BD0910A0BE0912F0BF091300BFF
S1131BA009959B878A87DF91CF910895CF93DF931F
S1131BB0C091090BD0910A0BE0912F0BF091300BDF
S1131BC0099599878887DF91CF910895CF93DF9303
S1131BD0C091090BD0910A0BE0912F0BF091300BBF
S1131BE0099599AF88AFDF91CF910895E091090BE2
S1131BF0F0910A0B8685887F86871092E00A80E040
S1131C0008952091340B211161C0E091110BF091E2
S1131C10120B2281287F228388309105E9F040F459
S1131C2086309105C9F108F03FC0019769F044C0BE
S1131C30811521E0920701F1811524E0920721F139
S1131C4080349105C9F510C0E091110BF091120B8D
S1131C5082818160828337C0E091110BF091120B75
S1131C608281826082832FC0E091110BF091120B6C
S1131C7082818360828327C0E091110BF091120B63
S1131C808281846082831FC0E091110BF091120B5A
S1131C9082818560828317C0E091110BF091120B51
S1131CA08281866082830FC0E091110BF091120B48
S1131CB082818760828307C0E091110BF091120B3F
S1131CC082818560828385E58093340B8091340B17
S1131CD00895E091110BF091120B92819F7C9283F5
S1131CE08230A9F0833021F1813091F5E1EEFAE000
S1131CF0A489B58911968C911197806811968C935B
S1131D0000A8F1A9E02D8281806182830895E1EE2B
S1131D10FAE0A489B58911968C911197806811967F
S1131D208C9300A8F1A9E02D8281806282830895BA
S1131D30E1EEFAE0A489B58911968C911197806837
S1131D4011968C9300A8F1A9E02D8281806382838F
S1131D500895E091110BF091120B80830895E091A6
S1131D60110BF091120B8281887F82831092340BC5
S1131D7080E008959C018091330B811154C04091FF
S1131D800D0B50910E0BFA01E65BFF4F9081987F8B
S1131D90908328303105D9F040F42630310579F1AB
S1131DA0A0F52130310569F036C0211581E03807EE
S1131DB0D1F0211584E03807E1F02034310559F5DC
S1131DC00CC0FA01E65BFF4F9160908329C0FA01D1
S1131DD0E65BFF4F9260908323C0FA01E65BFF4FFE
S1131DE0936090831DC0FA01E65BFF4F946090837B
S1131DF017C0FA01E65BFF4F9560908311C0FA01AA
S1131E00E65BFF4F966090830BC0FA01E65BFF4FE1
S1131E109760908305C0FA01E65BFF4F956090835D
S1131E2085E58093330B8091330B0895E0910D0B7E
S1131E30F0910E0BE55BFF4F90819F73908382308E
S1131E40B9F0833041F18130C1F5E1EEFAE0A28DC1
S1131E50B38D11968C911197886011968C9304A47C
S1131E60F5A5E02DE55BFF4F8081806480830895B4
S1131E70E1EEFAE0A28DB38D11968C9111978860F2
S1131E8011968C9304A4F5A5E02DE55BFF4F8081AA
S1131E90806880830895E1EEFAE0A28DB38D1196F7
S1131EA08C911197886011968C9304A4F5A5E02D6C
S1131EB0E55BFF4F8081806C80830895E0910D0B7A
S1131EC0F0910E0BE55BFF4F90819F7C90838230F5
S1131ED0B9F0833041F18130C1F5E1EEFAE0A28D31
S1131EE0B38D11968C911197806111968C9304A4F3
S1131EF0F5A5E02DE55BFF4F808180618083089527
S1131F00E1EEFAE0A28DB38D11968C911197806168
S1131F1011968C9304A4F5A5E02DE55BFF4F808119
S1131F20806280830895E1EEFAE0A28DB38D11966C
S1131F308C911197806111968C9304A4F5A5E02DE2
S1131F40E55BFF4F8081806380830895E0910D0BF2
S1131F50F0910E0BE55BFF4F9081937F908382306D
S1131F60B9F0833041F18130C1F5E1EEFAE0A28DA0
S1131F70B38D11968C911197806211968C9304A461
S1131F80F5A5E02DE55BFF4F808184608083089593
S1131F90E1EEFAE0A28DB38D11968C9111978062D7
S1131FA011968C9304A4F5A5E02DE55BFF4F808189
S1131FB0886080830895E1EEFAE0A28DB38D1196D6
S1131FC08C911197806211968C9304A4F5A5E02D51
S1131FD0E55BFF4F80818C6080830895CF93DF930E
S1131FE0C0910D0BD0910E0BCA5BDF4FE0912F0B0C
S1131FF0F091300B099599838883DF91CF910895EF
S1132000CF93DF93C0910D0BD0910E0BCC5BDF4FC0
S1132010E0912F0BF091300B099599838883DF9120
S1132020CF910895CF93DF93C0910D0BD0910E0BF8
S1132030CE5BDF4FE0912F0BF091300B0995998324
S11320408883DF91CF910895E0910D0BF0910E0BF1
S1132050E65BFF4F8081887F80831092330B80E0A2
S11320600895EF92FF920F931F93CF93DF93CDB711
S1132070DEB7C255D1090FB6F894DEBF0FBECDBF8F
S11320808C01E62EF42ECE01019633D982E5FE01B1
S11320903196A1EEBAE001900D928A95E1F7109283
S11320A0350BE091150BF091160B8389877B838B9D
S11320B082E0E81671F0E3E0EE1699F0F1E0EF1239
S11320C017C0E091150BF091160B83898064838B04
S11320D00FC0E091150BF091160B83898860838BF8
S11320E007C0E091150BF091160B83898864838BEC
S11320F0E1EEFAE0A4A9B5A957968C9157978E7F83
S113210057968C9304A8F5A9E02D87898D7F878B3A
S113211082E0F816B9F0E3E0FE1629F1F1E0FF12CF
S113212032C0E1EEFAE0A4A9B5A957968C9157976D
S1132130816057968C930284F385E02D83858068B3
S1132140838721C0E1EEFAE0A4A9B5A957968C9142
S11321505797826057968C930284F385E02D83858C
S11321608068838710C0E1EEFAE0A4A9B5A9579668
S11321708C915797836057968C930284F385E02D56
S1132180838580688387E091150BF091160B8FEFA0
S1132190818B86E59CE0F801918380838DE89CE047
S11321A0978386838CEE9BE09587848783E99CE004
S11321B097878687C801CE5ADF4F0FB6F894DEBFE3
S11321C00FBECDBFDF91CF911F910F91FF90EF9084
S11321D00895AF92BF92CF92DF92EF92FF920F9346
S11321E01F93CF93DF93CDB7DEB7C255D1090FB696
S11321F0F894DEBF0FBECDBF8C01E62EF42ECE01C7
S1132200019677D882E5FE013196A1EEBAE00190FD
S11322100D928A95E1F71092E00AE1EEFAE0A0A5AA
S1132220B1A51F968C911F978C7F1F968C9300A449
S1132230F1A5E02D8685877E86878E2D90E0FC01B2
S11322403197EF30F10508F0CCC0E25AFF4F0C94FF
S1132250453DE091090BF0910A0B878581608787E2
S1132260C0C0E091090BF0910A0B878582608787D3
S1132270B8C0E091090BF0910A0B878583608787CA
S1132280B0C0E091090BF0910A0B868588608687BF
S1132290A8C0E1EEFAE0A0A5B1A51F968C911F9706
S11322A081601F968C9300A4F1A5E02D868588603B
S11322B0868797C0E1EEFAE0A0A5B1A51F968C91A0
S11322C01F9782601F968C9300A4F1A5E02D86854C
S11322D08860868786C0E1EEFAE0A0A5B1A51F96C6
S11322E08C911F9783601F968C9300A4F1A5E02D19
S11322F086858860868775C0E091090BF0910A0B8A
S11323008685806186876DC0E1EEFAE0A0A5B1A55F
S11323101F968C911F9781601F968C9300A4F1A542
S1132320E02D8685806186875CC0E1EEFAE0A0A599
S1132330B1A51F968C911F9782601F968C9300A461
S1132340F1A5E02D8685806186874BC0E1EEFAE039
S1132350A0A5B1A51F968C911F9783601F968C939F
S113236000A4F1A5E02D8685806186873AC0E091BE
S1132370090BF0910A0B86858861868732C0E1EEED
S1132380FAE0A0A5B1A51F968C911F9781601F96B6
S11323908C9300A4F1A5E02D86858861868721C0F1
S11323A0E1EEFAE0A0A5B1A51F968C911F9782607B
S11323B01F968C9300A4F1A5E02D868588618687FD
S11323C010C0E1EEFAE0A0A5B1A51F968C911F976D
S11323D083601F968C9300A4F1A5E02D8685886107
S11323E08687E1EEFAE0A0A5B1A51F968C911F9710
S11323F083701F968C93A0A5B1A557968C9157977F
S1132400837C57968C93A0A5B1A5DD968C91DD971E
S11324108E7FDD968C93DD974F2D50E0FA01319736
S1132420EC30F10508F0C3C0E359FF4F0C94453D6F
S113243057968C915797846057968C93E091EB0A4A
S1132440F091EC0A838580688387B1C057968C919C
S11324505797806157968C93E091EB0AF091EC0AC0
S1132460838580688387A3C057968C91579788602B
S113247057968C93E091EB0AF091EC0A838580687F
S1132480838795C08160DD968C93E091EB0AF0918F
S1132490EC0A8385806883878AC057968C91579706
S11324A0806257968C93E091EB0AF091EC0A838555
S11324B0806883877CC057968C9157978461579620
S11324C08C93E091EB0AF091EC0A83858068838712
S11324D06EC057968C9157978C6057968C93E09169
S11324E0EB0AF091EC0A83858068838760C0579675
S11324F08C915797846057968C93E1EEFAE0A0A5EF
S1132500B1A5DD968C91DD978160DD968C93028474
S1132510F385E02D83858068838749C057968C9125
S11325205797846257968C93E091EB0AF091EC0AEA
S11325308385806883873BC057968C9157978C61BD
S113254057968C93E091EB0AF091EC0A83858068AE
S113255083872DC057968C9157978C6157968C938F
S1132560E1EEFAE0A0A5B1A5DD968C91DD9781603E
S1132570DD968C930284F385E02D838580688387C0
S113258016C057968C915797886157968C93E1EEB5
S1132590FAE0A0A5B1A5DD968C91DD978160DD966A
S11325A08C930284F385E02D8385806883870F2EC6
S11325B0F1EECF2EFAE0DF2EF02DD6019896AD90F5
S11325C0BC9099970F2EFFE2EF2EFBE0FF2EF02D2B
S11325D0D701ED91FC918FEF9FEF0995F50193875A
S11325E08287D6019896AD90BC909997D701ED91CA
S11325F0FC918FEF9FEF0995F50191878087D601B4
S11326009896CD90DC909997D701ED91FC918FEF3E
S11326109FEF0995F60191AF80AF86E09DE0D80168
S113262011969C938E9386E49DE013969C938E93CF
S1132630129786E89DE015969C938E93149786ECEA
S11326409DE017969C938E93169786ED9DE01996C0
S11326509C938E93189786EE9DE01B969C938E9385
S11326601A978EE99CE01D969C938E931C9786EF97
S11326709DE01F969C938E931E97C801CE5ADF4F00
S11326800FB6F894DEBF0FBECDBFDF91CF911F917F
S11326900F91FF90EF90DF90CF90BF90AF9008958F
S11326A0EF92FF920F931F93CF93DF93CDB7DEB7D3
S11326B0C255D1090FB6F894DEBF0FBECDBF8C0151
S11326C0E62EF42ECE0101960E94790982E5FE01E0
S11326D03196A1EEBAE001900D928A95E1F710923D
S11326E0340BE091110BF091120B8281877B828372
S11326F082E0E81671F0E3E0EE1699F0F1E0EF12F3
S113270017C0E091110BF091120B828180648283D7
S11327100FC0E091110BF091120B828188608283CB
S113272007C0E091110BF091120B828188648283BF
S1132730E091110BF091120B84898F73848B82E0EA
S1132740F816B9F0E3E0FE1629F1F1E0FF123AC001
S1132750E1EEFAE0A0A9B1A954968C915497806453
S113276054968C930284F385E02D83858068838757
S113277029C0E1EEFAE0A0A9B1A954968C9154972E
S1132780806854968C930284F385E02D8385806859
S1132790838718C0E1EEFAE0A0A9B1A954968C9100
S11327A05497806454968C93A0A9B1A954968C91A3
S11327B05497806854968C930284F385E02D838526
S11327C080688387E091110BF091120B8FEF808367
S11327D089E69EE0F8019183808389EA9EE09783ED
S11327E0868381E09EE0958784878FEA9EE09787C1
S11327F08687C801CE5ADF4F0FB6F894DEBF0FBEEE
S1132800CDBFDF91CF911F910F91FF90EF9008956D
S1132810AF92BF92CF92DF92EF92FF920F931F93EA
S1132820CF93DF93CDB7DEB7C255D1090FB6F89475
S1132830DEBF0FBECDBF8C01E62EF42ECE01019675
S11328400E94790982E5FE013196A1EEBAE0019079
S11328500D928A95E1F71092330B20910D0B309174
S11328600E0BF901E55BFF4F50815C7F508331977C
S11328704081477E40838E2D90E0FC013197EF30FC
S1132880F10508F078C0E758FF4F0C94453DF90175
S1132890E55BFF4F516050836EC0F901E55BFF4F6C
S11328A05260508368C0F901E55BFF4F5360508369
S11328B062C0F901E65BFF4F486040835CC0F901E8
S11328C0E55BFF4F5160508331974860408353C0AC
S11328D0F901E55BFF4F52605083319748604083B4
S11328E04AC0F901E55BFF4F53605083319748605C
S11328F0408341C0F901E65BFF4F406140833BC028
S1132900F901E55BFF4F516050833197406140838B
S113291032C0F901E55BFF4F52605083319740614B
S1132920408329C0F901E55BFF4F53605083319721
S11329304061408320C0F901E65BFF4F486140835A
S11329401AC0F901E55BFF4F51605083319748612C
S1132950408311C0F901E55BFF4F5260508331970A
S11329604861408308C0F901E55BFF4F5360508321
S1132970319748614083F901E55BFF4F80818370A3
S11329808083D901DD968C91817C4F2D50E0FA0132
S11329903197EC30F10520F4E857FF4F0C94453D96
S11329A0F90185AF89C08460D901DD968C93E091EB
S11329B0EB0AF091EC0A8385806883877DC080618F
S11329C0F90185AFE091EB0AF091EC0A8385806808
S11329D0838772C08860D901DD968C93E091EB0AFD
S11329E0F091EC0A83858068838766C08260F90170
S11329F085AFE091EB0AF091EC0A838580688387C8
S1132A005BC08062D901DD968C93E091EB0AF09172
S1132A10EC0A8385806883874FC08461F90185AFA0
S1132A20E091EB0AF091EC0A83858068838744C0C7
S1132A308C60D901DD968C93E091EB0AF091EC0A5D
S1132A4083858068838738C08660F90185AFE0910B
S1132A50EB0AF091EC0A8385806883872DC0846239
S1132A60D901DD968C93E091EB0AF091EC0A838511
S1132A708068838721C08C61F90185AFE091EB0AFE
S1132A80F091EC0A83858068838716C08E61D90132
S1132A90DD968C93E091EB0AF091EC0A83858068D3
S1132AA083870AC08A61F90185AFE091EB0AF0914E
S1132AB0EC0A8385806883870F2EF1EEEF2EFAE00F
S1132AC0FF2EF02DD7019C96AD90BC909D97B6E457
S1132AD0AB0EB11C0F2EFFE2CF2EFBE0DF2EF02D4C
S1132AE0D601ED91FC918FEF9FEF0995F50191834C
S1132AF08083D7019C96AD90BC909D97B4E4AB0EB7
S1132B00B11CD601ED91FC918FEF9FEF0995F50172
S1132B1091838083D7019C96ED90FC909D97B2E4BD
S1132B20EB0EF11CD601ED91FC918FEF9FEF09950F
S1132B30F7019183808386E19FE0D80111969C93ED
S1132B408E938EE59FE013969C938E93129786EA5C
S1132B509FE015969C938E9314978EEE9FE01796A4
S1132B609C938E93169780E090E119969C938E9394
S1132B70189782E190E11B969C938E931A978AEBA7
S1132B809EE01D969C938E931C9784E290E11F9681
S1132B909C938E931E97C801CE5ADF4F0FB6F894BC
S1132BA0DEBF0FBECDBFDF91CF911F910F91FF907C
S1132BB0EF90DF90CF90BF90AF900895E0916E0BAF
S1132BC0F0916F0B8181887F0895E0916E0BF091F5
S1132BD06F0B84E984838FE891E00197F1F700C0DB
S1132BE000000895CF93DF9318161CF4880F8160BA
S1132BF001C081E0E6E3FBE0A0ADB1AD12968C9399
S1132C00A08DB18D11968C911197836011968C9340
S1132C10008CF18DE02D828183608283643089F0A1
S1132C2018F4613031F025C0603199F06034C9F096
S1132C3020C0E0916E0BF0916F0B81818C7F8183BA
S1132C4020C0E0916E0BF0916F0B818181608183D4
S1132C5018C0E0916E0BF0916F0B818182608183CB
S1132C6010C0E0916E0BF0916F0B818183608183C2
S1132C7008C0E0916E0BF0916F0B81818C7F818392
S1132C8061E0C0916E0BD0916F0B262F30E0220FC4
S1132C90331F032E000C440B550B60E970E080E0F9
S1132CA090E00E94073D2883DF91CF910895EF9231
S1132CB0FF920F931F93CF93DF93CDB7DEB7C25527
S1132CC0D1090FB6F894DEBF0FBECDBF8C01F62E2E
S1132CD0E42ECE0101960E94790982E5FE01319627
S1132CE0A6E3BBE001900D928A95E1F76E2D8F2D3E
S1132CF079DF81EB96E1F801918380838FEB96E194
S1132D00938382838AED96E1958384838DEE96E1A5
S1132D109783868385EE95E1918780878EED95E193
S1132D2093878287C801CE5ADF4F0FB6F894DEBF6F
S1132D300FBECDBFDF91CF911F910F91FF90EF9008
S1132D400895E0916E0BF0916F0B2481222344F0DF
S1132D5021E030E08217930718F02F5F3F4FFACF3E
S1132D600895E0916E0BF0916F0B84EA84838FEFEA
S1132D7093E0E7DF23DF883009F027CF0895662347
S1132D8019F0880F816001C0880FE6E3FBE0A0AD75
S1132D90B1AD13968C9300ACF1ADE02D84E884833F
S1132DA08FEF93E0CEDF0ADF883119F0803409F029
S1132DB00CCF0895E6E3FBE0A0ADB1AD13968C9380
S1132DC000ACF1ADE02D84E884838FEF93E0B9DFAC
S1132DD0F5DE883209F0F9CE0895882311F080E4F5
S1132DE001C080E0E0916E0BF0916F0B84688483E6
S1132DF08FEF93E0A6DFE2DE883309F4E6DEE091AC
S1132E006E0BF0916F0B83810895E091B30BF091F9
S1132E10B40B8BEA9BE009950895E091B50BF09112
S1132E20B60B8BEA9BE009950895E091340CF09180
S1132E30350C8CE29CE009950895E091360CF091F4
S1132E40370C8CE29CE0099508958091AA0B1092AE
S1132E50AA0BEFE9FFE03197F1F700C000000895F5
S1132E60F4CF0895E9EDFBE0A4ADB5AD13968C93D2
S1132E7004ACF5ADE02D8181806281838FE99FE010
S1132E800197F1F700C000000895ECCF08958091F8
S1132E90A90B1092A90BEFE9FFE03197F1F700C0FD
S1132EA000000895F4CF0895E9E1FCE0A081B18128
S1132EB014968C930190F081E02D8281806282834C
S1132EC08FE99FE00197F1F700C000000895ECCF6F
S1132ED00895CF93DF93EC018881882329F021960C
S1132EE0E3DF89918111FCCFDF91CF910895CF93D6
S1132EF0DF93EC018881882329F02196B3DF89913F
S1132F008111FCCFDF91CF9108958F929F92AF9260
S1132F10BF92CF92DF92EF92FF920F931F93CF93C2
S1132F20DF93CDB7DEB7C255D1090FB6F894DEBF33
S1132F300FBECDBF7C016B015A014901CE01019640
S1132F400E94790982E5FE013196A9EDBBE001906A
S1132F500D928A95E1F748E85BE060E2CE010196C4
S1132F60ABD38CE0FE013196ABEABBE001900D924D
S1132F708A95E1F73C2DDD2044F4E091150CF091A5
S1132F80160C82E08283E894D7F849ED5BE0FA01FD
S1132F90A4ADB5ADCD0189599F4FFC01D082CC922F
S1132FA0DA01DC96ED91FC91DD9788E98183B7E045
S1132FB0AB16B104E9F158F4F5E0AF16B10409F425
S1132FC061C086E0A816B10409F447C06FC0A8E048
S1132FD0AA16B104C9F0B9E0AB16B10409F066C091
S1132FE0E9EDFBE0A4ADB5AD11968C911197846029
S1132FF011968C9304ACF5ADE02DE459FF4F80811C
S11330008660808349E065C0E9EDFBE0A4ADB5AD21
S113301011968C9111978B7F11968C9304ACF5AD1E
S1133020E02DE459FF4F80818660808348E051C0E1
S1133030E9EDFBE0A4ADB5AD11968C9111978B7FB2
S113304011968C9304ACF5ADE02DE459FF4F8081CB
S11330508D7F8460808347E03CC0E9EDFBE0A4AD54
S1133060B5AD11968C9111978B7F11968C9304AC0E
S1133070F5ADE02DE459FF4F80818B7F8260808322
S113308046E027C0E9EDFBE0A4ADB5AD11968C9107
S113309011978B7F11968C9304ACF5ADE02DE45918
S11330A0FF4F8081897F808345E013C0E9EDFBE019
S11330B0A4ADB5AD11968C9111978B7F11968C931D
S11330C004ACF5ADE02DE459FF4F80818660808328
S11330D048E0E1E08E16910429F0F2E08F169104A5
S11330E061F016C0E091150CF091160CE459FF4FF5
S11330F08081877F808321E015C0E091150CF091D9
S1133100160CE459FF4F80818860808322E00AC056
S1133110E091150CF091160CE459FF4F8081877FE4
S1133120808321E00230110581F003301105C9F0DC
S1133130012B11F5E091150CF091160CE459FF4F99
S113314080818F7C808390E021C0E091150CF09108
S1133150160CE459FF4F80818F7E8062808392E059
S113316015C0E091150CF091160CE459FF4F8081C5
S11331708063808393E00AC0E091150CF091160CF3
S1133180E459FF4F80818F7C808390E0E091E30BD2
S1133190F091E40B838580688387D7013C93119673
S11331A04C93119712962C93129713969C93139702
S11331B085E297E115969C938E93149780E397E1AB
S11331C017969C938E93169785E097E119969C9396
S11331D08E9318978DE097E11B969C938E931A9784
S11331E082E397E11D969C938E931C9785E497E167
S11331F01F969C938E931E9787E797E151969C9315
S11332008E935097C701CE5ADF4F0FB6F894DEBFA6
S11332100FBECDBFDF91CF911F910F91FF90EF9023
S1133220DF90CF90BF90AF909F908F9008958F9232
S11332309F92AF92BF92CF92DF92EF92FF920F9341
S11332401F93CF93DF93CDB7DEB7C255D1090FB625
S1133250F894DEBF0FBECDBF7C016B015A0149015A
S1133260CE0101960E94790982E5FE013196A9ED0D
S1133270BBE001900D928A95E1F747EB5BE060E2D9
S1133280CE01019619D28CE0FE013196ACE2BCE08D
S113329001900D928A95E1F73C2DDD2044F4E091F4
S11332A0190CF0911A0C82E08383E894D7F8E9E1D1
S11332B0FCE0A081B181DC92A081B1811196CC9215
S11332C00190F081E02D88E9828387E0A816B1049B
S11332D0C9F158F4F5E0AF16B10409F467C086E00B
S11332E0A816B10409F448C073C0E8E0AE16B104EE
S11332F0B9F0F9E0AF16B10409F06AC0E9E1FCE005
S1133300A081B18112968C911297846012968C934D
S11333100190F081E02D85818660858349E069C054
S1133320E9E1FCE0A081B18112968C9112978B7F28
S113333012968C930190F081E02D858186608583BF
S113334048E057C0E9E1FCE0A081B18112968C917C
S113335012978B7F12968C93A081B18115968C91D4
S11333601597846015968C930190F081E02D8581EA
S11333708D7F858347E03DC0E9E1FCE0A081B18118
S113338012968C9112978B7F12968C93A081B181A7
S113339015968C9115978B7F15968C930190F081DF
S11333A0E02D85818260858346E023C0E9E1FCE06D
S11333B0A081B18112968C9112978B7F12968C9377
S11333C00190F081E02D8581897F858345E011C0DE
S11333D0E9E1FCE0A081B18112968C9112978B7F78
S11333E012968C930190F081E02D8581866085830F
S11333F048E081E08816910429F0E2E08E169104F9
S113340051F012C0E091190CF0911A0C8581877F5C
S1133410858321E011C0E091190CF0911A0C85818B
S11334208860858322E008C0E091190CF0911A0CA1
S11334308581877F858321E00230110571F0033097
S11334401105E9F0012B21F5E091190CF0911A0C0A
S113345085818F7C858390E023C0E9E1FCE0A08135
S1133460B18115968C911597806215968C93019075
S1133470F081E02D85818F7E858392E011C0E091FB
S1133480190CF0911A0C85818063858393E008C040
S1133490E091190CF0911A0C85818F7C858390E062
S11334A0E091E30BF091E40B838580688387F70157
S11334B0308341832283938387E497E195838483D4
S11334C082E597E19783868385E197E191878087F9
S11334D08DE197E19387828784E597E195878487D7
S11334E087E697E19787868789E697E1918B808BBA
S11334F0C701CE5ADF4F0FB6F894DEBF0FBECDBF63
S1133500DF91CF911F910F91FF90EF90DF90CF90BB
S1133510BF90AF909F908F9008951F920F920FB617
S11335200F9211240BB60F922F933F934F935F93F7
S11335306F937F938F939F93AF93BF93EF93FF9377
S1133540E091150CF091160C8281887180932B0CFC
S113355063816093AA0BE091B10BF091B20B8BEAFB
S11335609BE00995FF91EF91BF91AF919F918F914E
S11335707F916F915F914F913F912F910F900BBE6F
S11335800F900FBE0F901F9018951F920F920FB6B9
S11335900F9211240BB60F928F93EF93FF93E09148
S11335A0150CF091160C81818F7D8183FF91EF9131
S11335B08F910F900BBE0F900FBE0F901F90189518
S11335C01F920F920FB60F9211240BB60F922F93E6
S11335D03F934F935F936F937F938F939F93AF9397
S11335E0BF93EF93FF93E091190CF0911A0C838130
S11335F088718093D80B64816093A90BE091320C9D
S1133600F091330C8CE29CE00995FF91EF91BF910E
S1133610AF919F918F917F916F915F914F913F9166
S11336202F910F900BBE0F900FBE0F901F90189507
S11336301F920F920FB60F9211240BB60F928F9315
S1133640EF93FF93E091190CF0911A0C82818F7D16
S11336508283FF91EF918F910F900BBE0F900FBE5D
S11336600F901F9018956623C1F0DC011296ED911E
S1133670FC91139714962D913C911597E217F3073B
S113368029F4ED91FC91DF01119602C0DF0111963E
S113369060831C92FC01B383A2830895FC018081A2
S11336A091810895DC01ED91FC9111971396FC939F
S11336B0EE93129710820895FC0151834083538343
S11336C04283460F511D5583448383E39BE19783D3
S11336D086838EE49BE19187808782E59BE19387D3
S11336E08287CF010895CF92DF92EF92FF920F93DA
S11336F01F93FC010081118122813381FB01C08071
S1133700D180E280F380FC01C082D182E282F38224
S1133710FB0100831183228333831F910F91FF9058
S1133720EF90DF90CF900895FB012081FC0120836E
S1133730222339F0DB01119631969D9191939111D9
S1133740FCCF0895CF93DF93EC019881992399F0EE
S1133750FE01319620E030E0492F50E0461757072C
S113376031F0DE01A20FB31F9C932F5F3F4F919165
S11337709111F2CF02C020E030E0FE01E20FF31F0E
S11337801082DF91CF9108952F923F924F925F92D2
S11337906F927F928F929F92AF92BF92CF92DF925D
S11337A0EF92FF920F931F93CF93DF9300D000D03B
S11337B0CDB7DEB72C011B014B0177231CF42FEF8F
S11337C0821A920A95948794181419040CF451C01F
S11337D06AC09601DD209CF1F50140815181F4011C
S11337E0608171816417750754F58C010A0D1B1DE6
S11337F0D401BC82AB82BA82A982EB81FC81718341
S1133800608311965C934E932E193F09C2F0F80120
S113381040815181E981FA8160817181080F191F0A
S1133820E80FF91FFA83E983EB81FC81E80FF91FA4
S1133830FC83EB83A80FB91F64177507F4F2FFEF3D
S1133840CF1ADF0A22E0A20EB11CE2E08E0E911C18
S1133850C614D70409F0BDCF4701FF201CF4FFEFC5
S11338608F1A9F0A9594879418141904E4F4740128
S113387001C07401821493047CF76401CE18DF083C
S11338805601AA0CBB1CA40CB51C880C991C840CF6
S1133890951C31016E187F08C701880F991F9195F7
S11338A08195910996CF0F900F900F900F90DF9113
S11338B0CF911F910F91FF90EF90DF90CF90BF9029
S11338C0AF909F908F907F906F905F904F903F90BC
S11338D02F900895861797070CF4CB0108959B0148
S11338E0672B11F408959A01B9010E94F43CAC01CC
S11338F0822F932F41155105B1F70895FC01908152
S113390080ED890F8A30D0F4319620E030E0A901AF
S1133910440F551F220F331F220F331F220F331F53
S1133920420F531F292F30E020533109240F351F34
S1133930919180ED890F8A3050F302C020E030E08D
S1133940C901089586230895009739F020E030E0F6
S11339502F5F3F4F82179307D9F7089587FF08C059
S1133960919581959109992791958195910908954A
S11339708F779927089591FF08C0919581959109B2
S1133980937091958195910908959170089561506E
S113399021E030E002C0220F331F6A95E2F7A9014B
S11339A041505109B90168237923672B29F08423F5
S11339B09523821B930B08958423952308959DECEE
S11339C0899F912D1124969596959695392F330FAD
S11339D0232F220F220F230F821B20E1929F800DA1
S11339E011240895982F92959F70990F292F220FD3
S11339F0220F920F8F70890F0895FC01DB01A95AE1
S1133A00B64F1C921616170614F5908191110CC02E
S1133A1017C0919191110DC015C081932F5F3F4F35
S1133A2026173707D4F313C0A7E5B9E0319620E091
S1133A3030E09D932F5F3F4F6217730751F707C024
S1133A4020E030E0F901E95AF64F80E2E6CF87E55D
S1133A5099E008954F925F926F927F92AF92BF92D6
S1133A60CF92DF92EF92FF920F931F93CF93DF9346
S1133A70CDB7DEB729013A019B01AC012419350900
S1133A804609570989899A89AB89BC89BC01CD014A
S1133A906A197B098C099D090E94D13CA8019701F0
S1133AA024193509460957090E94293DCA01B9015B
S1133AB06A0D7B1D8C1D9D1DDF91CF911F910F9170
S1133AC0FF90EF90DF90CF90BF90AF907F906F907A
S1133AD05F904F900895FC012081222341F031969C
S1133AE080E090E0019621912111FCCF089580E0BF
S1133AF090E00895CF93DF93EC01EDDF9C0121501A
S1133B00310962F0FE01E80FF91F9291903219F029
S1133B109950923018F421503109B8F7C20FD31FCD
S1133B201982C901DF91CF910895CF93DF93EC01FE
S1133B30D2DF9C01215031091216130684F4DE01F0
S1133B40A80FB91FFE0180E090E040815E9151937F
S1133B504C9301962150310982179307B4F3DF91F6
S1133B60CF9108958F929F92AF92BF92CF92DF929E
S1133B70EF92FF920F931F93CF93DF936B017C011E
S1133B80DC01CB01FF203CF488279927DC018C1948
S1133B909D09AE09BF09BC01CD0110E00F2EFAE06A
S1133BA08F2E912CA12CB12CF02D01C0102F01E0EF
S1133BB0010FC12FD0E0C95AD64FA50194010E942C
S1133BC0293D605D6883622F732F842F952F16160D
S1133BD017061806190654F3FF2044F4E02FF0E00A
S1133BE0E95AF64F8DE2808302E0010FE02FF0E006
S1133BF0E95AF64F108287E599E097DF87E599E067
S1133C00DF91CF911F910F91FF90EF90DF90CF90B4
S1133C10BF90AF909F908F9008950F931F93CF9371
S1133C20DF93EC01992324F4882799278C1B9D0B9F
S1133C3020E00AE010E001C0232F31E0320FE22F30
S1133C40F0E0E95AF64FB8010E94F43C805D8083AD
S1133C50862F972F181619067CF3DD2344F4E32FDF
S1133C60F0E0E95AF64F8DE2808332E0320FE32F21
S1133C70F0E0E95AF64F108287E599E056DF87E5D0
S1133C8099E0DF91CF911F910F910895CF93AC01EB
S1133C909C01ADECBCEC0E944E3D969587959695A3
S1133CA08795969587959C01220F331F880F991F3E
S1133CB0880F991F880F991F820F931F9A01281B41
S1133CC0390BC901805D809357099A010E944E3DCA
S1133CD0AC01569547955695479556954795411588
S1133CE0510589F1E1E0C1E0CE0FF0E0E95AF64F69
S1133CF09A01ADECBCEC0E944E3D96958795969545
S1133D008795969587959C01220F331F880F991FDD
S1133D10880F991F880F991F820F931F9A01281BE0
S1133D20390BC901805D80839A010E944E3DAC012C
S1133D30569547955695479556954795EC2F4115B9
S1133D40510589F601C0C1E0EC2FF0E0E95AF64FC5
S1133D50108287E599E0E9DE87E599E0CF9108953F
S1133D60982F92959F70990F292F220F220F920F4F
S1133D708F70890F0895AC019C01ADECBCEC0E94DE
S1133D804E3D969587959695879596958795BC0112
S1133D90660F771F9C01220F331F220F331F220F40
S1133DA0331F260F371F421B530B342F20E1829FF2
S1133DB0300D1124832F0895CF92DF92EF92FF925A
S1133DC0CF93DF93CDB7DEB728970FB6F894DEBF55
S1133DD00FBECDBF6B017C0169837A838B839C8387
S1133DE02D833E834F835887C216D306E406F50617
S1133DF034F4BE016B5F7F4FCE01019674DC8D817C
S1133E009E81AF81B885892B8A2B8B2B71F46981B4
S1133E107A818B819C8120E030E0A9010E94293DB8
S1133E20611571058105910529F46D817E818F816C
S1133E30988505C06D837E838F839887F6CF2896F7
S1133E400FB6F894DEBF0FBECDBFDF91CF91FF90C8
S1133E50EF90DF90CF90089590E002C095958795FC
S1133E606A95E2F7817008959C012150310981E03F
S1133E7090E002C0880F991F2A95E2F70097B1F0ED
S1133E80E7E5F9E020E030E0B0E3A1E3AB0148234B
S1133E905923452B11F0A08301C0B08396958795D3
S1133EA02F5F3F4F3196009789F702C020E030E042
S1133EB0F901E95AF64F108287E599E00895AB01BC
S1133EC0BC0110925709411551056105710509F4AA
S1133ED042C021E0EFEFE20FDB01CA018F709927A6
S1133EE0AA27B078BB2354F40197A109B109806FC4
S1133EF09F6FAF6FBF6F0196A11DB11D8A309105F1
S1133F00A105B10534F4F0E0E95AF64F805D8083F1
S1133F1005C0F0E0E95AF64F895C8083E22FF0E0B7
S1133F20E95AF64F1082DB01CA0177231CF40F967D
S1133F30A11DB11DAC01BD01689413F87595679579
S1133F40579547951694D1F72F5F41155105610593
S1133F50710509F0BFCF87E599E0E7DD87E599E0D2
S1133F600895282F30E0322F2227A901492BCA01B6
S1133F700895292F30E0322F2227A901482BCA01A6
S1133F800895282F892F922F089508959827892717
S1133F9098270895FB012081222339F0A82FB92FF7
S1133FA031962D9321912111FCCF0895FF920F9307
S1133FB01F93CF93DF938C01EB01F42E642F70E0F9
S1133FC080E090E00E94573A9B01AC0160E070E011
S1133FD080E090E40E946C3B20E030E040E85FE346
S1133FE00E9455390E942B3A9E01262337236023D1
S1133FF07123CB01822793272823392302C0220F60
S1134000331FFA94E2F7822B932BDF91CF911F9108
S11340100F91FF900895CF93DF93CDB7DEB79E0144
S11340202B5F3F4FF901419151919F016FE570E082
S113403087E599E00E94863D99231CF087E599E085
S113404002C080E090E0DF91CF910895FC011092CE
S1134050B6098BE69DE19183808385E99DE1938395
S1134060828386ED9FE19583848383E79BE1978335
S1134070868384E99BE19187808782EA9BE1938729
S1134080828784EC9BE1958784878DE09EE1978706
S1134090868786E49EE1918B808B82EB9DE1938BF6
S11340A0828B8AE79DE1958B848B8AE69CE1978BD2
S11340B0868B8FE69CE1918F808F8EE79CE1938FB6
S11340C0828F82EA9CE1958F848F84EA9CE1978FAA
S11340D0868F8EEA9CE191A380A38BEB9CE193A352
S11340E082A387EC9CE195A384A38FED9CE197A325
S11340F086A382EF9CE191A780A78DEF9CE193A713
S113410082A78AE29DE195A784A780EB9EE197A709
S113411086A78BEB9EE191AB80AB8CED9EE193ABDC
S113412082AB8CE29FE195AB84AB84E39FE197ABD8
S113413086AB84E291E291AF80AF8FE59FE193AFCC
S113414082AF81EB9FE195AF84AF89EB9FE197AF9D
S113415086AFDF01A05CBF4F81EC9FE111969C9379
S11341608E93129685EC9FE111969C938E931296F2
S113417086EC9FE111969C938E9312968BE090E2CD
S113418011969C938E9312968AEC9FE18D939C9347
S1134190CF0108958F929F92AF92BF92EF92FF92B8
S11341A00F931F93CF93DF938A01D22F2AE030E03D
S11341B040E050E00E94293D605DF8016083622F79
S11341C0732F842F952F1616170618061906FCF45C
S11341D021E00F2EFAE08F2E912CA12CB12CF02D82
S11341E0C1E0C20F7801E20EF11CA50194010E9406
S11341F0293D605DF7016083622F732F842F952F13
S11342002C2F161617061806190654F301C0C1E020
S1134210CD1748F480E3F801EC0FF11D8083CF5FE4
S1134220DC13F9CF01C0DC2FF801ED0FF11D108272
S11342308D2FDF91CF911F910F91FF90EF90BF9041
S1134240AF909F908F9008958F929F92AF92BF925C
S1134250CF92DF92EF92FF920F931F93CF93DF934E
S11342606B017C01EA01022F20E030E0A9010E94E9
S1134270BA3988230CF066C0F7FAF094F7F8F09492
S1134280C701B6010E942B3A4B015C010E94573AC8
S11342909B01AC01C701B6010E9455396B017C0139
S11342A0B401990C880B990B21E0AE0173DF11E086
S11342B0180FFE01E80FF11D8DE280835E01A10E4F
S11342C0B11CF5011082CE0130DC8FEF800F8630F7
S11342D008F58EE2F50180831F5F5E01A10EB11C1B
S11342E0602F70E080E090E00E94573A9B01AC019F
S11342F060E070E080E291E40E946C3BA7019601CB
S11343000E94093B0E94263A202FA50143DFC501E4
S11343100CDC37C08EE2F50180831F5FCE01810F74
S1134320911D8C0120E030E048EC52E4C701B60155
S11343300E94093B0E94263A22E0A8012BDFC80113
S1134340F4DB1FC0C701B6010E942B3A4B015C018C
S11343500E94573A9B01AC01C701B6010E9455392E
S11343606B017C01B401990C880B990B21E0AE011F
S113437011DF11E0180FFE01E80FF11D80E28083C8
S11343809DCFCE01DF91CF911F910F91FF90EF90C0
S1134390DF90CF90BF90AF909F908F900895CF9370
S11343A0DF9300D000D01F92CDB7DEB785E0E8E6FA
S11343B0FCE0DE01119601900D928A95E1F72981C6
S11343C03A814B815C816D8170E080E090E00F90D8
S11343D00F900F900F900F90DF91CF91089510924E
S11343E0430CE8E6FCE080E2808387EB99E092836B
S11343F08183948383830895CF93DF9321E080E0C6
S1134400ABE3BCE0EFE3FCE060E071E001C02F5FF0
S11344109FEF920F913009F44BC038F0923009F4B9
S11344208CC0933009F4CEC00EC14091460C50911B
S1134430470CEA019881906898834091380C509118
S1134440390CEA0198819F7798834091440C5091EC
S1134450450CEA01388134773C939081432F4927F6
S113446094233083992399F0943019F4EB018881D3
S11344700AC0903119F4EB01898109C0903219F412
S1134480EB018A8104C0903411F4EB018B814091DB
S1134490460C5091470CEA0198819F77988340918C
S11344A0380C5091390CEA01988190689883AFCF09
S11344B04091460C5091470CEA0198819160988391
S11344C04091380C5091390CEA0198819E7F988371
S11344D04091440C5091450CEA013881347711968F
S11344E03C9311979181432F492794233183992336
S11344F099F0943019F4EB018C810AC0903119F4CD
S1134500EB018D8109C0903219F4EB018E8104C056
S1134510903411F4EB018F814091460C5091470C7B
S1134520EA0198819E7F98834091380C5091390C10
S1134530EA019881916098836ACF4091460C50912A
S1134540470CEA019881926098834091380C50910D
S1134550390CEA0198819D7F98834091440C5091D5
S1134560450CEA013881347712963C931297928174
S1134570432F492794233283992399F0943019F4D3
S1134580EB0188850AC0903119F4EB01898509C0D3
S1134590903219F4EB018A8504C0903411F4EB01D4
S11345A08B854091460C5091470CEA0198819D7F80
S11345B098834091380C5091390CEA0198819260AB
S11345C0988325CFE091460CF091470C9081986038
S11345D09083E091380CF091390C9081977F90830F
S11345E0E091440CF091450C2081247720933E0CFB
S11345F0EFE3FCE09381322F39279323238399231C
S113460099F0943019F480910C010AC0903119F496
S113461080910D0109C0903219F480910E0104C0FB
S1134620903411F480910F01E091460CF091470C05
S11346309081977F9083E091380CF091390C9081B0
S11346409860908303C0243008F4E1CEDF91CF91C9
S11346500895D2DE882309F445C08093680C84341D
S113466099F4E091430CF0E0E85BF34F1082109270
S1134670430CE8E6FCE087EB99E09283818388E4CD
S11346809CE0948383830895E091430CE630B8F46E
S1134690AE2FB0E0A85BB34F8C93EF5FE093430C75
S11346A0F0E0E85BF34F1082E8E6FCE088E49CE08D
S11346B09283818387EB99E0948383830895E8E46C
S11346C0FCE0808381E08093430C1182A8E6BCE087
S11346D01296FC93EE93119787EB99E014969C93B2
S11346E08E9313970895CF93DF93CDB7DEB72897B2
S11346F00FB6F894DEBF0FBECDBF20E22093680C46
S11347009093470C8093460C7093450C6093440C33
S11347105093390C4093380C2BE8FC012083E09132
S1134720380CF091390C84E78083ABE3BCE08C93C4
S1134730EFE3FCE0808311968C93119781831296AA
S11347408C931297828313968C9383831092430CD9
S1134750E091380CF091390C80818B6880832CEFC8
S113476031E23A83298349E253E25C834B836FEC61
S113477071E27E836D838FEE91E298878F833A8115
S11347805C817E81988528960FB6F894DEBF0FBEB3
S1134790CDBFDF91CF910895E091590CF0915A0C5F
S11347A080818B7F8083E091590CF0915A0C808139
S11347B08460808308950F931F93CF93C82F8B0138
S11347C0E091590CF0915A0C80818D7F8083E091A7
S11347D0560CF091570C8081806F8083672B41F0D9
S11347E0E091590CF0915A0C80818160808307C05C
S11347F0E091590CF0915A0C80818E7F808380E087
S113480090E0CADFCC2344F4E091590CF0915A0CA7
S113481080818068808307C0E091590CF0915A0C24
S113482080818F778083C6FF08C0E091590CF09196
S11348305A0C80818064808307C0E091590CF09108
S11348405A0C80818F7B8083C5FF08C0E091590C8E
S1134850F0915A0C80818062808307C0E091590CEA
S1134860F0915A0C80818F7D8083C4FF08C0E09151
S1134870590CF0915A0C80818061808307C0E091CB
S1134880590CF0915A0C80818F7E8083012B41F06A
S1134890E091590CF0915A0C80818160808307C0AB
S11348A0E091590CF0915A0C80818E7F808380E0D6
S11348B090E072DFC3FF08C0E091590CF0915A0CEC
S11348C080818068808307C0E091590CF0915A0C74
S11348D080818F778083C2FF08C0E091590CF091EA
S11348E05A0C80818064808307C0E091590CF09158
S11348F05A0C80818F7B8083C1FF08C0E091590CE2
S1134900F0915A0C80818062808307C0E091590C39
S1134910F0915A0C80818F7D8083C0FF08C0E091A4
S1134920590CF0915A0C80818061808307C0E0911A
S1134930590CF0915A0C80818F7E8083E091590C40
S1134940F0915A0C80818B7F8083CF911F910F91BE
S1134950089560E070E081E02EDF87EE97E1019733
S1134960F1F700C0000008950F931F93CF938C01BB
S1134970E091560CF091570C80818F708083E09108
S1134980590CF0915A0C8081806F8083E091590C0E
S1134990F0915A0C8081826080830115110541F0E9
S11349A0E091590CF0915A0C80818160808307C09A
S11349B0E091590CF0915A0C80818E7F808380E0C5
S11349C090E0EADEE0914F0CF091500C8081882356
S11349D014F0C0E001C0C0E8808186FF02C0C0645A
S11349E001C0CF7B808185FF02C0C06201C0CF7D42
S11349F0808184FF02C0C06101C0CF7E012B41F0E1
S1134A00E091590CF0915A0C80818160808307C039
S1134A10E091590CF0915A0C80818E7F808380E064
S1134A2090E0BADEE0914F0CF091500C8081882325
S1134A301CF48C2F886002C08C2F877F908196FF96
S1134A4002C0846001C08B7F908195FF02C08260A8
S1134A5001C08D7F908194FF02C0816001C08E7F70
S1134A60E091590CF0915A0C90819B7F9083CF91E7
S1134A701F910F91089580E090E076DF882344F43D
S1134A8080E090E071DF88231CF480E090E06CCF3C
S1134A90089561E070E08FDEEECF0895CF93DF9349
S1134AA0EC018881882329F02196F3DF8991811113
S1134AB0FCCFDF91CF9108950F931F93CF93DF9392
S1134AC0FC01D62F8081882351F08F010F5F1F4F87
S1134AD0611109C015C0CF5FDC1730F401C0C0E01C
S1134AE0CD1748F00DC0C1E0D4DFF80181918F01EA
S1134AF08111F1CFF5CF80E2CCDFCF5FCD17D8F3B2
S1134B00DF91CF911F910F910895CF93C82F8823E0
S1134B1021F080E2BEDFC150E1F7CF910895262F46
S1134B208130910571F030F08230910589F003975E
S1134B30B1F0089560E070E080E8820F3CDE9BCF26
S1134B40089560E070E080EC820F35DE94CF089524
S1134B5060E070E084E9820F2EDE8DCF089560E07E
S1134B6070E084ED820F27DE86CF0895E091560C25
S1134B70F091570C808187608083E091590CF0910B
S1134B805A0C8081886080832FEF83EF91E021505D
S1134B9080409040E1F700C0000060E070E088E3EE
S1134BA00ADE20ED2A95F1F760E070E088E303DE89
S1134BB080ED8A95F1F760E070E088E3FCDD90ED2C
S1134BC09A95F1F760E070E088E2F5DD25EC2A952E
S1134BD0F1F7000060E070E088E2EDDD85EC8A9595
S1134BE0F1F7000060E070E088E2E5DD44DF60E0BA
S1134BF070E088E2E0DD3FDF60E070E08CE0DBDD68
S1134C003ADF60E070E08CE0D6DD35DF60E070E034
S1134C1081E0D1DD30DF60E070E081E0CCDD2BDFCE
S1134C2060E070E086E0C7DD26DF60E070E086E0EB
S1134C30C2DD21DF60E070E080E090E070CF089595
S1134C40CF93DF93EC017093570C6093560C509301
S1134C50500C40934F0C30935A0C2093590CFB0189
S1134C601082E091590CF0915A0C8FEF8083E091FF
S1134C704F0CF091500C808188708093580C76DF33
S1134C808BED93E29983888384EB94E29B838A83FC
S1134C908BE395E29D838C8389E495E29F838E83E5
S1134CA081E896E2998788878EE495E29B878A87D4
S1134CB08CE595E29D878C8785E895E29F878E87B2
S1134CC089EA94E2998B888B8FE895E29B8B8A8B97
S1134CD080E796E29D8B8C8BCE01DF91CF91089576
S1134CE0CF93E0914F0CF091500CC081C87080912B
S1134CF0580C8C278C2309F039DFC093580CCF91C2
S1134D000895CF9381E090E02FDEC82FB4DE8C2F7E
S1134D10CF910895FF920F931F93CF93DF93182F92
S1134D20062FF42ECEE7DCE0E881F9810995EA81CB
S1134D30FB8160E081E50995EC81FD8182E00995C4
S1134D40EC81FD818F2D0995EC81FD81802F0995E2
S1134D50EC81FD81812F0995E885F9850995DF911D
S1134D60CF911F910F91FF9008951F93CF93DF93DD
S1134D70182FCEE7DCE0E881F9810995EA81FB810F
S1134D8060E081E50995EC81FD8184E00995EC8181
S1134D90FD81812F0995E885F9850995DF91CF91EA
S1134DA01F9108951F93CF93DF93182FCEE7DCE074
S1134DB0E881F9810995EA81FB8160E081E5099543
S1134DC0EC81FD8183E00995EC81FD81812F0995BA
S1134DD0E885F9850995DF91CF911F9108951F9377
S1134DE0CF93DF93182FCEE7DCE0E881F9810995B2
S1134DF0EA81FB8160E081E50995EC81FD8182E037
S1134E000995EC81FD81812F0995E885F98509953E
S1134E10DF91CF911F9108951F93CF93DF93882340
S1134E2021F06370162F106801C010E0CEE7DCE0BB
S1134E30E881F9810995EA81FB8160E081E50995C2
S1134E40EC81FD818DE00995EC81FD81812F09952F
S1134E50E885F9850995DF91CF911F910895EF9227
S1134E60FF920F931F93CF93DF93E82EF62E042F18
S1134E70122FCEE7DCE0E881F9810995EA81FB8114
S1134E8060E081E50995EC81FD8185E00995EC817F
S1134E90FD818E2D0995EC81FD818F2D0995EC8185
S1134EA0FD81802F0995EC81FD81812F0995E8858D
S1134EB0F9850995DF91CF911F910F91FF90EF90A4
S1134EC008951F93CF93DF93182FCEE7DCE0E8819A
S1134ED0F9810995EA81FB8160E081E50995EC811E
S1134EE0FD8188E00995EC81FD81812F0995E88594
S1134EF0F9850995DF91CF911F9108951F93CF9361
S1134F00DF93182FCEE7DCE0E881F9810995EA8187
S1134F10FB8160E081E50995EC81FD8187E00995DD
S1134F20EC81FD81812F0995E885F9850995DF914B
S1134F30CF911F9108951F93CF93DF93182FCEE73E
S1134F40DCE0E881F9810995EA81FB8160E081E593
S1134F500995EC81FD8186E00995EC81FD81812F25
S1134F600995E885F9850995DF91CF911F910895F9
S1134F701F93CF93DF93182FCEE7DCE0E881F9810C
S1134F800995EA81FB8160E081E50995EC81FD8169
S1134F9085E00995EC81FD81812F0995E885F985E6
S1134FA00995DF91CF911F910895FF920F931F935D
S1134FB0CF93DF93CEE7DCE0E881F9810995EA81BC
S1134FC0FB8160E081E50995EC81FD8182E0099532
S1134FD0E885F9850995E881F9810995EA81FB81DC
S1134FE061E081E50995EE81FF8181E00995F82E64
S1134FF0EE81FF8181E00995182FEE81FF8180E029
S11350000995082FE885F9850995602F6F73712F2D
S11350107F778F2D8F77DF91CF911F910F91FF9025
S11350200895EF92FF920F931F93CF93DF93CEE7F0
S1135030DCE0E881F9810995EA81FB8160E081E5A2
S11350400995EC81FD8185E00995E885F985099547
S1135050E881F9810995EA81FB8161E081E509959F
S1135060EE81FF8181E00995082FEE81FF8181E0C7
S11350700995F82EEE81FF8181E00995182FEE81C4
S1135080FF8180E00995E82EE885F9850995712F5F
S11350907F716E2D8F2D8770902F9F73DF91CF912D
S11350A01F910F91FF90EF900895982F92959F7004
S11350B0990F292F220F220F920F8F70890F0895B5
S11350C09DEC899F912D1124969596959695392F4F
S11350D0330F232F220F220F230F821B20E1929FD5
S11350E0800D11240895CF93DF93CEE7DCE0E881AF
S11350F0F9810995EA81FB8160E081E50995EC81FC
S1135100FD8180E00995EC81FD8180E00995E885C9
S1135110F9850995DF91CF9108950F931F93CF934C
S1135120DF93CDB7DEB72C970FB6F894DEBF0FBE72
S1135130CDBF8C01462F61E4CE0101960E94571623
S11351408CE0FE013196AEE7BCE001900D928A95A9
S1135150E1F7C9DF8AE896E2F8019183808385EB61
S113516096E29383828382ED96E2958384838FEE25
S113517096E2978386838CE097E2918780878FE21B
S113518097E29387828788EB97E2958784878BE9F8
S113519097E2978786878EE797E2918B808B81E6EB
S11351A097E2938B828B85ED97E2958B848B81E1DB
S11351B098E2978B868B85E598E2918F808F80E6C5
S11351C098E2938F828FC8012C960FB6F894DEBFB5
S11351D00FBECDBFDF91CF911F910F910895EEEDDA
S11351E0FCE0848D958DDC01AF5BBF4F1C92119662
S11351F02FE02C93A489B58911968C911197806E18
S113520011968C93A689B7898FEF11968C93068893
S1135210F789E02D12820895CF93DF93CDB7DEB7DF
S1135220CA5CD1400FB6F894DEBF0FBECDBFCE012D
S11352308E599E4F0E94790982E5FE01EE59FE4F78
S1135240AEEDBCE001900D928A95E1F7C8DFCE0186
S11352508E599E4F0E9426208AE4FE01EE59FE4F8D
S1135260A4E9BCE001900D928A95E1F72BE330E0CC
S113527049E350E06AE370E0CE018E519F4FE0DCD9
S1135280C851DF4F28813981C85ED040C854DE4FF1
S113529039832883C85BD140C251DF4F888099800D
S11352A0CE5ED040C051DF4F88819981C05FD0402D
S11352B0C753DE4F99838883C95CD140CE50DF4FFA
S11352C0A881B981C25FD040CA54DE4FB983A88394
S11352D0C65BD140CC50DF4F28803980C45FD040BA
S11352E043E250E061E270E082E290E0FCD9C85011
S11352F0DF4F2883C85FD040C750DF4F3883C95F72
S1135300D040C650DF4F4883CA5FD040C550DF4FFE
S11353105883CB5FD040C450DF4F6883CC5FD0400C
S1135320C350DF4F7883CD5FD040C250DF4F8883B6
S1135330CE5FD040C150DF4F9883CF5FD040C45080
S1135340DF4F48805980CC5FD040C250DF4FE881A6
S1135350F981CE5FD040C254DE4FF983E883CE5B3F
S1135360D1400EED1CE01F921F921F9281E08F939B
S113537090E89F938F93D80116966D917C9117971F
S1135380FB010995C654DE4F688379838A839B8326
S1135390CA5BD140D801D696ED91FC91D79742E0F3
S11353A062E0CE0193950995D8019A96ED91FC910E
S11353B09B9740E069E0CE01805F9E4F0995C85EEF
S11353C0DE4FE881F981C851D140CB53DE4FF983D8
S11353D0E883C55CD140D801D296ED91FC91D39776
S11353E042E062E0CE01805E9E4F099560E1CE010D
S11353F08E599E4F92DE8CE1FE01EE59FE4FA5E3DD
S1135400BDE001900D928A95E1F701E020E042E0D1
S113541065E670E084E690E00E949C01EAE8FCE026
S11354202083318342835383648375838683978384
S1135430E091200DF091210D00E010E021E030E03A
S113544048E050E069E170E0CE018E599E4F099525
S113545082E1FE01EE59FE4FA5E5BDE001900D92FB
S11354608A95E1F7CE01805D9E4F40E350E0FC0158
S11354704193519324E0DF01322F1D923A95E9F7CD
S1135480FE01EA5CFE4F41935193DF011D922A9580
S1135490E9F79093BC098093BB091092310D1092E7
S11354A0300D1092930C1092920CCA5FDE4FE8817B
S11354B0F981C650D14089EF0995C45FDE4FE88178
S11354C0F981CC50D14080E490E00995CE5EDE4F66
S11354D0E881F981C251D14082E00995CA5EDE4F6C
S11354E0E881F981C651D14080E29EE40995C45E09
S11354F0DE4FE881F981CC51D14088E090E00995F4
S1135500C45DDE4FE881F981CC52D14080E090E067
S11355100995E0913D0DF0913E0D62E081E0099521
S1135520CA50DF4FE881F981C65FD0400995C65063
S1135530DF4FE881F981CA5FD04009950F900F9041
S11355400F900F900F900F90ECE0F0E0CF53DE4FF0
S1135550F983E883C15CD140F0E3C054DE4FF883A3
S1135560C05CD1400F2EF1E36F2EF02D762C15C0C8
S1135570CA50DF4FE881F981C65FD0400995C65013
S1135580DF4FE881F981CA5FD0400995662029F090
S1135590E0915F0DF091600D099505E51DE0D801DE
S11355A01896ED91FC91199709959093BA098093F7
S11355B0B909D8011696ED91FC91179709958A308F
S11355C061F46091B9097091BA09CE018E5B9E4F66
S11355D00E94703D6624639401C0612C05E31DE0C4
S11355E0D8015496ED91FC91559709956093320D2D
S11355F07093330D8093340DD8015696ED91FC9140
S1135600579709956093510D7093520D8093530DE4
S11356109093540D80E090E0C454DE4FE881F9810A
S1135620CC5BD1400995CC54DE4F99838883C45B0D
S1135630D140E091A20CF091A30C0995BC01CE01DC
S1135640805D9E4F0E94703D60E070E081E090E0DC
S1135650F10109958AE3C854DE4FE881F981C85BFA
S1135660D1400995F2010995C352DF4F2883CD5DDE
S1135670D040C252DF4F3883CE5DD040C152DF4F9D
S11356804883CF5DD040C052DF4F5883C05ED040C6
S1135690CF51DF4F6883C15ED04066E0C252DF4F16
S11356A088819981CE5DD040F401099568E777E05F
S11356B08091B9099091BA090E94673D892B59F4E8
S11356C0CA54DE4FE881F981C65BD14009950F2E9B
S11356D0F6E37F2EF02D0091B9091091BA0969E81B
S11356E077E0C8010E94673D892B99F4CA54DE4FC4
S11356F0E881F981C65BD140099562E877E0809141
S1135700B9099091BA090E94673D892B49F00C941C
S1135710B83562E877E0C8010E94673D892B49F4F7
S1135720CA54DE4FE881F981C65BD14009950C94D7
S1135730B835872D90E0FC01F197E730F10510F0C2
S11357400C948838EC56FF4F0C94453DF2010995B2
S1135750C852DF4F2883C85DD040C752DF4F38831B
S1135760C95DD040C652DF4F4883CA5DD040C552A0
S1135770DF4F5883CB5DD040C452DF4F6883CC5D8C
S1135780D04065E977E0C552DF4F88819981CB5DD0
S1135790D0400E94673D892BA1F4C254DE4FE881BA
S11357A0F981CE5BD1400995CA54DE4FE881F98175
S11357B0C65BD14009950F2EF7E37F2EF02D0C9494
S11357C09A38F2010995CD52DF4F2883C35DD0404A
S11357D0CC52DF4F3883C45DD040CB52DF4F488377
S11357E0C55DD040CA52DF4F5883C65DD040C95210
S11357F0DF4F6883C75DD04067E977E0CA52DF4F67
S113580088819981C65DD0400E94673D892BA1F4AF
S1135810C254DE4FE881F981CE5BD1400995CA5468
S1135820DE4FE881F981C65BD14009950F2EF2E382
S11358307F2EF02D0C949A38CF53DE4F88819981B6
S1135840C15CD14006970F9708F066C0CF53DE4F76
S113585028813981C15CD140B90180E090E01F9278
S11358601F9229E02F932EE22F93E091C00CF09128
S1135870C10C0F2EF4EFAF2EBB24B394C12CD12C4A
S1135880F02D17E1E12EF12C00E010E022E030E0F1
S113589040E050E00995CF53DE4F688379838A83D3
S11358A09B83C15CD140CC54DE4FA881B981C45BD9
S11358B0D140BD0180E090E01F921F921F9228EC1E
S11358C02F93E091C00CF091C10C0F2EF8E3AF2E92
S11358D0BB24BA94CB2CDB2CF02DEE24EA9413E0F9
S11358E0F12E00E010E020E030E0A9010995CF534B
S11358F0DE4F88819981C15CD140860F971FCB53BD
S1135900DE4FE881F981C55CD14009950FB6F89462
S1135910DEBF0FBECDBF2CC01F921F9289E08F93B4
S11359208EE28F93E091C00CF091C10C0F2EF4EF36
S1135930AF2EBB24B394C12CD12CF02D17E1E12E52
S1135940F12C00E010E022E030E040E050E066E0BE
S113595070E080E090E00995CB01CB53DE4FE88105
S1135960F981C55CD14009950F900F900F900F906D
S113597060E070E080E090E0F101099563E089E97E
S113598097E0F401099565E0CE01805D9E4FF40136
S1135990099568E070E080E090E0F10109950F2E30
S11359A0F4E9CF2EFCE0DF2EF02DD6015096ED90D9
S11359B0FC90519701E51DE00F2EF5E3AF2EFDE0BD
S11359C0BF2EF02DD5015896ED91FC915997D80131
S11359D013968C91099590E0F701099562E0F40122
S11359E009958AE3C854DE4FE881F981C85BD14048
S11359F00995D6015096ED90FC905197D501589693
S1135A00ED91FC915997D80111968C91099590E0EC
S1135A10F701099562E0F40109958AE3C854DE4F61
S1135A20E881F981C85BD1400995D6015096ED9083
S1135A30FC905197D5015896ED91FC915997D80156
S1135A408C91099590E0F701099562E0F4010995BC
S1135A5068E070E081E090E0F10109950F2EF2E337
S1135A60EF2EFDE0FF2EF02DD5015896ED91FC911F
S1135A705997D7018C910995E82FF0E0CF53DE4F69
S1135A80F983E883C15CD140D6015096ED91FC9135
S1135A905197CF53DE4F88819981C15CD1400995DC
S1135AA062E0F40109958AE3C854DE4FE881F98184
S1135AB0C85BD1400995D60150960D911C91519720
S1135AC0D5015896ED91FC915997D70111968C9177
S1135AD0099590E0F801099562E0F40109958AE3DB
S1135AE0C854DE4FE881F981C85BD1400995D601DD
S1135AF050960D911C915197D5015896ED91FC91BA
S1135B005997D70112968C91099590E0F80109955F
S1135B1062E0F40109950C949A38F2010995C25394
S1135B20DF4F2883CE5CD040C153DF4F3883CF5C36
S1135B30D040C053DF4F4883C05DD040CF52DF4FC9
S1135B405883C15DD040CE52DF4F6883C25DD040E0
S1135B5065E977E0CF52DF4F88819981C15DD040FC
S1135B600E94673D892BA1F4C254DE4FE881F9817C
S1135B70CE5BD1400995CA54DE4FE881F981C65BFA
S1135B80D14009950F2EF1E37F2EF02D0C949A3815
S1135B90F2010995C753DF4F2883C95CD040C6532F
S1135BA0DF4F3883CA5CD040C553DF4F4883CB5C9A
S1135BB0D040C453DF4F5883CC5CD040C353DF4F35
S1135BC06883CD5CD04067E977E0C453DF4F8881B8
S1135BD09981CC5CD0400E94673D892BA1F4C254CA
S1135BE0DE4FE881F981CE5BD1400995CA54DE4F7E
S1135BF0E881F981C65BD14009950F2EF3E37F2E2E
S1135C00F02D0C949A38F2010995CC53DF4F288378
S1135C10C45CD040CB53DF4F3883C55CD040CA53FB
S1135C20DF4F4883C65CD040C953DF4F5883C75CFD
S1135C30D040C853DF4F6883C85CD0406CE977E03C
S1135C40C953DF4F88819981C75CD0400E94673D6A
S1135C50892BD9F4C254DE4FE881F981CE5BD1405F
S1135C600995CA54DE4FE881F981C65BD140099594
S1135C70E091650DF091660D8EE997E009950F2E80
S1135C80F1E37F2EF02D0C949A3860E070E080E010
S1135C9090E0F101099565E08CEA97E0F40109953B
S1135CA063E0CE018A5C9E4FF4010995F2010995E7
S1135CB0C154DF4F2883CF5BD040C054DF4F3883BB
S1135CC0C05CD040CF53DF4F4883C15CD040CE533B
S1135CD0DF4F5883C25CD040CD53DF4F6883C35C31
S1135CE0D040243409F07FC0F2010995C654DF4F37
