:100000001FC100003CC100003AC1000038C100001F
:1000100036C1000034C1000032C1000030C1000010
:100020002EC100000C94813E2AC1000028C10000AE
:1000300026C1000024C1000022C100000C94053E2E
:100040001EC100001CC100000C9422190C94F01871
:1000500016C100003FC3000012C1000010C1000023
:100060000EC100000CC100000AC1000008C1000060
:1000700006C1000004C100000C94DB1B0C94281B7B
:10008000FEC00000FCC00000FAC0000061049E0435
:10009000DB04180555059D05E5052D068806920625
:1000A0009C06A606B006BA06C406CE06EA06FD06FB
:1000B00010072307360749075C076F07A70EB10E25
:1000C000BB0EC50ECF0EE20EF50E080F120F250F58
:1000D000380F4B0F550F680F7B0FB40FC70FDA0F98
:1000E000ED0F0010131026103910551068107B10FA
:1000F0009710C414CF14DA14E514F01405151A156A
:100100002F153A154F156415791584159915AE15E7
:10011000E215F7150C16211636164B1660167516D5
:100120008A169F16B416C91645244F24242659242E
:1001300063246D24772481248B2495249F24A9246F
:10014000B324BD24C724D124DB24E524F325FD25D5
:1001500007262426242624262426242611261B2688
:100160001B261B261B261B261B261B261B261B2687
:100170001B261B261B261B261B261B261B261B2677
:100180001B261B261B261B261B261B261B261B2667
:100190001B261B261B261B261B261B261B261B2657
:1001A0001B261B261B261B261B261B261B261B2647
:1001B0001B261B26EF24F92403250D2517251B26B6
:1001C0001B261B261B261B2621252B2535251B26FA
:1001D0001B261B261B261B261B261B262426242605
:1001E0002426242624263F25242624261B261B26B7
:1001F000492553255D25672571257B2585251B26EA
:100200001B261B268F259925A325AD25B7251B2643
:100210001B261B261B261B26C125CB25D5251B26C9
:100220001B261B261B261B261B261B26DF25E92536
:10023000A42FBE312733A0350D384139AA3BB63C37
:1002400011241FBECFEFD0E1DEBFCDBF14E0A0E090
:10025000B1E0E8E0F9E800E00BBF02C007900D92C2
:10026000A635B107D9F727E0A6E5B4E001C01D9295
:10027000AE34B207E1F70E94192E0C948244C0CE2E
:10028000FC01662371F0A581B6812C9181E090E09C
:10029000008002C0880F991F0A94E2F7822B8C938A
:1002A0000EC0A581B6812C9181E090E0008002C053
:1002B000880F991F0A94E2F7809582238C93A58179
:1002C000B6814C9121E030E0C901018002C0880F65
:1002D000991F0A94E2F7842B8C93A581B6818C91A7
:1002E000018002C0220F331F0A94E2F720952823D1
:1002F0002C930895FC01A581B6814C9121E030E05A
:10030000C901028002C0880F991F0A94E2F7842B6A
:100310008C93A581B6818C91028002C0220F331F7D
:100320000A94E2F7209528232C930895DF92EF9208
:10033000FF920F931F93CF93DF938C01D62EC0E0D3
:10034000D0E0EE24E394F12CB7010C2E02C0660F2E
:10035000771F0A94E2F76D21C80192DF2196C83019
:10036000D10591F7C801C6DFDF91CF911F910F91A1
:10037000FF90EF90DF900895DF92EF92FF920F933E
:100380001F93CF93DF938C01D62EC7E0D0E0EE24ED
:10039000E394F12CB7010C2E02C0660F771F0A946C
:1003A000E2F76D21C8016CDF2197A0F7C801A2DF39
:1003B000DF91CF911F910F91FF90EF90DF90089503
:1003C000EF92FF920F931F93CF93DF93CDB7DEB7DA
:1003D00027970FB6F894DEBF0FBECDBFFB01122FDB
:1003E000DC015C9121E030E07901012E02C0EE0CCD
:1003F000FF1C0A94E2F7B901002E02C0660F771FB6
:100400000A94E2F76E29042E02C0220F331F0A94C9
:10041000E2F7262B522B5C935081209525232083D5
:100420009D838C83FF83EE83582F6D817E2F242F35
:10043000312F402F8F8190E027960FB6F894DEBFC2
:100440000FBECDBFDF91CF911F910F91FF90EF9025
:100450000895EF920F93CF93DF93EC01CB01BA0194
:10046000422F202F0E2DACDF288339834A835B83F4
:100470006C837D838E8380E491E098878F8386E907
:1004800091E09A8789878CEB91E09C878B878AE73C
:1004900091E09E878D87CE01DF91CF910F91EF90F4
:1004A0000895E091DB04F091DC04228126FD03C075
:1004B000228120642283FC01EE0FFF1FE556FB4FD3
:1004C0008081918108950F931F93CF93DF9300D084
:1004D00000D000D0CDB7DEB79D856E854F85588999
:1004E00024E230E03093DC042093DB049A012F7186
:1004F0003327309361062093600610925A041092BD
:1005000059041092560487B18F7387B9913039F02E
:1005100018F0933061F012C01092DD0411C087B161
:100520008F73806487B981E08093DD0409C087B14F
:10053000806C87B983E08093DD0402C01092DD04F3
:100540000091DB041091DC04F80183818F7D8383AB
:10055000141615068CF4DE01519680E090E02D9182
:100560003D91FC01EE0FFF1FE55AFB4F31832083C5
:1005700001964817590799F7F8018381807E838394
:10058000E0915904F0915A04EE0FFF1FE55AFB4F1A
:10059000808191818F71F8019381907E892B838373
:1005A00082818064828382818F7D82838281886060
:1005B00082838281887F8283603161F140F464307C
:1005C000B9F06830F1F0623009F047C008C060341B
:1005D00099F16038D1F1603209F03FC024C0F801D0
:1005E0008281887F8160828382E08093DE043CC0C8
:1005F000F8018281887F8260828384E08093DE04B8
:1006000033C0F8018281887F8360828388E0809391
:10061000DE042AC0F8018281887F8460828380E1C1
:100620008093DE0421C0F8018281887F8560828307
:1006300080E28093DE0418C0F8018281887F8660A2
:10064000828380E48093DE040FC0F801828187609A
:10065000828380E88093DE0407C0F801828187608E
:10066000828380E88093DE04E091DB04F091DC0477
:10067000828180688283EDEDF4E084E290E09383F0
:10068000828381E592E0958384830E944C2DFC0156
:1006900093859068938786E0EDEDF4E0DE01119696
:1006A00001900D928A95E1F729813A814B815C8115
:1006B0006D817E8180E090E026960FB6F894DEBFD3
:1006C0000FBECDBFDF91CF911F910F9108958DED9A
:1006D00094E008951F920F920FB60F9211240BB65B
:1006E0000F922F933F934F935F936F937F938F93CB
:1006F0009F93AF93BF93EF93FF93E091DB04F0914F
:10070000DC04808191810E94C32D909363068093C5
:10071000620620915604243080F4209156042F5F05
:10072000209356042091570430915804820F931F50
:1007300090935804809357044EC0E0915904F0916F
:100740005A048091570490915804959587959595F2
:100750008795EE0FFF1FE556FB4F91838083109224
:100760005804109257041092560420915904309165
:100770005A0480916006909161062817390754F455
:100780008091590490915A04019690935A04809351
:10079000590404C010925A0410925904A091DB0429
:1007A000B091DC0413968C911397807E13968C93F2
:1007B0001397E0915904F0915A04EE0FFF1FE55A88
:1007C000FB4F808191818F7113969C911397907E3E
:1007D000892B13968C93FF91EF91BF91AF919F91CD
:1007E0008F917F916F915F914F913F912F910F90DA
:1007F0000BBE0F900FBE0F901F90189510D5DC0107
:100800001E96ED91FC911F9780818F71843009F1C4
:1008100028F4813041F0823089F03CC0883021F1E9
:10082000803169F137C0FBD4DC011E96ED91FC915B
:100830001F9780818E7F808380E00895F0D4DC0153
:100840001E96ED91FC911F9780818D7F808381E0C2
:100850000895E5D4DC011E96ED91FC911F978081EF
:100860008B7F808382E00895DAD4DC011E96ED91BF
:10087000FC911F978081877F808383E00895CFD488
:10088000DC011E96ED91FC911F9780818F7E808305
:1008900084E00895C4D4DC011E96ED91FC911F976D
:1008A0008081807E808380E00895CF93C62F90E082
:1008B0008830910508F019C2FC01EA5BFF4F0C94E7
:1008C000F540ADD4DC015696ED91FC9157978181AE
:1008D0008E7F8183A4D4DC015696ED91FC915797CD
:1008E00082898C7F828BC23019F0C33059F013C0DB
:1008F00096D4DC015696ED91FC91579782898260DF
:10090000828B09C08CD4DC015696ED91FC915797EF
:1009100082898360828B83D4DC015696ED91FC91B1
:1009200057978181816081837AD4DC011E96ED9195
:10093000FC911F97838580688387DEC170D4DC01BA
:100940005696ED91FC91579781818D7F818367D475
:10095000DC015696ED91FC9157978289837F828BBB
:10096000C23019F0C33059F013C059D4DC01569687
:10097000ED91FC91579782898860828B09C04FD492
:10098000DC015696ED91FC91579782898C60828BA1
:1009900046D4DC015696ED91FC9157978181826097
:1009A00081833DD4DC011E96ED91FC911F978385D8
:1009B00080688387A1C133D4DC015696ED91FC9108
:1009C000579781818B7F81832AD4DC015696ED91E4
:1009D000FC91579782898F7C828BC23019F0C3308B
:1009E00059F013C01CD4DC015696ED91FC91579739
:1009F00082898062828B09C012D4DC015696ED9107
:100A0000FC91579782898063828B09D4DC015696CA
:100A1000ED91FC91579781818460818300D4DC0142
:100A20001E96ED91FC911F9783858068838764C132
:100A3000F6D3DC015696ED91FC9157978181877F23
:100A40008183EDD3DC015696ED91FC915797828915
:100A50008F73828BC23019F0C33059F013C0DFD3CB
:100A6000DC015696ED91FC91579782898068828BC4
:100A700009C0D5D3DC015696ED91FC915797828938
:100A8000806C828BCCD3DC015696ED91FC9157970C
:100A9000818188608183C3D3DC011E96ED91FC9136
:100AA0001F9783858068838727C1B9D3DC01569659
:100AB000ED91FC91579781818F7E8183B0D3DC01CA
:100AC0005696ED91FC91579782818C7F8283C2303C
:100AD00071F0C330B1F0C130E9F4A1D3DC01569616
:100AE000ED91FC91579782818160828313C097D3E7
:100AF000DC015696ED91FC9157978281826082834A
:100B000009C08DD3DC015696ED91FC9157978281F7
:100B10008360828384D3DC015696ED91FC915797D4
:100B20008181806181837BD3DC011E96ED91FC91F4
:100B30001F97838580688387DFC071D3DC01569659
:100B4000ED91FC91579781818F7D818368D3DC0182
:100B50005696ED91FC9157978281837F8283C230B4
:100B600071F0C330B1F0C130E9F459D3DC015696CD
:100B7000ED91FC91579782818460828313C04FD39B
:100B8000DC015696ED91FC915797828188608283B3
:100B900009C045D3DC015696ED91FC9157978281AF
:100BA0008C6082833CD3DC015696ED91FC91579783
:100BB00081818062818333D3DC011E96ED91FC91AB
:100BC0001F9783858068838797C029D3DC01569659
:100BD000ED91FC91579781818F7B818320D3DC013C
:100BE0005696ED91FC91579782818F7C8283C2301B
:100BF00071F0C330B1F0C130E9F411D3DC01569685
:100C0000ED91FC91579782818061828313C007D355
:100C1000DC015696ED91FC91579782818062828328
:100C200009C0FDD2DC015696ED91FC915797828167
:100C300080638283F4D2DC015696ED91FC91579744
:100C4000818180648183EBD2DC011E96ED91FC9161
:100C50001F978385806883874FC0E1D2DC01569659
:100C6000ED91FC91579781818F778183D8D2DC01F8
:100C70005696ED91FC91579782818F738283C23093
:100C800071F0C330B1F0C130E9F4C9D2DC0156963D
:100C9000ED91FC91579782818064828313C0BFD20B
:100CA000DC015696ED91FC91579782818068828392
:100CB00009C0B5D2DC015696ED91FC91579782811F
:100CC000806C8283ACD2DC015696ED91FC915797F3
:100CD000818180688183A3D2DC011E96ED91FC9115
:100CE0001F9783858068838707C099D2DC01569659
:100CF000ED91FC9157971182CF91089590E0883043
:100D0000910508F055C0FC01E25BFF4F0C94F540E3
:100D100086D2DC015696ED91FC91579781818E7FAA
:100D2000818308957CD2DC015696ED91FC91579712
:100D300081818D7F8183089572D2DC015696ED9179
:100D4000FC91579781818B7F8183089568D2DC0164
:100D50005696ED91FC9157978181877F8183089505
:100D60005ED2DC015696ED91FC91579781818F7E82
:100D70008183089554D2DC015696ED91FC915797EA
:100D800081818F7D818308954AD2DC015696ED9151
:100D9000FC91579781818F7B8183089540D2DC013C
:100DA0005696ED91FC91579781818F7781830895B5
:100DB00036D2DC015696ED91FC9157971182089539
:100DC00090E08830910508F09CC0FC01EA5AFF4F82
:100DD0000C94F54024D2DC015696ED91FC91579786
:100DE0008181816081831BD2DC011E96ED91FC9193
:100DF0001F97838580688387089511D2DC015696FA
:100E0000ED91FC91579781818260818308D2DC014A
:100E10001E96ED91FC911F978385806883870895C6
:100E2000FED1DC015696ED91FC915797818184604B
:100E30008183F5D1DC011E96ED91FC911F9783858E
:100E4000806883870895EBD1DC015696ED91FC9183
:100E50005797818188608183E2D1DC011E96ED91F4
:100E6000FC911F978385806883870895D8D1DC0122
:100E70005696ED91FC915797818180618183CFD106
:100E8000DC011E96ED91FC911F9783858068838716
:100E90000895C5D1DC015696ED91FC91579781815B
:100EA00080628183BCD1DC011E96ED91FC911F977D
:100EB0008385806883870895B2D1DC015696ED91D1
:100EC000FC915797818180648183A9D1DC011E96B2
:100ED000ED91FC911F9783858068838708959FD14A
:100EE000DC015696ED91FC91579781818068818352
:100EF00096D1DC011E96ED91FC911F978385806849
:100F000083870895CF93DF93CDB7DEB728970FB6C9
:100F1000F894DEBF0FBECDBF82D1DC015696ED91B5
:100F2000FC9157971182E3EEF4E085E594E091831C
:100F300080838EE796E09383828380EE96E09583AC
:100F400084838EEF93E09783868388E0DE01119699
:100F500001900D928A95E1F729813A814B815C815C
:100F60006D817E818F81988528960FB6F894DEBFBB
:100F70000FBECDBFDF91CF91089583EE94E0089529
:100F8000CF93DF9300D0CDB7DEB78A838A818F7786
:100F90008A83ABEEB4E01E96ED91FC911F9783859A
:100FA000898383858F7783878A818CBF8A818068D4
:100FB0008CBF1E96ED91FC911F97898183870F90BE
:100FC0000F90DF91CF910895CF93DF931F92CDB70C
:100FD000DEB7ABEEB4E01E96ED91FC911F978385D2
:100FE000898383858F77838781E085BF82E085BF92
:100FF0001E96ED91FC911F97898183870F90DF9159
:10100000CF910895EF92FF920F931F93CF93DF93A9
:101010007C010E94492DCBEED4E09983888388E23D
:1010200090E09B838A8300E410E01D830C8384E2BC
:1010300090E09F838E8383E692E09987888747DBE1
:101040009B878A8788E690E09D878C8784E590E07F
:101050009F878E878CE390E0998B888B80E79DE15A
:101060009B8B8A8B0E94A91D9D8B8C8B88E590E0C1
:101070009F8B8E8B82E897E0998F888F7EDF9B8F86
:101080008A8F89E390E09D8F8C8F86E390E09F8F1D
:101090008E8F83E390E099A388A380E390E09BA3E5
:1010A0008AA381E290E09DA38CA380E290E09FA3BD
:1010B0008EA383E690E099A788A782E490E09BA79F
:1010C0008AA71DA70CA78DE290E09FA78EA78DE8A9
:1010D00099E099AB88ABBCD29BAB8AAB86E490E03D
:1010E0009DAB8CAB1FAB0EAB8AE79EE099AF88AF90
:1010F0000E9407119BAF8AAF8CE790E09DAF8CAF49
:101100001FAF0EAF8BE994E190932C0580932B05D4
:101110000E94351790932E0580932D0583E490E06F
:101120009093300580932F0580E092E190933205F3
:10113000809331050E94CE1290933405809333053D
:1011400080E590E09093360580933505109338053F
:10115000009337058FE09CE090933A058093390522
:101160001ED490933C0580933B0580E790E09093DC
:101170003E0580933D0582EF97E190934005809373
:101180003F050E9452179093420580934105C3E4A6
:10119000D5E009E210E01983088388E699E190938D
:1011A0004605809345050E94ED189093480580936D
:1011B00047051983088388E990E090934A05809356
:1011C000490581E29CE190934C0580934B050E9478
:1011D000251B90934E0580934D0581E490E09093FC
:1011E000500580934F0580EC97E0909352058093D3
:1011F000510584EE97E090935405809353058AE659
:10120000EBEEF4E0D70101900D928A95E1F7C7016A
:10121000DF91CF911F910F91FF90EF9008958BEE8A
:1012200094E00895EF92FF920F931F93CF93DF9373
:10123000442349F17C01EC01062F172F4150242F44
:1012400030E02F5F3F4FE20EF31EE9DFDC019E9698
:10125000ED91FC919F9789918283E1DFDC019E965D
:10126000ED91FC919F9781818823BCF7D8DFDC0149
:101270009E96ED91FC919F978281F80181938F0159
:10128000CE15DF0511F7DF91CF911F910F91FF90E0
:10129000EF9008950F931F93CF93DF936623E9F0A8
:1012A0008C01EC016150262F30E02F5F3F4F020F81
:1012B000131FB5DFDC019E96ED91FC919F978991FC
:1012C0008283ADDFDC019E96ED91FC919F97818139
:1012D0008823BCF7C017D10761F7DF91CF911F9129
:1012E0000F910895CF93C82F9ADFDC019E96ED9160
:1012F000FC919F97C28393DFDC019E96ED91FC9158
:101300009F9781818823BCF78ADFDC019E96ED914F
:10131000FC919F978281CF910895EF92FF920F9356
:101320001F93CF93DF9300D000D000D0CDB7DEB7AE
:10133000F82EE62E042F122FE5E5F5E082E199E084
:10134000918380838AE499E09383828382E799E0A2
:101350009583848364DFDC015E96ED91FC915F9759
:101360008181807F8183FF20F9F0B1E0FB122FC0E3
:1013700056DFDC019E96ED91FC919F978081806104
:1013800080834DDFDC015E96ED91FC915F9781815A
:101390008760818344DFDC015E96ED91FC915F976D
:1013A00082818160828325C03ADFDC019E96ED91C7
:1013B000FC919F9780818061808331DFDC015E96A4
:1013C000ED91FC915F9781818860818312C027DF56
:1013D000DC019E96ED91FC919F97808180618083D6
:1013E0001EDFDC015E96ED91FC915F978181876045
:1013F0008183EE2069F0B1E0EB1214C010DFDC0154
:101400009E96ED91FC919F9780818062808313C0AE
:1014100006DFDC019E96ED91FC919F9780818F7D88
:10142000808309C0FCDEDC019E96ED91FC919F97C4
:1014300080818F7D8083013081F028F00230B9F007
:101440000330F9F028C0EBDEDC019E96ED91FC91B3
:101450009F978081837F808327C0E1DEDC019E9699
:10146000ED91FC919F978081846080831DC0D7DEC1
:10147000DC019E96ED91FC919F978081886080832E
:1014800013C0CDDEDC019E96ED91FC919F9780818B
:101490008C60808309C0C3DEDC019E96ED91FC91D7
:1014A0009F978081837F8083103109F44CC040F482
:1014B000143019F11830A1F1123009F090C00AC0AF
:1014C000103409F466C0103809F476C0103209F0FF
:1014D00086C04CC0A4DEDC019E96ED91FC919F97E6
:1014E0008181816081839BDEDC019E96ED91FC9180
:1014F0009F9780818C7F808384C091DEDC019E96E3
:10150000ED91FC919F9781818E7F818388DEDC0144
:101510009E96ED91FC919F9780818C7F808371C016
:101520007EDEDC019E96ED91FC919F97818181602A
:10153000818375DEDC019E96ED91FC919F97808101
:10154000816080835EC06BDEDC019E96ED91FC9134
:101550009F9781818E7F818362DEDC019E96ED9173
:10156000FC919F978081816080834BC058DEDC01B5
:101570009E96ED91FC919F978181816081834FDEE2
:10158000DC019E96ED91FC919F9780818260808323
:1015900038C045DEDC019E96ED91FC919F978181DC
:1015A0008E7F81833CDEDC019E96ED91FC919F97BE
:1015B00080818260808325C032DEDC019E96ED91C1
:1015C000FC919F9781818170818329DEDC019E9649
:1015D000ED91FC919F9780818360808312C01FDE14
:1015E000DC019E96ED91FC919F97818181608183C2
:1015F00016DEDC019E96ED91FC919F9780818160C3
:1016000080830DDEDC019E96ED91FC919F97808199
:101610008064808386E0E5E5F5E0DE0111960190C7
:101620000D928A95E1F729813A814B815C816D8128
:101630007E8180E090E026960FB6F894DEBF0FBE64
:10164000CDBFDF91CF911F910F91FF90EF90089543
:1016500085E595E00895CF93DF93209164062111ED
:1016600079C0EC01DCDD865B9F4FDC01ED91FC91E4
:101670008381887F8383C034D105C1F150F4C830A1
:10168000D10501F1C032D10539F1219709F056C0D9
:101690000FC0C115B1E0DB0709F43CC0C11584E0FF
:1016A000D80709F441C0C038D10509F047C028C0A7
:1016B000B6DD865B9F4FDC01ED91FC9183818160FB
:1016C000838345C0ACDD865B9F4FDC01ED91FC91CF
:1016D0008381826083833BC0A2DD865B9F4FDC01F8
:1016E000ED91FC9183818360838331C098DD865BBB
:1016F0009F4FDC01ED91FC9183818460838327C03F
:101700008EDD865B9F4FDC01ED91FC9183818560CE
:1017100083831DC084DD865B9F4FDC01ED91FC91CE
:1017200083818660838313C07ADD865B9F4FDC01F3
:10173000ED91FC9183818760838309C070DD865BB6
:101740009F4FDC01ED91FC9183818760838385E568
:101750008093640680916406DF91CF910895CF93C2
:10176000C82F5DDD865B9F4FDC01ED91FC9183818D
:101770008F7C8383C230B1F0C33031F1C130A9F521
:101780004EDDDC015E96ED91FC915F9780E18183F7
:1017900046DD865B9F4FDC01ED91FC91838180618A
:1017A000838323C03CDDDC015E96ED91FC915F9765
:1017B00080E1818334DD865B9F4FDC01ED91FC91FC
:1017C00083818062838311C02ADDDC015E96ED9106
:1017D000FC915F9780E1818322DD865B9F4FDC0176
:1017E000ED91FC91838180638383CF910895CF93A2
:1017F000C82F15DD865B9F4FDC01ED91FC91C18305
:10180000CF9108950CDD865B9F4FDC01ED91FC913B
:101810008381887F83831092640680E008950F930C
:101820001F93CF93DF93CDB7DEB728970FB6F89409
:10183000DEBF0FBECDBF082F162F10926406EFDC5F
:10184000865B9F4FDC01ED91FC918381877B8383D5
:10185000023071F00330B1F00130E9F4E0DC865B76
:101860009F4FDC01ED91FC9183818064838313C0E1
:10187000D6DC865B9F4FDC01ED91FC918381886013
:10188000838309C0CCDC865B9F4FDC01ED91FC912A
:10189000838188648383C3DC865B9F4FDC01ED9189
:1018A000FC9187818E7F8783BADC865B9F4FDC014A
:1018B000ED91FC9187818D7F87831230B9F01330D1
:1018C00041F11130C1F5ABDC865B9F4FDC01ED913E
:1018D000FC91878181608783A2DCDC011E96ED91FB
:1018E000FC911F9783858068838725C098DC865B81
:1018F0009F4FDC01ED91FC918781826087838FDCB3
:10190000DC011E96ED91FC911F978385806883878B
:1019100012C085DC865B9F4FDC01ED91FC918781D5
:10192000836087837CDCDC011E96ED91FC911F9720
:1019300083858068838773DC865B9F4FDC01ED9134
:10194000FC918FEF8183EBE5F5E08FEA9BE09183DB
:10195000808387EF9BE0938382838BE29BE0958378
:10196000848382E09CE09783868388E0DE01119681
:1019700001900D928A95E1F729813A814B815C8132
:101980006D817E818F81988528960FB6F894DEBF91
:101990000FBECDBFDF91CF911F910F9108958BE5C1
:1019A00095E00895CF93DF9320916506211176C0CD
:1019B000EC0135DCDC01D496ED91FC91D597808566
:1019C000887F8087C830D10509F148F4C630D10539
:1019D00009F444C008F04CC0219771F053C0C11500
:1019E000B1E0DB0739F1C11584E0D80769F1C034F3
:1019F000D10509F047C014C012DCDC01D496ED918A
:101A0000FC91D59780858160808745C008DCDC012A
:101A1000D496ED91FC91D5978085826080873BC0FC
:101A2000FEDBDC01D496ED91FC91D5978085836037
:101A3000808731C0F4DBDC01D496ED91FC91D59721
:101A400080858460808727C0EADBDC01D496ED9135
:101A5000FC91D5978085856080871DC0E0DBDC0127
:101A6000D496ED91FC91D59780858660808713C0D0
:101A7000D6DBDC01D496ED91FC91D597808587600B
:101A8000808709C0CCDBDC01D496ED91FC91D59721
:101A900080858560808785E58093650680916506F1
:101AA000DF91CF910895CF93C82FB9DBDC01D49695
:101AB000ED91FC91D59781858F738187C230B9F004
:101AC000C33041F1C130C1F5AADBDC015E96ED9176
:101AD000FC915F97818180628183A1DBDC01D496D8
:101AE000ED91FC91D59781858064818725C097DB36
:101AF000DC015E96ED91FC915F978181806281832C
:101B00008EDBDC01D496ED91FC91D59781858068C0
:101B1000818712C084DBDC015E96ED91FC915F97BA
:101B20008181806281837BDBDC01D496ED91FC9125
:101B3000D5978185806C8187CF910895CF93C82FE9
:101B40006EDBDC01D496ED91FC91D59781858F7C7D
:101B50008187C230B9F0C33041F1C130C1F55FDBDC
:101B6000DC015E96ED91FC915F97818180648183B9
:101B700056DBDC01D496ED91FC91D597818580618F
:101B8000818725C04CDBDC015E96ED91FC915F976F
:101B900081818064818343DBDC01D496ED91FC91EB
:101BA000D59781858062818712C039DBDC015E9622
:101BB000ED91FC915F9781818064818330DBDC0152
:101BC000D496ED91FC91D597818580638187CF91E3
:101BD0000895CF93C82F23DBDC01D496ED91FC91BF
:101BE000D5978185837F8187C230B9F0C33041F1B9
:101BF000C130C1F514DBDC015E96ED91FC915F977D
:101C00008181806881830BDBDC01D496ED91FC91AE
:101C1000D59781858460818725C001DBDC015E96D4
:101C2000ED91FC915F97818180688183F8DADC0116
:101C3000D496ED91FC91D59781858860818712C0FB
:101C4000EEDADC015E96ED91FC915F978181806810
:101C50008183E5DADC01D496ED91FC91D5978185FD
:101C60008C608187CF910895DADADC01D496ED910A
:101C7000FC91D5978085887F80871092650680E0EB
:101C800008950F931F93CF93DF938C01C8DAFC0163
:101C9000C4A9D5A9C8010E94CB2D9D838C83DF9157
:101CA000CF911F910F9108950F931F93CF93DF93BF
:101CB0008C01B5DAFC01C4A9D5A9C8010E94CB2DBD
:101CC0009B838A83DF91CF911F910F9108950F938A
:101CD0001F93CF93DF938C01A2DAFC01C4A9D5A98D
:101CE000C8010E94CB2D9BAB8AABDF91CF911F9196
:101CF0000F9108950F931F93CF93DF93EC01062F5D
:101D0000142F1092650686E490E09093640580930A
:101D1000630585DADC01D496ED91FC91D597818538
:101D20008C7F81877CDADC01D496ED91FC91D5978C
:101D30008085877E8087802F90E0FC013197EF308F
:101D4000F10508F0EAC0E25AFF4F0C94F54067DA5B
:101D5000DC01D496ED91FC91D597818581608187D6
:101D6000DCC05DDADC01D496ED91FC91D5978185DC
:101D700082608187D2C053DADC01D496ED91FC9168
:101D8000D597818583608187C8C049DADC01D49604
:101D9000ED91FC91D597808588608087BEC03FDA41
:101DA000DC01D496ED91FC91D59781858160818786
:101DB00036DADC01D496ED91FC91D5978085886068
:101DC0008087ABC02CDADC01D496ED91FC91D597DD
:101DD00081858260818723DADC01D496ED91FC91C4
:101DE000D59780858860808798C019DADC01D49601
:101DF000ED91FC91D59781858360818710DADC01B4
:101E0000D496ED91FC91D59780858860808785C0B8
:101E100006DADC01D496ED91FC91D597808580613E
:101E200080877BC0FCD9DC01D496ED91FC91D597DD
:101E3000818581608187F3D9DC01D496ED91FC9195
:101E4000D59780858061808768C0E9D9DC01D49608
:101E5000ED91FC91D597818582608187E0D9DC0185
:101E6000D496ED91FC91D59780858061808755C08F
:101E7000D6D9DC01D496ED91FC91D597818583600C
:101E80008187CDD9DC01D496ED91FC91D5978085E1
:101E90008061808742C0C3D9DC01D496ED91FC916A
:101EA000D59780858861808738C0B9D9DC01D49600
:101EB000ED91FC91D597818581608187B0D9DC0156
:101EC000D496ED91FC91D59780858861808725C057
:101ED000A6D9DC01D496ED91FC91D59781858260DD
:101EE00081879DD9DC01D496ED91FC91D5978085B1
:101EF0008861808712C093D9DC01D496ED91FC9162
:101F0000D5978185836081878AD9DC01D496ED914C
:101F1000FC91D59780858861808781D9DC01D49632
:101F2000ED91FC91D59781858370818778D9DC010B
:101F3000D496ED91FC91D5978189837C818B6FD963
:101F4000DC01D496ED91FC91D59787A98E7F87AB64
:101F5000412F50E0FA013197EC30F10508F002C151
:101F6000E359FF4F0C94F5405AD9DC01D496ED911A
:101F7000FC91D59781898460818B51D9DC011E96B3
:101F8000ED91FC911F97838580688387EBC047D9CB
:101F9000DC01D496ED91FC91D59781898061818B8C
:101FA0003ED9DC011E96ED91FC911F9783858068D8
:101FB0008387D8C034D9DC01D496ED91FC91D597B4
:101FC00081898860818B2BD9DC011E96ED91FC9173
:101FD0001F97838580688387C5C021D9DC01D4968B
:101FE000ED91FC91D59787A9816087AB18D9DC0169
:101FF0001E96ED91FC911F97838580688387B2C000
:102000000ED9DC01D496ED91FC91D597818980623F
:10201000818B05D9DC011E96ED91FC911F9783857C
:10202000806883879FC0FBD8DC01D496ED91FC913A
:10203000D59781898461818BF2D8DC011E96ED9160
:10204000FC911F978385806883878CC0E8D8DC016A
:10205000D496ED91FC91D59781898C60818BDFD8E6
:10206000DC011E96ED91FC911F9783858068838724
:1020700079C0D5D8DC01D496ED91FC91D5978189B2
:102080008460818BCCD8DC01D496ED91FC91D597FE
:1020900087A9816087ABC3D8DC011E96ED91FC91C6
:1020A0001F978385806883875DC0B9D8DC01D4968B
:1020B000ED91FC91D59781898462818BB0D8DC0148
:1020C0001E96ED91FC911F978385806883874AC097
:1020D000A6D8DC01D496ED91FC91D59781898C61CD
:1020E000818B9DD8DC011E96ED91FC911F97838515
:1020F0008068838737C093D8DC01D496ED91FC913A
:10210000D59781898C61818B8AD8DC01D496ED9139
:10211000FC91D59787A9816087AB81D8DC011E9699
:10212000ED91FC911F978385806883871BC077D8CA
:10213000DC01D496ED91FC91D59781898861818BE2
:102140006ED8DC01D496ED91FC91D59787A981607A
:1021500087AB65D8DC011E96ED91FC911F978385B6
:10216000806883875CD8FC0104A915A98FEF9FEFD5
:102170000E94CB2DD80115969C938E9314974FD81F
:10218000FC0104A915A98FEF9FEF0E94CB2DD80168
:1021900013969C938E93129742D8FC0104A915A91B
:1021A0008FEF9FEF0E94CB2DD801D3969C938E93F7
:1021B000D297E3E6F5E083E59DE0938382838EE9A1
:1021C0009DE09583848389EE9DE09783868381E4F7
:1021D0009EE09187808784E59EE09387828787E6EB
:1021E0009EE09587848782ED9CE09787868784E3CD
:1021F0009EE0918B808B82E1DE0101900D928A95A9
:10220000E1F7CE01DF91CF911F910F91089583E601
:1022100095E00895CF93DF932091660621117FC04A
:10222000EC010E940F098C5B9F4FDC01ED91FC914A
:102230008281887F8283C830D10511F148F4C6308D
:10224000D10509F449C008F052C0219771F05AC075
:10225000C115B1E0DB0751F1C11584E0D80789F160
:10226000C034D10509F04EC016C00E940F098C5B26
:102270009F4FDC01ED91FC918281816082834CC093
:102280000E940F098C5B9F4FDC01ED91FC918281D4
:102290008260828341C00E940F098C5B9F4FDC01EA
:1022A000ED91FC9182818360828336C00E940F0988
:1022B0008C5B9F4FDC01ED91FC9182818460828375
:1022C0002BC00E940F098C5B9F4FDC01ED91FC91AC
:1022D00082818560828320C00E940F098C5B9F4FA2
:1022E000DC01ED91FC9182818660828315C00E94A1
:1022F0000F098C5B9F4FDC01ED91FC91828187601F
:1023000082830AC00E940F098C5B9F4FDC01ED9114
:10231000FC9182818560828385E580936606809149
:102320006606DF91CF910895CF93C82F0E940F09C1
:102330008C5B9F4FDC01ED91FC9182818F7C8283CD
:10234000C230C9F0C33061F1C130F1F50E940F090C
:10235000DC015E96ED91FC915F97818180688183BD
:102360000E940F098C5B9F4FDC01ED91FC918281F3
:102370008061828329C00E940F09DC015E96ED9185
:10238000FC915F978181806881830E940F098C5B3B
:102390009F4FDC01ED91FC9182818062828314C0A9
:1023A0000E940F09DC015E96ED91FC915F9781819F
:1023B000806881830E940F098C5B9F4FDC01ED9147
:1023C000FC91828180638283CF910895CF93C82F3F
:1023D0000E940F098C5B9F4FDC01ED91FC91C08343
:1023E000CF9108950E940F098C5B9F4FDC01ED9106
:1023F000FC918281887F82831092660680E0089536
:102400000F931F93CF93DF93CDB7DEB728970FB607
:10241000F894DEBF0FBECDBF082F162F10926606B0
:102420000E940F098C5B9F4FDC01ED91FC91828132
:10243000877B8283023079F00330C1F0013001F5EF
:102440000E940F098C5B9F4FDC01ED91FC91828112
:102450008064828315C00E940F098C5B9F4FDC0152
:10246000ED91FC918281886082830AC00E940F09ED
:102470008C5B9F4FDC01ED91FC91828188648283AB
:102480000E940F098C5B9F4FDC01ED91FC918489C8
:102490008F73848B1230D1F0133069F1113009F051
:1024A00048C00E940F098C5B9F4FDC01ED91FC91AD
:1024B00084898064848B0E940F09DC011E96ED9153
:1024C000FC911F9783858068838733C00E940F0922
:1024D0008C5B9F4FDC01ED91FC9184898068848B3B
:1024E0000E940F09DC011E96ED91FC911F978385D8
:1024F000806883871EC00E940F098C5B9F4FDC01A0
:10250000ED91FC9184898064848B0E940F098C5B1F
:102510009F4FDC01ED91FC9184898068848B0E943F
:102520000F09DC011E96ED91FC911F978385806851
:1025300083870E940F098C5B9F4FDC01ED91FC911A
:102540008FEF8083E5E7F5E084E991E19183808373
:1025500086EE91E1938382838AE091E1958384837F
:1025600082EF91E19783868388E0DE0111960190E6
:102570000D928A95E1F729813A814B815C816D81C9
:102580007E818F81988528960FB6F894DEBF0FBEA6
:10259000CDBFDF91CF911F910F91089585E795E011
:1025A0000895CF93DF932091670621117FC0EC013E
:1025B0000E940F09DC01DC96ED91FC91DD97868588
:1025C000887F8687C830D10511F148F4C630D1051F
:1025D00009F449C008F052C0219771F05AC0C115E2
:1025E000B1E0DB0751F1C11584E0D80789F1C034AF
:1025F000D10509F04EC016C00E940F09DC01DC961F
:10260000ED91FC91DD978685816086874CC00E94A4
:102610000F09DC01DC96ED91FC91DD9786858260E7
:10262000868741C00E940F09DC01DC96ED91FC9188
:10263000DD9786858360868736C00E940F09DC019E
:10264000DC96ED91FC91DD978685846086872BC0B2
:102650000E940F09DC01DC96ED91FC91DD978685E7
:102660008560868720C00E940F09DC01DC96ED9111
:10267000FC91DD9786858660868715C00E940F09CC
:10268000DC01DC96ED91FC91DD978685876086877D
:102690000AC00E940F09DC01DC96ED91FC91DD97E8
:1026A00086858560868785E58093670680916706C5
:1026B000DF91CF910895CF93C82F0E940F09DC01BD
:1026C000DC96ED91FC91DD9787858F738787C2300B
:1026D000C9F0C33061F1C130F1F50E940F09DC018E
:1026E0009496ED91FC9195978181886081830E94F9
:1026F0000F09DC01DC96ED91FC91DD978785806404
:10270000878729C00E940F09DC019496ED91FC9106
:1027100095978181886081830E940F09DC01DC9696
:10272000ED91FC91DD9787858068878714C00E94B2
:102730000F09DC019496ED91FC9195978181886059
:1027400081830E940F09DC01DC96ED91FC91DD97FD
:102750008785806C8787CF910895CF93C82F0E947B
:102760000F09DC01DC96ED91FC91DD9787858F7C6C
:102770008787C230C9F0C33061F1C130F1F50E94E2
:102780000F09DC019496ED91FC9195978181806110
:1027900081830E940F09DC01DC96ED91FC91DD97AD
:1027A00087858061878729C00E940F09DC01949684
:1027B000ED91FC9195978181806181830E940F0941
:1027C000DC01DC96ED91FC91DD978785806287873F
:1027D00014C00E940F09DC019496ED91FC9195972D
:1027E0008181806181830E940F09DC01DC96ED917B
:1027F000FC91DD97878580638787CF910895CF937C
:10280000C82F0E940F09DC01DC96ED91FC91DD9749
:102810008785837F8787C230C9F0C33061F1C130BB
:10282000F1F50E940F09DC019496ED91FC919597CA
:102830008181806281830E940F09DC01DC96ED9129
:10284000FC91DD9787858460878729C00E940F09E6
:10285000DC019496ED91FC91959781818062818352
:102860000E940F09DC01DC96ED91FC91DD978785D4
:102870008860878714C00E940F09DC019496ED914F
:10288000FC9195978181806281830E940F09DC0110
:10289000DC96ED91FC91DD9787858C608787CF91E1
:1028A00008950E940F09DC01DC96ED91FC91DD9703
:1028B0008685887F86871092670680E008950F934B
:1028C0001F93CF93DF938C010E940F09FC01C4ADCD
:1028D000D5ADC8010E94CB2D9B878A87DF91CF9110
:1028E0001F910F9108950F931F93CF93DF938C0146
:1028F0000E940F09FC01C4ADD5ADC8010E94CB2DCB
:1029000099878887DF91CF911F910F9108950F9339
:102910001F93CF93DF938C010E940F09FC01C4AD7C
:10292000D5ADC8010E94CB2D9F838E83DF91CF91BF
:102930001F910F9108950F931F93CF93DF93EC0195
:10294000062F142F109267060E940F09DC01DC96F7
:10295000ED91FC91DD9787858C7F87870E940F0919
:10296000DC01DC96ED91FC91DD978685877E86877C
:10297000802F90E0FC013197EF30F10508F002C1A3
:10298000E758FF4F0C94F5400E940F09DC01DC96DC
:10299000ED91FC91DD97878581608787F3C00E9468
:1029A0000F09DC01DC96ED91FC91DD978785826053
:1029B0008787E8C00E940F09DC01DC96ED91FC914D
:1029C000DD97878583608787DDC00E940F09DC0162
:1029D000DC96ED91FC91DD97868588608687D2C074
:1029E0000E940F09DC01DC96ED91FC91DD97878553
:1029F000816087870E940F09DC01DC96ED91FC91D4
:102A0000DD97868588608687BDC00E940F09DC013E
:102A1000DC96ED91FC91DD978785826087870E9427
:102A20000F09DC01DC96ED91FC91DD9786858860CD
:102A30008687A8C00E940F09DC01DC96ED91FC910D
:102A4000DD978785836087870E940F09DC01DC960C
:102A5000ED91FC91DD9786858860868793C00E9402
:102A60000F09DC01DC96ED91FC91DD978685806194
:102A7000868788C00E940F09DC01DC96ED91FC91ED
:102A8000DD978785816087870E940F09DC01DC96CE
:102A9000ED91FC91DD9786858061868773C00E94E9
:102AA0000F09DC01DC96ED91FC91DD978785826052
:102AB00087870E940F09DC01DC96ED91FC91DD9780
:102AC0008685806186875EC00E940F09DC01DC96E6
:102AD000ED91FC91DD978785836087870E940F09C0
:102AE000DC01DC96ED91FC91DD978685806186871F
:102AF00049C00E940F09DC01DC96ED91FC91DD9745
:102B00008685886186873EC00E940F09DC01DC96BD
:102B1000ED91FC91DD978785816087870E940F0981
:102B2000DC01DC96ED91FC91DD97868588618687D6
:102B300029C00E940F09DC01DC96ED91FC91DD9724
:102B40008785826087870E940F09DC01DC96ED9102
:102B5000FC91DD9786858861868714C00E940F09E5
:102B6000DC01DC96ED91FC91DD978785836087879A
:102B70000E940F09DC01DC96ED91FC91DD978685C2
:102B8000886186870E940F09DC01DC96ED91FC913B
:102B9000DD978785837087870E940F09DC01DC96AB
:102BA000ED91FC91DD978181817C8183412F50E003
:102BB000FA013197EC30F10508F0FFC0E857FF4FFC
:102BC0000C94F5400E940F09DC01DC96ED91FC911C
:102BD000DD978181846081830E940F09DC011E964C
:102BE000ED91FC911F97838580688387E6C00E94E2
:102BF0000F09DC01DC96ED91FC91DD97818180610C
:102C000081830E940F09DC011E96ED91FC911F97B4
:102C1000838580688387D1C00E940F09DC01DC9620
:102C2000ED91FC91DD978181886081830E940F097D
:102C3000DC011E96ED91FC911F9783858068838748
:102C4000BCC00E940F09DC01DC96ED91FC91DD9780
:102C50008181826081830E940F09DC011E96ED91C3
:102C6000FC911F97838580688387A7C00E940F0906
:102C7000DC01DC96ED91FC91DD978181806281839E
:102C80000E940F09DC011E96ED91FC911F97838530
:102C90008068838792C00E940F09DC01DC96ED9169
:102CA000FC91DD978181846181830E940F09DC01A1
:102CB0001E96ED91FC911F978385806883877DC068
:102CC0000E940F09DC01DC96ED91FC91DD9781817A
:102CD0008C6081830E940F09DC011E96ED91FC91AE
:102CE0001F9783858068838768C00E940F09DC0175
:102CF000DC96ED91FC91DD978181866081830E9455
:102D00000F09DC011E96ED91FC911F978385806869
:102D1000838753C00E940F09DC01DC96ED91FC9182
:102D2000DD978181846281830E940F09DC011E96F8
:102D3000ED91FC911F978385806883873EC00E9438
:102D40000F09DC01DC96ED91FC91DD9781818C61AE
:102D500081830E940F09DC011E96ED91FC911F9763
:102D600083858068838729C00E940F09DC01DC9677
:102D7000ED91FC91DD9781818E6181830E940F0925
:102D8000DC011E96ED91FC911F97838580688387F7
:102D900014C00E940F09DC01DC96ED91FC91DD97D7
:102DA00081818A6181830E940F09DC011E96ED9169
:102DB000FC911F978385806883870E940F09FC011F
:102DC00004AD15AD8FEF9FEF0E94CB2DD8011B9660
:102DD0009C938E931A970E940F09FC0104AD15ADC8
:102DE0008FEF9FEF0E94CB2DD80119969C938E9365
:102DF00018970E940F09FC0104AD15AD8FEF9FEFEE
:102E00000E94CB2DD80117969C938E931697EDE7D1
:102E1000F5E08BE593E1918380838DEA93E19383E1
:102E200082838FEF93E1958384838FE594E1978389
:102E3000868383E794E19187808787E894E193878D
:102E4000828781ED92E19587848781E594E1978778
:102E5000868780E1DE0101900D928A95E1F7CE012F
:102E6000DF91CF911F910F9108958DE795E008951F
:102E70000E940F098E5A9F4FDC01ED91FC918181D8
:102E8000887F08950E940F098E5A9F4FDC01ED91B3
:102E9000FC9184E984838FE891E00197F1F700C009
:102EA000000008958DE895E008950F931F93CF9348
:102EB000DF93D82FC62F1816BCF40E940F098E5A24
:102EC0009F4FDC01ED91FC91DD0F82818170D82B49
:102ED000D2830E940F098E5A9F4FDC01ED91FC9125
:102EE0008281816082830AC00E940F098E5A9F4F9F
:102EF000DC01ED91FC918281816082830E940F0947
:102F0000DC019296ED91FC9193978181836081839E
:102F10000E940F09DC019296ED91FC9193978281BA
:102F200083608283C430A1F018F4C13031F033C023
:102F3000C031D1F0C03421F12EC00E940F098E5A49
:102F40009F4FDC01ED91FC9181818C7F81832EC0AC
:102F50000E940F098E5A9F4FDC01ED91FC918181F7
:102F60008C7F8160818322C00E940F098E5A9F4FFF
:102F7000DC01ED91FC9181818C7F8260818316C0A0
:102F80000E940F098E5A9F4FDC01ED91FC918181C7
:102F9000836081830BC00E940F098E5A9F4FDC0112
:102FA000ED91FC9181818C7F8183C1E00E940F09AA
:102FB0008E5A9F4FFC01008111812C2F30E0220F8F
:102FC000331F032E000C440B550B60E970E080E0CA
:102FD00090E00E94B740D8012C93DF91CF911F91D0
:102FE0000F910895CF93DF93EC01862FEDE8F5E084
:102FF00029E338E1318320832AE438E133832283D3
:1030000022E437E1318720872FE638E135832483B6
:103010002BE838E13783268328E337E1338722879B
:10302000642F43DF8CE0EDE8F5E0DE0101900D92C6
:103030008A95E1F7CE01DF91CF9108950F931F9309
:10304000CF93DF938C01C0E0D0E004C00C171D07C4
:1030500058F021960E940F098E5A9F4FDC01ED9186
:10306000FC918481882394F7DF91CF911F910F9178
:1030700008950E940F098E5A9F4FDC01ED91FC913B
:1030800084EA84838FEF93E0D9DFF2DE883009F0A1
:10309000F9CE0895CF93662321F0C82FCC0FC160DD
:1030A00002C0C82FCC0F0E940F098E5A9F4FDC011F
:1030B000ED91FC91C3830E940F098E5A9F4FDC0152
:1030C000ED91FC9184E884838FEF93E0B7DFD0DE4D
:1030D000883119F0803409F0D5DECF910895CF936F
:1030E000C82F0E940F098E5A9F4FDC01ED91FC9171
:1030F000C3830E940F098E5A9F4FDC01ED91FC9112
:1031000084E884838FEF93E099DFB2DE883209F0A0
:10311000B9DECF910895CF93882311F0C0E401C0A8
:10312000C0E0C4680E940F098E5A9F4FDC01ED91E8
:10313000FC91C4838FEF93E081DF9ADE883309F43A
:10314000A1DE0E940F098E5A9F4FDC01ED91FC9188
:103150008381CF9108958091890610928906089500
:10316000E0919206F09193068AE896E00995089519
:10317000E0919406F09195068AE896E00995109200
:1031800096060895CF93C82F0E944F2DFC01918180
:10319000906291830E944F2DFC01C3835D9906C00C
:1031A00088E592E05D9902C00197E1F7CF9108951B
:1031B000E9CF0895CF93DF93EC018881882329F02C
:1031C0002196E0DF89918111FCCFDF91CF910895A5
:1031D000809189061092890608958AE995E00895FC
:1031E0001F920F920FB60F9211240BB60F922F93CE
:1031F0003F934F935F936F937F938F939F93AF937F
:10320000BF93EF93FF930E944F2DFC0191819F7D0F
:103210009183FF91EF91BF91AF919F918F917F919A
:103220006F915F914F913F912F910F900BBE0F9037
:103230000FBE0F901F9018958BB142E063E00C9485
:10324000552D08951F920F920FB60F9211240BB6B1
:103250000F922F933F934F935F936F937F938F932F
:103260009F93AF93BF93CF93EF93FF93E5DFC82F67
:103270000E944F2DFC018181C111C09396060E94CE
:103280004F2DFC01638160938906E0919006F091D7
:1032900091068AE896E00995FF91EF91CF91BF9151
:1032A000AF919F918F917F916F915F914F913F91DE
:1032B0002F910F900BBE0F900FBE0F901F9018957F
:1032C00021E041E064E08BE290E00C94722D0895DF
:1032D0002F923F924F925F926F927F928F929F9226
:1032E000AF92BF92CF92DF92EF92FF920F931F9314
:1032F000CF93DF93CDB7DEB72C970FB6F894DEBF30
:103300000FBECDBF1C012A013B01690181E0809302
:10331000990548E656E060E2CE01019646D48CE07D
:10332000FE013196AAE8B6E001900D928A95E1F788
:10333000C301B2010E94CC2D5C010E944F2DEAE92D
:10334000F5E0918380838BEA98E19383828388EE12
:1033500098E19583848380EB98E19783868388EB5B
:1033600098E19187808782EC98E19387828788ED46
:1033700098E1958784878AED98E197878687BB20B7
:1033800034F49EDFC301B2010E94DA2D5C010E9479
:103390004F2D4C01C5010E94CB2DF401E959FF4F7F
:1033A00090830E944F2D4C01C5010E94CB2DF4014A
:1033B00080830E944F2D28E9FC012183F7E0CF167E
:1033C000D10499F158F4E5E0CE16D10409F45BC0BC
:1033D000F6E0CF16D10409F43FC064C088E0C816F7
:1033E000D104A1F0E9E0CE16D10409F05BC00E943F
:1033F0004F2DFC019181946091830E944F2DFC011F
:10340000E459FF4F9081966090835AC00E944F2DDF
:10341000FC0191819B7F91830E944F2DFC01E45917
:10342000FF4F9081966090834BC00E944F2DFC010E
:1034300091819B7F91830E944F2DFC01E459FF4FA6
:103440009081946090830E944F2DFC01E459FF4FBE
:1034500090819D7F908334C00E944F2DFC0191810B
:103460009B7F91830E944F2DFC01E459FF4F908177
:103470009B7F90830E944F2DFC01E459FF4F908168
:10348000926090831DC00E944F2DFC0191819B7F13
:1034900091830E944F2DFC01E459FF4F9081997F49
:1034A00090830EC00E944F2DFC0191819B7F9183E0
:1034B0000E944F2DFC01E459FF4F9081966090834C
:1034C0000130110521F00230110551F012C00E94A7
:1034D0004F2DFC01E459FF4F9081977F908311C0DD
:1034E0000E944F2DFC01E459FF4F9081986090831A
:1034F00008C00E944F2DFC01E459FF4F9081977F37
:103500009083F2E0EF16F10479F083E0E816F1041D
:10351000E1F0EF2819F50E944F2DFC01E459FF4F0F
:1035200090819F7C908322C00E944F2DFC01E45922
:10353000FF4F9081906290830E944F2DFC01E459CF
:10354000FF4F90819F7E908311C00E944F2DFC0100
:10355000E459FF4F90819063908308C00E944F2DE3
:10356000FC01E459FF4F90819F7C90830E944C2D79
:10357000FC0123852068238780E1EAE9F5E0D10199
:1035800001900D928A95E1F7C1012C960FB6F8943F
:10359000DEBF0FBECDBFDF91CF911F910F91FF9086
:1035A000EF90DF90CF90BF90AF909F908F907F90E3
:1035B0006F905F904F903F902F9008958091970665
:1035C000109297060895E091C206F091C3068AEB27
:1035D00096E009950895E091C406F091C5068AEB3E
:1035E00096E009951092B9060895CF93C82F0E94CE
:1035F000522DFC019281906292830E94522DFC0117
:10360000C48380919B0085FD09C088E592E0EBE9C9
:10361000F0E0208125FD02C00197D9F7CF910895F0
:10362000E4CF0895CF93DF93EC018881882329F0BC
:103630002196DBDF89918111FCCFDF91CF91089535
:10364000809197061092970608958BEA95E0089569
:103650001F920F920FB60F9211240BB60F922F9359
:103660003F934F935F936F937F938F939F93AF930A
:10367000BF93EF93FF930E94522DFC0192819F7D97
:103680009283FF91EF91BF91AF919F918F917F9125
:103690006F915F914F913F912F910F900BBE0F90C3
:1036A0000FBE0F901F9018959F92AF92BF92CF922E
:1036B000DF92EF92FF920F931F93CF93DF938C01D2
:1036C0006B015A017901E90109900020E9F721977E
:1036D000C21BD30B9C2E8091AA05882351F0DB01DD
:1036E0001C921092AA05D8011896ED91FC91199799
:1036F0000995D8011696ED91FC91179709958C01C3
:10370000FC0101900020E9F73197E81BF90BE9155E
:10371000F0F1FF27CF018C1B9109EC01C00FD11FE5
:10372000B701CE010E941741892B61F4B801C6018F
:103730000E942041B801C5010E9420418FEF809373
:10374000AA0525C060E171E0CE010E941741892BD6
:1037500061F4B801C6010E942041B801C5010E9470
:1037600020418FEF8093AA0512C062EF73E0CE0173
:103770000E941741892B59F4B801C6010E942041CB
:10378000B801C5010E9420418FEF8093AA05C801AE
:10379000DF91CF911F910F91FF90EF90DF90CF902D
:1037A000BF90AF909F90089580919B0042E063E0AE
:1037B0000C94552D08951F920F920FB60F9211245D
:1037C0000BB60F922F933F934F935F936F937F931B
:1037D0008F939F93AF93BF93CF93EF93FF93E4DFC8
:1037E000C82F0E94522DFC018281C111C093B906DD
:1037F0000E94522DFC01648160939706E091C006FF
:10380000F091C1068AEB96E00995FF91EF91CF9177
:10381000BF91AF919F918F917F916F915F914F91E8
:103820003F912F910F900BBE0F900FBE0F901F90E6
:10383000189521E041E064E08BE990E00C94722D52
:1038400008954F925F926F927F928F929F92AF9264
:10385000BF92CF92DF92EF92FF920F931F93CF937D
:10386000DF93CDB7DEB72C970FB6F894DEBF0FBE4F
:10387000CDBF4C012A013B01690181E08093AA057B
:1038800048E956E060E2CE0101968FD18CE0FE015E
:103890003196AAEBB6E001900D928A95E1F7C3014B
:1038A000B2010E94CC2D5C010E94522DEBEAF5E0A2
:1038B000918380838EED9AE19383828380E29BE102
:1038C0009583848383EE9AE1978386838BEE9AE1D6
:1038D0009187808785EF9AE19387828780E19BE1DA
:1038E0009587848782E19BE197878687BB2034F4A4
:1038F000A0DFC301B2010E94DA2D5C010E94522DAB
:103900003C01C5010E94CB2DF30190830E94522DF2
:103910003C01C5010E94CB2DF30181830E94522DF1
:1039200028E9FC012283F7E0CF16D10471F150F4AD
:10393000E5E0CE16D10409F44EC0F6E0CF16D1046E
:10394000B9F156C088E0C816D10491F0E9E0CE166E
:10395000D10409F04DC00E94522DFC019281946067
:1039600092830E94522DFC019581966095834CC0F4
:103970000E94522DFC0192819B7F92830E94522DC6
:10398000FC019581966095833FC00E94522DFC01F9
:1039900092819B7F92830E94522DFC0195819460BD
:1039A00095830E94522DFC0195819D7F95832CC0AB
:1039B0000E94522DFC0192819B7F92830E94522D86
:1039C000FC0195819B7F95830E94522DFC0195817E
:1039D0009260958319C00E94522DFC0192819B7FB9
:1039E00092830E94522DFC019581997F95830CC092
:1039F0000E94522DFC0192819B7F92830E94522D46
:103A0000FC019581966095830130110521F002300B
:103A1000110541F00EC00E94522DFC019581977F47
:103A200095830DC00E94522DFC019581986095836D
:103A300006C00E94522DFC019581977F9583F2E08C
:103A4000EF16F10469F083E0E816F104B1F0EF2815
:103A5000D9F40E94522DFC0195819F7C95831AC058
:103A60000E94522DFC019581906295830E94522DF7
:103A7000FC0195819F7E95830DC00E94522DFC0113
:103A800095819063958306C00E94522DFC0195811B
:103A90009F7C95830E944C2DFC0123852068238701
:103AA00080E1EBEAF5E0D40101900D928A95E1F70F
:103AB000C4012C960FB6F894DEBF0FBECDBFDF91C8
:103AC000CF911F910F91FF90EF90DF90CF90BF901B
:103AD000AF909F908F907F906F905F904F900895E0
:103AE000EBEBF5E02BE234E4318320832DE634E484
:103AF0003383228327E434E43583248323E334E4CB
:103B0000378326832FE734E43187208720E634E4A7
:103B1000338722872AE734E4378726872AE734E485
:103B2000358B248B28E534E4378B268B2BE134E46A
:103B3000318F208F24E634E4338F228F28E334E45E
:103B4000358F248F2EE1DC0101900D922A95E1F74B
:103B500008958BEB95E008956623C1F0DC01129681
:103B6000ED91FC91139714962D913C911597E217C6
:103B7000F30729F4ED91FC91DF01119602C0DF01FA
:103B8000119660831C92FC01B383A2830895FC010B
:103B9000808191810895DC01ED91FC91119713963C
:103BA000FC93EE93129710820895FC015183408399
:103BB00053834283460F511D558344838CEA9DE114
:103BC0009783868387EC9DE1918780878BEC9DE1CD
:103BD00093878287CF01089521E030E0042E02C050
:103BE000220F331F0A94E2F7215031096223732315
:103BF000822393239C012627372762237323CB013B
:103C000002C0880F991F4A95E2F7822B932B0895E3
:103C1000CF92DF92EF92FF920F931F93FC010081EE
:103C2000118122813381FB01C080D180E280F38049
:103C3000FC01C082D182E282F382FB010083118306
:103C4000228333831F910F91FF90EF90DF90CF90ED
:103C50000895FB012081FC012083222339F0DB0140
:103C6000119631969D9191939111FCCF0895CF9328
:103C7000DF93EC019881992399F0FE01319620E0C1
:103C800030E0492F50E04617570731F0DE01A20F10
:103C9000B31F9C932F5F3F4F91919111F2CF02C0C0
:103CA00020E030E0FE01E20FF31F1082DF91CF91A0
:103CB00008952F923F924F925F926F927F928F92D0
:103CC0009F92AF92BF92CF92DF92EF92FF920F93AB
:103CD0001F93CF93DF9300D000D0CDB7DEB72C0178
:103CE0001B014B0177231CF42FEF821A920A959443
:103CF0008794181419040CF451C06AC09601DD2091
:103D00009CF1F50140815181F4016081718164175A
:103D1000750754F58C010A0D1B1DD401BC82AB82C2
:103D2000BA82A982EB81FC817183608311965C93D6
:103D30004E932E193F09C2F0F80140815181E9816B
:103D4000FA8160817181080F191FE80FF91FFA834A
:103D5000E983EB81FC81E80FF91FFC83EB83A80F5B
:103D6000B91F64177507F4F2FFEFCF1ADF0A22E0DC
:103D7000A20EB11CE2E08E0E911CC614D70409F00D
:103D8000BDCF4701FF201CF4FFEF8F1A9F0A9594C7
:103D9000879418141904E4F4740101C074018214A6
:103DA00093047CF76401CE18DF085601AA0CBB1CF3
:103DB000A40CB51C880C991C840C951C31016E1840
:103DC0007F08C701880F991F91958195910996CF1A
:103DD0000F900F900F900F90DF91CF911F910F9147
:103DE000FF90EF90DF90CF90BF90AF909F908F901B
:103DF0007F906F905F904F903F902F90089586171F
:103E000097070CF4CB0108959B01672B11F40895DB
:103E10009A01B9010E94A440AC01822F932F411551
:103E20005105B1F70895FC01908180ED890F8A302A
:103E3000D0F4319620E030E0A901440F551F220F45
:103E4000331F220F331F220F331F420F531F292FFF
:103E500030E020533109240F351F919180ED890FF7
:103E60008A3050F302C020E030E0C901089587FF96
:103E700008C091958195910999279195819591090E
:103E800008958F779927089591FF08C0919581959E
:103E90009109937091958195910908959170089574
:103EA000615021E030E002C0220F331F6A95E2F733
:103EB000A90141505109B90168237923672B29F0E1
:103EC00084239523821B930B0895842395230895BF
:103ED0009DEC899F912D1124969596959695392F55
:103EE000330F232F220F220F230F821B20E1929FDB
:103EF000800D11240895982F92959F70990F292F66
:103F0000220F220F920F8F70890F0895FC01DB01A1
:103F1000A752BA4F1C921616170614F590819111EC
:103F20000CC017C0919191110DC015C081932F5FE6
:103F30003F4F26173707D4F313C0A9EDB5E03196EC
:103F400020E030E09D932F5F3F4F6217730751F7DA
:103F500007C020E030E0F901E752FA4F80E2E6CFF7
:103F600089ED95E008954F925F926F927F92AF92A4
:103F7000BF92CF92DF92EF92FF920F931F93CF9356
:103F8000DF93CDB7DEB729013A019B01AC012419BB
:103F900035094609570989899A89AB89BC89BC01C9
:103FA000CD016A197B098C099D090E948140A801F5
:103FB000970124193509460957090E94D940CA01B9
:103FC000B9016A0D7B1D8C1D9D1DDF91CF911F9145
:103FD0000F91FF90EF90DF90CF90BF90AF907F90C8
:103FE0006F905F904F900895FC012081222341F053
:103FF000319680E090E0019621912111FCCF089547
:1040000080E090E00895CF93DF93EC01EDDF9C0119
:104010002150310962F0FE01E80FF91F92919032B0
:1040200019F09950923018F421503109B8F7C20FA5
:10403000D31F1982C901DF91CF910895CF93DF93E8
:10404000EC01D2DF9C01215031091216130684F4D1
:10405000DE01A80FB91FFE0180E090E040815E9173
:1040600051934C9301962150310982179307B4F371
:10407000DF91CF910895CF92DF92EF92FF921F933D
:10408000CF93DF932AE030E040E050E00E94B74059
:10409000605D6093D905622F732F842F952F611572
:1040A000710581059105F1F0C1E00F2EFAE0CF2EE8
:1040B000D12CE12CF12CF02D11E01C0FD0E0C752D7
:1040C000DA4FA70196010E94B740605D6883622FB6
:1040D000732F842F952FC12F6115710581059105CF
:1040E00059F701C011E0E12FF0E0E752FA4F1082DA
:1040F00089ED95E0A3DF89ED95E0DF91CF911F91E8
:10410000FF90EF90DF90CF9008958F929F92AF92A3
:10411000BF92CF92DF92EF92FF920F931F93CF93B4
:10412000DF936B017C01DC01CB01FF203CF488278D
:104130009927DC018C199D09AE09BF09BC01CD018D
:1041400010E00F2EFAE08F2E912CA12CB12CF02D27
:1041500001C0102F01E0010FC12FD0E0C752DA4F8C
:10416000A50194010E94D940605D6883622F732F7E
:10417000842F952F161617061806190654F3FF20DC
:1041800044F4E02FF0E0E752FA4F8DE2808302E042
:10419000010FE02FF0E0E752FA4F108289ED95E031
:1041A0004DDF89ED95E0DF91CF911F910F91FF9049
:1041B000EF90DF90CF90BF90AF909F908F90089539
:1041C0000F931F93CF93DF93EC01992324F4882757
:1041D00099278C1B9D0B20E00AE010E001C0232FE3
:1041E00031E0320FE22FF0E0E752FA4FB8010E94BF
:1041F000A440805D8083862F972F181619067CF3C4
:10420000DD2344F4E32FF0E0E752FA4F8DE28083A0
:1042100032E0320FE32FF0E0E752FA4F108289EDDF
:1042200095E00CDF89ED95E0DF91CF911F910F9123
:104230000895CF93AC019C01ADECBCEC0E94FE4014
:104240009695879596958795969587959C01220FCB
:10425000331F880F991F880F991F880F991F820F8E
:10426000931F9A01281B390BC901805D8093D905E2
:104270009A010E94FE40AC01569547955695479588
:10428000569547954115510589F1E1E0C1E0CE0F02
:10429000F0E0E752FA4F9A01ADECBCEC0E94FE4010
:1042A0009695879596958795969587959C01220F6B
:1042B000331F880F991F880F991F880F991F820F2E
:1042C000931F9A01281B390BC901805D80839A01D5
:1042D0000E94FE40AC0156954795569547955695D8
:1042E0004795EC2F4115510589F601C0C1E0EC2F2F
:1042F000F0E0E752FA4F108289ED95E09FDE89EDFC
:1043000095E0CF910895982F92959F70990F292F3E
:10431000220F220F920F8F70890F0895AC019C011C
:10432000ADECBCEC0E94FE409695879596958795DE
:1043300096958795BC01660F771F9C01220F331F4E
:10434000220F331F220F331F260F371F421B530B21
:10435000342F20E1829F300D1124832F0895CF92B6
:10436000DF92EF92FF92CF93DF93CDB7DEB728971E
:104370000FB6F894DEBF0FBECDBF6B017C01698321
:104380007A838B839C832D833E834F835887C21609
:10439000D306E406F50634F4BE016B5F7F4FCE0111
:1043A000019636DC8D819E81AF81B885892B8A2B61
:1043B0008B2B71F469817A818B819C8120E030E0C4
:1043C000A9010E94D940611571058105910529F463
:1043D0006D817E818F81988505C06D837E838F83FB
:1043E0009887F6CF28960FB6F894DEBF0FBECDBFE4
:1043F000DF91CF91FF90EF90DF90CF9008959C01D7
:104400002150310981E090E002C0880F991F2A9560
:10441000E2F70097B1F0E9EDF5E020E030E0B0E33D
:10442000A1E3AB0148235923452B11F0A08301C020
:10443000B083969587952F5F3F4F3196009789F708
:1044400002C020E030E0F901E752FA4F108289ED16
:1044500095E00895AB01BC011092D90541155105B5
:104460006105710509F442C021E0EFEFE20FDB01C5
:10447000CA018F709927AA27B078BB2354F40197FB
:10448000A109B109806F9F6FAF6FBF6F0196A11D2A
:10449000B11D8A309105A105B10534F4F0E0E75271
:1044A000FA4F805D808305C0F0E0E752FA4F895CE7
:1044B0008083E22FF0E0E752FA4F1082DB01CA015D
:1044C00077231CF40F96A11DB11DAC01BD016894AA
:1044D00013F875956795579547951694D1F72F5F03
:1044E000411551056105710509F0BFCF89ED95E0D2
:1044F000A5DD89ED95E008959827892798270895E7
:10450000FB012081222339F0A82FB92F31962D935A
:1045100021912111FCCF0895CF93DF93CDB7DEB762
:104520009E012B5F3F4FF901419151919F016FE136
:1045300070E089ED95E00E94364199231CF089EDE9
:1045400095E002C080E090E0DF91CF910895109255
:10455000F805E9EFF5E024EF3FE1318320832EE118
:1045600030E2338322832CEE3DE13583248328E03F
:104570003EE13783268329E23EE13187208727E326
:104580003EE13387228729E53EE13587248720EE07
:1045900030E23787268729E131E2318B208B25E80D
:1045A00030E2338B228B2BE330E2358B248B23E0FC
:1045B00030E2378B268B2FEF3EE1318F208F24E0C6
:1045C0003FE1338F228F23E13FE1358F248F27E3B3
:1045D0003FE1378F268F24E43FE131A320A320E57C
:1045E0003FE133A322A328E63FE135A324A32BE731
:1045F0003FE137A326A326E83FE131A720A723EB1D
:104600003FE133A722A723E831E235A724A72EE80C
:1046100031E237A726A72FEA31E231AB20AB2FEFEB
:1046200031E233AB22AB2EEC33E235AB24AB2AE2E2
:1046300032E237AB26AB2CE732E231AF20AF2CE8C9
:1046400032E233AF22AF20E832E235AF24AF2EE3BF
:10465000DC0101900D922A95E1F7089589EF95E02C
:104660000895CF92DF92EF92FF920F931F93CF9313
:10467000DF93C1E0C40F042F10E007521A4F2AE065
:1046800030E040E050E00E94B740605DF801608398
:10469000622F732F842F952F611571058105910568
:1046A000E9F00F2EFAE0CF2ED12CE12CF12CF02DD9
:1046B00011E01C0FD0E0C752DA4FA70196010E940B
:1046C000B740605D6883622F732F842F952FC12FB1
:1046D000611571058105910559F701C01C2FE12F66
:1046E000F0E0E752FA4F1082812FDF91CF911F91B6
:1046F0000F91FF90EF90DF90CF900895CF92DF92CF
:10470000EF92FF920F931F93CF93DF93C42F022F4B
:1047100020E030E040E251E40E941E406B017C0149
:10472000002361F10C0F11E01C0FD0E0C752DA4FEB
:1047300020E030E040E452E4C701B6010E94D83ED8
:104740000E94403F6883C701B6010E94403F70E06D
:1047500080E090E00E946E3F9B01AC01C701B60172
:104760000E94D73E20E030E040E251E40E941E402B
:104770006B017C01C12F0113D6CF01C00C2FE02F9C
:10478000F0E0E752FA4F1082802FDF91CF911F9116
:104790000F91FF90EF90DF90CF9008958F929F92AE
:1047A000AF92BF92CF92DF92EF92FF920F931F933F
:1047B000CF93DF936B017C01D42F20E030E0A9017F
:1047C0000E943C3F88230CF5F7FAF094F7F8F09438
:1047D000C701B6010E94403F4B015C010E946C3F43
:1047E0009B01AC01C701B6010E94D73E6B017C0161
:1047F00040E0C501B40135DFC1E0C80FE82FF0E0AB
:10480000E752FA4F8DE2808315C0C701B6010E94BE
:10481000403F4B015C010E946C3F9B01AC01C70112
:10482000B6010E94D73E6B017C0140E0C501B40196
:1048300018DFC82F0C2F10E007521A4FF801108212
:1048400089ED95E0FBDB8EE2F801808341E04C0FBF
:104850002D2FC701B60152DF89ED95E0DF91CF9191
:104860001F910F91FF90EF90DF90CF90BF90AF908E
:104870009F908F90089501978438910508F0DBC1CF
:104880008C569F4FFC010C94F54085E0EDEAF1E079
:10489000A6ECB6E001900D928A95E1F7D5C18DE0C6
:1048A000E2E1F1E0A6ECB6E001900D928A95E1F725
:1048B000CBC18AE0EFE1F1E0A6ECB6E001900D9209
:1048C0008A95E1F7C1C18AE0E9E2F1E0A6ECB6E041
:1048D00001900D928A95E1F7B7C18BE0E3E3F1E037
:1048E000A6ECB6E001900D928A95E1F7ADC18AE0A1
:1048F000EEE3F1E0A6ECB6E001900D928A95E1F7C7
:10490000A3C18AE0E8E4F1E0A6ECB6E001900D92E4
:104910008A95E1F799C18AE0E2E5F1E0A6ECB6E01C
:1049200001900D928A95E1F78FC18AE0ECE5F1E004
:10493000A6ECB6E001900D928A95E1F785C18AE078
:10494000E6E6F1E0A6ECB6E001900D928A95E1F77B
:104950007BC189E0E0E7F1E0A6ECB6E001900D92C2
:104960008A95E1F771C189E0E9E7F1E0A6ECB6E0EC
:1049700001900D928A95E1F767C18DE0E2E8F1E0E0
:10498000A6ECB6E001900D928A95E1F75DC18BE04F
:10499000EFE8F1E0A6ECB6E001900D928A95E1F720
:1049A00053C18BE0EAE9F1E0A6ECB6E001900D928C
:1049B0008A95E1F749C18DE0E5EAF1E0A6ECB6E0C1
:1049C00001900D928A95E1F73FC18AE0E2EBF1E0B8
:1049D000A6ECB6E001900D928A95E1F735C18BE027
:1049E000ECEBF1E0A6ECB6E001900D928A95E1F7D0
:1049F0002BC18BE0E7ECF1E0A6ECB6E001900D9264
:104A00008A95E1F721C18BE0E2EDF1E0A6ECB6E09A
:104A100001900D928A95E1F717C18BE0EDEDF1E081
:104A2000A6ECB6E001900D928A95E1F70DC18BE0FE
:104A3000E8EEF1E0A6ECB6E001900D928A95E1F780
:104A400003C18BE0E3EFF1E0A6ECB6E001900D923C
:104A50008A95E1F7F9C08BE0EEEFF1E0A6ECB6E065
:104A600001900D928A95E1F7EFC08BE0E9E0F2E06A
:104A7000A6ECB6E001900D928A95E1F7E5C08BE0D7
:104A8000E4E1F2E0A6ECB6E001900D928A95E1F740
:104A9000DBC08BE0EFE1F2E0A6ECB6E001900D9216
:104AA0008A95E1F7D1C08BE0EAE2F2E0A6ECB6E04D
:104AB00001900D928A95E1F7C7C08BE0E5E3F2E043
:104AC000A6ECB6E001900D928A95E1F7BDC08BE0AF
:104AD000E0E4F2E0A6ECB6E001900D928A95E1F7F1
:104AE000B3C08BE0EBE4F2E0A6ECB6E001900D92EF
:104AF0008A95E1F7A9C08BE0E6E5F2E0A6ECB6E026
:104B000001900D928A95E1F79FC08BE0E1E6F2E01B
:104B1000A6ECB6E001900D928A95E1F795C08EE083
:104B2000ECE6F2E0A6ECB6E001900D928A95E1F792
:104B30008BC08FE0EAE7F2E0A6ECB6E001900D92C0
:104B40008A95E1F781C08FE0E9E8F2E0A6ECB6E0F3
:104B500001900D928A95E1F777C08FE0E8E9F2E0E5
:104B6000A6ECB6E001900D928A95E1F76DC08FE05A
:104B7000E7EAF2E0A6ECB6E001900D928A95E1F743
:104B800063C08FE0E6EBF2E0A6ECB6E001900D9298
:104B90008A95E1F759C08FE0E5ECF2E0A6ECB6E0CB
:104BA00001900D928A95E1F74FC08FE0E4EDF2E0BD
:104BB000A6ECB6E001900D928A95E1F745C08AE037
:104BC000E3EEF2E0A6ECB6E001900D928A95E1F7F3
:104BD0003BC08AE0EDEEF2E0A6ECB6E001900D926B
:104BE0008A95E1F731C08DE0E7EFF2E0A6ECB6E0A0
:104BF00001900D928A95E1F727C08BE0E4E0F3E0A5
:104C0000A6ECB6E001900D928A95E1F71DC08BE00D
:104C1000EFE0F3E0A6ECB6E001900D928A95E1F7A3
:104C200013C08AE0EAE1F3E0A6ECB6E001900D9251
:104C30008A95E1F709C085E0EDEAF1E0A6ECB6E07F
:104C400001900D928A95E1F786EC96E00895109216
:104C5000F006E7E3F6E080E2808383EF96E092835C
:104C60008183948383830895CF93DF9321E080E051
:104C7000A8EEB6E0ECEEF6E060E071E001C02F5F78
:104C80009FEF920F913009F44BC038F0923009F445
:104C90008CC0933009F4CEC00EC14091F5065091FE
:104CA000F606EA019881906898834091E606509153
:104CB000E706EA0198819F7798834091F106509129
:104CC000F206EA01388134773C939081432F4927DB
:104CD00094233083992399F0943019F4EB0188815F
:104CE0000AC0903119F4EB01898109C0903219F49E
:104CF000EB018A8104C0903411F4EB018B81409167
:104D0000F5065091F606EA0198819F7798834091C5
:104D1000E6065091E706EA01988190689883AFCF44
:104D20004091F5065091F606EA01988191609883CA
:104D30004091E6065091E706EA0198819E7F9883AC
:104D40004091F1065091F206EA01388134771196CC
:104D50003C9311979181432F4927942331839923C1
:104D600099F0943019F4EB018C810AC0903119F458
:104D7000EB018D8109C0903219F4EB018E8104C0E2
:104D8000903411F4EB018F814091F5065091F606B5
:104D9000EA0198819E7F98834091E6065091E7064C
:104DA000EA019881916098836ACF4091F50650910D
:104DB000F606EA019881926098834091E606509148
:104DC000E706EA0198819D7F98834091F106509112
:104DD000F206EA013881347712963C931297928159
:104DE000432F492794233283992399F0943019F45F
:104DF000EB0188850AC0903119F4EB01898509C05F
:104E0000903219F4EB018A8504C0903411F4EB015F
:104E10008B854091F5065091F606EA0198819D7FB9
:104E200098834091E6065091E706EA0198819260E6
:104E3000988325CFE091F506F091F6069081986071
:104E40009083E091E606F091E7069081977F90834A
:104E5000E091F106F091F206208124772093EB0691
:104E6000ECEEF6E09381322F3927932323839923A5
:104E700099F0943019F480910C010AC0903119F422
:104E800080910D0109C0903219F480910E0104C087
:104E9000903411F480910F01E091F506F091F6063F
:104EA0009081977F9083E091E606F091E7069081EC
:104EB0009860908303C0243008F4E1CEDF91CF9155
:104EC0000895D2DE882309F445C0809337068434E0
:104ED00099F4E091F006F0E0E950F94F1082109259
:104EE000F006E7E3F6E083EF96E09283818387EFB5
:104EF00096E0948383830895E091F006E630B8F459
:104F0000AE2FB0E0A950B94F8C93EF5FE093F0065D
:104F1000F0E0E950F94F1082E7E3F6E087EF96E022
:104F20009283818383EF96E0948383830895E7EFF0
:104F3000F6E0808381E08093F0061182A7E3B6E07B
:104F40001296FC93EE93119783EF96E014969C9340
:104F50008E9313970895CF93DF93CDB7DEB728973D
:104F60000FB6F894DEBF0FBECDBFDA0127E336E0FF
:104F700050E2F9015083E3EFF6E050831182909301
:104F8000F6068093F5067093F2066093F106B093EF
:104F9000E706A093E6064BE8FC014083E091E606B5
:104FA000F091E70684E78083A8EEB6E08C93ECEE00
:104FB000F6E0808311968C931197818312968C93DF
:104FC0001297828313968C9383831092F006ECE3FE
:104FD000F6E03183208384E396E29383828381E643
:104FE00097E29583848387E296E297838683E091B4
:104FF000E606F091E70680818B68808388E0ECE329
:10500000F6E0DE01119601900D928A95E1F7298173
:105010003A814B815C816D817E818F819885289654
:105020000FB6F894DEBF0FBECDBFDF91CF910895CC
:105030008CE396E0089584E496E00895E0910807F3
:10504000F091090780818B7F8083E0910807F091C0
:10505000090780818460808308950F931F93CF9305
:10506000C82F8B01E0910807F091090780818D7F9F
:105070008083E0910507F09106078081806F80832F
:10508000672B41F0E0910807F0910907808181606A
:10509000808307C0E0910807F091090780818E7F27
:1050A000808380E090E0CADFCC2344F4E0910807DD
:1050B000F091090780818068808307C0E09108072C
:1050C000F091090780818F778083C6FF08C0E09147
:1050D0000807F091090780818064808307C0E09110
:1050E0000807F091090780818F7B8083C5FF08C086
:1050F000E0910807F091090780818062808307C0F2
:10510000E0910807F091090780818F7D8083C4FFBB
:1051100008C0E0910807F0910907808180618083D1
:1051200007C0E0910807F091090780818F7E808396
:10513000012B41F0E0910807F0910907808181601F
:10514000808307C0E0910807F091090780818E7F76
:10515000808380E090E072DFC3FF08C0E091080721
:10516000F091090780818068808307C0E09108077B
:10517000F091090780818F778083C2FF08C0E0919A
:105180000807F091090780818064808307C0E0915F
:105190000807F091090780818F7B8083C1FF08C0D9
:1051A000E0910807F091090780818062808307C041
:1051B000E0910807F091090780818F7D8083C0FF0F
:1051C00008C0E0910807F091090780818061808321
:1051D00007C0E0910807F091090780818F7E8083E6
:1051E000E0910807F091090780818B7F8083CF9140
:1051F0001F910F91089560E070E081E02EDF87EE4F
:1052000097E10197F1F700C0000008950F931F93F5
:10521000CF938C01E0910507F091060780818F7094
:105220008083E0910807F09109078081806F808377
:10523000E0910807F0910907808182608083011561
:10524000110541F0E0910807F09109078081816024
:10525000808307C0E0910807F091090780818E7F65
:10526000808380E090E0EADEE091FE06F091FF06A8
:105270008081882314F0C0E001C0C0E8808186FFEF
:1052800002C0C06401C0CF7B808185FF02C0C062C4
:1052900001C0CF7D808184FF02C0C06101C0CF7E8C
:1052A000012B41F0E0910807F091090780818160AE
:1052B000808307C0E0910807F091090780818E7F05
:1052C000808380E090E0BADEE091FE06F091FF0678
:1052D000808188231CF48C2F886002C08C2F877FEC
:1052E000908196FF02C0846001C08B7F908195FF02
:1052F00002C0826001C08D7F908194FF02C08160F6
:1053000001C08E7FE0910807F091090790819B7F93
:105310009083CF911F910F91089580E090E076DF08
:10532000882344F480E090E071DF88231CF480E05F
:1053300090E06CCF089561E070E08FDEEECF0895CD
:10534000CF93DF93EC018881882329F02196F3DF46
:1053500089918111FCCFDF91CF9108950F931F9315
:10536000CF93DF93FC01D62F8081882351F08F01EA
:105370000F5F1F4F611109C015C0CF5FDC1730F4FC
:1053800001C0C0E0CD1748F00DC0C1E0D4DFF80186
:1053900081918F018111F1CFF5CF80E2CCDFCF5F1A
:1053A000CD17D8F3DF91CF911F910F910895CF932F
:1053B000C82F882321F080E2BEDFC150E1F7CF91F2
:1053C0000895262F8130910571F030F082309105DB
:1053D00089F00397B1F0089560E070E080E8820FF3
:1053E0003CDE9BCF089560E070E080EC820F35DEFC
:1053F00094CF089560E070E084E9820F2EDE8DCFB7
:10540000089560E070E084ED820F27DE86CF089576
:10541000E0910507F091060787E08083E091080797
:10542000F091090788E080832FEF83EF91E021500E
:1054300080409040E1F700C0000060E070E088E349
:105440000CDE20ED2A95F1F760E070E088E305DEE0
:1054500080ED8A95F1F760E070E088E3FEDD90ED85
:105460009A95F1F760E070E088E2F7DD25EC2A9587
:10547000F1F7000060E070E088E2EFDD85EC8A95EE
:10548000F1F7000060E070E088E2E7DD46DF60E011
:1054900070E088E2E2DD41DF60E070E08CE0DDDDBD
:1054A0003CDF60E070E08CE0D8DD37DF60E070E08A
:1054B00081E0D3DD32DF60E070E081E0CEDD2DDF22
:1054C00060E070E086E0C9DD28DF60E070E086E043
:1054D000C4DD23DF60E070E080E090E072CF0895EB
:1054E000CF93DF93EC017093060760930507509309
:1054F000FF064093FE063093090720930807FB013F
:105500001082E0910807F09109078FEF8083E09106
:10551000FE06F091FF068081887080930707E4E41F
:10552000F6E08DE298E29183808386E099E29383AE
:1055300082838DE899E2958384838BE999E297834E
:1055400086838BED9AE29187808780EA99E2938740
:1055500082878EEA99E29587848787ED99E297871B
:1055600086878BEF98E2918B808B81EE99E2938B0B
:10557000828B8AEC9AE2958B848B4ADF86E1E4E4A5
:10558000F6E0DE0101900D928A95E1F7CE01DF9100
:10559000CF910895CF93E091FE06F091FF06C08170
:1055A000C870809107078C278C2309F031DFC093E6
:1055B0000707CF910895CF9381E090E027DEC82FB1
:1055C000ACDE8C2FCF910895FF920F931F93CF9352
:1055D000DF93182F062FF42ECCE0D7E0E881F98175
:1055E0000995EA81FB8160E081E50995EC81FD8107
:1055F00082E00995EC81FD818F2D0995EC81FD817B
:10560000802F0995EC81FD81812F0995E885F98529
:105610000995DF91CF911F910F91FF9008951F93EE
:10562000CF93DF93182FCCE0D7E0E881F98109957B
:10563000EA81FB8160E081E50995EC81FD8184E0F0
:105640000995EC81FD81812F0995E885F9850995FA
:10565000DF91CF911F9108951F93CF93DF93182F60
:10566000CCE0D7E0E881F9810995EA81FB8160E02F
:1056700081E50995EC81FD8183E00995EC81FD814F
:10568000812F0995E885F9850995DF91CF911F91C3
:1056900008951F93CF93DF93182FCCE0D7E0E881D4
:1056A000F9810995EA81FB8160E081E50995EC814A
:1056B000FD8182E00995EC81FD81812F0995E885C6
:1056C000F9850995DF91CF911F9108951F93CF938D
:1056D000DF93882321F06370162F106801C010E05B
:1056E000CCE0D7E0E881F9810995EA81FB8160E0AF
:1056F00081E50995EC81FD818DE00995EC81FD81C5
:10570000812F0995E885F9850995DF91CF911F9142
:105710000895EF92FF920F931F93CF93DF93E82E9C
:10572000F62E042F122FCCE0D7E0E881F9810995FD
:10573000EA81FB8160E081E50995EC81FD8185E0EE
:105740000995EC81FD818E2D0995EC81FD818F2DD0
:105750000995EC81FD81802F0995EC81FD81812FD8
:105760000995E885F9850995DF91CF911F910F91F2
:10577000FF90EF9008951F93CF93DF93182FCCE005
:10578000D7E0E881F9810995EA81FB8160E081E554
:105790000995EC81FD8188E00995EC81FD81812FDF
:1057A0000995E885F9850995DF91CF911F910895B5
:1057B0001F93CF93DF93182FCCE0D7E0E881F981D6
:1057C0000995EA81FB8160E081E50995EC81FD8125
:1057D00087E00995EC81FD81812F0995E885F985A0
:1057E0000995DF91CF911F9108951F93CF93DF9378
:1057F000182FCCE0D7E0E881F9810995EA81FB8197
:1058000060E081E50995EC81FD8186E00995EC81F8
:10581000FD81812F0995E885F9850995DF91CF9163
:105820001F9108951F93CF93DF93182FCCE0D7E0FB
:10583000E881F9810995EA81FB8160E081E50995BC
:10584000EC81FD8185E00995EC81FD81812F099531
:10585000E885F9850995DF91CF911F910895FF9211
:105860000F931F93CF93DF93CCE0D7E0E881F981CA
:105870000995EA81FB8160E081E50995EC81FD8174
:1058800082E00995E885F9850995E881F98109950E
:10589000EA81FB8161E081E50995EE81FF8181E08C
:1058A0000995F82EEE81FF8181E00995182FEE8190
:1058B000FF8180E00995082FE885F9850995602F1B
:1058C0006F73712F7F778F2D8F77DF91CF911F911E
:1058D0000F91FF900895EF92FF920F931F93CF9334
:1058E000DF93CCE0D7E0E881F9810995EA81FB817B
:1058F00060E081E50995EC81FD8185E00995E88509
:10590000F9850995E881F9810995EA81FB8161E0D2
:1059100081E50995EE81FF8181E00995082FEE81EF
:10592000FF8181E00995F82EEE81FF8181E00995E4
:10593000182FEE81FF8180E00995E82EE885F98532
:105940000995712F7F716E2D8F2D8770902F9F730A
:10595000DF91CF911F910F91FF90EF900895982FB5
:1059600092959F70990F292F220F220F920F8F70FF
:10597000890F08959DEC899F912D112496959695F8
:105980009695392F330F232F220F220F230F821BBF
:1059900020E1929F800D11240895CF93DF93CCE0F6
:1059A000D7E0E881F9810995EA81FB8160E081E532
:1059B0000995EC81FD8180E00995EC81FD8180E015
:1059C0000995E885F9850995DF91CF9108950F93A1
:1059D0001F93CF93DF93CDB7DEB72C970FB6F89414
:1059E000DEBF0FBECDBF8C01462F61E4CE01019614
:1059F0000E94F2178CE0FE013196ACE0B7E0019016
:105A00000D928A95E1F7C9DF84EE9AE2F80191835D
:105A100080838FE09BE2938382838CE29BE2958379
:105A2000848389E49BE29783868386E69BE2918761
:105A3000808789E89BE29387828782E19CE2958751
:105A4000848785EF9BE29787868788ED9BE2918B21
:105A5000808B8BEB9BE2938B828B8FE29CE2958B0E
:105A6000848B8BE69CE2978B868B8FEA9CE2918FEE
:105A7000808F8AEB9CE2938F828FC8012C960FB6A1
:105A8000F894DEBF0FBECDBFDF91CF911F910F9174
:105A9000089580E090E0089584E590E0089589E21B
:105AA00090E0089588E990E00895483008F040E0DB
:105AB000693008F068E021E030E002C0220F331FB7
:105AC0006A95E2F7215030E0042E02C0220F331F06
:105AD0000A94E2F7822390E002C0959587954A9553
