:1000000093C00000B0C00000AEC00000ACC0000053
:10001000AAC00000A8C00000A6C00000A4C0000044
:10002000A2C00000A0C000009EC000009CC0000054
:100030009AC0000098C0000096C000000C94C82D23
:1000400092C0000090C000000C9496180C946418A4
:100050008AC00000B3C2000086C0000084C0000057
:1000600082C0000080C000007EC000007CC0000094
:100070007AC0000078C000000C94CF1A0C949C1A2F
:1000800072C0000070C000006EC00000D5031204F2
:100090004F048C04C90411055905A105FC05060689
:1000A00010061A0624062E06380642065E0671065B
:1000B00084069706AA06BD06D006E3061B0E250E8B
:1000C0002F0E390E430E560E690E7C0E860E990EBB
:1000D000AC0EBF0EC90EDC0EEF0E280F3B0F4E0FFD
:1000E000610F740F870F9A0FAD0FC90FDC0FEF0F61
:1000F0000B10381443144E145914641479148E14CC
:10010000A314AE14C314D814ED14F8140D1522154D
:1001100056156B1580159515AA15BF15D415E9153B
:10012000FE15131628163D1611241FBECFEFD0E181
:10013000DEBFCDBF11E0A0E0B1E0ECE0F9E600E009
:100140000BBF02C007900D92A235B107D9F724E08A
:10015000A2E5B1E001C01D92A13BB207E1F70E9408
:10016000172A0C9484344CCFFC01662371F0A581CE
:10017000B6812C9181E090E0008002C0880F991F29
:100180000A94E2F7822B8C930EC0A581B6812C9144
:1001900081E090E0008002C0880F991F0A94E2F786
:1001A000809582238C93A581B6814C9121E030E02B
:1001B000C901018002C0880F991F0A94E2F7842BBD
:1001C0008C93A581B6818C91018002C0220F331FD0
:1001D0000A94E2F7209528232C930895FC01A58129
:1001E000B6814C9121E030E0C901028002C0880F45
:1001F000991F0A94E2F7842B8C93A581B6818C9188
:10020000028002C0220F331F0A94E2F720952823B0
:100210002C930895DF92EF92FF920F931F93CF9349
:10022000DF938C01D62EC0E0D0E0EE24E394F12CD5
:10023000B7010C2E02C0660F771F0A94E2F76D21FA
:10024000C80192DF2196C830D10591F7C801C6DFF9
:10025000DF91CF911F910F91FF90EF90DF90089564
:10026000DF92EF92FF920F931F93CF93DF938C0156
:10027000D62EC7E0D0E0EE24E394F12CB7010C2E8B
:1002800002C0660F771F0A94E2F76D21C8016CDF88
:100290002197A0F7C801A2DFDF91CF911F910F91A5
:1002A000FF90EF90DF900895EF92FF920F931F93CE
:1002B000CF93DF93CDB7DEB727970FB6F894DEBFA5
:1002C0000FBECDBFFB01122FDC015C9121E030E0BD
:1002D0007901012E02C0EE0CFF1C0A94E2F7B9016D
:1002E000002E02C0660F771F0A94E2F76E29042ED3
:1002F00002C0220F331F0A94E2F7262B522B5C9385
:1003000050812095252320839D838C83FF83EE835A
:10031000582F6D817E2F242F312F402F8F8190E019
:1003200027960FB6F894DEBF0FBECDBFDF91CF91F9
:100330001F910F91FF90EF900895EF920F93CF933D
:10034000DF93EC01CB01BA01422F202F0E2DACDF41
:10035000288339834A835B836C837D838E8384EB1C
:1003600090E098878F838AE091E09A87898780E37D
:1003700091E09C878B878EEE90E09E878D87CE01E3
:10038000DF91CF910F91EF900895E091D701F09117
:10039000D801228126FD03C0228120642283FC0132
:1003A000EE0FFF1FE956FE4F8081918108950F9354
:1003B0001F93CF93DF9300D000D000D0CDB7DEB72E
:1003C0009D856E854F85588924E230E03093D801B1
:1003D0002093D7019A012F71332730935B03209329
:1003E0005A0310925601109255011092520187B192
:1003F0008F7387B9913039F018F0933061F012C0E3
:100400001092D90111C087B18F73806487B981E0E0
:100410008093D90109C087B1806C87B983E080934C
:10042000D90102C01092D9010091D7011091D801D1
:10043000F80183818F7D8383141615068CF4DE0109
:10044000519680E090E02D913D91FC01EE0FFF1F51
:10045000E95AFE4F3183208301964817590799F7CF
:10046000F8018381807E8383E0915501F0915601EC
:10047000EE0FFF1FE95AFE4F808191818F71F801C5
:100480009381907E892B83838281806482838281A1
:100490008F7D82838281886082838281887F82834C
:1004A000603161F140F46430B9F06830F1F06230ED
:1004B00009F047C008C0603499F16038D1F160326A
:1004C00009F03FC024C0F8018281887F8160828367
:1004D00082E08093DA013CC0F8018281887F8260EB
:1004E000828384E08093DA0133C0F8018281887FBF
:1004F0008360828388E08093DA012AC0F8018281D8
:10050000887F8460828380E18093DA0121C0F801D2
:100510008281887F8560828380E28093DA0118C0BF
:10052000F8018281887F8660828380E48093DA018B
:100530000FC0F80182818760828380E88093DA01AE
:1005400007C0F80182818760828380E88093DA01A6
:10055000E091D701F091D801828180688283E9ED32
:10056000F1E084E290E09383828385EC91E09583CF
:1005700084830E94E627FC0193859068938786E038
:10058000E9EDF1E0DE01119601900D928A95E1F717
:1005900029813A814B815C816D817E8180E090E090
:1005A00026960FB6F894DEBF0FBECDBFDF91CF9178
:1005B0001F910F91089589ED91E008951F920F9278
:1005C0000FB60F9211240BB60F922F933F934F93B8
:1005D0005F936F937F938F939F93AF93BF93EF93AB
:1005E000FF93E091D701F091D801808191810E9421
:1005F000352890935D0380935C0320915201243051
:1006000080F4209152012F5F2093520120915301D9
:1006100030915401820F931F9093540180935301A2
:100620004EC0E0915501F091560180915301909197
:1006300054019595879595958795EE0FFF1FE9567F
:10064000FE4F9183808310925401109253011092B7
:100650005201209155013091560180915A03909199
:100660005B032817390754F4809155019091560186
:100670000196909356018093550104C01092560143
:1006800010925501A091D701B091D80113968C9189
:100690001397807E13968C931397E0915501F091F8
:1006A0005601EE0FFF1FE95AFE4F808191818F7135
:1006B00013969C911397907E892B13968C93FF91A0
:1006C000EF91BF91AF919F918F917F916F915F91CA
:1006D0004F913F912F910F900BBE0F900FBE0F9037
:1006E0001F90189510D5DC011E96ED91FC911F9777
:1006F00080818F71843009F128F4813041F082309B
:1007000089F03CC0883021F1803169F137C0FBD4D9
:10071000DC011E96ED91FC911F9780818E7F808376
:1007200080E00895F0D4DC011E96ED91FC911F97B6
:1007300080818D7F808381E00895E5D4DC011E9661
:10074000ED91FC911F9780818B7F808382E00895DB
:10075000DAD4DC011E96ED91FC911F978081877F92
:10076000808383E00895CFD4DC011E96ED91FC9147
:100770001F9780818F7E808384E00895C4D4DC013C
:100780001E96ED91FC911F978081807E808380E092
:100790000895CF93C62F90E08830910508F019C2D4
:1007A000FC01EA5BFF4F0C94F730ADD4DC015696A8
:1007B000ED91FC91579781818E7F8183A4D4DC01D8
:1007C0005696ED91FC91579782898C7F828BC2302F
:1007D00019F0C33059F013C096D4DC015696ED9150
:1007E000FC91579782898260828B09C08CD4DC018E
:1007F0005696ED91FC91579782898360828B83D4C2
:10080000DC015696ED91FC9157978181816081833F
:100810007AD4DC011E96ED91FC911F978385806848
:100820008387DEC170D4DC015696ED91FC91579719
:1008300081818D7F818367D4DC015696ED91FC9197
:1008400057978289837F828BC23019F0C33059F069
:1008500013C059D4DC015696ED91FC9157978289CB
:100860008860828B09C04FD4DC015696ED91FC91D3
:10087000579782898C60828B46D4DC015696ED9125
:10088000FC9157978181826081833DD4DC011E9663
:10089000ED91FC911F97838580688387A1C133D434
:1008A000DC015696ED91FC91579781818B7F818376
:1008B0002AD4DC015696ED91FC91579782898F7C62
:1008C000828BC23019F0C33059F013C01CD4DC0144
:1008D0005696ED91FC91579782898062828B09C070
:1008E00012D4DC015696ED91FC9157978289806372
:1008F000828B09D4DC015696ED91FC91579781814A
:100900008460818300D4DC011E96ED91FC911F97D9
:1009100083858068838764C1F6D3DC015696ED91A8
:10092000FC9157978181877F8183EDD3DC015696B7
:10093000ED91FC91579782898F73828BC23019F0A9
:10094000C33059F013C0DFD3DC015696ED91FC9112
:10095000579782898068828B09C0D5D3DC0156966F
:10096000ED91FC9157978289806C828BCCD3DC010E
:100970005696ED91FC915797818188608183C3D30E
:10098000DC011E96ED91FC911F978385806883871B
:1009900027C1B9D3DC015696ED91FC91579781811F
:1009A0008F7E8183B0D3DC015696ED91FC915797F1
:1009B00082818C7F8283C23071F0C330B1F0C1304C
:1009C000E9F4A1D3DC015696ED91FC915797828111
:1009D0008160828313C097D3DC015696ED91FC9120
:1009E000579782818260828309C08DD3DC0156963D
:1009F000ED91FC91579782818360828384D3DC01DF
:100A00005696ED91FC9157978181806181837BD3CC
:100A1000DC011E96ED91FC911F978385806883878A
:100A2000DFC071D3DC015696ED91FC91579781811F
:100A30008F7D818368D3DC015696ED91FC915797A9
:100A40008281837F8283C23071F0C330B1F0C130C4
:100A5000E9F459D3DC015696ED91FC9157978281C8
:100A60008460828313C04FD3DC015696ED91FC91D4
:100A7000579782818860828309C045D3DC015696EE
:100A8000ED91FC91579782818C6082833CD3DC018D
:100A90005696ED91FC91579781818062818333D383
:100AA000DC011E96ED91FC911F97838580688387FA
:100AB00097C029D3DC015696ED91FC91579781811F
:100AC0008F7B818320D3DC015696ED91FC91579763
:100AD00082818F7C8283C23071F0C330B1F0C1302B
:100AE000E9F411D3DC015696ED91FC915797828180
:100AF0008061828313C007D3DC015696ED91FC918F
:100B0000579782818062828309C0FDD2DC015696AC
:100B1000ED91FC915797828180638283F4D2DC014E
:100B20005696ED91FC915797818180648183EBD239
:100B3000DC011E96ED91FC911F9783858068838769
:100B40004FC0E1D2DC015696ED91FC91579781811F
:100B50008F778183D8D2DC015696ED91FC9157971F
:100B600082818F738283C23071F0C330B1F0C130A3
:100B7000E9F4C9D2DC015696ED91FC915797828138
:100B80008064828313C0BFD2DC015696ED91FC9144
:100B9000579782818068828309C0B5D2DC0156965E
:100BA000ED91FC9157978281806C8283ACD2DC01FD
:100BB0005696ED91FC915797818180688183A3D2ED
:100BC000DC011E96ED91FC911F97838580688387D9
:100BD00007C099D2DC015696ED91FC91579711828E
:100BE000CF91089590E08830910508F055C0FC0140
:100BF000E25BFF4F0C94F73086D2DC015696ED9104
:100C0000FC91579781818E7F818308957CD2DC018E
:100C10005696ED91FC91579781818D7F8183089540
:100C200072D2DC015696ED91FC91579781818B7FB2
:100C30008183089568D2DC015696ED91FC91579717
:100C40008181877F818308955ED2DC015696ED9184
:100C5000FC91579781818F7E8183089554D2DC0166
:100C60005696ED91FC91579781818F7D81830895F0
:100C70004AD2DC015696ED91FC91579781818F7B8A
:100C80008183089540D2DC015696ED91FC915797EF
:100C900081818F778183089536D2DC015696ED915C
:100CA000FC9157971182089590E08830910508F0E3
:100CB0009CC0FC01EA5AFF4F0C94F73024D2DC01AF
:100CC0005696ED91FC9157978181816081831BD26B
:100CD000DC011E96ED91FC911F97838580688387C8
:100CE000089511D2DC015696ED91FC9157978181C0
:100CF0008260818308D2DC011E96ED91FC911F97E2
:100D00008385806883870895FED1DC015696ED9136
:100D1000FC915797818184608183F5D1DC011E9617
:100D2000ED91FC911F978385806883870895EBD1AF
:100D3000DC015696ED91FC91579781818860818303
:100D4000E2D1DC011E96ED91FC911F9783858068AE
:100D500083870895D8D1DC015696ED91FC91579781
:100D6000818180618183CFD1DC011E96ED91FC9160
:100D70001F978385806883870895C5D1DC015696C7
:100D8000ED91FC915797818180628183BCD1DC0118
:100D90001E96ED91FC911F97838580688387089547
:100DA000B2D1DC015696ED91FC9157978181806418
:100DB0008183A9D1DC011E96ED91FC911F9783855B
:100DC0008068838708959FD1DC015696ED91FC9150
:100DD000579781818068818396D1DC011E96ED91C1
:100DE000FC911F978385806883870895CF93DF9355
:100DF000CDB7DEB728970FB6F894DEBF0FBECDBFD4
:100E000082D1DC015696ED91FC9157971182EFED5E
:100E1000F1E089EC93E09183808382EF95E0938306
:100E2000828384E596E09583848382E793E09783C9
:100E3000868388E0DE01119601900D928A95E1F794
:100E400029813A814B815C816D817E818F8198857A
:100E500028960FB6F894DEBF0FBECDBFDF91CF91BD
:100E600008958FED91E00895CF93DF9300D0CDB733
:100E7000DEB78A838A818F778A83A7EEB1E01E96D8
:100E8000ED91FC911F978385898383858F77838775
:100E90008A818CBF8A8180688CBF1E96ED91FC91FF
:100EA0001F97898183870F900F90DF91CF910895CD
:100EB000CF93DF931F92CDB7DEB7A7EEB1E01E96BA
:100EC000ED91FC911F978385898383858F77838735
:100ED00081E085BF82E085BF1E96ED91FC911F9752
:100EE000898183870F90DF91CF910895EF92FF92D0
:100EF0000F931F93CF93DF937C010E94E327C7EEEC
:100F0000D1E09983888388E290E09B838A8300E420
:100F100010E01D830C8384E290E09F838E8387ED35
:100F200091E09987888747DB9B878A8788E690E0EE
:100F30009D878C8784E590E09F878E878CE390E087
:100F4000998B888B84E69CE19B8B8A8B0E949D1CED
:100F50009D8B8C8B88E590E09F8B8E8B86EF96E047
:100F6000998F888F7EDF9B8F8A8F89E390E09D8F9A
:100F70008C8F86E390E09F8F8E8F83E390E099A320
:100F800088A380E390E09BA38AA381E290E09DA3E5
:100F90008CA380E290E09FA38EA383E690E099A7C4
:100FA00088A782E490E09BA78AA71DA70CA78DE2E3
:100FB00090E09FA78EA781E099E099AB88ABBCD267
:100FC0009BAB8AAB86E490E09DAB8CAB1FAB0EABCA
:100FD0008EEE9DE099AF88AF0E947B109BAF8AAFE9
:100FE0008CE790E09DAF8CAF1FAF0EAF8FE094E128
:100FF00090932802809327020E94A91690932A02B8
:101000008093290283E490E090932C0280932B023A
:1010100084E791E190932E0280932D020E94421268
:101020009093300280932F0280E590E090933202FB
:1010300080933102109334020093330283E89BE0E3
:1010400090933602809335021ED490933802809399
:10105000370280E790E090933A028093390286E667
:1010600097E190933C0280933B020E94C6169093B6
:101070003E0280933D02CFE3D2E009E210E0198303
:1010800008838CED98E190934202809341020E9484
:10109000611890934402809343021983088388E97E
:1010A00090E0909346028093450285E19BE1909306
:1010B0004802809347020E94991A90934A028093B3
:1010C000490281E490E090934C0280934B0284E3C8
:1010D00097E090934E0280934D0288E597E09093BD
:1010E000500280934F028AE6E7EEF1E0D7010190CB
:1010F0000D928A95E1F7C701DF91CF911F910F9172
:10110000FF90EF90089587EE91E00895EF92FF929F
:101110000F931F93CF93DF93442349F17C01EC019C
:10112000062F172F4150242F30E02F5F3F4FE20E44
:10113000F31EE9DFDC019E96ED91FC919F9789916A
:101140008283E1DFDC019E96ED91FC919F97818186
:101150008823BCF7D8DFDC019E96ED91FC919F9728
:101160008281F80181938F01CE15DF0511F7DF91A0
:10117000CF911F910F91FF90EF9008950F931F93C0
:10118000CF93DF936623E9F08C01EC016150262FA9
:1011900030E02F5F3F4F020F131FB5DFDC019E963B
:1011A000ED91FC919F9789918283ADDFDC019E9642
:1011B000ED91FC919F9781818823BCF7C017D107DF
:1011C00061F7DF91CF911F910F910895CF93C82FB1
:1011D0009ADFDC019E96ED91FC919F97C28393DF8D
:1011E000DC019E96ED91FC919F9781818823BCF74D
:1011F0008ADFDC019E96ED91FC919F978281CF91D1
:101200000895EF92FF920F931F93CF93DF9300D037
:1012100000D000D0CDB7DEB7F82EE62E042F122F67
:10122000E1E5F2E086E898E0918380838EEB98E038
:101230009383828386EE98E09583848364DFDC0168
:101240005E96ED91FC915F978181807F8183FF2085
:10125000F9F0B1E0FB122FC056DFDC019E96ED9154
:10126000FC919F978081806180834DDFDC015E96D9
:10127000ED91FC915F9781818760818344DFDC0180
:101280005E96ED91FC915F9782818160828325C09B
:101290003ADFDC019E96ED91FC919F978081806101
:1012A000808331DFDC015E96ED91FC915F97818157
:1012B0008860818312C027DFDC019E96ED91FC914E
:1012C0009F978081806180831EDFDC015E96ED91B7
:1012D000FC915F97818187608183EE2069F0B1E0A6
:1012E000EB1214C010DFDC019E96ED91FC919F97EC
:1012F00080818062808313C006DFDC019E96ED91C1
:10130000FC919F9780818F7D808309C0FCDEDC018A
:101310009E96ED91FC919F9780818F7D8083013017
:1013200081F028F00230B9F00330F9F028C0EBDE8C
:10133000DC019E96ED91FC919F978081837F808355
:1013400027C0E1DEDC019E96ED91FC919F978081A4
:10135000846080831DC0D7DEDC019E96ED91FC91F8
:101360009F9780818860808313C0CDDEDC019E96CC
:10137000ED91FC919F9780818C60808309C0C3DED2
:10138000DC019E96ED91FC919F978081837F808305
:10139000103109F44CC040F4143019F11830A1F1A7
:1013A000123009F090C00AC0103409F466C0103839
:1013B00009F476C0103209F086C04CC0A4DEDC010E
:1013C0009E96ED91FC919F978181816081839BDE48
:1013D000DC019E96ED91FC919F9780818C7F8083AC
:1013E00084C091DEDC019E96ED91FC919F978181F6
:1013F0008E7F818388DEDC019E96ED91FC919F9724
:1014000080818C7F808371C07EDEDC019E96ED91B1
:10141000FC919F9781818160818375DEDC019E96BE
:10142000ED91FC919F978081816080835EC06BDE2F
:10143000DC019E96ED91FC919F9781818E7F818347
:1014400062DEDC019E96ED91FC919F978081816028
:1014500080834BC058DEDC019E96ED91FC919F97F6
:101460008181816081834FDEDC019E96ED91FC914C
:101470009F9780818260808338C045DEDC019E9624
:10148000ED91FC919F9781818E7F81833CDEDC0111
:101490009E96ED91FC919F9780818260808325C00C
:1014A00032DEDC019E96ED91FC919F9781818170E7
:1014B000818329DEDC019E96ED91FC919F978081CE
:1014C0008360808312C01FDEDC019E96ED91FC914B
:1014D0009F9781818160818316DEDC019E96ED916C
:1014E000FC919F978081816080830DDEDC019E9658
:1014F000ED91FC919F9780818064808386E0E1E597
:10150000F2E0DE01119601900D928A95E1F72981B2
:101510003A814B815C816D817E8180E090E02696EE
:101520000FB6F894DEBF0FBECDBFDF91CF911F91F4
:101530000F91FF90EF90089581E592E00895CF9389
:10154000DF9320915E03211179C0EC01DCDD865B25
:101550009F4FDC01ED91FC918381887F8383C034B0
:10156000D105C1F150F4C830D10501F1C032D10527
:1015700039F1219709F056C00FC0C115B1E0DB0762
:1015800009F43CC0C11584E0D80709F441C0C03853
:10159000D10509F047C028C0B6DD865B9F4FDC014E
:1015A000ED91FC9183818160838345C0ACDD865BD6
:1015B0009F4FDC01ED91FC918381826083833BC06E
:1015C000A2DD865B9F4FDC01ED91FC9183818360FE
:1015D000838331C098DD865B9F4FDC01ED91FC91E8
:1015E00083818460838327C08EDD865B9F4FDC010F
:1015F000ED91FC918381856083831DC084DD865BD2
:101600009F4FDC01ED91FC9183818660838313C041
:101610007ADD865B9F4FDC01ED91FC9183818760D1
:10162000838309C070DD865B9F4FDC01ED91FC91E7
:1016300083818760838385E580935E0380915E0369
:10164000DF91CF910895CF93C82F5DDD865B9F4FCB
:10165000DC01ED91FC9183818F7C8383C230B1F0FA
:10166000C33031F1C130A9F54EDDDC015E96ED915C
:10167000FC915F9780E1818346DD865B9F4FDC01B3
:10168000ED91FC9183818061838323C03CDDDC018B
:101690005E96ED91FC915F9780E1818334DD865BFE
:1016A0009F4FDC01ED91FC9183818062838311C0A7
:1016B0002ADDDC015E96ED91FC915F9780E18183EC
:1016C00022DD865B9F4FDC01ED91FC91838180637D
:1016D0008383CF910895CF93C82F15DD865B9F4FED
:1016E000DC01ED91FC91C183CF9108950CDD865B07
:1016F0009F4FDC01ED91FC918381887F8383109261
:101700005E0380E008950F931F93CF93DF93CDB7CF
:10171000DEB728970FB6F894DEBF0FBECDBF082FF7
:10172000162F10925E03EFDC865B9F4FDC01ED917C
:10173000FC918381877B8383023071F00330B1F0A9
:101740000130E9F4E0DC865B9F4FDC01ED91FC9118
:1017500083818064838313C0D6DC865B9F4FDC016A
:10176000ED91FC9183818860838309C0CCDC865B2A
:101770009F4FDC01ED91FC91838188648383C3DCFE
:10178000865B9F4FDC01ED91FC9187818E7F878383
:10179000BADC865B9F4FDC01ED91FC9187818D7FE8
:1017A00087831230B9F0133041F11130C1F5ABDC51
:1017B000865B9F4FDC01ED91FC918781816087837F
:1017C000A2DCDC011E96ED91FC911F978385806859
:1017D000838725C098DC865B9F4FDC01ED91FC91EF
:1017E0008781826087838FDCDC011E96ED91FC91FE
:1017F0001F9783858068838712C085DC865B9F4F37
:10180000DC01ED91FC918781836087837CDCDC01C6
:101810001E96ED91FC911F9783858068838773DC0A
:10182000865B9F4FDC01ED91FC918FEF8183E7E5B3
:10183000F2E083E29BE0918380838BE69BE09383DD
:1018400082838FE99AE09583848386E79BE0978380
:10185000868388E0DE01119601900D928A95E1F76A
:1018600029813A814B815C816D817E818F81988550
:1018700028960FB6F894DEBF0FBECDBFDF91CF9193
:101880001F910F91089587E592E00895CF93DF931C
:1018900020915F03211176C0EC0135DCDC01D49688
:1018A000ED91FC91D5978085887F8087C830D105E0
:1018B00009F148F4C630D10509F444C008F04CC021
:1018C000219771F053C0C115B1E0DB0739F1C115A3
:1018D00084E0D80769F1C034D10509F047C014C0CD
:1018E00012DCDC01D496ED91FC91D5978085816066
:1018F000808745C008DCDC01D496ED91FC91D5973A
:101900008085826080873BC0FEDBDC01D496ED9150
:10191000FC91D59780858360808731C0F4DBDC0142
:10192000D496ED91FC91D59780858460808727C0FF
:10193000EADBDC01D496ED91FC91D597808585603A
:1019400080871DC0E0DBDC01D496ED91FC91D5973A
:1019500080858660808713C0D6DBDC01D496ED914C
:10196000FC91D59780858760808709C0CCDBDC013E
:10197000D496ED91FC91D59780858560808785E52B
:1019800080935F0380915F03DF91CF910895CF93A0
:10199000C82FB9DBDC01D496ED91FC91D5978185F8
:1019A0008F738187C230B9F0C33041F1C130C1F5C6
:1019B000AADBDC015E96ED91FC915F9781818062EC
:1019C0008183A1DBDC01D496ED91FC91D5978185D3
:1019D0008064818725C097DBDC015E96ED91FC91E8
:1019E0005F978181806281838EDBDC01D496ED91EB
:1019F000FC91D59781858068818712C084DBDC01EA
:101A00005E96ED91FC915F978181806281837BDBA3
:101A1000DC01D496ED91FC91D5978185806C81870E
:101A2000CF910895CF93C82F6EDBDC01D496ED9152
:101A3000FC91D59781858F7C8187C230B9F0C33006
:101A400041F1C130C1F55FDBDC015E96ED91FC91A7
:101A50005F9781818064818356DBDC01D496ED91B0
:101A6000FC91D59781858061818725C04CDBDC01A5
:101A70005E96ED91FC915F9781818064818343DB69
:101A8000DC01D496ED91FC91D597818580628187A8
:101A900012C039DBDC015E96ED91FC915F9781818C
:101AA0008064818330DBDC01D496ED91FC91D59785
:101AB000818580638187CF910895CF93C82F23DBE1
:101AC000DC01D496ED91FC91D5978185837F818748
:101AD000C230B9F0C33041F1C130C1F514DBDC01D3
:101AE0005E96ED91FC915F978181806881830BDB2D
:101AF000DC01D496ED91FC91D59781858460818736
:101B000025C001DBDC015E96ED91FC915F97818140
:101B100080688183F8DADC01D496ED91FC91D59749
:101B200081858860818712C0EEDADC015E96ED91D6
:101B3000FC915F97818180688183E5DADC01D4962E
:101B4000ED91FC91D59781858C608187CF91089527
:101B5000DADADC01D496ED91FC91D5978085887F07
:101B6000808710925F0380E008950F931F93CF93B7
:101B7000DF938C01C8DAFC01C4A9D5A9C8010E9471
:101B80003D289D838C83DF91CF911F910F91089504
:101B90000F931F93CF93DF938C01B5DAFC01C4A997
:101BA000D5A9C8010E943D289B838A83DF91CF91EC
:101BB0001F910F9108950F931F93CF93DF938C0183
:101BC000A2DAFC01C4A9D5A9C8010E943D289BAB9B
:101BD0008AABDF91CF911F910F9108950F931F93BF
:101BE000CF93DF93EC01062F142F10925F0386E44E
:101BF00090E09093600280935F0285DADC01D496D6
:101C0000ED91FC91D59781858C7F81877CDADC0111
:101C1000D496ED91FC91D5978085877E8087802F23
:101C200090E0FC013197EF30F10508F0EAC0E25A8C
:101C3000FF4F0C94F73067DADC01D496ED91FC91FC
:101C4000D597818581608187DCC05DDADC01D4961F
:101C5000ED91FC91D597818582608187D2C053DA5E
:101C6000DC01D496ED91FC91D597818583608187C5
:101C7000C8C049DADC01D496ED91FC91D5978085F6
:101C800088608087BEC03FDADC01D496ED91FC917C
:101C9000D59781858160818736DADC01D496ED9114
:101CA000FC91D597808588608087ABC02CDADC01F9
:101CB000D496ED91FC91D59781858260818723DA56
:101CC000DC01D496ED91FC91D59780858860808762
:101CD00098C019DADC01D496ED91FC91D5978185F5
:101CE0008360818710DADC01D496ED91FC91D59761
:101CF00080858860808785C006DADC01D496ED9106
:101D0000FC91D5978085806180877BC0FCD9DC0100
:101D1000D496ED91FC91D597818581608187F3D927
:101D2000DC01D496ED91FC91D59780858061808708
:101D300068C0E9D9DC01D496ED91FC91D5978185F5
:101D400082608187E0D9DC01D496ED91FC91D59732
:101D500080858061808755C0D6D9DC01D496ED910D
:101D6000FC91D597818583608187CDD9DC01D4969C
:101D7000ED91FC91D59780858061808742C0C3D961
:101D8000DC01D496ED91FC91D597808588618087A0
:101D900038C0B9D9DC01D496ED91FC91D5978185F5
:101DA00081608187B0D9DC01D496ED91FC91D59703
:101DB00080858861808725C0A6D9DC01D496ED9105
:101DC000FC91D5978185826081879DD9DC01D4966D
:101DD000ED91FC91D59780858861808712C093D959
:101DE000DC01D496ED91FC91D59781858360818744
:101DF0008AD9DC01D496ED91FC91D59780858861D4
:101E0000808781D9DC01D496ED91FC91D5978185AD
:101E10008370818778D9DC01D496ED91FC91D597B8
:101E20008189837C818B6FD9DC01D496ED91FC9103
:101E3000D59787A98E7F87AB412F50E0FA01319764
:101E4000EC30F10508F002C1E359FF4F0C94F73074
:101E50005AD9DC01D496ED91FC91D59781898460A3
:101E6000818B51D9DC011E96ED91FC911F978385E2
:101E700080688387EBC047D9DC01D496ED91FC9153
:101E8000D59781898061818B3ED9DC011E96ED91C9
:101E9000FC911F97838580688387D8C034D9DC0183
:101EA000D496ED91FC91D59781898860818B2BD94F
:101EB000DC011E96ED91FC911F97838580688387D6
:101EC000C5C021D9DC01D496ED91FC91D59787A9A5
:101ED000816087AB18D9DC011E96ED91FC911F97AC
:101EE000838580688387B2C00ED9DC01D496ED91DA
:101EF000FC91D59781898062818B05D9DC011E9682
:101F0000ED91FC911F978385806883879FC0FBD8E4
:101F1000DC01D496ED91FC91D59781898461818B08
:101F2000F2D8DC011E96ED91FC911F9783858068A5
:101F300083878CC0E8D8DC01D496ED91FC91D597CD
:101F400081898C60818BDFD8DC011E96ED91FC913C
:101F50001F9783858068838779C0D5D8DC01D496A4
:101F6000ED91FC91D59781898460818BCCD8DC017F
:101F7000D496ED91FC91D59787A9816087ABC3D8A2
:101F8000DC011E96ED91FC911F9783858068838705
:101F90005DC0B9D8DC01D496ED91FC91D5978189CB
:101FA0008462818BB0D8DC011E96ED91FC911F9765
:101FB0008385806883874AC0A6D8DC01D496ED91DA
:101FC000FC91D59781898C61818B9DD8DC011E960F
:101FD000ED91FC911F9783858068838737C093D8E4
:101FE000DC01D496ED91FC91D59781898C61818B30
:101FF0008AD8DC01D496ED91FC91D59787A98160B0
:1020000087AB81D8DC011E96ED91FC911F978385EB
:10201000806883871BC077D8DC01D496ED91FC9152
:10202000D59781898861818B6ED8DC01D496ED913A
:10203000FC91D59787A9816087AB65D8DC011E9696
:10204000ED91FC911F978385806883875CD8FC01A4
:1020500004A915A98FEF9FEF0E943D28D80115967E
:102060009C938E9314974FD8FC0104A915A98FEF68
:102070009FEF0E943D28D80113969C938E93129750
:1020800042D8FC0104A915A98FEF9FEF0E943D28BB
:10209000D801D3969C938E93D297EFE5F2E087EC2C
:1020A0009CE09383828382E19DE0958384838DE528
:1020B0009DE09783868385EB9DE09187808788EC00
:1020C0009DE0938782878BED9DE09587848786E4EA
:1020D0009CE09787868788EA9DE0918B808B82E1E0
:1020E000DE0101900D928A95E1F7CE01DF91CF914B
:1020F0001F910F9108958FE592E00895CF93DF939C
:102100002091600321117FC0EC010E9483088C5B49
:102110009F4FDC01ED91FC918281887F8283C830E2
:10212000D10511F148F4C630D10509F449C008F0D1
:1021300052C0219771F05AC0C115B1E0DB0751F1CF
:10214000C11584E0D80789F1C034D10509F04EC02B
:1021500016C00E9483088C5B9F4FDC01ED91FC91BF
:102160008281816082834CC00E9483088C5B9F4F78
:10217000DC01ED91FC9182818260828341C00E94EA
:1021800083088C5B9F4FDC01ED91FC918281836021
:10219000828336C00E9483088C5B9F4FDC01ED91E7
:1021A000FC918281846082832BC00E9483088C5BB7
:1021B0009F4FDC01ED91FC9182818560828320C07C
:1021C0000E9483088C5B9F4FDC01ED91FC91828122
:1021D0008660828315C00E9483088C5B9F4FDC0160
:1021E000ED91FC918281876082830AC00E948308FE
:1021F0008C5B9F4FDC01ED91FC9182818560828335
:1022000085E58093600380916003DF91CF9108950D
:10221000CF93C82F0E9483088C5B9F4FDC01ED9108
:10222000FC9182818F7C8283C230C9F0C33061F11E
:10223000C130F1F50E948308DC015E96ED91FC91BE
:102240005F978181806881830E9483088C5B9F4FA8
:10225000DC01ED91FC9182818061828329C00E9422
:102260008308DC015E96ED91FC915F978181806827
:1022700081830E9483088C5B9F4FDC01ED91FC9170
:1022800082818062828314C00E948308DC015E9692
:10229000ED91FC915F978181806881830E94830822
:1022A0008C5B9F4FDC01ED91FC9182818063828386
:1022B000CF910895CF93C82F0E9483088C5B9F4FC6
:1022C000DC01ED91FC91C083CF9108950E948308B9
:1022D0008C5B9F4FDC01ED91FC918281887F828332
:1022E0001092600380E008950F931F93CF93DF93C4
:1022F000CDB7DEB728970FB6F894DEBF0FBECDBFBF
:10230000082F162F109260030E9483088C5B9F4F4A
:10231000DC01ED91FC918281877B8283023079F030
:102320000330C1F0013001F50E9483088C5B9F4FA0
:10233000DC01ED91FC9182818064828315C00E9452
:1023400083088C5B9F4FDC01ED91FC91828188605A
:1023500082830AC00E9483088C5B9F4FDC01ED9151
:10236000FC918281886482830E9483088C5B9F4FEA
:10237000DC01ED91FC9184898F73848B1230D1F054
:10238000133069F1113009F048C00E9483088C5B5A
:102390009F4FDC01ED91FC9184898064848B0E94C5
:1023A0008308DC011E96ED91FC911F978385806860
:1023B000838733C00E9483088C5B9F4FDC01ED91C3
:1023C000FC9184898068848B0E948308DC011E96BE
:1023D000ED91FC911F978385806883871EC00E94C2
:1023E00083088C5B9F4FDC01ED91FC9184898064B4
:1023F000848B0E9483088C5B9F4FDC01ED91FC91E4
:1024000084898068848B0E948308DC011E96ED918C
:10241000FC911F978385806883870E9483088C5B6B
:102420009F4FDC01ED91FC918FEF8083E1E7F2E0BB
:1024300088E091E1918380838AE591E193838283AF
:102440008EE790E19583848386E691E19783868386
:1024500088E0DE01119601900D928A95E1F72981BD
:102460003A814B815C816D817E818F819885289630
:102470000FB6F894DEBF0FBECDBFDF91CF911F9195
:102480000F91089581E792E00895CF93DF93209113
:10249000610321117FC0EC010E948308DC01DC96FE
:1024A000ED91FC91DD978685887F8687C830D105C0
:1024B00011F148F4C630D10509F449C008F052C002
:1024C000219771F05AC0C115B1E0DB0751F1C11578
:1024D00084E0D80789F1C034D10509F04EC016C098
:1024E0000E948308DC01DC96ED91FC91DD978685E6
:1024F000816086874CC00E948308DC01DC96ED91E8
:10250000FC91DD9786858260868741C00E948308A2
:10251000DC01DC96ED91FC91DD97868583608687F2
:1025200036C00E948308DC01DC96ED91FC91DD97BA
:102530008685846086872BC00E948308DC01DC9638
:10254000ED91FC91DD9786858560868720C00E948D
:102550008308DC01DC96ED91FC91DD978685866031
:10256000868715C00E948308DC01DC96ED91FC9102
:10257000DD978685876086870AC00E948308DC0114
:10258000DC96ED91FC91DD9786858560868785E5F3
:102590008093610380916103DF91CF910895CF9380
:1025A000C82F0E948308DC01DC96ED91FC91DD9739
:1025B00087858F738787C230C9F0C33061F1C1301E
:1025C000F1F50E948308DC019496ED91FC919597BA
:1025D0008181886081830E948308DC01DC96ED9113
:1025E000FC91DD9787858064878729C00E948308D6
:1025F000DC019496ED91FC919597818188608183AF
:102600000E948308DC01DC96ED91FC91DD978785C3
:102610008068878714C00E948308DC019496ED913E
:10262000FC9195978181886081830E948308DC01F9
:10263000DC96ED91FC91DD978785806C8787CF9143
:102640000895CF93C82F0E948308DC01DC96ED919A
:10265000FC91DD9787858F7C8787C230C9F0C330B6
:1026600061F1C130F1F50E948308DC019496ED918F
:10267000FC9195978181806181830E948308DC01B0
:10268000DC96ED91FC91DD9787858061878729C075
:102690000E948308DC019496ED91FC9195978181CD
:1026A000806181830E948308DC01DC96ED91FC91BE
:1026B000DD9787858062878714C00E948308DC01CC
:1026C0009496ED91FC9195978181806181830E9420
:1026D0008308DC01DC96ED91FC91DD9787858063B2
:1026E0008787CF910895CF93C82F0E948308DC017C
:1026F000DC96ED91FC91DD978785837F8787C230DB
:10270000C9F0C33061F1C130F1F50E948308DC01EA
:102710009496ED91FC9195978181806281830E94CE
:102720008308DC01DC96ED91FC91DD978785846060
:10273000878729C00E948308DC019496ED91FC9163
:1027400095978181806281830E948308DC01DC96F9
:10275000ED91FC91DD9787858860878714C00E9482
:102760008308DC019496ED91FC91959781818062BC
:1027700081830E948308DC01DC96ED91FC91DD975A
:1027800087858C608787CF9108950E948308DC013C
:10279000DC96ED91FC91DD978685887F8687109287
:1027A000610380E008950F931F93CF93DF938C0113
:1027B0000E948308FC01C4ADD5ADC8010E943D282C
:1027C0009B878A87DF91CF911F910F9108950F9377
:1027D0001F93CF93DF938C010E948308FC01C4AD4B
:1027E000D5ADC8010E943D2899878887DF91CF9198
:1027F0001F910F9108950F931F93CF93DF938C0137
:102800000E948308FC01C4ADD5ADC8010E943D28DB
:102810009F838E83DF91CF911F910F9108950F9326
:102820001F93CF93DF93EC01062F142F10926103B7
:102830000E948308DC01DC96ED91FC91DD97878591
:102840008C7F87870E948308DC01DC96ED91FC91E8
:10285000DD978685877E8687802F90E0FC01319703
:10286000EF30F10508F002C1E758FF4F0C94F73044
:102870000E948308DC01DC96ED91FC91DD97878551
:1028800081608787F3C00E948308DC01DC96ED91AC
:10289000FC91DD97878582608787E8C00E94830866
:1028A000DC01DC96ED91FC91DD978785836087875D
:1028B000DDC00E948308DC01DC96ED91FC91DD9780
:1028C000868588608687D2C00E948308DC01DC96FA
:1028D000ED91FC91DD978785816087870E94830851
:1028E000DC01DC96ED91FC91DD978685886086871A
:1028F000BDC00E948308DC01DC96ED91FC91DD9760
:102900008785826087870E948308DC01DC96ED91D1
:10291000FC91DD97868588608687A8C00E94830821
:10292000DC01DC96ED91FC91DD97878583608787DC
:102930000E948308DC01DC96ED91FC91DD97868591
:102940008860868793C00E948308DC01DC96ED9145
:10295000FC91DD9786858061868788C00E94830808
:10296000DC01DC96ED91FC91DD978785816087879E
:102970000E948308DC01DC96ED91FC91DD97868551
:102980008061868773C00E948308DC01DC96ED912C
:10299000FC91DD978785826087870E948308DC0130
:1029A000DC96ED91FC91DD978685806186875EC01F
:1029B0000E948308DC01DC96ED91FC91DD97878510
:1029C000836087870E948308DC01DC96ED91FC918F
:1029D000DD9786858061868749C00E948308DC0177
:1029E000DC96ED91FC91DD978685886186873EC0F7
:1029F0000E948308DC01DC96ED91FC91DD978785D0
:102A0000816087870E948308DC01DC96ED91FC9150
:102A1000DD9786858861868729C00E948308DC014E
:102A2000DC96ED91FC91DD978785826087870E9417
:102A30008308DC01DC96ED91FC91DD978685886149
:102A4000868714C00E948308DC01DC96ED91FC911E
:102A5000DD978785836087870E948308DC01DC9689
:102A6000ED91FC91DD978685886186870E948308B9
:102A7000DC01DC96ED91FC91DD978785837087877B
:102A80000E948308DC01DC96ED91FC91DD97818149
:102A9000817C8183412F50E0FA013197EC30F105C0
:102AA00008F0FFC0E857FF4F0C94F7300E948308EE
:102AB000DC01DC96ED91FC91DD978181846081835E
:102AC0000E948308DC011E96ED91FC911F9783857F
:102AD00080688387E6C00E948308DC01DC96ED9164
:102AE000FC91DD978181806181830E948308DC01F4
:102AF0001E96ED91FC911F97838580688387D1C0D6
:102B00000E948308DC01DC96ED91FC91DD978181C8
:102B1000886081830E948308DC011E96ED91FC9100
:102B20001F97838580688387BCC00E948308DC016F
:102B3000DC96ED91FC91DD978181826081830E941A
:102B40008308DC011E96ED91FC911F9783858068B8
:102B50008387A7C00E948308DC01DC96ED91FC917D
:102B6000DD978181806281830E948308DC011E964B
:102B7000ED91FC911F9783858068838792C00E94A6
:102B80008308DC01DC96ED91FC91DD978181846105
:102B900081830E948308DC011E96ED91FC911F97B2
:102BA0008385806883877DC00E948308DC01DC9672
:102BB000ED91FC91DD9781818C6081830E94830877
:102BC000DC011E96ED91FC911F97838580688387B9
:102BD00068C00E948308DC01DC96ED91FC91DD97D2
:102BE0008181866081830E948308DC011E96ED91BD
:102BF000FC911F9783858068838753C00E94830858
:102C0000DC01DC96ED91FC91DD978181846281830A
:102C10000E948308DC011E96ED91FC911F9783852D
:102C2000806883873EC00E948308DC01DC96ED91BA
:102C3000FC91DD9781818C6181830E948308DC0196
:102C40001E96ED91FC911F9783858068838729C02C
:102C50000E948308DC01DC96ED91FC91DD97818177
:102C60008E6181830E948308DC011E96ED91FC91A8
:102C70001F9783858068838714C00E948308DC01C6
:102C8000DC96ED91FC91DD9781818A6181830E94C0
:102C90008308DC011E96ED91FC911F978385806867
:102CA00083870E948308FC0104AD15AD8FEF9FEF71
:102CB0000E943D28D8011B969C938E931A970E94E0
:102CC0008308FC0104AD15AD8FEF9FEF0E943D28F6
:102CD000D80119969C938E9318970E948308FC0143
:102CE00004AD15AD8FEF9FEF0E943D28D8011796D8
:102CF0009C938E931697E9E7F2E08FEC92E1918333
:102D0000808381E293E19383828383E793E19583D8
:102D1000848383ED93E19783868387EE93E19187A4
:102D200080878BEF93E19387828785E492E1958793
:102D3000848785EC93E19787868780E1DE010190A7
:102D40000D928A95E1F7CE01DF91CF911F910F91FE
:102D5000089589E792E008950E9483088E5A9F4F54
:102D6000DC01ED91FC918181887F08950E948308A8
:102D70008E5A9F4FDC01ED91FC9184E984838FE8AA
:102D800091E00197F1F700C00000089589E892E012
:102D900008950F931F93CF93DF93D82FC62F181644
:102DA000BCF40E9483088E5A9F4FDC01ED91FC9188
:102DB000DD0F82818170D82BD2830E9483088E5AC6
:102DC0009F4FDC01ED91FC918281816082830AC07A
:102DD0000E9483088E5A9F4FDC01ED91FC91828105
:102DE000816082830E948308DC019296ED91FC91C0
:102DF00093978181836081830E948308DC0192968E
:102E0000ED91FC919397828183608283C430A1F01D
:102E100018F4C13031F033C0C031D1F0C03421F1E9
:102E20002EC00E9483088E5A9F4FDC01ED91FC91C9
:102E300081818C7F81832EC00E9483088E5A9F4F90
:102E4000DC01ED91FC9181818C7F8160818322C0C6
:102E50000E9483088E5A9F4FDC01ED91FC91818185
:102E60008C7F8260818316C00E9483088E5A9F4F98
:102E7000DC01ED91FC918181836081830BC00E9414
:102E800083088E5A9F4FDC01ED91FC9181818C7FEC
:102E90008183C1E00E9483088E5A9F4FFC0100810C
:102EA00011812C2F30E0220F331F032E000C440B16
:102EB000550B60E970E080E090E00E94B930D801E5
:102EC0002C93DF91CF911F910F910895CF93DF93B2
:102ED000EC01862FE9E8F2E02DEA37E13183208327
:102EE0002EEB37E13383228326EB36E131872087CF
:102EF00023EE37E1358324832FEF37E137832683B1
:102F00002CEA36E133872287642F43DF8CE0E9E83F
:102F1000F2E0DE0101900D928A95E1F7CE01DF919A
:102F2000CF9108950F931F93CF93DF938C01C0E04F
:102F3000D0E004C00C171D0758F021960E948308AA
:102F40008E5A9F4FDC01ED91FC918481882394F788
:102F5000DF91CF911F910F9108950E9483088E5A9F
:102F60009F4FDC01ED91FC9184EA84838FEF93E025
:102F7000D9DFF2DE883009F0F9CE0895CF936623C9
:102F800021F0C82FCC0FC16002C0C82FCC0F0E9407
:102F900083088E5A9F4FDC01ED91FC91C3830E9400
:102FA00083088E5A9F4FDC01ED91FC9184E8848365
:102FB0008FEF93E0B7DFD0DE883119F0803409F06D
:102FC000D5DECF910895CF93C82F0E9483088E5AE3
:102FD0009F4FDC01ED91FC91C3830E9483088E5AC0
:102FE0009F4FDC01ED91FC9184E884838FEF93E0A7
:102FF00099DFB2DE883209F0B9DECF910895CF9320
:10300000882311F0C0E401C0C0E0C4680E948308B6
:103010008E5A9F4FDC01ED91FC91C4838FEF93E0BA
:1030200081DF9ADE883309F4A1DE0E9483088E5A7C
:103030009F4FDC01ED91FC918381CF9108958091A8
:103040008303109283030895E0918C03F0918D0324
:1030500084E893E009950895E0918E03F0918F0341
:1030600084E893E00995109290030895CF93C82FB8
:103070000E94E927FC019181906291830E94E927D7
:10308000FC01C3835D9906C088E592E05D9902C0AA
:103090000197E1F7CF910895E9CF0895CF93DF939A
:1030A000EC018881882329F02196E0DF8991811144
:1030B000FCCFDF91CF910895809183031092830319
:1030C000089586E992E008951F920F920FB60F922D
:1030D00011240BB60F922F933F934F935F936F93EF
:1030E0007F938F939F93AF93BF93EF93FF930E9430
:1030F000E927FC0191819F7D9183FF91EF91BF9121
:10310000AF919F918F917F916F915F914F913F917F
:103110002F910F900BBE0F900FBE0F901F90189520
:103120008BB142E063E00C94EF2708951F920F9259
:103130000FB60F9211240BB60F922F933F934F931C
:103140005F936F937F938F939F93AF93BF93CF932F
:10315000EF93FF93E5DFC82F0E94E927FC018181EF
:10316000C111C09390030E94E927FC016381609321
:103170008303E0918A03F0918B0384E893E009953F
:10318000FF91EF91CF91BF91AF919F918F917F91DF
:103190006F915F914F913F912F910F900BBE0F90C8
:1031A0000FBE0F901F90189521E041E064E08BE284
:1031B00090E00C940C2808952F923F924F925F92CA
:1031C0006F927F928F929F92AF92BF92CF92DF9237
:1031D000EF92FF920F931F93CF93DF93CDB7DEB79C
:1031E0002C970FB6F894DEBF0FBECDBF1C012A018D
:1031F0003B01690181E08093950242E653E060E281
:10320000CE010196C6D38CE0FE013196A4E8B3E06E
:1032100001900D928A95E1F7C301B2010E943E2808
:103220005C010E94E927E6E9F2E0918380838FE167
:1032300098E1938382838CE598E19583848384E28B
:1032400098E1978386838CE298E19187808786E373
:1032500098E1938782878CE498E1958784878EE450
:1032600098E197878687BB2034F49EDFC301B201C3
:103270000E944C285C010E94E9274C01C5010E9474
:103280003D28F401E959FF4F90830E94E9274C0142
:10329000C5010E943D28F40180830E94E92728E9A6
:1032A000FC012183F7E0CF16D10499F158F4E5E051
:1032B000CE16D10409F45BC0F6E0CF16D10409F4B0
:1032C0003FC064C088E0C816D104A1F0E9E0CE1682
:1032D000D10409F05BC00E94E927FC019181946050
:1032E00091830E94E927FC01E459FF4F9081966089
:1032F00090835AC00E94E927FC0191819B7F9183B2
:103300000E94E927FC01E459FF4F90819660908369
:103310004BC00E94E927FC0191819B7F91830E9411
:10332000E927FC01E459FF4F9081946090830E944B
:10333000E927FC01E459FF4F90819D7F908334C0C1
:103340000E94E927FC0191819B7F91830E94E927DC
:10335000FC01E459FF4F90819B7F90830E94E927F5
:10336000FC01E459FF4F9081926090831DC00E9440
:10337000E927FC0191819B7F91830E94E927FC0151
:10338000E459FF4F9081997F90830EC00E94E927F6
:10339000FC0191819B7F91830E94E927FC01E45904
:1033A000FF4F9081966090830130110521F002302B
:1033B000110551F012C00E94E927FC01E459FF4FAA
:1033C0009081977F908311C00E94E927FC01E45906
:1033D000FF4F90819860908308C00E94E927FC010C
:1033E000E459FF4F9081977F9083F2E0EF16F1044C
:1033F00079F083E0E816F104E1F0EF2819F50E9476
:10340000E927FC01E459FF4F90819F7C908322C003
:103410000E94E927FC01E459FF4F9081906290835C
:103420000E94E927FC01E459FF4F90819F7E908321
:1034300011C00E94E927FC01E459FF4F908190637D
:10344000908308C00E94E927FC01E459FF4F908156
:103450009F7C90830E94E627FC01238520682387B8
:1034600080E1E6E9F2E0D10101900D928A95E1F761
:10347000C1012C960FB6F894DEBF0FBECDBFDF9111
:10348000CF911F910F91FF90EF90DF90CF90BF9061
:10349000AF909F908F907F906F905F904F903F90F4
:1034A0002F90089580919103109291030895E091D7
:1034B000BC03F091BD0384EB93E009950895E0917E
:1034C000BE03F091BF0384EB93E009951092B30320
:1034D0000895CF93C82F0E94EC27FC01928190623F
:1034E00092830E94EC27FC01C48380919B0085FDA0
:1034F00009C088E592E0EBE9F0E0208125FD02C0FB
:103500000197D9F7CF910895E4CF0895CF93DF9332
:10351000EC018881882329F02196DBDF89918111D4
:10352000FCCFDF91CF910895809191031092910388
:10353000089587EA92E008951F920F920FB60F92B6
:1035400011240BB60F922F933F934F935F936F937A
:103550007F938F939F93AF93BF93EF93FF930E94BB
:10356000EC27FC0192819F7D9283FF91EF91BF91A7
:10357000AF919F918F917F916F915F914F913F910B
:103580002F910F900BBE0F900FBE0F901F901895AC
:1035900080919B0042E063E00C94EF2708951F9216
:1035A0000F920FB60F9211240BB60F922F933F93E9
:1035B0004F935F936F937F938F939F93AF93BF933B
:1035C000CF93EF93FF93E4DFC82F0E94EC27FC0119
:1035D0008281C111C093B3030E94EC27FC01648176
:1035E00060939103E091BA03F091BB0384EB93E005
:1035F0000995FF91EF91CF91BF91AF919F918F91DD
:103600007F916F915F914F913F912F910F900BBEE2
:103610000F900FBE0F901F90189521E041E064E0DD
:103620008BE990E00C940C2808954F925F926F9272
:103630007F928F929F92AF92BF92CF92DF92EF9242
:10364000FF920F931F93CF93DF93CDB7DEB72C97E5
:103650000FB6F894DEBF0FBECDBF4C012A013B016F
:10366000690181E08093A60242E953E060E2CE0165
:1036700001968FD18CE0FE013196A4EBB3E001906E
:103680000D928A95E1F7C301B2010E943E285C01C8
:103690000E94EC27E7EAF2E09183808382E59AE1D9
:1036A0009383828384E99AE19583848387E59AE111
:1036B000978386838FE59AE19187808789E69AE1EF
:1036C0009387828784E89AE19587848786E89AE1E0
:1036D00097878687BB2034F4A0DFC301B2010E9424
:1036E0004C285C010E94EC273C01C5010E943D284A
:1036F000F30190830E94EC273C01C5010E943D2804
:10370000F30181830E94EC2728E9FC012283F7E082
:10371000CF16D10471F150F4E5E0CE16D10409F4CE
:103720004EC0F6E0CF16D104B9F156C088E0C816F5
:10373000D10491F0E9E0CE16D10409F04DC00E9409
:10374000EC27FC019281946092830E94EC27FC019B
:103750009581966095834CC00E94EC27FC01928174
:103760009B7F92830E94EC27FC0195819660958354
:103770003FC00E94EC27FC0192819B7F92830E94B4
:10378000EC27FC019581946095830E94EC27FC0155
:1037900095819D7F95832CC00E94EC27FC0192812E
:1037A0009B7F92830E94EC27FC0195819B7F9583F0
:1037B0000E94EC27FC0195819260958319C00E94BC
:1037C000EC27FC0192819B7F92830E94EC27FC01F5
:1037D0009581997F95830CC00E94EC27FC01928112
:1037E0009B7F92830E94EC27FC01958196609583D4
:1037F0000130110521F00230110541F00EC00E9488
:10380000EC27FC019581977F95830DC00E94EC27E2
:10381000FC0195819860958306C00E94EC27FC010D
:103820009581977F9583F2E0EF16F10469F083E0CC
:10383000E816F104B1F0EF28D9F40E94EC27FC015E
:1038400095819F7C95831AC00E94EC27FC0195818D
:10385000906295830E94EC27FC0195819F7E958361
:103860000DC00E94EC27FC0195819063958306C0F2
:103870000E94EC27FC0195819F7C95830E94E6279E
:10388000FC0123852068238780E1E7EAF2E0D40188
:1038900001900D928A95E1F7C4012C960FB6F89429
:1038A000DEBF0FBECDBFDF91CF911F910F91FF9073
:1038B000EF90DF90CF90BF90AF909F908F907F90D0
:1038C0006F905F904F900895E7EBF2E02DE234E3C4
:1038D000318320832FE634E33383228329E434E3E6
:1038E0003583248325E334E33783268321E834E3D7
:1038F0003187208722E634E3338722872CE734E3BD
:10390000378726872CE734E3358B248B2AE534E38D
:10391000378B268B2DE134E3318F208F26E634E37D
:10392000338F228F2AE334E3358F248F2EE1DC019D
:1039300001900D922A95E1F7089587EB92E00895A2
:103940006623C1F0DC011296ED91FC911397149659
:103950002D913C911597E217F30729F4ED91FC9115
:10396000DF01119602C0DF01119660831C92FC01F9
:10397000B383A2830895FC01808191810895DC01C5
:10398000ED91FC9111971396FC93EE931297108290
:103990000895FC015183408353834283460F511D98
:1039A0005583448380EA9CE1978386838BEB9CE17B
:1039B000918780878FEB9CE193878287CF01089561
:1039C00021E030E0042E02C0220F331F0A94E2F7F8
:1039D0002150310962237323822393239C012627DC
:1039E000372762237323CB0102C0880F991F4A95A2
:1039F000E2F7822B932B0895CF92DF92EF92FF9202
:103A00000F931F93FC010081118122813381FB01FF
:103A1000C080D180E280F380FC01C082D182E2824A
:103A2000F382FB0100831183228333831F910F9163
:103A3000FF90EF90DF90CF900895FB012081FC0173
:103A40002083222339F0DB01119631969D919193C9
:103A50009111FCCF0895CF93DF93EC0198819923C6
:103A600099F0FE01319620E030E0492F50E04617F2
:103A7000570731F0DE01A20FB31F9C932F5F3F4F1A
:103A800091919111F2CF02C020E030E0FE01E20FEF
:103A9000F31F1082DF91CF9108952F923F924F92A2
:103AA0005F926F927F928F929F92AF92BF92CF92CE
:103AB000DF92EF92FF920F931F93CF93DF9300D08B
:103AC00000D0CDB7DEB72C011B014B0177231CF4CE
:103AD0002FEF821A920A95948794181419040CF403
:103AE00051C06AC09601DD209CF1F50140815181F1
:103AF000F401608171816417750754F58C010A0D1A
:103B00001B1DD401BC82AB82BA82A982EB81FC81ED
:103B10007183608311965C934E932E193F09C2F016
:103B2000F80140815181E981FA8160817181080F3A
:103B3000191FE80FF91FFA83E983EB81FC81E80F75
:103B4000F91FFC83EB83A80FB91F64177507F4F204
:103B5000FFEFCF1ADF0A22E0A20EB11CE2E08E0EC8
:103B6000911CC614D70409F0BDCF4701FF201CF4F7
:103B7000FFEF8F1A9F0A9594879418141904E4F4A0
:103B8000740101C07401821493047CF76401CE189F
:103B9000DF085601AA0CBB1CA40CB51C880C991C90
:103BA000840C951C31016E187F08C701880F991F7E
:103BB00091958195910996CF0F900F900F900F904E
:103BC000DF91CF911F910F91FF90EF90DF90CF90F9
:103BD000BF90AF909F908F907F906F905F904F902D
:103BE0003F902F900895861797070CF4CB01089506
:103BF0009B01672B11F408959A01B9010E94A63028
:103C0000AC01822F932F41155105B1F70895FC01A6
:103C1000908180ED890F8A30D0F4319620E030E039
:103C2000A901440F551F220F331F220F331F220FEC
:103C3000331F420F531F292F30E020533109240F27
:103C4000351F919180ED890F8A3050F302C020E03A
:103C500030E0C901089587FF08C0919581959109C9
:103C6000992791958195910908958F7799270895BE
:103C700091FF08C0919581959109937091958195D7
:103C80009109089591700895615021E030E002C0DB
:103C9000220F331F6A95E2F7A90141505109B9017A
:103CA00068237923672B29F084239523821B930BA8
:103CB00008958423952308959DEC899F912D1124C7
:103CC000969596959695392F330F232F220F220F15
:103CD000230F821B20E1929F800D11240895982FBD
:103CE00092959F70990F292F220F220F920F8F709C
:103CF000890F0895FC01DB01AB52BD4F1C921616D3
:103D0000170614F5908191110CC017C09191911173
:103D10000DC015C081932F5F3F4F26173707D4F38F
:103D200013C0A5EDB2E0319620E030E09D932F5F07
:103D30003F4F6217730751F707C020E030E0F901E9
:103D4000EB52FD4F80E2E6CF85ED92E008954F9271
:103D50005F926F927F92AF92BF92CF92DF92EF927B
:103D6000FF920F931F93CF93DF93CDB7DEB7290157
:103D70003A019B01AC012419350946095709898983
:103D80009A89AB89BC89BC01CD016A197B098C0970
:103D90009D090E948330A80197012419350946091D
:103DA00057090E94DB30CA01B9016A0D7B1D8C1DC9
:103DB0009D1DDF91CF911F910F91FF90EF90DF90AC
:103DC000CF90BF90AF907F906F905F904F9008958D
:103DD000FC012081222341F0319680E090E00196A1
:103DE00021912111FCCF089580E090E00895CF93B8
:103DF000DF93EC01EDDF9C012150310962F0FE01FF
:103E0000E80FF91F9291903219F09950923018F4FE
:103E100021503109B8F7C20FD31F1982C901DF91B0
:103E2000CF910895CF93DF93EC01D2DF9C01215015
:103E300031091216130684F4DE01A80FB91FFE0122
:103E400080E090E040815E9151934C930196215027
:103E5000310982179307B4F3DF91CF910895CF9280
:103E6000DF92EF92FF921F93CF93DF932AE030E02F
:103E700040E050E00E94B930605D6093D502622F4F
:103E8000732F842F952F6115710581059105F1F030
:103E9000C1E00F2EFAE0CF2ED12CE12CF12CF02D29
:103EA00011E01C0FD0E0CB52DD4FA70196010E941C
:103EB000B930605D6883622F732F842F952FC12FD7
:103EC000611571058105910559F701C011E0E12FD8
:103ED000F0E0EB52FD4F108285ED92E0A3DF85ED1F
:103EE00092E0DF91CF911F91FF90EF90DF90CF9004
:103EF00008958F929F92AF92BF92CF92DF92EF92EE
:103F0000FF920F931F93CF93DF936B017C01DC0132
:103F1000CB01FF203CF488279927DC018C199D09EF
:103F2000AE09BF09BC01CD0110E00F2EFAE08F2EC3
:103F3000912CA12CB12CF02D01C0102F01E0010F0C
:103F4000C12FD0E0CB52DD4FA50194010E94DB30A0
:103F5000605D6883622F732F842F952F16161706C6
:103F60001806190654F3FF2044F4E02FF0E0EB525A
:103F7000FD4F8DE2808302E0010FE02FF0E0EB5275
:103F8000FD4F108285ED92E04DDF85ED92E0DF91EF
:103F9000CF911F910F91FF90EF90DF90CF90BF9046
:103FA000AF909F908F9008950F931F93CF93DF93BF
:103FB000EC01992324F4882799278C1B9D0B20E082
:103FC0000AE010E001C0232F31E0320FE22FF0E0D1
:103FD000EB52FD4FB8010E94A630805D8083862F92
:103FE000972F181619067CF3DD2344F4E32FF0E035
:103FF000EB52FD4F8DE2808332E0320FE32FF0E091
:10400000EB52FD4F108285ED92E00CDF85ED92E0E2
:10401000DF91CF911F910F910895CF93AC019C0137
:10402000ADECBCEC0E9400319695879596958795EE
:10403000969587959C01220F331F880F991F880F33
:10404000991F880F991F820F931F9A01281B390B04
:10405000C901805D8093D5029A010E940031AC01B4
:10406000569547955695479556954795411551054F
:1040700089F1E1E0C1E0CE0FF0E0EB52FD4F9A0193
:10408000ADECBCEC0E94003196958795969587958E
:10409000969587959C01220F331F880F991F880FD3
:1040A000991F880F991F820F931F9A01281B390BA4
:1040B000C901805D80839A010E940031AC01569550
:1040C00047955695479556954795EC2F41155105BF
:1040D00089F601C0C1E0EC2FF0E0EB52FD4F1082F9
:1040E00085ED92E09FDE85ED92E0CF910895982FC7
:1040F00092959F70990F292F220F220F920F8F7088
:10410000890F0895AC019C01ADECBCEC0E9400311C
:10411000969587959695879596958795BC01660F98
:10412000771F9C01220F331F220F331F220F331FD3
:10413000260F371F421B530B342F20E1829F300D77
:104140001124832F0895CF92DF92EF92FF92CF93A5
:10415000DF93CDB7DEB728970FB6F894DEBF0FBE5A
:10416000CDBF6B017C0169837A838B839C832D8314
:104170003E834F835887C216D306E406F50634F40F
:10418000BE016B5F7F4FCE01019636DC8D819E8133
:10419000AF81B885892B8A2B8B2B71F469817A8149
:1041A0008B819C8120E030E0A9010E94DB30611509
:1041B00071058105910529F46D817E818F81988536
:1041C00005C06D837E838F839887F6CF28960FB6C0
:1041D000F894DEBF0FBECDBFDF91CF91FF90EF907F
:1041E000DF90CF9008959C012150310981E090E04B
:1041F00002C0880F991F2A95E2F70097B1F0E5ED0C
:10420000F2E020E030E0B0E3A1E3AB014823592322
:10421000452B11F0A08301C0B083969587952F5F41
:104220003F4F3196009789F702C020E030E0F90156
:10423000EB52FD4F108285ED92E00895AB01BC0179
:104240001092D502411551056105710509F442C06E
:1042500021E0EFEFE20FDB01CA018F709927AA2757
:10426000B078BB2354F40197A109B109806F9F6F07
:10427000AF6FBF6F0196A11DB11D8A309105A105D9
:10428000B10534F4F0E0EB52FD4F805D808305C052
:10429000F0E0EB52FD4F895C8083E22FF0E0EB52BF
:1042A000FD4F1082DB01CA0177231CF40F96A11D7C
:1042B000B11DAC01BD01689413F8759567955795CC
:1042C00047951694D1F72F5F41155105610571058A
:1042D00009F0BFCF85ED92E0A5DD85ED92E0089570
:1042E0009827892798270895FB012081222339F0F8
:1042F000A82FB92F31962D9321912111FCCF08952C
:10430000CF93DF93CDB7DEB79E012B5F3F4FF9010F
:10431000419151919F016FE170E085ED92E00E9423
:10432000383199231CF085ED92E002C080E090E0E6
:10433000DF91CF9108951092F402E5EFF2E028EEBC
:104340003EE13183208322E13FE13383228320EE6B
:104350003CE1358324832CEF3CE1378326832DE138
:104360003DE1318720872BE23DE1338722872DE431
:104370003DE13587248724ED3FE1378726872DE00F
:1043800030E2318B208B29E73FE1338B228B2FE208
:104390003FE1358B248B27EF3EE1378B268B23EFD4
:1043A0003DE1318F208F28EF3DE1338F228F27E0D1
:1043B0003EE1358F248F2BE23EE1378F268F28E3B5
:1043C0003EE131A320A324E43EE133A322A32CE564
:1043D0003EE135A324A32FE63EE137A326A32AE737
:1043E0003EE131A720A727EA3EE133A722A727E72E
:1043F00030E235A724A722E830E237A726A723EA30
:1044000030E231AB20AB23EF30E233AB22AB2FEB0A
:1044100032E235AB24AB2EE131E237AB26AB20E7FD
:1044200031E231AF20AF20E831E233AF22AF24E7F1
:1044300031E235AF24AF2EE3DC0101900D922A95D5
:10444000E1F70895CF92DF92EF92FF920F931F93BF
:10445000CF93DF93C1E0C40F042F10E00B521D4F28
:104460002AE030E040E050E00E94B930605DF801A1
:104470006083622F732F842F952F6115710581053D
:104480009105E9F00F2EFAE0CF2ED12CE12CF12C82
:10449000F02D11E01C0FD0E0CB52DD4FA7019601AB
:1044A0000E94B930605D6883622F732F842F952F2F
:1044B000C12F611571058105910559F701C01C2FA8
:1044C000E12FF0E0EB52FD4F1082812FDF91CF9171
:1044D0001F910F91FF90EF90DF90CF900895CF92B2
:1044E000DF92EF92FF920F931F93CF93DF93C42F2E
:1044F000022F20E030E040E251E40E9420306B01C6
:104500007C01002361F10C0F11E01C0FD0E0CB52B5
:10451000DD4F20E030E040E452E4C701B6010E94E4
:10452000692E0E943E2F6883C701B6010E943E2F6C
:1045300070E080E090E00E946C2F9B01AC01C7010D
:10454000B6010E94682E20E030E040E251E40E9473
:1045500020306B017C01C12F0113D6CF01C00C2F7D
:10456000E02FF0E0EB52FD4F1082802FDF91CF91D2
:104570001F910F91FF90EF90DF90CF9008958F9251
:104580009F92AF92BF92CF92DF92EF92FF920F93E2
:104590001F93CF93DF936B017C01D42F20E030E099
:1045A000A9010E94CD2E88230CF5F7FAF094F7F8B4
:1045B000F094C701B6010E943E2F4B015C010E949E
:1045C0006A2F9B01AC01C701B6010E94682E6B01E6
:1045D0007C0140E0C501B40135DFC1E0C80FE82F20
:1045E000F0E0EB52FD4F8DE2808315C0C701B601AC
:1045F0000E943E2F4B015C010E946A2F9B01AC017F
:10460000C701B6010E94682E6B017C0140E0C50124
:10461000B40118DFC82F0C2F10E00B521D4FF8010A
:10462000108285ED92E0FEDB8EE2F801808341E0AE
:104630004C0F2D2FC701B60152DF85ED92E0DF91BF
:10464000CF911F910F91FF90EF90DF90CF90BF908F
:10465000AF909F908F9008951092CA03E3E3F3E028
:1046600080E280838DEC93E09283818394838383C3
:104670000895CF93DF9321E080E0A2ECB3E0E6EC75
:10468000F3E060E071E001C02F5F9FEF920F913087
:1046900009F44BC038F0923009F48CC0933009F41F
:1046A000CEC00EC14091CF035091D003EA01988152
:1046B000906898834091C0035091C103EA019881AA
:1046C0009F7798834091CB035091CC03EA013881C6
:1046D00034773C939081432F492794233083992347
:1046E00099F0943019F4EB0188810AC0903119F4E3
:1046F000EB01898109C0903219F4EB018A8104C071
:10470000903411F4EB018B814091CF035091D00391
:10471000EA0198819F7798834091C0035091C1032B
:10472000EA01988190689883AFCF4091CF03509170
:10473000D003EA019881916098834091C003509121
:10474000C103EA0198819E7F98834091CB035091E9
:10475000CC03EA013881347711963C93119791810B
:10476000432F492794233183992399F0943019F4E6
:10477000EB018C810AC0903119F4EB018D8109C0E5
:10478000903219F4EB018E8104C0903411F4EB01E6
:104790008F814091CF035091D003EA0198819E7F91
:1047A00098834091C0035091C103EA0198819160C0
:1047B00098836ACF4091CF035091D003EA0198814A
:1047C000926098834091C0035091C103EA0198819F
:1047D0009D7F98834091CB035091CC03EA013881AF
:1047E000347712963C9312979281432F4927942352
:1047F0003283992399F0943019F4EB0188850AC02B
:10480000903119F4EB01898509C0903219F4EB015C
:104810008A8504C0903411F4EB018B854091CF035D
:104820005091D003EA0198819D7F98834091C00305
:104830005091C103EA0198819260988325CFE0915D
:10484000CF03F091D003908198609083E091C003F2
:10485000F091C1039081977F9083E091CB03F09119
:10486000CC03208124772093C503E6ECF3E0938109
:10487000322F392793232383992399F0943019F405
:1048800080910C010AC0903119F480910D0109C08A
:10489000903219F480910E0104C0903411F480918B
:1048A0000F01E091CF03F091D0039081977F908327
:1048B000E091C003F091C10390819860908303C0A0
:1048C000243008F4E1CEDF91CF910895D2DE882321
:1048D00009F445C080933303843499F4E091CA030A
:1048E000F0E0EF52FC4F10821092CA03E3E3F3E0D2
:1048F0008DEC93E09283818381ED93E094838383B5
:104900000895E091CA03E630B8F4AE2FB0E0AF529C
:10491000BC4F8C93EF5FE093CA03F0E0EF52FC4F83
:104920001082E3E3F3E081ED93E0928381838DECE9
:1049300093E0948383830895E1EDF3E0808381E045
:104940008093CA031182A3E3B3E01296FC93EE9323
:1049500011978DEC93E014969C938E931397089582
:10496000CF93DF93CDB7DEB728970FB6F894DEBFAD
:104970000FBECDBFDA0123E333E050E2F9015083EB
:10498000EDECF3E0508311829093D0038093CF033A
:104990007093CC036093CB03B093C103A093C00387
:1049A0004BE8FC014083E091C003F091C10384E730
:1049B0008083A2ECB3E08C93E6ECF3E08083119665
:1049C0008C931197818312968C93129782831396FE
:1049D0008C9383831092CA03E8E3F3E0318320834E
:1049E00089E393E29383828386E694E295838483CA
:1049F0008CE293E297838683E091C003F091C10338
:104A000080818B68808388E0E8E3F3E0DE01119623
:104A100001900D928A95E1F729813A814B815C8161
:104A20006D817E818F81988528960FB6F894DEBFC0
:104A30000FBECDBFDF91CF910895E091E203F091D9
:104A4000E30380818B7F8083E091E203F091E303B5
:104A500080818460808308950F931F93CF93C82F24
:104A60008B01E091E203F091E30380818D7F8083ED
:104A7000E091DF03F091E0038081806F8083672BFA
:104A800041F0E091E203F091E30380818160808353
:104A900007C0E091E203F091E30380818E7F808381
:104AA00080E090E0CADFCC2344F4E091E203F0918F
:104AB000E30380818068808307C0E091E203F09186
:104AC000E30380818F778083C6FF08C0E091E20313
:104AD000F091E30380818064808307C0E091E2036A
:104AE000F091E30380818F7B8083C5FF08C0E09154
:104AF000E203F091E30380818062808307C0E0914C
:104B0000E203F091E30380818F7D8083C4FF08C0BE
:104B1000E091E203F091E30380818061808307C02C
:104B2000E091E203F091E30380818F7E8083012B8B
:104B300041F0E091E203F091E303808181608083A2
:104B400007C0E091E203F091E30380818E7F8083D0
:104B500080E090E072DFC3FF08C0E091E203F091D3
:104B6000E30380818068808307C0E091E203F091D5
:104B7000E30380818F778083C2FF08C0E091E20366
:104B8000F091E30380818064808307C0E091E203B9
:104B9000F091E30380818F7B8083C1FF08C0E091A7
:104BA000E203F091E30380818062808307C0E0919B
:104BB000E203F091E30380818F7D8083C0FF08C012
:104BC000E091E203F091E30380818061808307C07C
:104BD000E091E203F091E30380818F7E8083E09196
:104BE000E203F091E30380818B7F8083CF911F915B
:104BF0000F91089560E070E081E02EDF87EE97E18D
:104C00000197F1F700C0000008950F931F93CF9311
:104C10008C01E091DF03F091E00380818F7080834D
:104C2000E091E203F091E3038081806F8083E09163
:104C3000E203F091E3038081826080830115110516
:104C400041F0E091E203F091E30380818160808391
:104C500007C0E091E203F091E30380818E7F8083BF
:104C600080E090E0EADEE091D803F091D903808102
:104C7000882314F0C0E001C0C0E8808186FF02C034
:104C8000C06401C0CF7B808185FF02C0C06201C0CB
:104C9000CF7D808184FF02C0C06101C0CF7E012B27
:104CA00041F0E091E203F091E30380818160808331
:104CB00007C0E091E203F091E30380818E7F80835F
:104CC00080E090E0BADEE091D803F091D9038081D2
:104CD00088231CF48C2F886002C08C2F877F9081E2
:104CE00096FF02C0846001C08B7F908195FF02C057
:104CF000826001C08D7F908194FF02C0816001C0FD
:104D00008E7FE091E203F091E30390819B7F90839B
:104D1000CF911F910F91089580E090E076DF882376
:104D200044F480E090E071DF88231CF480E090E0A0
:104D30006CCF089561E070E08FDEEECF0895CF93E1
:104D4000DF93EC018881882329F02196F3DF899194
:104D50008111FCCFDF91CF9108950F931F93CF93D3
:104D6000DF93FC01D62F8081882351F08F010F5FE4
:104D70001F4F611109C015C0CF5FDC1730F401C0AF
:104D8000C0E0CD1748F00DC0C1E0D4DFF80181913B
:104D90008F018111F1CFF5CF80E2CCDFCF5FCD174E
:104DA000D8F3DF91CF911F910F910895CF93C82F22
:104DB000882321F080E2BEDFC150E1F7CF91089552
:104DC000262F8130910571F030F08230910589F005
:104DD0000397B1F0089560E070E080E8820F3CDE58
:104DE0009BCF089560E070E080EC820F35DE94CFB9
:104DF000089560E070E084E9820F2EDE8DCF089583
:104E000060E070E084ED820F27DE86CF0895E091A8
:104E1000DF03F091E00387E08083E091E203F0910B
:104E2000E30388E080832FEF83EF91E021508040FF
:104E30009040E1F700C0000060E070E088E30CDE25
:104E400020ED2A95F1F760E070E088E305DE80ED63
:104E50008A95F1F760E070E088E3FEDD90ED9A95C9
:104E6000F1F760E070E088E2F7DD25EC2A95F1F7D4
:104E7000000060E070E088E2EFDD85EC8A95F1F7F4
:104E8000000060E070E088E2E7DD46DF60E070E0AF
:104E900088E2E2DD41DF60E070E08CE0DDDD3CDFF8
:104EA00060E070E08CE0D8DD37DF60E070E081E04A
:104EB000D3DD32DF60E070E081E0CEDD2DDF60E049
:104EC00070E086E0C9DD28DF60E070E086E0C4DDE8
:104ED00023DF60E070E080E090E072CF0895CF9330
:104EE000DF93EC017093E0036093DF035093D903E9
:104EF0004093D8033093E3032093E203FB01108235
:104F0000E091E203F091E3038FEF8083E091D80317
:104F1000F091D903808188708093E103E0E4F3E0AD
:104F20008CE295E29183808385E096E2938382838D
:104F30008CE896E2958384838AE996E29783868358
:104F40008AED97E2918780878FE996E2938782873F
:104F50008DEA96E29587848786ED96E29787868725
:104F60008AEF95E2918B808B80EE96E2938B828B19
:104F700089EC97E2958B848B4ADF86E1E0E4F3E0ED
:104F8000DE0101900D928A95E1F7CE01DF91CF917C
:104F90000895CF93E091D803F091D903C081C870F0
:104FA0008091E1038C278C2309F031DFC093E1036A
:104FB000CF910895CF9381E090E027DEC82FACDE3B
:104FC0008C2FCF91089580E090E0089584E590E0E3
:104FD000089589E290E0089588E990E008954830C6
:104FE00008F040E0693008F068E021E030E002C0FD
:104FF000220F331F6A95E2F7215030E0042E02C0E1
:10500000220F331F0A94E2F7822390E002C09595A5
:1050100087954A95E2F70895FC01483008F040E092
:10502000862F693008F088E061E070E002C0660F0A
:10503000771F8A95E2F79FEF960F8081692F70E0C6
:10504000042E02C0660F771F0A94E2F7609568236A
:10505000608380819223292F30E002C0220F331F0A
:105060004A95E2F7282B20830895292F30E0322F2C
:105070002227A901482BCA01089508959B01AC017C
:1050800060E472E48FE090E00E94B930DA01C90177
:105090000197A109B10908959B01AC0160E874E88A
:1050A0008EE190E00E94B930DA01C9010197A109AF
:1050B000B1090895FC01408351836283738308958D
:1050C000FC0144835583668377830895FC01408700
:1050D0005187628773870895FC01448755876687E7
:1050E00077870895FC0180E090E0A0E8BFE380832B
:1050F0009183A283B383148215821682178210864D
:105100001186128613861486158616861786108ACF
:10511000118A128A138A148A158A168A178A108E9F
:10512000118E128E138E148E158E168E178E10A25F
:1051300011A212A213A214A215A216A217A210A6BF
:1051400011A612A613A68AE598E295A784A780E681
:1051500098E297A786A786E698E291AB80AB8CE6AB
:1051600098E293AB82AB82EF98E295AB84ABCF0130
:105170000895CF92DF92EF92FF920F931F93CF93F8
:10518000DF93EC01680179019A01AB016C857D85A3
:105190008E859F859DD5288939894A895B8999D5CE
:1051A000A70196014DD720E030E040E05FE348D70B
:1051B0006093E6037093E7038093E8039093E90319
:1051C0002C8D3D8D4E8D5F8D84D56C8F7D8F8E8F18
:1051D0009F8FDF91CF911F910F91FF90EF90DF9004
:1051E000CF9008954F925F926F927F928F929F928D
:1051F000AF92BF92CF92DF92EF92FF920F931F93E5
:10520000CF93DF9300D000D000D0CDB7DEB79E8320
:105210008D836A017B0148015901DC0194964D930D
:105220005D936D937C9397979A01AB011C966D915A
:105230007D918D919C911F974BD5ED81FE81648B63
:10524000758B868B978B808E918EA28EB38E2081EC
:10525000318142815381F4D62B013C0195018401B7
:10526000B701A6018D819E8184DFED81FE812481BD
:10527000358146815781E4D6A30192012AD52B01BD
:105280003C01A7019601AD81BE811C966D917D9177
:105290008D919C911F971CD5ED81FE8120893189CC
:1052A0004289538915D5A50194017BD54B015C0139
:1052B000AD81BE8190966D937D938D939C939397D2
:1052C00018962D913D914D915C911B97B9D69B01FC
:1052D000AC016093E6037093E7038093E803909337
:1052E000E903C301B201F5D46B017C01ED81FE81BC
:1052F0004488558866887788408A518A628A738A8A
:1053000060A771A782A793A720E030EC4FE754E491
:1053100093D6181694F5AD81BE8158968D919D91C6
:105320000D90BC91A02D89839A83AB83BC839C0193
:10533000AD01C301B20184D69B01AC0160E070EC09
:105340008FE794E4C5D42B013C01A5019401698148
:105350007A818B819C8174D629813A814B815C81D1
:105360006FD69B01AC01C301B201B2D4ED81FE81C5
:10537000648F758F868F978F38C020E030EC4FE7B1
:1053800054ECC701B60109D588237CF5AD81BE81F7
:1053900058968D919D910D90BC91A02D89839A83F3
:1053A000AB83BC839C01AD01C301B20149D620E0AF
:1053B00030EC4FE754E48CD42B013C01A50194015F
:1053C00069817A818B819C813BD629813A814B818D
:1053D0005C8136D69B01AC01C301B2017AD4ED8168
:1053E000FE81648F758F868F978FC701B6012696D1
:1053F0000FB6F894DEBF0FBECDBFDF91CF911F91E6
:105400000F91FF90EF90DF90CF90BF90AF909F9063
:105410008F907F906F905F904F90089510926100F1
:105420008FE08093620087B3806E87BB0895CF932F
:10543000DF93CDB7DEB7C85BD1090FB6F894DEBFF6
:105440000FBECDBFCE01855B9F4F0E947607E6DF82
:10545000CE01855B9F4F0E949B218EE3FE01E55BA1
:10546000FF4FADEFB3E001900D928A95E1F72BE38A
:1054700030E049E350E06AE370E0CE0101962FDDB1
:105480008D849E8489899A89CB54DF4F9983888340
:10549000C55BD0404B885C8843E250E061E270E03D
:1054A00082E290E05DDA2F8B388F498F5A8F6B8FB5
:1054B0007C8F8D8F9E8F6F88788C2D8C3E8C1F9269
:1054C0001F921F9281E08F9390E89F938F930E9489
:1054D000D7012F8F38A349A35AA36BA37CA362E003
:1054E00082E00E94830B2DA33EA34FA358A769A778
:1054F0007AA78BA79CA740E069E0CE018D960E9419
:10550000EE0DAFA9B8ADC954DF4FB983A883C75B0F
:10551000D040EE24E39400E022E045E650E064E66B
:1055200070E0CE01855B9F4F0E949D018FE0FE01E0
:10553000E55BFF4FAEEEB3E001900D928A95E1F787
:10554000CE01855B9F4FCEDD86E3FE01E55BFF4F1D
:10555000A1E4B4E001900D928A95E1F7CE01855B5C
:105560009F4FC0DD86E3FE01E55BFF4FA7E7B4E098
:1055700001900D928A95E1F7FE01FF9680E390E09D
:10558000918380839E012F5B3F4F84E0D9011D9260
:105590008A95E9F789E390E327969FAF8EAF279727
:1055A00029961FAE1EAE29972B961FAE1EAE2B97C7
:1055B000F0935703E0935603EFA1F8A589EF0995FF
:1055C000E9A5FAA580E490E00995E9A9FAA982E0A5
:1055D0000995EDA9FEA980E29EE40995EBADFCAD2D
:1055E00088E090E0099501E414E0D8019C96ED91E3
:1055F000FC919D9740E050E060E87FE3C801099589
:10560000D801D096ED91FC91D1974DEC5CEC6CE417
:105610007EE3C8010995D8019E96ED91FC919F9774
:1056200040E050E060E07FE3C8010995D801D296E0
:10563000ED91FC91D39740E050E862E274E4C80138
:10564000099507E714E0D8019C96ED91FC919D9790
:1056500040E050E060E07FE3C8010995D801D096B2
:10566000ED91FC91D19740E050E060E87FE3C80104
:105670000995D8019E96ED91FC919F974AE057EDD0
:1056800063E27CE3C8010995D801D296ED91FC91C3
:10569000D39740E050E06AEF72E4C8010995ED89C4
:1056A000FE890995EB8DFC8D09956DE070E083E036
:1056B00090E0F2010995EF81F8858AE3099566E0AB
:1056C000D30111968D919C911297F40109950F9039
:1056D0000F900F900F900F900F90D30113960D9194
:1056E0001C91149760E171E0C801A3D5892B51F496
:1056F000F1010995CB54DF4FE881F981C55BD040BA
:10570000099521C262E171E0C80193D5892B51F45A
:10571000F1010995CB54DF4FE881F981C55BD04099
:105720000995D3C1EBA1FCA180E090E0099590938D
:10573000400480933F0460E070E080E090E0F2017C
:10574000099567E084E191E0F4010995E0910B048B
:10575000F0910C0480913F04909140040995BC01A4
:10576000CE01CF966FD564E0CE01CF96F4010995B6
:10577000C090AD04D090AE04E090AF04F090B004BF
:1057800020E030E040E854ECC701B60155D41816CB
:105790000CF056C020E030E040E854E4C701B60108
:1057A000FCD288230CF04CC0C701B60162D31F9213
:1057B0001F92F9E0FF932EE22F93E0912704F091DE
:1057C00028040F2EF4EFAF2EBB24B394C12CD12CA0
:1057D000F02DEE24EA9413E0F12E00E010E021E039
:1057E0003CEF4FEF5FEF09956093EA037093EB0393
:1057F0008093EC039093ED03CB01C954DF4FE88114
:10580000F981C75BD040099560E070E081E090E0ED
:10581000F2010995E0910B04F0910C04AAEEB3E0BB
:105820008D919C910995BC01CE01CF960BD564E07A
:10583000CE01CF96F40109950F900F900F900F9025
:10584000E0913104F091320446E06EEC75E08CE0BA
:1058500092E4099560E070E082E090E0F201099541
:105860006CE0CE01CF96F401099560E070E083E032
:1058700090E0F20109956091610470916204809159
:10588000630490916404F5D2E0910F04F091100448
:105890000995BC01CE01CF96D5D466E0CE01CF9656
:1058A000F40109956DE070E080E090E0F201099567
:1058B0006091AD047091AE048091AF049091B004FA
:1058C000D8D2E0910F04F09110040995BC01CE01EB
:1058D000CF96B8D466E0CE01CF96F40109956DE07D
:1058E00070E081E090E0F201099560913B047091D5
:1058F0003C0480913D0490913E04BBD2E0910F04A2
:10590000F09110040995BC01CE01CF969BD466E0BE
:10591000CE01CF96F4010995FDC0F1010995CB5454
:10592000DF4FE881F981C55BD0400995CEC062E1C7
:1059300071E0C8017ED4892B51F4F1010995CB5453
:10594000DF4FE881F981C55BD0400995E3C06DE187
:1059500071E0C8016ED4892B51F4F1010995CB5443
:10596000DF4FE881F981C55BD0400995D3C060E085
:1059700070E080E090E0F201099568E08FE191E04D
:10598000F401099563E0CE018B5B9F4FF40109950B
:1059900060E070E081E090E0F20109956BE088E260
:1059A00091E0F4010995D3018C91843409F04CC045
:1059B00013966D917C91149746E050E0CE018B5B7D
:1059C0009F4F47D4E0911904F0911A04CE018B5BEC
:1059D0009F4F0995853B910580F5BC01990F880B78
:1059E000990B1F921F92B9E0BF93EEE2EF93E09103
:1059F0002704F09128040F2EF4EFAF2EBB24B394AC
:105A0000C12CD12CF02D14EBE12EF12C00E010E094
:105A100020E030E0A9010995CB01C954DF4FE881AE
:105A2000F981C75BD0400995EF85F88985E0099534
:105A30000F900F900F900F9005C065E084E391E008
:105A4000F4010995F101099560E070E083E090E0D0
:105A5000F201099568E08AE391E0F401099573C0C9
:105A6000F1010995CB54DF4FE881F981C55BD04046
:105A7000099550C062E171E0C801DBD3892B51F474
:105A8000F1010995CB54DF4FE881F981C55BD04026
:105A9000099559C06DE171E0C801CBD3892B51F450
:105AA000F1010995CB54DF4FE881F981C55BD04006
:105AB000099530C060E070E080E090E0F201099567
:105AC00063E183E491E0F4010995ED89FE8909958C
:105AD000EB8DFC8D09956DE070E083E090E0F201C4
