:1000000093C00000B0C00000AEC00000ACC0000053
:10001000AAC00000A8C00000A6C00000A4C0000044
:10002000A2C00000A0C000009EC000009CC0000054
:100030000C94162798C0000096C000000C94E2268D
:1000400092C0000090C000000C94FA110C94C811EA
:100050008AC00000B9C1000086C0000084C0000052
:1000600082C0000080C000007EC000007CC0000094
:100070007AC0000078C000000C9433140C94001473
:1000800072C0000070C000006EC000005E03640318
:100090006A03700376037C0382038803D903FE039B
:1000A000230448046D049904C504F1042C053705A4
:1000B00042054D05580563056E057905690A6F0A05
:1000C000750A7B0A810A8C0A970AA20AA80AB50A4D
:1000D000C20ACF0AD60AE30AF00A1A0B270B340B1E
:1000E000410B4E0B5B0B680B750B880B950BA20B32
:1000F000B50BB60EBD0EC40ECB0ED20EDF0EEC0E3F
:10010000F90E000F0D0F1A0F270F2E0F3B0F480F80
:100110006C0F790F860F930FA00FAD0FBA0FC70F9B
:10012000D40FE10FEE0FFB0F11241FBECFEFD0E174
:10013000DEBFCDBF11E0A0E0B1E0EAEFFBE500E0FB
:100140000BBF02C007900D92AA33B107D9F724E084
:10015000AAE3B1E001C01D92AD35B207E1F70E94FC
:100160004F210C94FB2D4CCFCF93DF93EC01BFD1EB
:10017000FC01828186FD05C0BAD1FC012281206488
:100180002283CC0FDD1FC158DE4F88819981DF911A
:10019000CF910895EF92FF920F931F93CF93DF9328
:1001A00000D000D000D0CDB7DEB70F851889E98820
:1001B000FA88C7018F71992790933F0380933E037C
:1001C00010923E0110923D0110923A0190D1FC0133
:1001D00093819F739383013039F018F0033071F0ED
:1001E00016C01092BF0115C082D1FC0193819F738C
:1001F0009064938381E08093BF010BC078D1FC01B0
:100200009381906C938383E08093BF0102C010922E
:10021000BF016DD1FC0123812F7D23831E141F0498
:100220008CF4DE01539680E090E02D913D91FC012D
:10023000EE0FFF1FE15CFE4F318320830196E8162D
:10024000F90699F754D1FC019381907E93834FD1A5
:10025000DC01E0913D01F0913E01EE0FFF1FE15CFA
:10026000FE4F208131812F7113969C911397907EC0
:10027000292B13962C933BD1FC01228120642283ED
:1002800036D1FC0122812F7D228331D1FC012281D4
:10029000286022832CD1FC019281987F92831031B7
:1002A00081F140F41430C9F0183009F1123009F02E
:1002B0004FC009C01034C9F1103809F440C01032E1
:1002C00009F046C028C013D1FC019281987F91604B
:1002D000928382E08093C00143C009D1FC019281E6
:1002E000987F9260928384E08093C00139C0FFD0F0
:1002F000FC019281987F9360928388E08093C00193
:100300002FC0F5D0FC019281987F9460928380E1A8
:100310008093C00125C0EBD0FC019281987F95604D
:10032000928380E28093C0011BC0E1D0FC019281E6
:10033000987F9660928380E48093C00111C0D7D0EB
:10034000FC0192819760928380E88093C00108C08D
:10035000CED0FC0192819760928380E88093C001A7
:10036000C6D0FC01228120682283C1D0EFEBF1E0EE
:100370009383828384EB90E095838483BED0FC01D9
:1003800093859068938786E0EFEBF1E0DE011196AC
:1003900001900D928A95E1F729813A814B815C8128
:1003A0006D817E8180E090E026960FB6F894DEBFE6
:1003B0000FBECDBFDF91CF911F910F91FF90EF90B6
:1003C00008958FEB91E008951F920F920FB60F9250
:1003D00011240BB60F922F933F934F935F936F931C
:1003E0007F938F939F93AF93BF93EF93FF937FD0B0
:1003F000FC0180819181C0D09093410380934003A0
:1004000020913A01243080F420913A012F5F20930B
:100410003A0120913B0130913C01820F931F909350
:100420003C0180933B014AC0E0913D01F0913E01C7
:1004300080913B0190913C01959587959595879585
:10044000EE0FFF1FE158FE4F9183808310923C0115
:1004500010923B0110923A0120913D0130913E01F2
:1004600080913E0390913F032817390754F48091FF
:100470003D0190913E01019690933E0180933D0194
:1004800004C010923E0110923D0131D0FC019381D5
:10049000907E93832CD0DC01E0913D01F0913E01F0
:1004A000EE0FFF1FE15CFE4F208131812F7113960B
:1004B0009C911397907E292B13962C93FF91EF918B
:1004C000BF91AF919F918F917F916F915F914F916C
:1004D0003F912F910F900BBE0F900FBE0F901F906A
:1004E000189580E090E0089588E290E0089584E215
:1004F00090E0089588E690E0089584E590E00895FE
:100500008CE390E0089588E590E0089589E390E019
:10051000089586E390E0089583E390E0089580E3F2
:1005200090E0089581E290E0089580E290E00895DF
:1005300083E690E0089582E490E0089580E490E0FE
:1005400008958DE290E0089586E490E008958CE7A8
:1005500090E0089583E490E0089580E590E00895A8
:1005600080E790E0089589E290E0089588E990E0BE
:10057000089581E490E00895292F30E0322F22275A
:10058000A901482BCA01089508959B01AC0160E4BC
:1005900072E48FE090E00E944F2ADA01C9010197CE
:1005A000A109B10908959B01AC0160E874E88EE1EE
:1005B00090E00E944F2ADA01C9010197A109B1090F
:1005C0000895CF93DF9300D0CDB7DEB78A838A81B9
:1005D0008F778A838FB789838FB78F778FBF8A8111
:1005E0008CBF8A8180688CBF89818FBF0F900F90EC
:1005F000DF91CF910895CF93DF931F92CDB7DEB7F0
:100600008FB789838FB78F778FBF81E085BF82E0F7
:1006100085BF89818FBF0F90DF91CF9108954830BA
:10062000D0F4693008F068E021E030E002C0220F29
:10063000331F6A95E2F7215030E0042E02C0220FEA
:10064000331F0A94E2F7822390E002C095958795C4
:100650004A95E2F7089580E00895FC01483020F5BE
:10066000962F693008F098E061E070E002C0660FF4
:10067000771F9A95E2F79FEF960F8081692F70E0C0
:10068000042E02C0660F771F0A94E2F76095682374
:10069000608380819223292F30E002C0220F331F14
:1006A0004A95E2F7282B2083089590E08830910541
:1006B000A8F5FC01EA5BFF4F0C948D2A24DFFC01B6
:1006C00091819E7F918308951EDFFC0191819D7F22
:1006D0009183089518DFFC0191819B7F9183089598
:1006E00012DFFC019181977F918308950CDFFC015B
:1006F00091819F7E9183089506DFFC0191819F7D0A
:100700009183089500DFFC0191819F7B918308957F
:10071000FADEFC0191819F7791830895F4DEFC015C
:1007200011820895EADEFC0180818F718430C9F066
:1007300028F4813041F0823069F028C08830C1F05F
:100740008031E9F023C0D9DEFC0190819E7F908347
:1007500080E00895D2DEFC0190819D7F908381E04E
:100760000895CBDEFC0190819B7F908382E0089509
:10077000C4DEFC019081977F908383E00895BDDE05
:10078000FC0190819F7E908384E00895B6DEFC0199
:100790009081907E908380E00895CF93C62F90E063
:1007A0008830910508F049C1FC01E25BFF4F0C94D1
:1007B0008D2AA9DEFC0191819E7F9183A4DEFC013C
:1007C00092899C7F928BC23019F0C33039F00BC0F4
:1007D0009ADEFC0192899260928B05C094DEFC0146
:1007E00092899360928B8FDEFC019181916091835D
:1007F00084DEFC0193859068938722C184DEFC012E
:1008000091819D7F91837FDEFC019289937F928B02
:10081000C23019F0C33039F00BC075DEFC0192898B
:100820009860928B05C06FDEFC0192899C60928B70
:100830006ADEFC019181926091835FDEFC01938509
:1008400090689387FDC05FDEFC0191819B7F91835F
:100850005ADEFC0192899F7C928BC23019F0C33022
:1008600039F00BC050DEFC0192899062928B05C07A
:100870004ADEFC0192899063928B45DEFC019181F6
:10088000946091833ADEFC01938590689387D8C089
:100890003ADEFC019181977F918335DEFC019289DC
:1008A0009F73928BC23019F0C33039F00BC02BDE2E
:1008B000FC0192899068928B05C025DEFC0192892B
:1008C000906C928B20DEFC0191819860918315DE03
:1008D000FC01938590689387B3C015DEFC0191817C
:1008E0009F7E918310DEFC0192819C7F9283C230B7
:1008F00051F0C33071F0C13089F405DEFC01928102
:10090000916092830BC0FFDDFC0192819260928323
:1009100005C0F9DDFC01928193609283F4DDFC0156
:10092000918190619183E9DDFC01938590689387C3
:1009300087C0E9DDFC0191819F7D9183E4DDFC01AD
:100940009281937F9283C23051F0C33071F0C130F5
:1009500089F4D9DDFC019281946092830BC0D3DDD0
:10096000FC0192819860928305C0CDDDFC019281EB
:100970009C609283C8DDFC01918190629183BDDD12
:10098000FC019385906893875BC0BDDDFC0191817C
:100990009F7B9183B8DDFC0192819F7C9283C23062
:1009A00051F0C33071F0C13089F4ADDDFC019281AA
:1009B000906192830BC0A7DDFC01928190629283CB
:1009C00005C0A1DDFC019281906392839CDDFC0156
:1009D00091819064918391DDFC0193859068938768
:1009E0002FC091DDFC0191819F7791838CDDFC010B
:1009F00092819F739283C23051F0C33071F0C13045
:100A000089F481DDFC019281906492830BC07BDDCF
:100A1000FC0192819068928305C075DDFC01928192
:100A2000906C928370DDFC0191819068918365DD0B
:100A3000FC0193859068938703C065DDFC011182FA
:100A4000CF91089590E08830910508F05CC0FC01DA
:100A5000EA5AFF4F0C948D2A56DDFC01918191607A
:100A600091834BDDFC0193859068938708954BDD5E
:100A7000FC0191819260918340DDFC019385906837
:100A80009387089540DDFC0191819460918335DD69
:100A9000FC01938590689387089535DDFC01918171
:100AA000986091832ADDFC0193859068938708956F
:100AB0002ADDFC019181906191831FDDFC0193850A
:100AC0009068938708951FDDFC0191819062918366
:100AD00014DDFC01938590689387089514DDFC0173
:100AE00091819064918309DDFC01938590689387DF
:100AF000089509DDFC01918190689183FEDCFC0181
:100B00009385906893870895CF93DF93EC01FBDC86
:100B1000FC011182F8DCE5ECF1E0918380838DEC3F
:100B200093E09383828385E593E09583848382E2D7
:100B300095E09783868382E993E0918780878AE0B6
:100B4000DE0101900D928A95E1F7CE01DF91CF9100
:100B5000089585EC91E008950F931F93CF93DF9351
:100B60008C01BFDCCFECD1E099838883BDDC9B8313
:100B70008A83E4DC9D838C83BADC9F838E838AEC3A
:100B800090E0998788871DDC9B878A87B3DC9D87E7
:100B90008C87B3DC9F878E87B3DC998B888B88EC3E
:100BA00095E19B8B8A8B0E9401169D8B8C8BABDC15
:100BB0009F8B8E8B84E895E0998F888FCADF9B8FFF
:100BC0008A8FA4DC9D8F8C8FA4DC9F8F8E8FA4DCFA
:100BD00099A388A3A4DC9BA38AA3A4DC9DA38CA3D4
:100BE000A4DC9FA38EA3A4DC99A788A7A4DC9BA761
:100BF0008AA7A4DC9DA78CA7A4DC9FA78EA786EF5D
:100C000096E099AB88AB0ED29BAB8AAB9DDC9DABDB
:100C10008CAB94DC9FAB8EAB8AE49AE099AF88AF43
:100C200006D69BAF8AAF93DC9DAF8CAF87DC9FAFBE
:100C30008EAF85E99EE09093100280930F020E9490
:100C40005710909312028093110284DC9093140247
:100C50008093130285EC9CE090931602809315021A
:100C60001CD7909318028093170277DC90931A0296
:100C70008093190263DC90931C0280931B028DEA1F
:100C800098E090931E0280931D02E1D2909320027F
:100C900080931F0265DC909322028093210280EEF4
:100CA00090E190932402809323020E946C10909311
:100CB00026028093250257DC909328028093270216
:100CC00080E492E190932A02809329020E94C51148
:100CD00090932C0280932B0249DC90932E028093F8
:100CE0002D0289E794E19093300280932F020E94B5
:100CF000FD1390933202809331023BDC90933402D7
:100D00008093330281EE92E0909336028093350215
:100D10008BEF92E090933802809337028AE6FE01CF
:100D2000D80101900D928A95E1F7C801DF91CF912A
:100D30001F910F910895EF92FF920F931F93CF93FE
:100D4000DF934423E9F07C01EC01062F172F41507B
:100D5000242F30E02F5F3F4FE20EF31EF2DB29918C
:100D6000FC012283EEDBFC0181818823DCF7E9DBD7
:100D7000FC018281F80181938F01CE15DF0571F7A7
:100D8000DF91CF911F910F91FF90EF9008950F93F6
:100D90001F93CF93DF936623A9F08C01EC01615080
:100DA000262F30E02F5F3F4F020F131FCADB299120
:100DB000FC012283C6DBFC0181818823DCF7C0179C
:100DC000D107A1F7DF91CF911F910F910895CF9394
:100DD000C82FB7DBFC01C283B4DBFC01818188230F
:100DE000DCF7AFDBFC018281CF910895EF92FF9297
:100DF0000F931F93CF93DF93CDB7DEB728970FB62E
:100E0000F894DEBF0FBECDBFF82EE62E042F122FB2
:100E100098DBE9E3F2E0918380838BE996E09383AA
:100E2000828387EC96E09583848387EE96E09783B0
:100E300086836FDBFC019181907F9183FF2099F085
:100E400081E0F8121BC07DDBFC01908190619083F2
:100E500060DBFC019181976091835BDBFC019281F7
:100E60009160928315C06DDBFC019081906190834D
:100E700050DBFC019181986091830AC062DBFC0128
:100E800090819061908345DBFC0191819760918313
:100E9000EE2049F081E0E8120CC053DBFC019081A8
:100EA000906290830BC04DDBFC0190819F7D90830D
:100EB00005C047DBFC0190819F7D9083013061F08C
:100EC00028F0023079F0033099F018C03ADBFC01C9
:100ED0009081937F908317C034DBFC0190819460F4
:100EE000908311C02EDBFC019081986090830BC031
:100EF00028DBFC0190819C60908305C022DBFC0113
:100F00009081937F90831031A1F140F41430D9F097
:100F1000183021F1123009F058C00AC0103409F419
:100F20003EC0103809F446C0103209F04EC02CC043
:100F300008DBFC0191819160918303DBFC019081CE
:100F40009C7F90834CC0FDDAFC0191819E7F918350
:100F5000F8DAFC0190819C7F908341C0F2DAFC01B9
:100F6000918191609183EDDAFC0190819160908391
:100F700036C0E7DAFC0191819E7F9183E2DAFC01C1
:100F80009081916090832BC0DCDAFC0191819160AB
:100F90009183D7DAFC0190819260908320C0D1DAEE
:100FA000FC0191819E7F9183CCDAFC01908192605B
:100FB000908315C0C6DAFC01918191709183C1DAEA
:100FC000FC019081936090830AC0BBDAFC0191819F
:100FD00091609183B6DAFC01908191609083B1DADF
:100FE000FC0190819064908388E0E9E3F2E0DE0107
:100FF000119601900D928A95E1F729813A814B81F2
:101000005C816D817E818F81988528960FB6F894DA
:10101000DEBF0FBECDBFDF91CF911F910F91FF902B
:10102000EF90089589E392E00895CF93DF932091A4
:101030004203211151C0EC0190DAFC019381987FA9
:101040009383C034D10541F148F4C830D105C1F0D3
:10105000C032D105D9F02197B9F50CC0C11581E096
:10106000D80731F1C11584E0D80741F1C038D10566
:1010700059F518C072DAFC0193819160938329C0FD
:101080006CDAFC0193819260938323C066DAFC01E1
:101090009381936093831DC060DAFC019381946017
:1010A000938317C05ADAFC0193819560938311C032
:1010B00054DAFC019381966093830BC04EDAFC01F5
:1010C00093819760938305C048DAFC019381976010
:1010D000938385E58093420380914203DF91CF9112
:1010E0000895CF93C82F39DAFC01C183CF910895B9
:1010F00034DAFC019381987F93831092420380E05D
:101100000895CF93C82F29DAFC0193819F7C9383A4
:10111000C23071F0C330B1F0C130E9F4FAD920E146
:10112000FC0121831ADAFC0193819061938313C03F
:10113000F0D920E1FC01218310DAFC019381906257
:10114000938309C0E6D920E1FC01218306DAFC0182
:10115000938190639383CF9108950F931F93CF93BF
:10116000DF93EC01062F142F10924203F6D9FC01F5
:101170009381977B9383023051F0033071F00130FB
:1011800089F4EBD9FC019381906493830BC0E5D97A
:10119000FC0193819860938305C0DFD9FC019381A2
:1011A00098649383DAD9FC0197819E7F9783D5D980
:1011B000FC0197819D7F9783123079F01330C1F045
:1011C000113001F5CAD9FC0197819160978395D9B7
:1011D000FC0193859068938715C0BFD9FC01978166
:1011E000926097838AD9FC019385906893870AC09F
:1011F000B4D9FC019781936097837FD9FC019385D3
:1012000090689387AAD92FEFFC012183A6D9E1E446
:10121000F2E09183808381E898E09383828381E781
:1012200098E09583848385E198E09783868388E7B7
:1012300098E0918780878AE0DE0101900D928A957F
:10124000E1F7CE01DF91CF911F910F91089581E4D5
:1012500092E00895CF93DF932091430321114FC073
:10126000EC0172D9FC019085987F9087C830D10538
:10127000D1F038F4C630D10571F198F5219769F0B5
:1012800036C0C11581E0D807D1F0C11584E0D80778
:10129000E1F0C034D10559F50CC056D9FC01908558
:1012A0009160908729C050D9FC0190859260908709
:1012B00023C04AD9FC019085936090871DC044D912
:1012C000FC0190859460908717C03ED9FC01908501
:1012D0009560908711C038D9FC0190859660908701
:1012E0000BC032D9FC0190859760908705C02CD93E
:1012F000FC0190859560908785E5809343038091FC
:101300004303DF91CF9108951FD9FC019085987F09
:1013100090871092430380E008950F931F93CF931B
:10132000DF938C0111D9EC01C8012ED99D838C83E8
:10133000DF91CF911F910F9108950F931F93CF933A
:10134000DF938C0101D9EC01C8011ED99B838A83EC
:10135000DF91CF911F910F9108950F931F93CF931A
:10136000DF938C01F1D8EC01C8010ED99BAB8AAB9D
:10137000DF91CF911F910F910895CF93C82FE4D89B
:10138000FC0191859F739187C23079F0C330C1F021
:10139000C13001F5BED8FC01918190629183D4D80F
:1013A000FC0191859064918715C0B3D8FC019181AF
:1013B00090629183C9D8FC019185906891870AC099
:1013C000A8D8FC01918190629183BED8FC019185DF
:1013D000906C9187CF910895CF93C82FB5D8FC0119
:1013E00091859F7C9187C23079F0C330C1F0C130C4
:1013F00001F58FD8FC01918190649183A5D8FC01FF
:1014000091859061918715C084D8FC019181906489
:1014100091839AD8FC019185906291870AC079D80E
:10142000FC019181906491838FD8FC019185906338
:101430009187CF910895CF93C82F86D8FC019185CD
:10144000937F9187C23079F0C330C1F0C13001F58C
:1014500060D8FC0191819068918376D8FC019185D8
:101460009460918715C055D8FC0191819068918353
:101470006BD8FC019185986091870AC04AD8FC011D
:1014800091819068918360D8FC0191859C609187DF
:10149000CF9108950F931F93CF93DF93EC01062F05
:1014A000142F1092430350D8FC0191859C7F9187A3
:1014B0004BD8FC019085977E9087802F90E0FC01AF
:1014C0003197EF30F10508F097C0E25AFF4F0C94C6
:1014D0008D2A3AD8FC019185916091878DC034D8CE
:1014E000FC0191859260918787C02ED8FC0191857F
:1014F0009360918781C028D8FC019085986090877F
:101500007BC022D8FC019185916091871DD8FC0198
:1015100090859860908770C017D8FC019185926083
:10152000918712D8FC0190859860908765C00CD88F
:10153000FC0191859360918707D8FC0190859860A4
:1015400090875AC001D8FC0190859061908754C063
:101550000E94A402FC019185916091870E94A402DF
:10156000FC0190859061908747C00E94A402FC0115
:101570009185926091870E94A402FC019085906100
:1015800090873AC00E94A402FC01918593609187E4
:101590000E94A402FC019085906190872DC00E945A
:1015A000A402FC0190859861908726C00E94A40245
:1015B000FC019185916091870E94A402FC019085B5
:1015C0009861908719C00E94A402FC0191859260E5
:1015D00091870E94A402FC019085986190870CC0BD
:1015E0000E94A402FC019185936091870E94A4024D
:1015F000FC019085986190870E94A402FC0191856E
:10160000937091870E94A402FC019189937C918B35
:101610000E94A402FC0197A99E7F97AB412F50E046
:10162000FA013197EC30F10508F0B1C0E359FF4FF2
:101630000C948D2A0E94A402FC0191899460918BE4
:101640000E947D02FC01938590689387A0C00E9450
:10165000A402FC0191899061918B0E947D02FC01A2
:1016600093859068938793C00E94A402FC0191899E
:101670009860918B0E947D02FC019385906893870E
:1016800086C00E94A402FC0197A9916097AB0E94BA
:101690007D02FC0193859068938779C00E94A40223
:1016A000FC0191899062918B0E947D02FC019385DF
:1016B000906893876CC00E94A402FC019189946198
:1016C000918B0E947D02FC019385906893875FC097
:1016D0000E94A402FC0191899C60918B0E947D0272
:1016E000FC0193859068938752C00E94A402FC017C
:1016F00091899460918B0E94A402FC0197A991604A
:1017000097AB0E947D02FC019385906893873FC050
:101710000E94A402FC0191899462918B0E947D0237
:10172000FC0193859068938732C00E94A402FC015B
:1017300091899C61918B0E947D02FC019385906848
:10174000938725C00E94A402FC0191899C61918B22
:101750000E94A402FC0197A9916097AB0E947D02B0
:10176000FC0193859068938712C00E94A402FC013B
:1017700091899861918B0E94A402FC0197A99160C4
:1017800097AB0E947D02FC019385906893870E942D
:10179000A4028C018FEF9FEF0E94C402F801958391
:1017A00084830E94A4028C018FEF9FEF0E94C402E9
:1017B000F801938382830E94A4028C018FEF9FEF34
:1017C0000E94C402F80193AB82AB0E94A402EBE436
:1017D000F2E0918380838DEB99E0938382838CEE9A
:1017E00099E0958384838BE19AE0978386838DE8E3
:1017F00099E0918780878DE999E0938782878DEAC8
:1018000099E0958784878AE299E09787868784E8BC
:1018100099E0918B808B82E1DE0101900D928A9597
:10182000E1F7CE01DF91CF911F910F9108958BE4E5
:1018300092E00895CF93DF9320914403211158C083
:10184000EC010E94AA02FC019281987F9283C83029
:10185000D105D9F038F4C630D10599F1C8F52197F2
:1018600069F03DC0C11581E0D807E9F0C11584E0F9
:10187000D80701F1C034D10591F50EC00E94AA022B
:10188000FC0192819160928330C00E94AA02FC0107
:1018900092819260928329C00E94AA02FC019281E7
:1018A0009360928322C00E94AA02FC0192819460FC
:1018B00092831BC00E94AA02FC01928195609283D0
:1018C00014C00E94AA02FC019281966092830DC00E
:1018D0000E94AA02FC0192819760928306C00E9436
:1018E000AA02FC0192819560928385E5809344036E
:1018F00080914403DF91CF910895CF93C82F0E9428
:10190000AA02FC01C083CF9108950E94AA02FC01A3
:101910009281987F92831092440380E00895CF9340
:10192000C82F0E94AA02FC0192819F7C9283C23040
:1019300089F0C330E1F0C13031F50E948902FC0129
:101940009181906891830E94AA02FC01928190612A
:10195000928319C00E948902FC0191819068918351
:101960000E94AA02FC019281906292830CC00E94A4
:101970008902FC019181906891830E94AA02FC0176
:10198000928190639283CF9108950F931F93CF9389
:10199000DF938C01D62FC42F109244030E94AA0219
:1019A000FC019281977B9283D23059F0D33081F041
:1019B000D130A1F40E94AA02FC019281906492832A
:1019C0000DC00E94AA02FC0192819860928306C019
:1019D0000E94AA02FC019281986492830E94AA024A
:1019E000FC0194899F73948BC23089F0C330E1F07D
:1019F000C13061F50E94AA02FC0194899064948B25
:101A00000E947D02FC019385906893871FC00E940D
:101A1000AA02FC0194899068948B0E947D02FC01CB
:101A200093859068938712C00E94AA02FC01948952
:101A30009064948B0E94AA02FC0194899068948B14
:101A40000E947D02FC019385906893870E94AA0200
:101A50002FEFFC0120830E94AA02EDE5F2E09183C2
:101A600080838FE89CE0938382838DE79CE095835D
:101A700084838AE19CE09783868385E89CE0918754
:101A800080878AE0D80101900D928A95E1F7C8011C
:101A9000DF91CF911F910F9108958DE592E0089508
:101AA000CF93DF9320914503211158C0EC010E9490
:101AB000A702FC019685987F9687C830D105D9F09A
:101AC00038F4C630D10599F1C8F5219769F03DC0C9
:101AD000C11581E0D807E9F0C11584E0D80701F10C
:101AE000C034D10591F50EC00E94A702FC01968575
:101AF0009160968730C00E94A702FC019685926093
:101B0000968729C00E94A702FC019685936096875C
:101B100022C00E94A702FC019685946096871BC094
:101B20000E94A702FC0196859560968714C00E94CA
:101B3000A702FC019685966096870DC00E94A702B9
:101B4000FC0196859760968706C00E94A702FC015B
:101B500096859560968785E580934503809145033A
:101B6000DF91CF9108950E94A702FC019685987F8E
:101B700096871092450380E008950F931F93CF93AB
:101B8000DF938C010E94A702EC01C8010E94C402ED
:101B90009B878A87DF91CF911F910F9108950F93B3
:101BA0001F93CF93DF938C010E94A702EC01C80121
:101BB0000E94C40299878887DF91CF911F910F916E
:101BC00008950F931F93CF93DF938C010E94A70278
:101BD000EC01C8010E94C4029F838E83DF91CF91E4
:101BE0001F910F910895CF93C82F0E94A702FC0167
:101BF00097859F739787C23089F0C330E1F0C13079
:101C000031F50E949202FC019181986091830E94BB
:101C1000A702FC0197859064978719C00E949202E1
:101C2000FC019181986091830E94A702FC01978535
:101C3000906897870CC00E949202FC019181986085
:101C400091830E94A702FC019785906C9787CF91A2
:101C50000895CF93C82F0E94A702FC0197859F7C0F
:101C60009787C23089F0C330E1F0C13031F50E946E
:101C70009202FC019181906191830E94A702FC0174
:101C800097859061978719C00E949202FC0191810B
:101C9000906191830E94A702FC01978590629787CB
:101CA0000CC00E949202FC019181906191830E947C
:101CB000A702FC01978590639787CF910895CF93F2
:101CC000C82F0E94A702FC019785937F9787C23097
:101CD00089F0C330E1F0C13031F50E949202FC017D
:101CE0009181906291830E94A702FC019785946084
:101CF000978719C00E949202FC01918190629183A2
:101D00000E94A702FC019785986097870CC00E94EB
:101D10009202FC019181906291830E94A702FC01D2
:101D200097859C609787CF9108950F931F93CF93CA
:101D3000DF93EC01062F142F109245030E94A70297
:101D4000FC0197859C7F97870E94A702FC019685DE
:101D5000977E9687802F90E0FC013197EF30F10558
:101D600008F0A2C0E758FF4F0C948D2A0E94A702EA
:101D7000FC0197859160978797C00E94A702FC019C
:101D800097859260978790C00E94A702FC01978573
:101D90009360978789C00E94A702FC01968598608E
:101DA000968782C00E94A702FC0197859160978761
:101DB0000E94A702FC0196859860968775C00E94D4
:101DC000A702FC019785926097870E94A702FC01F9
:101DD00096859860968768C00E94A702FC01978547
:101DE000936097870E94A702FC019685986096876A
:101DF0005BC00E94A702FC0196859061968754C043
:101E00000E94A702FC019785916097870E94A70214
:101E1000FC0196859061968747C00E94A702FC014D
:101E20009785926097870E94A702FC019685906132
:101E300096873AC00E94A702FC0197859360978716
:101E40000E94A702FC019685906196872DC00E9492
:101E5000A702FC0196859861968726C00E94A7027A
:101E6000FC019785916097870E94A702FC019685E7
:101E70009861968719C00E94A702FC01978592601D
:101E800097870E94A702FC019685986196870CC0EF
:101E90000E94A702FC019785936097870E94A70282
:101EA000FC019685986196870E94A702FC019785A0
:101EB000937097870E94A702FC019181917C918386
:101EC000412F50E0FA013197EC30F10508F09FC046
:101ED000E857FF4F0C948D2A0E94A702FC019181C4
:101EE000946091830E947D02FC01938590689387A2
:101EF0008EC00E94A702FC019181906191830E9493
:101F00007D02FC0193859068938781C00E94A7029F
:101F1000FC019181986091830E947D02FC01938570
:101F20009068938774C00E94A702FC01918192601F
:101F300091830E947D02FC0193859068938767C01E
:101F40000E94A702FC019181906291830E947D0210
:101F5000FC019385906893875AC00E94A702FC01F8
:101F60009181946191830E947D02FC019385906828
:101F700093874DC00E94A702FC0191819C609183D0
:101F80000E947D02FC0193859068938740C00E9467
:101F9000A702FC019181966091830E947D02FC0161
:101FA00093859068938733C00E94A702FC019181BA
:101FB000946291830E947D02FC01938590689387CF
:101FC00026C00E94A702FC0191819C6191830E941E
:101FD0007D02FC0193859068938719C00E94A70237
:101FE000FC0191819E6191830E947D02FC01938599
:101FF000906893870CC00E94A702FC0191819A61AE
:1020000091830E947D02FC019385906893870E94D2
:10201000A7028C018FEF9FEF0E94C402F801938703
:1020200082870E94A7028C018FEF9FEF0E94C4025B
:10203000F801918780870E94A7028C018FEF9FEFA4
:102040000E94C402F801978386830E94A702E7E6F4
:10205000F2E09183808383EF9DE09383828389E222
:102060009EE0958384838FE59EE0978386838DEB46
:102070009DE0918780878FEC9DE09387828781EE3A
:102080009DE09587848780E59DE09787868783EB31
:102090009DE0918B808B82E1DE0101900D928A950B
:1020A000E1F7CE01DF91CF911F910F91089587E65F
:1020B00092E008950E94B002FC018181887F08951A
:1020C0000E94B00224E9FC0124838FE891E001978B
:1020D000F1F700C00000089589E792E008950F939A
:1020E0001F93CF93DF93D82FC62F18167CF40E942E
:1020F000B002FC01DD0F92819170D92BD2830E9436
:10210000B002FC0122812160228306C00E94B0023D
:10211000FC012281216022830E948F02FC019181B7
:10212000936091830E948F02FC019281936092835D
:10213000C43081F018F4C13031F023C0C03191F0C7
:10214000C034C1F01EC00E94B002FC0191819C7F8E
:1021500091831EC00E94B002FC0191819C7F91601E
:10216000918316C00E94B002FC0191819C7F926015
:1021700091830EC00E94B002FC0191819360918313
:1021800007C00E94B002FC0191819C7F9183C1E055
:102190000E94B0028C012C2F30E0220F331F032E3F
:1021A000000C440B550B60E970E080E090E00E9469
:1021B0004F2AF8012083DF91CF911F910F9108954D
:1021C0000F931F93CF93DF93EC01162F042F0E94E0
:1021D000B002E9E7F2E0918380838DE291E193839D
:1021E00082838AE391E19583848380E690E19387FB
:1021F000828787E591E1978386838BE691E19187DA
:1022000080878AE590E195878487602F812F67DF3B
:102210008EE0E9E7F2E0DE0101900D928A95E1F7A8
:10222000CE01DF91CF911F910F9108950F931F93CE
:10223000CF93DF938C01C0E0D0E004C00C171D07E2
:1022400038F021960E94B002FC0184818823B4F703
:10225000DF91CF911F910F9108950E94B00224EA5F
:10226000FC0124838FEF93E0E1DF24DF883009F065
:1022700027CF0895CF93662321F0C82FCC0FC160DC
:1022800002C0C82FCC0F0E94B002FC01C3830E9481
:10229000B00224E8FC0124838FEF93E0C7DF0ADF5C
:1022A000883119F0803409F00BDFCF910895CF9376
:1022B000C82F0E94B002FC01C3830E94B00224E830
:1022C000FC0124838FEF93E0B1DFF4DE883209F064
:1022D000F7DECF910895CF93882311F0C0E401C0B9
:1022E000C0E0C4680E94B002FC01C4838FEF93E099
:1022F0009DDFE0DE883309F4E3DE0E94B002FC01DA
:102300008381CF91089580916703109267030895A8
:10231000E0917003F091710388E693E009950895C8
:10232000E0917203F091730388E693E009951092AF
:1023300074030895CF93C82F0E94B302FC019181CA
:10234000906291830E94B302FC01C3835D9906C031
:1023500088E592E05D9902C00197E1F7CF91089579
:10236000E9CF0895CF93DF93EC018881882329F08A
:102370002196E0DF89918111FCCFDF91CF91089503
:102380008091670310926703089588E892E00895AA
:102390001F920F920FB60F9211240BB60F922F932C
:1023A0003F934F935F936F937F938F939F93AF93DD
:1023B000BF93EF93FF930E94B302FC0191819F7D35
:1023C0009183FF91EF91BF91AF919F918F917F91F9
:1023D0006F915F914F913F912F910F900BBE0F9096
:1023E0000FBE0F901F9018958BB142E063E00C94E4
:1023F0000F0308951F920F920FB60F9211240BB680
:102400000F922F933F934F935F936F937F938F938D
:102410009F93AF93BF93CF93EF93FF93E5DFC82FC5
:102420000E94B302FC018181C111C09374030E9418
:10243000B302FC01638160936703E0916E03F09146
:102440006F0388E693E00995FF91EF91CF91BF91DB
:10245000AF919F918F917F916F915F914F913F913C
:102460002F910F900BBE0F900FBE0F901F901895DD
:1024700021E041E064E08BE290E00C942D030895AC
:102480002F923F924F925F926F927F928F929F9284
:10249000AF92BF92CF92DF92EF92FF920F931F9372
:1024A000CF93DF93CDB7DEB72C970FB6F894DEBF8E
:1024B0000FBECDBF1C012A013B01690181E0809361
:1024C000870246E453E060E2CE010196C6D38CE079
:1024D000FE013196A8E6B3E001900D928A95E1F7EE
:1024E000C301B2010E94C5025C010E94B302E8E888
:1024F000F2E09183808383E891E19383828380EC8F
:1025000091E19583848388E891E19783868380E9CC
:1025100091E1918780878AE991E19387828780EBB7
:1025200091E19587848782EB91E197878687BB202D
:1025300034F49EDFC301B2010E94D3025C010E9409
:10254000B3024C01C5010E94C402F401E959FF4FD6
:1025500090830E94B3024C01C5010E94C402F401A1
:1025600080830E94B30228E9FC012183F7E0CF16A3
:10257000D10499F158F4E5E0CE16D10409F45BC01A
:10258000F6E0CF16D10409F43FC064C088E0C81655
:10259000D104A1F0E9E0CE16D10409F05BC00E949D
:1025A000B302FC019181946091830E94B302FC010B
:1025B000E459FF4F9081966090835AC00E94B30205
:1025C000FC0191819B7F91830E94B302FC01E4593D
:1025D000FF4F9081966090834BC00E94B302FC0134
:1025E00091819B7F91830E94B302FC01E459FF4FCC
:1025F0009081946090830E94B302FC01E459FF4FE4
:1026000090819D7F908334C00E94B302FC01918130
:102610009B7F91830E94B302FC01E459FF4F90819C
:102620009B7F90830E94B302FC01E459FF4F90818D
:10263000926090831DC00E94B302FC0191819B7F38
:1026400091830E94B302FC01E459FF4F9081997F6E
:1026500090830EC00E94B302FC0191819B7F918305
:102660000E94B302FC01E459FF4F90819660908371
:102670000130110521F00230110551F012C00E9405
:10268000B302FC01E459FF4F9081977F908311C002
:102690000E94B302FC01E459FF4F9081986090833F
:1026A00008C00E94B302FC01E459FF4F9081977F5C
:1026B0009083F2E0EF16F10479F083E0E816F1047C
:1026C000E1F0EF2819F50E94B302FC01E459FF4F35
:1026D00090819F7C908322C00E94B302FC01E45948
:1026E000FF4F9081906290830E94B302FC01E459F5
:1026F000FF4F90819F7E908311C00E94B302FC0126
:10270000E459FF4F90819063908308C00E94B30208
:10271000FC01E459FF4F90819F7C90830E947D02D1
:10272000FC0123852068238780E1E8E8F2E0D101FD
:1027300001900D928A95E1F7C1012C960FB6F8949D
:10274000DEBF0FBECDBFDF91CF911F910F91FF90E4
:10275000EF90DF90CF90BF90AF909F908F907F9041
:102760006F905F904F903F902F90089580917503E8
:10277000109275030895E091A003F091A10388E9F8
:1027800093E009950895E091A203F091A30388E9ED
:1027900093E00995109297030895CF93C82F0E9454
:1027A000B602FC019281906292830E94B602FC0103
:1027B000C48380919B0085FD09C088E592E0EBE928
:1027C000F0E0208125FD02C00197D9F7CF9108954F
:1027D000E4CF0895CF93DF93EC018881882329F01B
:1027E0002196DBDF89918111FCCFDF91CF91089594
:1027F0008091750310927503089589E992E0089518
:102800001F920F920FB60F9211240BB60F922F93B7
:102810003F934F935F936F937F938F939F93AF9368
:10282000BF93EF93FF930E94B602FC0192819F7DBC
:102830009283FF91EF91BF91AF919F918F917F9183
:102840006F915F914F913F912F910F900BBE0F9021
:102850000FBE0F901F90189580919B0042E063E09F
:102860000C940F0308951F920F920FB60F9211242C
:102870000BB60F922F933F934F935F936F937F937A
:102880008F939F93AF93BF93CF93EF93FF93E4DF27
:10289000C82F0E94B602FC018281C111C093970328
:1028A0000E94B602FC01648160937503E0919E036F
:1028B000F0919F0388E993E00995FF91EF91CF9103
:1028C000BF91AF919F918F917F916F915F914F9148
:1028D0003F912F910F900BBE0F900FBE0F901F9046
:1028E000189521E041E064E08BE990E00C942D0321
:1028F00008954F925F926F927F928F929F92AF92C4
:10290000BF92CF92DF92EF92FF920F931F93CF93DC
:10291000DF93CDB7DEB72C970FB6F894DEBF0FBEAE
:10292000CDBF4C012A013B01690181E080939802EF
:1029300046E753E060E2CE0101968FD18CE0FE01C4
:102940003196A8E9B3E001900D928A95E1F7C301B1
:10295000B2010E94C5025C010E94B602E9E9F2E000
:102960009183808386EB93E19383828388EF93E165
:10297000958384838BEB93E19783868383EC93E148
:10298000918780878DEC93E19387828788EE93E12E
:10299000958784878AEE93E197878687BB2034F4F6
:1029A000A0DFC301B2010E94D3025C010E94B60203
:1029B0003C01C5010E94C402F30190830E94B6024B
:1029C0003C01C5010E94C402F30181830E94B6024A
:1029D00028E9FC012283F7E0CF16D10471F150F40D
:1029E000E5E0CE16D10409F44EC0F6E0CF16D104CE
:1029F000B9F156C088E0C816D10491F0E9E0CE16CE
:102A0000D10409F04DC00E94B602FC01928194608D
:102A100092830E94B602FC019581966095834CC01A
:102A20000E94B602FC0192819B7F92830E94B602B3
:102A3000FC019581966095833FC00E94B602FC011F
:102A400092819B7F92830E94B602FC0195819460E3
:102A500095830E94B602FC0195819D7F95832CC0D1
:102A60000E94B602FC0192819B7F92830E94B60273
:102A7000FC0195819B7F95830E94B602FC019581A4
:102A80009260958319C00E94B602FC0192819B7FDF
:102A900092830E94B602FC019581997F95830CC0B8
:102AA0000E94B602FC0192819B7F92830E94B60233
:102AB000FC019581966095830130110521F002306B
:102AC000110541F00EC00E94B602FC019581977F6E
:102AD00095830DC00E94B602FC0195819860958394
:102AE00006C00E94B602FC019581977F9583F2E0B3
:102AF000EF16F10469F083E0E816F104B1F0EF2875
:102B0000D9F40E94B602FC0195819F7C95831AC07E
:102B10000E94B602FC019581906295830E94B602E4
:102B2000FC0195819F7E95830DC00E94B602FC0139
:102B300095819063958306C00E94B602FC01958141
:102B40009F7C95830E947D02FC012385206823875A
:102B500080E1E9E9F2E0D40101900D928A95E1F774
:102B6000C4012C960FB6F894DEBF0FBECDBFDF9127
:102B7000CF911F910F91FF90EF90DF90CF90BF907A
:102B8000AF909F908F907F906F905F904F9008953F
:102B9000E9EAF2E024EA3DE23183208326EE3DE2D9
:102BA0003383228320EC3DE2358324832CEA3DE20B
:102BB0003783268328EF3DE23187208729ED3DE2E8
:102BC0003387228723EF3DE23787268723EF3DE2D5
:102BD000358B248B21ED3DE2378B268B24E93DE2BA
:102BE000318F208F2DED3DE2338F228F21EB3DE29F
:102BF000358F248F2EE1DC0101900D922A95E1F7AB
:102C0000089589EA92E008956623C1F0DC011296E6
:102C1000ED91FC91139714962D913C911597E21725
:102C2000F30729F4ED91FC91DF01119602C0DF0159
:102C3000119660831C92FC01B383A2830895FC016A
:102C4000808191810895DC01ED91FC91119713969B
:102C5000FC93EE93129710820895FC0151834083F8
:102C600053834283460F511D5583448384E096E18C
:102C7000978386838FE196E19187808783E296E14F
:102C800093878287CF010895FC01818180836183CE
:102C9000982F96239283982F962B90959383982F15
:102CA000962769236483892385830895CF93DF93CF
:102CB000CDB7DEB760970FB6F894DEBF0FBECDBFBD
:102CC00019861A8684E496E1988B8F8788E0FE0146
:102CD0003996DE01119601900D928A95E1F72981CE
:102CE0003A814B815C816D817E818F819885609670
:102CF0000FB6F894DEBF0FBECDBFDF91CF91089520
:102D000021E030E0042E02C0220F331F0A94E2F7C4
:102D10002150310962237323822393239C012627A8
:102D2000372762237323CB0102C0880F991F4A956E
:102D3000E2F7822B932B0895CF92DF92EF92FF92CE
:102D40000F931F93FC010081118122813381FB01CC
:102D5000C080D180E280F380FC01C082D182E28217
:102D6000F382FB0100831183228333831F910F9130
:102D7000FF90EF90DF90CF900895FB012081FC0140
:102D80002083222339F0DB01119631969D91919396
:102D90009111FCCF0895CF93DF93EC019881992393
:102DA00099F0FE01319620E030E0492F50E04617BF
:102DB000570731F0DE01A20FB31F9C932F5F3F4FE7
:102DC00091919111F2CF02C020E030E0FE01E20FBC
:102DD000F31F1082DF91CF9108952F923F924F926F
:102DE0005F926F927F928F929F92AF92BF92CF929B
:102DF000DF92EF92FF920F931F93CF93DF9300D058
:102E000000D0CDB7DEB72C011B014B0177231CF49A
:102E10002FEF821A920A95948794181419040CF4CF
:102E200051C06AC09601DD209CF1F50140815181BD
:102E3000F401608171816417750754F58C010A0DE6
:102E40001B1DD401BC82AB82BA82A982EB81FC81BA
:102E50007183608311965C934E932E193F09C2F0E3
:102E6000F80140815181E981FA8160817181080F07
:102E7000191FE80FF91FFA83E983EB81FC81E80F42
:102E8000F91FFC83EB83A80FB91F64177507F4F2D1
:102E9000FFEFCF1ADF0A22E0A20EB11CE2E08E0E95
:102EA000911CC614D70409F0BDCF4701FF201CF4C4
:102EB000FFEF8F1A9F0A9594879418141904E4F46D
:102EC000740101C07401821493047CF76401CE186C
:102ED000DF085601AA0CBB1CA40CB51C880C991C5D
:102EE000840C951C31016E187F08C701880F991F4B
:102EF00091958195910996CF0F900F900F900F901B
:102F0000DF91CF911F910F91FF90EF90DF90CF90C5
:102F1000BF90AF909F908F907F906F905F904F90F9
:102F20003F902F900895861797070CF4CB010895D2
:102F30009B01672B11F408959A01B9010E943C2A64
:102F4000AC01822F932F41155105B1F70895FC0173
:102F5000908180ED890F8A30D0F4319620E030E006
:102F6000A901440F551F220F331F220F331F220FB9
:102F7000331F420F531F292F30E020533109240FF4
:102F8000351F919180ED890F8A3050F302C020E007
:102F900030E0C901089587FF08C091958195910996
:102FA000992791958195910908958F77992708958B
:102FB00091FF08C0919581959109937091958195A4
:102FC0009109089591700895615021E030E002C0A8
:102FD000220F331F6A95E2F7A90141505109B90147
:102FE00068237923672B29F084239523821B930B75
:102FF00008958423952308959DEC899F912D112494
:10300000969596959695392F330F232F220F220FE1
:10301000230F821B20E1929F800D11240895982F89
:1030200092959F70990F292F220F220F920F8F7068
:10303000890F0895FC01DB01A953BD4F1C921616A0
:10304000170614F5908191110CC017C09191911140
:103050000DC015C081932F5F3F4F26173707D4F35C
:1030600013C0A7ECB2E0319620E030E09D932F5FD3
:103070003F4F6217730751F707C020E030E0F901B6
:10308000E953FD4F80E2E6CF87EC92E008954F923E
:103090005F926F927F92AF92BF92CF92DF92EF9248
:1030A000FF920F931F93CF93DF93CDB7DEB7290124
:1030B0003A019B01AC012419350946095709898950
:1030C0009A89AB89BC89BC01CD016A197B098C093D
:1030D0009D090E94192AA80197012419350946095A
:1030E00057090E94712ACA01B9016A0D7B1D8C1D06
:1030F0009D1DDF91CF911F910F91FF90EF90DF9079
:10310000CF90BF90AF907F906F905F904F90089559
:10311000FC012081222341F0319680E090E001966D
:1031200021912111FCCF089580E090E00895CF9384
:10313000DF93EC01EDDF9C012150310962F0FE01CB
:10314000E80FF91F9291903219F09950923018F4CB
:1031500021503109B8F7C20FD31F1982C901DF917D
:10316000CF910895CF93DF93EC01D2DF9C012150E2
:1031700031091216130684F4DE01A80FB91FFE01EF
:1031800080E090E040815E9151934C9301962150F4
:10319000310982179307B4F3DF91CF910895CF924D
:1031A000DF92EF92FF921F93CF93DF932AE030E0FC
:1031B00040E050E00E944F2A605D6093C702622F9A
:1031C000732F842F952F6115710581059105F1F0FD
:1031D000C1E00F2EFAE0CF2ED12CE12CF12CF02DF6
:1031E00011E01C0FD0E0C953DD4FA70196010E94EA
:1031F0004F2A605D6883622F732F842F952FC12F14
:10320000611571058105910559F701C011E0E12FA4
:10321000F0E0E953FD4F108287EC92E0A3DF87ECEA
:1032200092E0DF91CF911F91FF90EF90DF90CF90D0
:1032300008958F929F92AF92BF92CF92DF92EF92BA
:10324000FF920F931F93CF93DF936B017C01DC01FF
:10325000CB01FF203CF488279927DC018C199D09BC
:10326000AE09BF09BC01CD0110E00F2EFAE08F2E90
:10327000912CA12CB12CF02D01C0102F01E0010FD9
:10328000C12FD0E0C953DD4FA50194010E94712ADE
:10329000605D6883622F732F842F952F1616170693
:1032A0001806190654F3FF2044F4E02FF0E0E95328
:1032B000FD4F8DE2808302E0010FE02FF0E0E95343
:1032C000FD4F108287EC92E04DDF87EC92E0DF91BA
:1032D000CF911F910F91FF90EF90DF90CF90BF9013
:1032E000AF909F908F9008950F931F93CF93DF938C
:1032F000EC01992324F4882799278C1B9D0B20E04F
:103300000AE010E001C0232F31E0320FE22FF0E09D
:10331000E953FD4FB8010E943C2A805D8083862FCF
:10332000972F181619067CF3DD2344F4E32FF0E001
:10333000E953FD4F8DE2808332E0320FE32FF0E05E
:10334000E953FD4F108287EC92E00CDF87EC92E0AE
:10335000DF91CF911F910F910895CF93AC019C0104
:10336000ADECBCEC0E94962A96958795969587952C
:10337000969587959C01220F331F880F991F880F00
:10338000991F880F991F820F931F9A01281B390BD1
:10339000C901805D8093C7029A010E94962AAC0100
:1033A000569547955695479556954795411551051C
:1033B00089F1E1E0C1E0CE0FF0E0E953FD4F9A0161
:1033C000ADECBCEC0E94962A9695879596958795CC
:1033D000969587959C01220F331F880F991F880FA0
:1033E000991F880F991F820F931F9A01281B390B71
:1033F000C901805D80839A010E94962AAC0156958E
:1034000047955695479556954795EC2F411551058B
:1034100089F601C0C1E0EC2FF0E0E953FD4F1082C6
:1034200087EC92E09FDE87EC92E0CF910895982F91
:1034300092959F70990F292F220F220F920F8F7054
:10344000890F0895AC019C01ADECBCEC0E94962A5A
:10345000969587959695879596958795BC01660F65
:10346000771F9C01220F331F220F331F220F331FA0
:10347000260F371F421B530B342F20E1829F300D44
:103480001124832F0895CF92DF92EF92FF92CF9372
:10349000DF93CDB7DEB728970FB6F894DEBF0FBE27
:1034A000CDBF6B017C0169837A838B839C832D83E1
:1034B0003E834F835887C216D306E406F50634F4DC
:1034C000BE016B5F7F4FCE01019636DC8D819E8100
:1034D000AF81B885892B8A2B8B2B71F469817A8116
:1034E0008B819C8120E030E0A9010E94712A611546
:1034F00071058105910529F46D817E818F81988503
:1035000005C06D837E838F839887F6CF28960FB68C
:10351000F894DEBF0FBECDBFDF91CF91FF90EF904B
:10352000DF90CF9008959C012150310981E090E017
:1035300002C0880F991F2A95E2F70097B1F0E7ECD7
:10354000F2E020E030E0B0E3A1E3AB0148235923EF
:10355000452B11F0A08301C0B083969587952F5F0E
:103560003F4F3196009789F702C020E030E0F90123
:10357000E953FD4F108287EC92E00895AB01BC0146
:103580001092C702411551056105710509F442C049
:1035900021E0EFEFE20FDB01CA018F709927AA2724
:1035A000B078BB2354F40197A109B109806F9F6FD4
:1035B000AF6FBF6F0196A11DB11D8A309105A105A6
:1035C000B10534F4F0E0E953FD4F805D808305C020
:1035D000F0E0E953FD4F895C8083E22FF0E0E9538E
:1035E000FD4F1082DB01CA0177231CF40F96A11D49
:1035F000B11DAC01BD01689413F875956795579599
:1036000047951694D1F72F5F411551056105710556
:1036100009F0BFCF87EC92E0A5DD87EC92E008953A
:103620009827892798270895FB012081222339F0C4
:10363000A82FB92F31962D9321912111FCCF0895F8
:10364000CF93DF93CDB7DEB79E012B5F3F4FF901DC
:10365000419151919F016FE170E087EC92E00E94EF
:10366000AF2A99231CF087EC92E002C080E090E042
:10367000DF91CF9108951092E602E7EEF2E028E89C
:1036800038E13183208322EB38E13383228320E841
:1036900036E1358324832CE936E1378326832DEB0D
:1036A00036E1318720872BEC36E1338722872DEEF8
:1036B00036E13587248724E739E1378726872DEAE5
:1036C00039E1318B208B29E139E1338B228B2FECCF
:1036D00038E1358B248B27E938E1378B268B23E9BA
:1036E00037E1318F208F28E937E1338F228F27EAA6
:1036F00037E1358F248F2BEC37E1378F268F28ED7C
:1037000037E131A320A324EE37E133A322A32CEF2A
:1037100037E135A324A32FE038E137A326A32AE11C
:1037200038E131A720A727E438E133A722A727E112
:103730003AE135A724A722E23AE137A726A723E4F6
:103740003AE131AB20AB23E93AE133AB22AB2FE5D1
:103750003CE135AB24AB2EEB3AE137AB26AB20E1B5
:103760003BE131AF20AF20E23BE133AF22AF24E1B8
:103770003BE135AF24AF2EE3DC0101900D922A9599
:10378000E1F70895CF92DF92EF92FF920F931F938C
:10379000CF93DF93C1E0C40F042F10E009531D4FF6
:1037A0002AE030E040E050E00E944F2A605DF801DE
:1037B0006083622F732F842F952F6115710581050A
:1037C0009105E9F00F2EFAE0CF2ED12CE12CF12C4F
:1037D000F02D11E01C0FD0E0C953DD4FA701960179
:1037E0000E944F2A605D6883622F732F842F952F6C
:1037F000C12F611571058105910559F701C01C2F75
:10380000E12FF0E0E953FD4F1082812FDF91CF913E
:103810001F910F91FF90EF90DF90CF900895CF927E
:10382000DF92EF92FF920F931F93CF93DF93C42FFA
:10383000022F20E030E040E251E40E94B6296B0103
:103840007C01002361F10C0F11E01C0FD0E0C95383
:10385000DD4F20E030E040E452E4C701B6010E94B1
:10386000FF270E94D4286883C701B6010E94D4288C
:1038700070E080E090E00E9402299B01AC01C7014A
:10388000B6010E94FE2720E030E040E251E40E94B1
:10389000B6296B017C01C12F0113D6CF01C00C2FBB
:1038A000E02FF0E0E953FD4F1082802FDF91CF91A0
:1038B0001F910F91FF90EF90DF90CF9008958F921E
:1038C0009F92AF92BF92CF92DF92EF92FF920F93AF
:1038D0001F93CF93DF936B017C01D42F20E030E066
:1038E000A9010E94632888230CF5F7FAF094F7F8F1
:1038F000F094C701B6010E94D4284B015C010E94DC
:1039000000299B01AC01C701B6010E94FE276B0193
:103910007C0140E0C501B40135DFC1E0C80FE82FEC
:10392000F0E0E953FD4F8DE2808315C0C701B60179
:103930000E94D4284B015C010E9400299B01AC012C
:10394000C701B6010E94FE276B017C0140E0C50162
:10395000B40118DFC82F0C2F10E009531D4FF801D8
:10396000108287EC92E0FEDB8EE2F801808341E07A
:103970004C0F2D2FC701B60152DF87EC92E0DF918B
:10398000CF911F910F91FF90EF90DF90CF90BF905C
:10399000AF909F908F900895FC0182810895E091EF
:1039A000A703F091A803208181E090E00090AB0391
:1039B00002C0880F991F0A94E2F7822B808384E269
:1039C00090E00197F1F7E091A503F091A603408103
:1039D00021E030E0C9010090A40302C0880F991FC4
:1039E0000A94E2F7E091A703F091A8039081009078
:1039F000AB0302C0220F331F0A94E2F7209529235C
:103A0000208384230895603479F0603819F060329F
:103A100081F405C021E0FC0122832383089522E084
:103A2000FC0122832383089523E0FC012283238366
:103A3000089521E0FC01228323830895FC01208165
:103A4000211114C0E091A503F091A603208130E07C
:103A50000090A40302C0359527950A94E2F720FD53
:103A600007C02FEFFC0120838FEF089580E00895B9
:103A700080E008950F931F93CF93DF93EC0189812A
:103A8000882399F18A89861798F40E851F852889DD
:103A900039894A855B856C857D85400F511F621F82
:103AA000731F4E875F87688B798B8F5F8A8B1CC0F3
:103AB000262F30E040E050E06E857F858889998927
:103AC0000E94712ACA01B9010E9402296B8B7C8B6A
:103AD0008D8B9E8B8A859B85AC85BD858E879F87C8
:103AE000A88BB98B81E08A8B19826B897C898D893F
:103AF0009E89DF91CF911F910F910895FC018081E4
:103B00000895479608950F931F93CF93DF93EC0189
:103B100009851C8105969093AA038093A903888147
:103B2000882309F444C0112329F139DF8823A9F03F
:103B30000150802F90E0FE01E80FF91F115028E09E
:103B4000029F1019112481E090E002C0880F991F94
:103B50001A95E2F79581892B85838C8181508C831E
:103B6000803119F482E0898722C0883001F581E034
:103B700089871DC08B81882329F011DF8B818150BB
:103B80008B8315C08D819E81AF81B8858A879B8785
:103B9000AC87BD8788E18C8383E089878A818B83AA
:103BA0001D821E821F82188681E0898318826A85A1
:103BB0007B858C859D85DF91CF911F910F91089515
:103BC000EF920F931F93FC01DA015FB78FB78F77E6
:103BD0008FBF7093AD036093AC03B093A603A09323
:103BE000A5033093A8032093A7030093A403E092B6
:103BF000AB03DB014C9181E090E09C0102C0220FFD
:103C0000331FEA94E2F7242B2C93A091A703B091E1
:103C1000A8032C9102C0880F991F0A95E2F7822B06
:103C20008C931082118281E08283838388E1848374
:103C3000158216821782108683E08187128613868A
:103C40001486158616861786108A118A128A138A98
:103C5000148A158A168AA0E0B1E00D911D912D916C
:103C60003C911397078B108F218F328F14960D91F3
:103C70001D912D913C911797038F148F258F368FAF
:103C800018960D911D912D913C911B97078F10A3B4
:103C900021A332A31C968C911C9783A31D968C9113
:103CA0001D9784A31E968C911E9785A31F968C91B9
:103CB0001F9786A3B093AF03A093AE038CEC9CE157
:103CC00090A787A38FEC9CE192A781A783E09DE159
:103CD00094A783A78EE19DE196A785A783E89DE140
:103CE00090AB87A78AE39DE192AB81AB8EE79DE124
:103CF00094AB83AB81E89DE196AB85AB5FBFCF0111
:103D00001F910F91EF9008959C01E091B703F091FE
:103D1000B80380818F708083E091BA03F091BB0378
:103D20009081906F9083E091BA03F091BB039081F2
:103D3000926090832115310541F0E091BA03F09132
:103D4000BB0380818160808307C0E091BA03F0915A
:103D5000BB0380818E7F8083E091BA03F091BB0327
:103D6000908194609083E091B003F091B1038081E1
:103D7000882314F080E001C080E8908196FF02C0A3
:103D8000806401C08F7B908195FF02C0806201C07A
:103D90008F7D908194FF02C0806101C08F7EE09191
:103DA000BA03F091BB0390819B7F9083232B41F05A
:103DB000E091BA03F091BB0390819160908307C0BA
:103DC000E091BA03F091BB0390819E7F9083E091D4
:103DD000BA03F091BB03908194609083E091B003AB
:103DE000F091B1039081992314F4886001C0877F1A
:103DF000908196FF02C0846001C08B7F908195FF07
:103E000002C0826001C08D7F908194FF02C08160FA
:103E100001C08E7FE091BA03F091BB0390819B7F3C
:103E200090830895CF9380E090E06EDFCBE005C0F3
:103E300080E090E069DFC15011F08823CCF3CF918E
:103E40000895CF9381E090E05FDFC82FEBDF8C2FE8
:103E5000CF910895E091BA03F091BB0390819D7FCB
:103E60009083E091B703F091B8039081906F9083B5
:103E70006115710541F0E091BA03F091BB039081A7
:103E80009160908307C0E091BA03F091BB039081E9
:103E90009E7F9083E091BA03F091BB039081946080
:103EA0009083882344F4E091BA03F091BB0390819E
:103EB0009068908307C0E091BA03F091BB039081B2
:103EC0009F77908386FF08C0E091BA03F091BB030F
:103ED00090819064908307C0E091BA03F091BB0396
:103EE00090819F7B908385FF08C0E091BA03F09199
:103EF000BB0390819062908307C0E091BA03F09178
:103F0000BB0390819F7D908384FF08C0E091BA033A
:103F1000F091BB0390819061908307C0E091BA0358
:103F2000F091BB0390819F7E9083E091BA03F09162
:103F3000BB0390819B7F9083672BB1F0E091BA0324
:103F4000F091BB03908191609083E091BA03F0916E
:103F5000BB03908194609083E091BA03F091BB031E
:103F600090819160908315C0E091BA03F091BB03FA
:103F700090819E7F9083E091BA03F091BB03908182
:103F800094609083E091BA03F091BB0390819E7F8F
:103F9000908383FF08C0E091BA03F091BB03908146
:103FA0009068908307C0E091BA03F091BB039081C1
:103FB0009F77908382FF08C0E091BA03F091BB0322
:103FC00090819064908307C0E091BA03F091BB03A5
:103FD00090819F7B908381FF08C0E091BA03F091AC
:103FE000BB0390819062908307C0E091BA03F09187
:103FF000BB0390819F7D908380FF08C0E091BA034E
:10400000F091BB0380818061808307C0E091BA0397
:10401000F091BB0380818F7E8083E091BA03F091A1
:10402000BB0380818B7F8083089560E070E081E036
:1040300011DF87EE97E10197F1F700C000000895C6
:1040400061E070E007DFEECE0895CF93DF93EC01DF
:104050008881882329F02196F3DF89918111FCCF93
:10406000DF91CF9108950F931F93CF93DF93FC01BE
:10407000D62F8081882351F08F010F5F1F4F611170
:1040800009C015C0CF5FDC1730F401C0C0E0CD1708
:1040900048F00DC0C1E0D4DFF80181918F0181119A
:1040A000F1CFF5CF80E2CCDFCF5FCD17D8F3DF9132
:1040B000CF911F910F910895CF93C82F882321F09E
:1040C00080E2BEDFC150E1F7CF910895262F813005
:1040D000910571F030F08230910589F00397B1F0CD
:1040E000089560E070E080E8820FB4DE9BCE089512
:1040F00060E070E080EC820FADDE94CE089560E069
:1041000070E084E9820FA6DE8DCE089560E070E055
:1041100084ED820F9FDE86CE089585E293E00895B8
:10412000E091B703F091B80387E08083E091BA0390
:10413000F091BB0388E080832FEF83EF91E0215063
:1041400080409040E1F700C0000060E070E080E354
:1041500081DE25EC2A95F1F7000060E070E088E24E
:1041600079DE85EC8A95F1F7000060E070E088E286
:1041700071DE95EC9A95F1F7000060E070E08CE05C
:1041800069DE25EC2A95F1F7000060E070E081E03F
:1041900061DE8FE39FE10197F1F700C0000060E06E
:1041A00070E084E057DE3EDE40DF60E070E080E0FB
:1041B00090E08CCF0895CF93DF93EC017093B80318
:1041C0006093B7035093B1034093B0033093BB03A4
:1041D0002093BA03FB011082E091BA03F091BB0374
:1041E0008FEF8083E091B003F091B10380818870FC
:1041F0008093B903E5E2F3E08AE29FE19183808353
:1042000084E89EE19383828382E19FE195838483A6
:1042100080E290E29783868381E29FE191878087A5
:1042200085E290E29387828783E390E29587848793
:104230008CE590E29787868785E190E2918B808B71
:1042400086E690E2938B828B85E391E2958B848B5B
:1042500067DF86E1E5E2F3E0DE0101900D928A95E9
:10426000E1F7CE01DF91CF910895CF93E091B003B4
:10427000F091B103C081C8708091B9038C278C2361
:1042800009F04EDFC093B903CF910895E2E6F0E064
:1042900080818F6380838FEF84BB85BB0895CF932C
:1042A000DF93CDB7DEB7CF5BD1090FB6F894DEBF91
:1042B0000FBECDBFCE018F5A9F4F0E94AC05E6DFE7
:1042C0000F2EFAEECF2EF3E0DF2EF02DD092FB036F
:1042D000C092FA030E945616E5E5F4E0208331838C
:1042E000428353836483758386839783CE010196CB
:1042F000C2D989899A89C254DF4F99838883CE5B5A
:10430000D040ADA9BEA9C454DF4FB983A883CC5B0C
:10431000D0402BE330E049E350E06AE370E0CE01A7
:104320008F5A9F4F48DF42E062E0CE018F5A9F4F85
:104330000E94AD088AE0FE01EF5AFF4FA2ECB3E005
:1043400001900D928A95E1F742E064E0CE01CF96AC
:104350000E944A0A0F2EF7E0EF2EF02D06E022E62B
:1043600030E040E250E061E670E0CE018F5A9F4FAE
:1043700027DC87E3FE01EF5AFF4FACE1B4E0019088
:104380000D928A95E1F7CE018F5A9F4F0E94C81572
:104390008EE1FE01EF5AFF4FACECB3E001900D92BD
:1043A0008A95E1F70CE114E0D801D596ED91FC91E6
:1043B000D697C8010995FC0180819181A281B381C2
:1043C000F60180839183A283B383D801D596ED91C2
:1043D000FC91D697C8010995FC0184819581A6813D
:1043E000B781F60184839583A683B783D801D596D8
:1043F000ED91FC91D697C8010995FC0180859185C6
:10440000A285B385F60180879187A287B387D801FB
:10441000D596ED91FC91D697C8010995FC0184854C
:10442000D6011C968C93D801D596ED91FC91D69728
:10443000C8010995FC018585D6011D968C93D8018C
:10444000D596ED91FC91D697C8010995FC0186851A
:10445000D6011E968C93D801D596ED91FC91D697F6
:10446000C8010995FC018785D6011F968C930F2EF4
:10447000F2ECEF2EF3E0FF2EF02DD7011296ED9126
:10448000FC91139781E00995D7011496ED91FC9169
:1044900015978CE30995D7011696ED91FC91179726
:1044A00088E090E009952396EEADFFAD239781E07B
:1044B00009952996EEADFFAD299780E595EF099511
:1044C0002F96EEADFFAD2F9780E091E00995D801D2
:1044D0009B96ED91FC919C9760E4C8010995D801E9
:1044E0009796ED91FC919897C8010995C554DF4FB7
:1044F0008883CB5BD040813041F48091F80390E019
:1045000090935404809353041DC0C554DF4FB88169
:10451000CB5BD040B23041F48091F60390E09093B1
:104520005404809353040EC0C554DF4FE881CB5B25
:10453000D040E33039F48091F70390E09093540435
:1045400080935304E091E403F091E50340E150E0EF
:1045500060E070E08091FA039091FB030995E0918F
:10456000FA03F091FB038785813009F072C00CE1FA
:1045700014E0D801D596ED91FC91D697C801099524
:10458000E091FA03F091FB034081518162817381D4
:10459000FC014083518362837383D801D596ED91EA
:1045A000FC91D697C8010995E091FA03F091FB03BD
:1045B0004481558166817781FC01448355836683FC
:1045C0007783D801D596ED91FC91D697C8010995CE
:1045D000E091FA03F091FB03408551856285738574
:1045E000FC014087518762877387D801D596ED918A
:1045F000FC91D697C8010995E091FA03F091FB036D
:104600002485FC012487D801D596ED91FC91D6979D
:10461000C8010995E091FA03F091FB032585FC019F
:104620002587D801D596ED91FC91D697C8010995BB
:10463000E091FA03F091FB032685FC012687D8015F
:10464000D596ED91FC91D697C8010995FC01178686
:10465000AD98412C512C32010F2EF5E5AF2EF4E030
:10466000BF2EF02D0CE114E0E02EF12E0F2EFAEE0D
:104670002F2EF3E03F2EF02DDD24D3940F2EF1E307
:10468000CF2EF02D4ADDDC015496ED91FC9155972B
:10469000099560B1D5011696ED91FC911797C5016A
:1046A000099580913B038130F1F4B2E3B09311019D
:1046B00010923B0332DDDC015096ED91FC91519755
:1046C000099511C0D801D196ED91FC91D29768E17E
:1046D0008E2D9F2D09956093BE037093BF03809329
:1046E000C0039093C103D8019D96ED91FC919E97D4
:1046F0008E2D9F2D09958111E5CF80911101813378
:1047000021F0823309F499C14BC307DDDC015296D5
:10471000ED91FC91539764E070E080E090E00995A2
:10472000FCDCDC011C96ED91FC911D976CE082E1B4
:1047300091E00995F501858180FF6FC06091BE030E
:104740007091BF038091C0039091C10328D5D1011E
:104750006D937D938D939C931397F101648375837F
:104760008683978318966D937D938D939C931B9767
:104770001F96DC92E091E803F091E90340E150E0FC
:1047800060E070E08091FA039091FB030995D801F5
:10479000D596ED91FC91D697C8010995E091FA0361
:1047A000F091FB034081518162817381FC01408360
:1047B000518362837383D801D596ED91FC91D6978E
:1047C000C8010995E091FA03F091FB0344815581FA
:1047D00066817781FC014483558366837783D801A2
:1047E000D596ED91FC91D697C8010995E091FA0311
:1047F000F091FB034085518562857385FC014087FC
:10480000518762877387D801D596ED91FC91D69731
:10481000C8010995FC011786AD98C554DF4FF88192
:10482000CB5BD040F13011F0FB3081F54090BE03FE
:104830005090BF036090C0037090C103D801D5961B
:10484000ED91FC91D697C8010995FC0160857185B1
:1048500082859385D7D49B01AC01C301B201CED32D
:104860002B013C01D801D596ED91FC91D697C8015A
:104870000995FC01668570E080E090E0C3D49B015F
:10488000AC01C301B20123D42B013C01C554DF4F5D
:10489000F881CB5BD040F23011F0F53181F54090DA
:1048A000BE035090BF036090C0037090C103D80155
:1048B000D596ED91FC91D697C8010995FC016081D0
:1048C0007181828193819ED49B01AC01C301B201AD
:1048D00095D32B013C01D801D596ED91FC91D6974B
:1048E000C8010995FC01648570E080E090E08AD4FD
:1048F0009B01AC01C301B201EAD32B013C01C554B9
:10490000DF4FF881CB5BD040F33011F0FF3181F500
:104910004090BE035090BF036090C0037090C103ED
:10492000D801D596ED91FC91D697C8010995FC0167
:10493000648175818681978165D49B01AC01C30137
:10494000B2015CD32B013C01D801D596ED91FC91CD
:10495000D697C8010995FC01658570E080E090E07C
:1049600051D49B01AC01C301B201B1D32B013C0175
:1049700020E030E04AE754E4C301B201F3D4181652
:104980004CF020E030E04AE754ECC301B2019BD385
:10499000882364F5C2DBDC015296ED91FC915397BC
:1049A00061E070E082E090E00995B7DBFC0184846F
:1049B000958420E030E04AE754E4C301B20187D394
:1049C00043E0C454DF4FE881F981CC5BD0400995C6
:1049D0006DE0F4010995A1DBDC011C96ED91FC91E1
:1049E0001D9764E08FE191E009954CCE96DBDC01E8
:1049F0005296ED91FC91539761E070E082E090E077
:104A000009958BDBFC018484958440E0C301B201ED
:104A1000C454DF4FE881F981CC5BD04009956DE04B
:104A2000F40109957ADBDC011C96ED91FC911D9750
:104A300064E082E291E0099525CE6FDBDC015296BD
:104A4000ED91FC91539761E070E080E090E0099572
:104A500064DBDC011C96ED91FC911D9761E187E21E
:104A600091E00995C554DF4FB881CB5BD040B3309E
:104A700009F4DAC030F4B13099F0B23009F472C000
:104A800035C1C554DF4FE881CB5BD040E53109F437
:104A90007EC0EF3109F4DDC0EB3009F027C115C04D
:104AA000D801D596ED91FC91D697C8010995FC01E6
:104AB000868590E09093540480935304FBE0C554A2
:104AC000DF4FF883CB5BD04017C127DBDC01529668
:104AD000ED91FC91539769E070E082E090E00995D8
:104AE000F5018581883089F48091530490915404B4
:104AF00001968F3F910509F008F455C18FEF90E0C2
:104B0000909354048093530413C0803189F48091AE
:104B1000530490915404019729F090935404809386
:104B2000530406C081E090E09093540480935304B2
:104B3000A3E5B4E08C91F1018687EFDADC011C96E5
:104B40008D909C901D978091530490915404C25471
:104B5000DF4FE881F981CE5BD040099566E0F40132
:104B60000995CAC0D801D596ED91FC91D697C80198
:104B70000995FC01848590E090935404809353043C
:104B8000F5E1C554DF4FF883CB5BD040B5C0C5DA43
:104B9000DC015296ED91FC91539769E070E082E060
:104BA00090E00995F5018581883089F4809153045E
:104BB0009091540401968F3F910509F008F4F8C0D4
:104BC0008FEF90E0909354048093530413C080318E
:104BD00089F48091530490915404019729F09093A3
:104BE00054048093530406C081E090E090935404F1
:104BF00080935304A3E5B4E08C91F10184878DDAAE
:104C0000DC011C968D909C901D978091530490918F
:104C10005404C254DF4FE881F981CE5BD04009953E
:104C200066E0F401099568C0D801D596ED91FC9134
:104C3000D697C8010995FC01858590E090935404AE
:104C400080935304FFE1C554DF4FF883CB5BD04022
:104C500053C063DADC015296ED91FC91539769E001
:104C600070E082E090E00995F5018581883089F453
:104C7000809153049091540401968F3F910509F05F
:104C800008F49BC08FEF90E09093540480935304FA
:104C900013C0803189F4809153049091540401979A
:104CA00029F0909354048093530406C081E090E06F
:104CB0009093540480935304A3E5B4E08C91F101E4
:104CC00085872BDADC011C968D909C901D97809136
:104CD000530490915404C254DF4FE881F981CE5BB4
:104CE000D040099566E0F401099506C0F3E0C5548B
:104CF000DF4FF883CB5BD040D50113968C918F7337
:104D0000803209F0BFCCF101D786E091E803F09141
:104D1000E90340E150E060E070E08091FA03909197
:104D2000FB030995D801D596ED91FC91D697C80162
:104D30000995E3E5F4E02081DC011C962C93D80171
:104D4000D596ED91FC91D697C8010995E3E5F4E07D
:104D50002081DC011D962C93D801D596ED91FC9114
:104D6000D697C8010995E3E5F4E02081DC011E96A1
:104D70002C93D801D596ED91FC91D697C801099551
:104D8000FC011786AD98AF9A10923C03C0921101B6
:104D9000C4D9DC015096ED91FC915197099572CCE4
:104DA000C09211016FCC9093540480935304C0CEF1
:104DB00090935404809353041DCF90935404809394
:104DC00053047ACF1F920F920FB60F9211240BB695
:104DD0000F922F933F934F935F936F937F938F9394
:104DE0009F93AF93BF93CF93EF93FF93CFB78FB7BB
:104DF0008F778FBFE0914B04F0914C048CE194E0ED
:104E00000995CFBFFF91EF91CF91BF91AF919F9146
:104E10008F917F916F915F914F913F912F910F9063
:104E20000BBE0F900FBE0F901F9018951F920F9200
:104E30000FB60F9211240BB60F922F933F934F93FF
:104E40005F936F937F938F939F93AF93BF93CF9312
:104E5000DF93EF93FF93809158048F73883049F468
:104E600080913D038F5F80933D03863008F4A4C09A
:104E700007C080913D03863018F410923D038FC027
:104E800086E080933D0395B380E4892785BB8091BC
:104E90001001815080931001811181C0E091E803DD
:104EA000F091E90340E150E060E070E08091AE03F2
:104EB0009091AF030995CCE1D4E0EDA9FEA9CE0114
:104EC0000995E091AE03F091AF0340815181628179
:104ED0007381FC014083518362837383EDA9FEA932
:104EE000CE010995E091AE03F091AF034481558165
:104EF00066817781FC014483558366837783EDA9BE
:104F0000FEA9CE010995E091AE03F091AF03408573
:104F1000518562857385FC0140875187628773875D
:104F2000EDA9FEA9CE010995E091AE03F091AF0382
:104F30002485422F50E05093540440935304FC01C5
:104F40002487EDA9FEA9CE010995E091AE03F09169
:104F5000AF032585422F50E05093540440935304EF
:104F6000FC012587EDA9FEA9CE010995E091AE03CC
:104F7000F091AF032685FC012687EDA9FEA9CE019D
:104F80000995E091AE03F091AF032785FC012787D7
:104F9000AD9AAE9A10923D0388E080931001809103
:104FA00058048F73803141F480913C038F5F80936C
:104FB0003C03863040F40DC080913C03863018F4E9
:104FC00010923C0306C010923C0381E080933B03A7
:104FD000AF98FF91EF91DF91CF91BF91AF919F91EA
:104FE0008F917F916F915F914F913F912F910F9092
:104FF0000BBE0F900FBE0F901F9018955058BB27F7
:10500000AA270ED075C166D130F06BD120F031F4F3
:105010009F3F11F41EF45BC10EF4E095E7FB51C114
:10502000E92F77D180F3BA176207730784079507D2
:1050300018F071F49EF58FC10EF4E0950B2EBA2F87
:10504000A02D0B01B90190010C01CA01A00111248E
:10505000FF27591B99F0593F50F4503E68F11A163A
:10506000F040A22F232F342F4427585FF3CF4695CB
:1050700037952795A795F0405395C9F77EF41F16ED
:10508000BA0B620B730B840BBAF09150A1F0FF0FB7
:10509000BB1F661F771F881FC2F70EC0BA0F621FA3
:1050A000731F841F48F4879577956795B795F79593
:1050B0009E3F08F0B3CF9395880F08F09927EE0F25
:1050C000979587950895D9D008F481E008950CD07C
:1050D0000FC107D140F0FED030F021F45F3F19F04E
:1050E000F0C0511139C1F3C014D198F39923C9F319
:1050F0005523B1F3951B550BBB27AA2762177307DE
:10510000840738F09F5F5F4F220F331F441FAA1F91
:10511000A9F333D00E2E3AF0E0E830D09150504051
:10512000E695001CCAF729D0FE2F27D0660F771FFF
:10513000881FBB1F261737074807AB07B0E809F0E1
:10514000BB0B802DBF01FF2793585F4F2AF09E3F76
:10515000510568F0B6C000C15F3FECF3983EDCF348
:10516000869577956795B795F7959F5FC9F7880FEF
:10517000911D9695879597F90895E1E0660F771F41
:10518000881FBB1F621773078407BA0720F0621BD2
:10519000730B840BBA0BEE1F88F7E095089504D0CB
:1051A0006894B111D9C00895BCD088F09F5790F091
:1051B000B92F9927B751A0F0D1F0660F771F881F3C
:1051C000991F1AF0BA95C9F712C0B13081F0C3D057
:1051D000B1E00895C0C0672F782F8827B85F39F0F5
:1051E000B93FCCF3869577956795B395D9F73EF49B
:1051F00090958095709561957F4F8F4F9F4F089543
:10520000E89409C097FB3EF4909580957095619560
:105210007F4F8F4F9F4F9923A9F0F92F96E9BB2716
:105220009395F695879577956795B795F111F8CF92
:10523000FAF4BB0F11F460FF1BC06F5F7F4F8F4FFD
:105240009F4F16C0882311F096E911C0772321F0F3
:105250009EE8872F762F05C0662371F096E8862F8B
:1052600070E060E02AF09A95660F771F881FDAF7E2
:10527000880F9695879597F90895990F0008550F0F
:10528000AA0BE0E8FEEF16161706E807F907C0F0CC
:1052900012161306E407F50798F0621B730B840BD4
:1052A000950B39F40A2661F0232B242B252B21F4AE
:1052B00008950A2609F4A140A6958FEF811D811D4E
:1052C000089597F99F6780E870E060E008959FEF88
:1052D00080EC089500240A9416161706180609068D
:1052E000089500240A94121613061406050608955C
:1052F000092E0394000C11F4882352F0BB0F40F4E4
:10530000BF2B11F460FF04C06F5F7F4F8F4F9F4F23
:10531000089557FD9058440F551F59F05F3F71F0A5
:105320004795880F97FB991F61F09F3F79F087950C
:105330000895121613061406551FF2CF4695F1DF95
:1053400008C0161617061806991FF1CF8695710525
:10535000610508940895E894BB2766277727CB0159
:1053600097F908958ADF08F48FEF08950BD0C0CF26
:10537000B1DF28F0B6DF18F0952309F0A2CFA7CF50
:105380001124EACFC6DFA0F3959FD1F3950F50E02B
:10539000551F629FF001729FBB27F00DB11D639FE7
:1053A000AA27F00DB11DAA1F649F6627B00DA11D8D
:1053B000661F829F2227B00DA11D621F739FB00D33
:1053C000A11D621F839FA00D611D221F749F3327A3
:1053D000A00D611D231F849F600D211D822F762F3C
:1053E0006A2F11249F5750408AF0E1F088234AF039
:1053F000EE0FFF1FBB1F661F771F881F9150504085
:10540000A9F79E3F510570F05CCFA6CF5F3FECF34C
:10541000983EDCF3869577956795B795F795E79570
:105420009F5FC1F7FE2B880F911D9695879597F981
:105430000895DB018F939F9388D0BF91AF91A29F76
:10544000800D911DA39F900DB29F900D1124089582
:10545000AA1BBB1B51E107C0AA1FBB1FA617B7079A
:1054600010F0A61BB70B881F991F5A95A9F78095B6
:105470009095BC01CD01089597FB072E16F400947A
:1054800006D077FD08D0E4DF07FC05D03EF4909508
:1054900081959F4F0895709561957F4F0895A1E282
:1054A0001A2EAA1BBB1BFD010DC0AA1FBB1FEE1F9E
:1054B000FF1FA217B307E407F50720F0A21BB30BE9
:1054C000E40BF50B661F771F881F991F1A9469F765
:1054D00060957095809590959B01AC01BD01CF01C1
:1054E0000895052E97FB16F400940FD057FD05D0B4
:1054F000D6DF07FC02D046F408C0509540953095A1
:1055000021953F4F4F4F5F4F08959095809570952F
:1055100061957F4F8F4F9F4F0895EE0FFF1F00241F
:10552000001C0BBE0790F691E02D0994A29FB001DC
:10553000B39FC001A39F700D811D1124911DB29FC7
:10554000700D811D1124911D0895F0DFA59F900D10
:10555000B49F900DA49F800D911D112408950F9369
:105560001F93CF93DF93CDB7DEB72E970FB6F89486
:10557000DEBF0FBECDBF8C01FA0186E08C831A839B
:10558000098377FF02C060E070E8CB0101979E833A
:105590008D83A901BF01CE01019619D04D815E8195
:1055A00057FD0AC02F813885421753070CF49A0122
:1055B000F801E20FF31F10822E960FB6F894DEBFAB
:1055C0000FBECDBFDF91CF911F910F9108952F9204
:1055D0003F924F925F926F927F928F929F92AF9283
:1055E000BF92CF92DF92EF92FF920F931F93CF93D0
:1055F000DF93CDB7DEB72B970FB6F894DEBF0FBEA3
:10560000CDBF6C017B018A01FC0117821682838168
:1056100081FFBFC1CE0101963C01F6019381F701E4
:1056200093FD859193FF81917F01882309F4ADC19A
:10563000853239F493FD859193FF81917F01853205
:1056400021F4B60190E0D6D1E8CF912C212C312C59
:10565000FFE1F315D8F08B3279F038F4803279F02D
:105660008332A1F4232D20611DC08D3261F080337F
:1056700069F4232D216016C0832D8260382EE32D1E
:10568000E4603E2E2AC0F32DF8601DC037FC2DC00B
:1056900020ED280F2A3040F08E32B9F436FC75C167
:1056A000232D2064322E19C036FE06C08AE0989E53
:1056B000200D1124922E11C0EAE02E9E200D1124FF
:1056C000222EF32DF0623F2E08C08C3621F4832D5C
:1056D0008068382E02C0883641F4F70193FD859129
:1056E00093FF81917F018111B3CF982F9F7D9554B6
:1056F000933028F40C5F1F4F9FE399830DC08336CE
:1057000031F0833771F0833509F055C020C0F801BE
:10571000808189830E5F1F4F88248394912C5301CD
:1057200012C02801F2E04F0E511CF801A080B18098
:1057300036FE03C0692D70E002C06FEF7FEFC50138
:105740004ED14C018201F32DFF773F2E15C0280169
:1057500022E0420E511CF801A080B18036FE03C049
:10576000692D70E002C06FEF7FEFC5012DD14C01B4
:10577000F32DF0683F2E820133FC19C0822D90E09A
:1057800088169906A0F4B60180E290E033D12A94FD
:10579000F5CFF50137FC859137FE81915F01B601A8
:1057A00090E028D121102A9421E0821A91088114D6
:1057B000910479F7E1C0843611F0893639F5F801A2
:1057C00037FE07C060817181828193810C5F1F4F1A
:1057D00008C060817181072E000C880B990B0E5F49
:1057E0001F4FF32DFF763F2E97FF09C090958095B0
:1057F000709561957F4F8F4F9F4FF0683F2E2AE045
:1058000030E0A30133D1882E861844C0853731F4A7
:10581000232D2F7EB22E2AE030E025C0932D997FD4
:10582000B92E8F36C1F018F4883579F0AEC08037C4
:1058300019F0883721F0A9C0E92FE061BE2EB4FE2F
:105840000DC0FB2DF460BF2E09C034FE0AC0292F05
:105850002660B22E06C028E030E005C020E130E02E
:1058600002C020E132E0F801B7FE07C0608171811B
:10587000828193810C5F1F4F06C06081718180E03F
:1058800090E00E5F1F4FA301F1D0882E8618FB2DEC
:10589000FF773F2E36FE0DC0232D2E7FA22E8914BA
:1058A00058F434FE0BC032FC09C0832D8E7EA82E26
:1058B00005C0B82CA32C03C0B82C01C0B92CA4FE81
:1058C0000FC0FE01E80DF11D8081803321F49A2D77
:1058D000997EA92E09C0A2FE06C0B394B39404C059
:1058E0008A2D867809F0B394A3FC10C0A0FE06C0F0
:1058F000B21480F4280C922C9B180DC0B21458F4EA
:10590000B60180E290E076D0B394F8CFB21418F4E8
:105910002B1802C0982C212CA4FE0FC0B60180E3E6
:1059200090E068D0A2FE16C0A1FC03C088E790E01A
:1059300002C088E590E0B6010CC08A2D867851F04F
:10594000A1FE02C08BE201C080E2A7FC8DE2B6019D
:1059500090E050D0891430F4B60180E390E04AD052
:105960009A94F8CF8A94F301E80DF11D8081B60175
:1059700090E040D08110F6CF222009F44ECEB6013F
:1059800080E290E037D02A94F7CFF60186819781A4
:1059900002C08FEF9FEF2B960FB6F894DEBF0FBEBD
:1059A000CDBFDF91CF911F910F91FF90EF90DF90CE
:1059B000CF90BF90AF909F908F907F906F905F90AF
:1059C0004F903F902F900895FC01059061507040DA
:1059D0000110D8F7809590958E0F9F1F0895FC01B8
:1059E0006150704001900110D8F7809590958E0F0E
:1059F0009F1F08950F931F93CF93DF93FB01238184
:105A000021FD03C08FEF9FEF2CC022FF16C04681FF
:105A10005781248135814217530744F4A081B18115
:105A20009D012F5F3F4F318320838C9326813781E7
:105A30002F5F3F4F3783268314C08B01EC01FB019E
:105A40000084F185E02D0995892BE1F6D8011696A1
:105A50008D919C911797019617969C938E9316970C
:105A6000CE01DF91CF911F910F910895FA01AA27DE
:105A7000283051F1203181F1E8946F936E7F6E5F91
:105A80007F4F8F4F9F4FAF4FB1E03ED0B4E03CD03F
:105A9000670F781F891F9A1FA11D680F791F8A1F22
:105AA000911DA11D6A0F711D811D911DA11D20D089
:105AB00009F468943F912AE0269F11243019305D43
:105AC0003193DEF6CF010895462F4770405D419334
:105AD000B3E00FD0C9F7F6CF462F4F70405D4A3381
