:1000000093C00000B0C00000AEC00000ACC0000053
:10001000AAC00000A8C00000A6C00000A4C0000044
:10002000A2C00000A0C000009EC000009CC0000054
:100030000C941C2D98C0000096C000000C94E82C75
:1000400092C0000090C000000C9485170C945317C8
:100050008AC00000A2C1000086C0000084C0000069
:1000600082C0000080C000007EC000007CC0000094
:100070007AC0000078C000000C94BE190C948B1953
:1000800072C0000070C000006EC00000C402010316
:100090003E037B03B803000448049004EB04F5041A
:1000A000FF04090513051D05270531054D056005EC
:1000B000730586059905AC05BF05D2050A0D140D1B
:1000C0001E0D280D320D450D580D6B0D750D880D4B
:1000D0009B0DAE0DB80DCB0DDE0D170E2A0E3D0E8D
:1000E000500E630E760E890E9C0EB80ECB0EDE0EF1
:1000F000FA0E271332133D134813531368137D135D
:1001000092139D13B213C713DC13E713FC131114DE
:1001100045145A146F1484149914AE14C314D814CB
:10012000ED14021517152C1511241FBECFEFD0E1C9
:10013000DEBFCDBF11E0A0E0B1E0E6E0F8E600E010
:100140000BBF02C007900D92AA33B107D9F724E084
:10015000AAE3B1E001C01D92A135B207E1F70E9408
:1001600058270C9401344CCFE091BF01F091C001AD
:10017000228126FD03C0228120642283FC01EE0F30
:10018000FF1FE158FE4F8081918108950F931F93C7
:10019000CF93DF9300D000D000D0CDB7DEB79D85E0
:1001A0006E854F85588924E230E03093C00120935A
:1001B000BF019A012F713327309335032093340305
:1001C00010923E0110923D0110923A0187B18F7357
:1001D00087B9913039F018F0933061F012C0109265
:1001E000C10111C087B18F73806487B981E08093AA
:1001F000C10109C087B1806C87B983E08093C101D8
:1002000002C01092C1010091BF011091C001F8011C
:1002100083818F7D8383141615068CF4DE0151963D
:1002200080E090E02D913D91FC01EE0FFF1FE15C1D
:10023000FE4F3183208301964817590799F7F8013B
:100240008381807E8383E0913D01F0913E01EE0F3A
:10025000FF1FE15CFE4F808191818F71F8019381D6
:10026000907E892B838382818064828382818F7DCB
:1002700082838281886082838281887F82836031E9
:1002800061F140F46430B9F06830F1F0623009F0A7
:1002900047C008C0603499F16038D1F1603209F08C
:1002A0003FC024C0F8018281887F8160828382E020
:1002B0008093C2013CC0F8018281887F8260828382
:1002C00084E08093C20133C0F8018281887F83601B
:1002D000828388E08093C2012AC0F8018281887FEE
:1002E0008460828380E18093C20121C0F801828111
:1002F000887F8560828380E28093C20118C0F80104
:100300008281887F8660828380E48093C2010FC0EF
:10031000F80182818760828380E88093C20107C0F0
:10032000F80182818760828380E88093C201E09136
:10033000BF01F091C001828180688283E1ECF1E02D
:1003400084E290E09383828384EB90E095838483BE
:100350000E94DB26FC0193859068938786E0E1ECA0
:10036000F1E0DE01119601900D928A95E1F7298165
:100370003A814B815C816D817E8180E090E02696A0
:100380000FB6F894DEBF0FBECDBFDF91CF911F91A6
:100390000F91089581EC91E008951F920F920FB68E
:1003A0000F9211240BB60F922F933F934F935F93AD
:1003B0006F937F938F939F93AF93BF93EF93FF932D
:1003C000E091BF01F091C001808191810E942A27B4
:1003D000909337038093360320913A01243080F4C0
:1003E00020913A012F5F20933A0120913B013091F7
:1003F0003C01820F931F90933C0180933B014EC0C0
:10040000E0913D01F0913E0180913B0190913C01D2
:100410009595879595958795EE0FFF1FE158FE4FAF
:100420009183808310923C0110923B0110923A011B
:1004300020913D0130913E0180913403909135032C
:100440002817390754F480913D0190913E0101969F
:1004500090933E0180933D0104C010923E011092A2
:100460003D01A091BF01B091C00113968C911397EB
:10047000807E13968C931397E0913D01F0913E019D
:10048000EE0FFF1FE15CFE4F808191818F7113960B
:100490009C911397907E892B13968C93FF91EF91EB
:1004A000BF91AF919F918F917F916F915F914F918C
:1004B0003F912F910F900BBE0F900FBE0F901F908A
:1004C000189510D5DC011E96ED91FC911F97808147
:1004D0008F71843009F128F4813041F0823089F045
:1004E0003CC0883021F1803169F137C0FBD4DC0198
:1004F0001E96ED91FC911F9780818E7F808380E016
:100500000895F0D4DC011E96ED91FC911F97808137
:100510008D7F808381E00895E5D4DC011E96ED9106
:10052000FC911F9780818B7F808382E00895DAD4CD
:10053000DC011E96ED91FC911F978081877F80835F
:1005400083E00895CFD4DC011E96ED91FC911F97B6
:1005500080818F7E808384E00895C4D4DC011E9660
:10056000ED91FC911F978081807E808380E00895CB
:10057000CF93C62F90E08830910508F019C2FC0196
:10058000EA5BFF4F0C949330ADD4DC015696ED91AD
:10059000FC91579781818E7F8183A4D4DC0156968C
:1005A000ED91FC91579782898C7F828BC23019F034
:1005B000C33059F013C096D4DC015696ED91FC91EE
:1005C000579782898260828B09C08CD4DC01569651
:1005D000ED91FC91579782898360828B83D4DC01F3
:1005E0005696ED91FC9157978181816081837AD4F1
:1005F000DC011E96ED91FC911F97838580688387AF
:10060000DEC170D4DC015696ED91FC915797818143
:100610008D7F818367D4DC015696ED91FC915797CD
:100620008289837F828BC23019F0C33059F013C0A6
:1006300059D4DC015696ED91FC91579782898860D8
:10064000828B09C04FD4DC015696ED91FC915797EF
:1006500082898C60828B46D4DC015696ED91FC91A8
:1006600057978181826081833DD4DC011E96ED9194
:10067000FC911F97838580688387A1C133D4DC01F7
:100680005696ED91FC91579781818B7F81832AD477
:10069000DC015696ED91FC91579782898F7C828B75
:1006A000C23019F0C33059F013C01CD4DC01569687
:1006B000ED91FC91579782898062828B09C012D498
:1006C000DC015696ED91FC91579782898063828B6D
:1006D00009D4DC015696ED91FC9157978181846095
:1006E000818300D4DC011E96ED91FC911F978385D8
:1006F0008068838764C1F6D3DC015696ED91FC9146
:1007000057978181877F8183EDD3DC015696ED91E8
:10071000FC91579782898F73828BC23019F0C33056
:1007200059F013C0DFD3DC015696ED91FC91579739
:1007300082898068828B09C0D5D3DC015696ED9101
:10074000FC9157978289806C828BCCD3DC015696C2
:10075000ED91FC915797818188608183C3D3DC013F
:100760001E96ED91FC911F9783858068838727C132
:10077000B9D3DC015696ED91FC91579781818F7E1C
:100780008183B0D3DC015696ED91FC91579782811D
:100790008C7F8283C23071F0C330B1F0C130E9F494
:1007A000A1D3DC015696ED91FC915797828181602F
:1007B000828313C097D3DC015696ED91FC91579735
:1007C00082818260828309C08DD3DC015696ED91CF
:1007D000FC91579782818360828384D3DC01569693
:1007E000ED91FC9157978181806181837BD3DC01FE
:1007F0001E96ED91FC911F97838580688387DFC0EB
:1008000071D3DC015696ED91FC91579781818F7DD4
:10081000818368D3DC015696ED91FC9157978281D4
:10082000837F8283C23071F0C330B1F0C130E9F40C
:1008300059D3DC015696ED91FC91579782818460E3
:10084000828313C04FD3DC015696ED91FC915797EC
:1008500082818860828309C045D3DC015696ED9180
:10086000FC91579782818C6082833CD3DC01569641
:10087000ED91FC91579781818062818333D3DC01B4
:100880001E96ED91FC911F9783858068838797C0A2
:1008900029D3DC015696ED91FC91579781818F7B8E
:1008A000818320D3DC015696ED91FC91579782818C
:1008B0008F7C8283C23071F0C330B1F0C130E9F473
:1008C00011D3DC015696ED91FC915797828180619E
:1008D000828313C007D3DC015696ED91FC915797A4
:1008E00082818062828309C0FDD2DC015696ED913F
:1008F000FC915797828180638283F4D2DC01569603
:10090000ED91FC915797818180648183EBD2DC016A
:100910001E96ED91FC911F978385806883874FC059
:10092000E1D2DC015696ED91FC91579781818F774A
:100930008183D8D2DC015696ED91FC915797828144
:100940008F738283C23071F0C330B1F0C130E9F4EB
:10095000C9D2DC015696ED91FC9157978281806453
:10096000828313C0BFD2DC015696ED91FC9157975C
:1009700082818068828309C0B5D2DC015696ED91F0
:10098000FC9157978281806C8283ACD2DC015696B1
:10099000ED91FC915797818180688183A3D2DC011E
:1009A0001E96ED91FC911F9783858068838707C011
:1009B00099D2DC015696ED91FC9157971182CF9117
:1009C000089590E08830910508F055C0FC01E25B85
:1009D000FF4F0C94933086D2DC015696ED91FC913A
:1009E000579781818E7F818308957CD2DC01569652
:1009F000ED91FC91579781818D7F8183089572D20B
:100A0000DC015696ED91FC91579781818B7F818314
:100A1000089568D2DC015696ED91FC91579781813B
:100A2000877F818308955ED2DC015696ED91FC911B
:100A3000579781818F7E8183089554D2DC01569629
:100A4000ED91FC91579781818F7D818308954AD2E2
:100A5000DC015696ED91FC91579781818F7B8183C4
:100A6000089540D2DC015696ED91FC915797818113
:100A70008F778183089536D2DC015696ED91FC91F3
:100A800057971182089590E08830910508F09CC036
:100A9000FC01EA5AFF4F0C94933024D2DC015696A5
:100AA000ED91FC9157978181816081831BD2DC019C
:100AB0001E96ED91FC911F9783858068838708952A
:100AC00011D2DC015696ED91FC915797818182609D
:100AD000818308D2DC011E96ED91FC911F978385DE
:100AE000806883870895FED1DC015696ED91FC91D4
:100AF0005797818184608183F5D1DC011E96ED9149
:100B0000FC911F978385806883870895EBD1DC0172
:100B10005696ED91FC915797818188608183E2D14F
:100B2000DC011E96ED91FC911F9783858068838779
:100B30000895D8D1DC015696ED91FC9157978181AB
:100B400080618183CFD1DC011E96ED91FC911F97CE
:100B50008385806883870895C5D1DC015696ED9121
:100B6000FC915797818180628183BCD1DC011E9604
:100B7000ED91FC911F978385806883870895B2D19A
:100B8000DC015696ED91FC915797818180648183B9
:100B9000A9D1DC011E96ED91FC911F978385806899
:100BA000838708959FD1DC015696ED91FC9157976C
:100BB00081818068818396D1DC011E96ED91FC9144
:100BC0001F978385806883870895CF93DF93CDB780
:100BD000DEB728970FB6F894DEBF0FBECDBF82D127
:100BE000DC015696ED91FC9157971182E7ECF1E00C
:100BF00088EB92E09183808381EE94E093838283FB
:100C000083E495E09583848381E692E097838683ED
:100C100088E0DE01119601900D928A95E1F7298115
:100C20003A814B815C816D817E818F819885289688
:100C30000FB6F894DEBF0FBECDBFDF91CF91089500
:100C400087EC91E00895CF93DF9300D0CDB7DEB766
:100C50008A838A818F778A83AFECB1E01E96ED910B
:100C6000FC911F978385898383858F7783878A810A
:100C70008CBF8A8180688CBF1E96ED91FC911F9776
:100C8000898183870F900F90DF91CF910895CF9343
:100C9000DF931F92CDB7DEB7AFECB1E01E96ED91BA
:100CA000FC911F978385898383858F77838781E074
:100CB00085BF82E085BF1E96ED91FC911F978981CB
:100CC00083870F90DF91CF910895EF92FF920F935A
:100CD0001F93CF93DF937C010E94D826CFECD1E005
:100CE0009983888388E290E09B838A8300E410E004
:100CF0001D830C8384E290E09F838E8386EC90E0DA
:100D00009987888747DB9B878A8788E690E09D875D
:100D10008C8784E590E09F878E878CE390E0998BA9
:100D2000888B83E59BE19B8B8A8B0E948C1B9D8B20
:100D30008C8B88E590E09F8B8E8B85EE95E0998F6C
:100D4000888F7EDF9B8F8A8F89E390E09D8F8C8FC9
:100D500086E390E09F8F8E8F83E390E099A388A332
:100D600080E390E09BA38AA381E290E09DA38CA303
:100D700080E290E09FA38EA383E690E099A788A7E6
:100D800082E490E09BA78AA71DA70CA78DE290E0C4
:100D90009FA78EA780EF97E099AB88ABBCD29BABA7
:100DA0008AAB86E490E09DAB8CAB1FAB0EAB8DEDB8
:100DB0009CE099AF88AF0E946A0F9BAF8AAF8CE727
:100DC00090E09DAF8CAF1FAF0EAF8EEF92E190938E
:100DD000100280930F020E94981590931202809344
:100DE000110283E490E0909314028093130283E64F
:100DF00090E190931602809315020E943111909316
:100E000018028093170280E590E090931A02809375
:100E1000190210931C0200931B0282E79AE0909340
:100E20001E0280931D021ED49093200280931F0205
:100E300080E790E0909322028093210285E596E17D
:100E400090932402809323020E94B515909326026A
:100E500080932502C7E2D2E009E210E019830883FB
:100E60008BEC97E190932A02809329020E945017FD
:100E700090932C0280932B021983088388E990E0D9
:100E800090932E0280932D0284E09AE19093300299
:100E900080932F020E94881990933202809331022E
:100EA00081E490E0909334028093330283E296E0F1
:100EB000909336028093350287E496E0909338024F
:100EC000809337028AE6EFECF1E0D70101900D92B2
:100ED0008A95E1F7C701DF91CF911F910F91FF90A4
:100EE000EF9008958FEC91E00895EF92FF920F93A9
:100EF0001F93CF93DF93442349F17C01EC01062F2C
:100F0000172F4150242F30E02F5F3F4FE20EF31E8A
:100F1000E9DFDC019E96ED91FC919F978991828398
:100F2000E1DFDC019E96ED91FC919F978181882302
:100F3000BCF7D8DFDC019E96ED91FC919F978281F2
:100F4000F80181938F01CE15DF0511F7DF91CF9165
:100F50001F910F91FF90EF9008950F931F93CF93E0
:100F6000DF936623E9F08C01EC016150262F30E01D
:100F70002F5F3F4F020F131FB5DFDC019E96ED91EF
:100F8000FC919F9789918283ADDFDC019E96ED9164
:100F9000FC919F9781818823BCF7C017D10761F727
:100FA000DF91CF911F910F910895CF93C82F9ADFB2
:100FB000DC019E96ED91FC919F97C28393DFDC014B
:100FC0009E96ED91FC919F9781818823BCF78ADFE3
:100FD000DC019E96ED91FC919F978281CF910895BF
:100FE000EF92FF920F931F93CF93DF9300D000D027
:100FF00000D0CDB7DEB7F82EE62E042F122FE9E38E
:10100000F2E085E797E0918380838DEA97E0938310
:10101000828385ED97E09583848364DFDC015E96AF
:10102000ED91FC915F978181807F8183FF20F9F0B2
:10103000B1E0FB122FC056DFDC019E96ED91FC91D2
:101040009F978081806180834DDFDC015E96ED910A
:10105000FC915F9781818760818344DFDC015E962C
:10106000ED91FC915F9782818160828325C03ADF98
:10107000DC019E96ED91FC919F9780818061808339
:1010800031DFDC015E96ED91FC915F978181886094
:10109000818312C027DFDC019E96ED91FC919F9722
:1010A0008081806180831EDFDC015E96ED91FC9182
:1010B0005F97818187608183EE2069F0B1E0EB1258
:1010C00014C010DFDC019E96ED91FC919F9780810A
:1010D0008062808313C006DFDC019E96ED91FC9157
:1010E0009F9780818F7D808309C0FCDEDC019E9606
:1010F000ED91FC919F9780818F7D8083013081F0FD
:1011000028F00230B9F00330F9F028C0EBDEDC0142
:101110009E96ED91FC919F978081837F808327C06D
:10112000E1DEDC019E96ED91FC919F9780818460C9
:1011300080831DC0D7DEDC019E96ED91FC919F97C8
:1011400080818860808313C0CDDEDC019E96ED91A6
:10115000FC919F9780818C60808309C0C3DEDC0195
:101160009E96ED91FC919F978081837F80831031C3
:1011700009F44CC040F4143019F11830A1F11230C8
:1011800009F090C00AC0103409F466C0103809F4A0
:1011900076C0103209F086C04CC0A4DEDC019E96F9
:1011A000ED91FC919F978181816081839BDEDC01C1
:1011B0009E96ED91FC919F9780818C7F808384C067
:1011C00091DEDC019E96ED91FC919F9781818E7F4F
:1011D000818388DEDC019E96ED91FC919F97808152
:1011E0008C7F808371C07EDEDC019E96ED91FC9148
:1011F0009F9781818160818375DEDC019E96ED91F0
:10120000FC919F978081816080835EC06BDEDC01F2
:101210009E96ED91FC919F9781818E7F818362DE06
:10122000DC019E96ED91FC919F9780818160808387
:101230004BC058DEDC019E96ED91FC919F97818119
:10124000816081834FDEDC019E96ED91FC919F973A
:1012500080818260808338C045DEDC019E96ED91FE
:10126000FC919F9781818E7F81833CDEDC019E967D
:10127000ED91FC919F9780818260808325C032DE52
:10128000DC019E96ED91FC919F9781818170818315
:1012900029DEDC019E96ED91FC919F978081836011
:1012A000808312C01FDEDC019E96ED91FC919F971A
:1012B00081818160818316DEDC019E96ED91FC9137
:1012C0009F978081816080830DDEDC019E96ED9189
:1012D000FC919F9780818064808386E0E9E3F2E05F
:1012E000DE01119601900D928A95E1F729813A81EC
:1012F0004B815C816D817E8180E090E026960FB607
:10130000F894DEBF0FBECDBFDF91CF911F910F913B
:10131000FF90EF90089589E392E00895CF93DF93D3
:1013200020913803211179C0EC01DCDD865B9F4FF1
:10133000DC01ED91FC918381887F8383C034D105EA
:10134000C1F150F4C830D10501F1C032D10539F1F5
:10135000219709F056C00FC0C115B1E0DB0709F4B1
:101360003CC0C11584E0D80709F441C0C038D1059C
:1013700009F047C028C0B6DD865B9F4FDC01ED91C8
:10138000FC9183818160838345C0ACDD865B9F4F88
:10139000DC01ED91FC918381826083833BC0A2DDFF
:1013A000865B9F4FDC01ED91FC9183818360838399
:1013B00031C098DD865B9F4FDC01ED91FC9183810C
:1013C0008460838327C08EDD865B9F4FDC01ED91B7
:1013D000FC918381856083831DC084DD865B9F4F84
:1013E000DC01ED91FC9183818660838313C07ADDFB
:1013F000865B9F4FDC01ED91FC9183818760838345
:1014000009C070DD865B9F4FDC01ED91FC9183810B
:101410008760838385E58093380380913803DF916B
:10142000CF910895CF93C82F5DDD865B9F4FDC0180
:10143000ED91FC9183818F7C8383C230B1F0C33006
:1014400031F1C130A9F54EDDDC015E96ED91FC91E4
:101450005F9780E1818346DD865B9F4FDC01ED91E4
:10146000FC9183818061838323C03CDDDC015E9637
:10147000ED91FC915F9780E1818334DD865B9F4F26
:10148000DC01ED91FC9183818062838311C02ADDB0
:10149000DC015E96ED91FC915F9780E1818322DD16
:1014A000865B9F4FDC01ED91FC9183818063838398
:1014B000CF910895CF93C82F15DD865B9F4FDC0138
:1014C000ED91FC91C183CF9108950CDD865B9F4F18
:1014D000DC01ED91FC918381887F83831092380336
:1014E00080E008950F931F93CF93DF93CDB7DEB7BE
:1014F00028970FB6F894DEBF0FBECDBF082F162F6A
:1015000010923803EFDC865B9F4FDC01ED91FC917C
:101510008381877B8383023071F00330B1F0013027
:10152000E9F4E0DC865B9F4FDC01ED91FC91838167
:101530008064838313C0D6DC865B9F4FDC01ED9112
:10154000FC9183818860838309C0CCDC865B9F4FDC
:10155000DC01ED91FC91838188648383C3DC865B2D
:101560009F4FDC01ED91FC9187818E7F8783BADCF0
:10157000865B9F4FDC01ED91FC9187818D7F878396
:101580001230B9F0133041F11130C1F5ABDC865B9C
:101590009F4FDC01ED91FC91878181608783A2DC04
:1015A000DC011E96ED91FC911F97838580688387EF
:1015B00025C098DC865B9F4FDC01ED91FC91878113
:1015C000826087838FDCDC011E96ED91FC911F9772
:1015D00083858068838712C085DC865B9F4FDC0132
:1015E000ED91FC918781836087837CDCDC011E9612
:1015F000ED91FC911F9783858068838773DC865B00
:101600009F4FDC01ED91FC918FEF8183EFE3F2E0DE
:1016100082E19AE0918380838AE59AE093838283D2
:101620008EE899E09583848385E69AE097838683A4
:1016300088E0DE01119601900D928A95E1F72981EB
:101640003A814B815C816D817E818F81988528965E
:101650000FB6F894DEBF0FBECDBFDF91CF911F91C3
:101660000F9108958FE392E00895CF93DF93209137
:101670003903211176C0EC0135DCDC01D496ED9103
:10168000FC91D5978085887F8087C830D10509F186
:1016900048F4C630D10509F444C008F04CC0219785
:1016A00071F053C0C115B1E0DB0739F1C11584E019
:1016B000D80769F1C034D10509F047C014C012DC65
:1016C000DC01D496ED91FC91D5978085816080876F
:1016D00045C008DCDC01D496ED91FC91D59780855E
:1016E000826080873BC0FEDBDC01D496ED91FC91EB
:1016F000D59780858360808731C0F4DBDC01D49688
:10170000ED91FC91D59780858460808727C0EADBC6
:10171000DC01D496ED91FC91D5978085856080871A
:101720001DC0E0DBDC01D496ED91FC91D59780855E
:101730008660808713C0D6DBDC01D496ED91FC91E6
:10174000D59780858760808709C0CCDBDC01D49683
:10175000ED91FC91D59780858560808785E58093A4
:10176000390380913903DF91CF910895CF93C82F2A
:10177000B9DBDC01D496ED91FC91D59781858F730F
:101780008187C230B9F0C33041F1C130C1F5AADB65
:10179000DC015E96ED91FC915F978181806281838F
:1017A000A1DBDC01D496ED91FC91D5978185806415
:1017B000818725C097DBDC015E96ED91FC915F97F8
:1017C0008181806281838EDBDC01D496ED91FC9176
:1017D000D59781858068818712C084DBDC015E96A5
:1017E000ED91FC915F978181806281837BDBDC01DD
:1017F000D496ED91FC91D5978185806C8187CF91AE
:101800000895CF93C82F6EDBDC01D496ED91FC9147
:10181000D59781858F7C8187C230B9F0C33041F183
:10182000C130C1F55FDBDC015E96ED91FC915F9705
:1018300081818064818356DBDC01D496ED91FC913B
:10184000D59781858061818725C04CDBDC015E9660
:10185000ED91FC915F9781818064818343DBDC01A2
:10186000D496ED91FC91D59781858062818712C0D5
:1018700039DBDC015E96ED91FC915F97818180649C
:10188000818330DBDC01D496ED91FC91D597818585
:1018900080638187CF910895CF93C82F23DBDC012C
:1018A000D496ED91FC91D5978185837F8187C23055
:1018B000B9F0C33041F1C130C1F514DBDC015E96F3
:1018C000ED91FC915F978181806881830BDBDC0166
:1018D000D496ED91FC91D59781858460818725C050
:1018E00001DBDC015E96ED91FC915F978181806860
:1018F0008183F8DADC01D496ED91FC91D59781854E
:101900008860818712C0EEDADC015E96ED91FC9171
:101910005F97818180688183E5DADC01D496ED915F
:10192000FC91D59781858C608187CF910895DADA13
:10193000DC01D496ED91FC91D5978085887F8087D6
:101940001092390380E008950F931F93CF93DF9394
:101950008C01C8DAFC01C4A9D5A9C8010E943227AC
:101960009D838C83DF91CF911F910F9108950F93E9
:101970001F93CF93DF938C01B5DAFC01C4A9D5A9DD
:10198000C8010E9432279B838A83DF91CF911F91E8
:101990000F9108950F931F93CF93DF938C01A2DAD9
:1019A000FC01C4A9D5A9C8010E9432279BAB8AAB10
:1019B000DF91CF911F910F9108950F931F93CF93B4
:1019C000DF93EC01062F142F1092390386E490E088
:1019D000909348028093470285DADC01D496ED911A
:1019E000FC91D59781858C7F81877CDADC01D49648
:1019F000ED91FC91D5978085877E8087802F90E040
:101A0000FC013197EF30F10508F0EAC0E25AFF4FD0
:101A10000C94933067DADC01D496ED91FC91D59764
:101A2000818581608187DCC05DDADC01D496ED912F
:101A3000FC91D597818582608187D2C053DADC0121
:101A4000D496ED91FC91D597818583608187C8C03C
:101A500049DADC01D496ED91FC91D59780858860B8
:101A60008087BEC03FDADC01D496ED91FC91D5971A
:101A700081858160818736DADC01D496ED91FC9115
:101A8000D597808588608087ABC02CDADC01D4963E
:101A9000ED91FC91D59781858260818723DADC0105
:101AA000D496ED91FC91D59780858860808798C009
:101AB00019DADC01D496ED91FC91D597818583608C
:101AC000818710DADC01D496ED91FC91D597808561
:101AD0008860808785C006DADC01D496ED91FC91A0
:101AE000D5978085806180877BC0FCD9DC01D49646
:101AF000ED91FC91D597818581608187F3D9DC01D7
:101B0000D496ED91FC91D59780858061808768C0DF
:101B1000E9D9DC01D496ED91FC91D597818582605D
:101B20008187E0D9DC01D496ED91FC91D597808531
:101B30008061808755C0D6D9DC01D496ED91FC91A7
:101B4000D597818583608187CDD9DC01D496ED91CD
:101B5000FC91D59780858061808742C0C3D9DC0124
:101B6000D496ED91FC91D59780858861808738C0A7
:101B7000B9D9DC01D496ED91FC91D597818581602E
:101B80008187B0D9DC01D496ED91FC91D597808501
:101B90008861808725C0A6D9DC01D496ED91FC919F
:101BA000D5978185826081879DD9DC01D496ED919E
:101BB000FC91D59780858861808712C093D9DC011C
:101BC000D496ED91FC91D5978185836081878AD9E0
:101BD000DC01D496ED91FC91D59780858861808752
:101BE00081D9DC01D496ED91FC91D59781858370E4
:101BF000818778D9DC01D496ED91FC91D5978189C4
:101C0000837C818B6FD9DC01D496ED91FC91D597C3
:101C100087A98E7F87AB412F50E0FA013197EC30D6
:101C2000F10508F002C1E359FF4F0C9493305AD9E3
:101C3000DC01D496ED91FC91D59781898460818BEC
:101C400051D9DC011E96ED91FC911F978385806828
:101C50008387EBC047D9DC01D496ED91FC91D597F1
:101C600081898061818B3ED9DC011E96ED91FC91CA
:101C70001F97838580688387D8C034D9DC01D496C8
:101C8000ED91FC91D59781898860818B2BD9DC01FE
:101C90001E96ED91FC911F97838580688387C5C050
:101CA00021D9DC01D496ED91FC91D59787A981606B
:101CB00087AB18D9DC011E96ED91FC911F978385A7
:101CC00080688387B2C00ED9DC01D496ED91FC9177
:101CD000D59781898062818B05D9DC011E96ED91B3
:101CE000FC911F978385806883879FC0FBD8DC01A8
:101CF000D496ED91FC91D59781898461818BF2D83E
:101D0000DC011E96ED91FC911F9783858068838787
:101D10008CC0E8D8DC01D496ED91FC91D5978189EF
:101D20008C60818BDFD8DC011E96ED91FC911F97B2
:101D300083858068838779C0D5D8DC01D496ED91FE
:101D4000FC91D59781898460818BCCD8DC01D496B5
:101D5000ED91FC91D59787A9816087ABC3D8DC0151
:101D60001E96ED91FC911F978385806883875DC0E7
:101D7000B9D8DC01D496ED91FC91D5978189846224
:101D8000818BB0D8DC011E96ED91FC911F97838565
:101D9000806883874AC0A6D8DC01D496ED91FC9177
:101DA000D59781898C61818B9DD8DC011E96ED9140
:101DB000FC911F9783858068838737C093D8DC01A7
:101DC000D496ED91FC91D59781898C61818B8AD8CD
:101DD000DC01D496ED91FC91D59787A9816087AB02
:101DE00081D8DC011E96ED91FC911F978385806858
:101DF00083871BC077D8DC01D496ED91FC91D597F1
:101E000081898861818B6ED8DC01D496ED91FC913B
:101E1000D59787A9816087AB65D8DC011E96ED91C7
:101E2000FC911F978385806883875CD8FC0104A997
:101E300015A98FEF9FEF0E943227D80115969C932A
:101E40008E9314974FD8FC0104A915A98FEF9FEF2B
:101E50000E943227D80113969C938E93129742D8F2
:101E6000FC0104A915A98FEF9FEF0E943227D8012A
:101E7000D3969C938E93D297E7E4F2E086EB9BE0B7
:101E80009383828381E09CE0958384838CE49CE04F
:101E90009783868384EA9CE09187808787EB9CE028
:101EA000938782878AEC9CE09587848785E39BE013
:101EB0009787868787E99CE0918B808B82E1DE01A2
:101EC00001900D928A95E1F7CE01DF91CF911F919C
:101ED0000F91089587E492E00895CF93DF932091C6
:101EE0003A0321117FC0EC010E9472078C5B9F4F67
:101EF000DC01ED91FC918281887F8283C830D1051D
:101F000011F148F4C630D10509F449C008F052C0B7
:101F1000219771F05AC0C115B1E0DB0751F1C1152D
:101F200084E0D80789F1C034D10509F04EC016C04D
:101F30000E9472078C5B9F4FDC01ED91FC918281C6
:101F4000816082834CC00E9472078C5B9F4FDC01D2
:101F5000ED91FC9182818260828341C00E94720770
:101F60008C5B9F4FDC01ED91FC91828183608283C9
:101F700036C00E9472078C5B9F4FDC01ED91FC9193
:101F80008281846082832BC00E9472078C5B9F4F8A
:101F9000DC01ED91FC9182818560828320C00E94EA
:101FA00072078C5B9F4FDC01ED91FC918281866012
:101FB000828315C00E9472078C5B9F4FDC01ED91FC
:101FC000FC918281876082830AC00E9472078C5BC9
:101FD0009F4FDC01ED91FC9182818560828385E5D4
:101FE00080933A0380913A03DF91CF910895CF9384
:101FF000C82F0E9472078C5B9F4FDC01ED91FC9112
:1020000082818F7C8283C230C9F0C33061F1C130DC
:10201000F1F50E947207DC015E96ED91FC915F97ED
:102020008181806881830E9472078C5B9F4FDC01F5
:10203000ED91FC9182818061828329C00E947207A8
:10204000DC015E96ED91FC915F97818180688183D0
:102050000E9472078C5B9F4FDC01ED91FC918281A5
:102060008062828314C00E947207DC015E96ED914B
:10207000FC915F978181806881830E9472078C5BED
:102080009F4FDC01ED91FC91828180638283CF912F
:102090000895CF93C82F0E9472078C5B9F4FDC017D
:1020A000ED91FC91C083CF9108950E9472078C5BE3
:1020B0009F4FDC01ED91FC918281887F8283109299
:1020C0003A0380E008950F931F93CF93DF93CDB72A
:1020D000DEB728970FB6F894DEBF0FBECDBF082F2E
:1020E000162F10923A030E9472078C5B9F4FDC01FF
:1020F000ED91FC918281877B8283023079F00330FD
:10210000C1F0013001F50E9472078C5B9F4FDC012A
:10211000ED91FC9182818064828315C00E947207D8
:102120008C5B9F4FDC01ED91FC9182818860828302
:102130000AC00E9472078C5B9F4FDC01ED91FC91FD
:102140008281886482830E9472078C5B9F4FDC01CE
:10215000ED91FC9184898F73848B1230D1F0133010
:1021600069F1113009F048C00E9472078C5B9F4FE3
:10217000DC01ED91FC9184898064848B0E9472075C
:10218000DC011E96ED91FC911F9783858068838703
:1021900033C00E9472078C5B9F4FDC01ED91FC9174
:1021A00084898068848B0E947207DC011E96ED9101
:1021B000FC911F978385806883871EC00E947207E9
:1021C0008C5B9F4FDC01ED91FC9184898064848B52
:1021D0000E9472078C5B9F4FDC01ED91FC9184891A
:1021E0008068848B0E947207DC011E96ED91FC9141
:1021F0001F978385806883870E9472078C5B9F4F3F
:10220000DC01ED91FC918FEF8083E9E5F2E087EF4F
:102210009FE09183808389E490E1938382838DE6BC
:102220009FE09583848385E590E19783868388E0AA
:10223000DE01119601900D928A95E1F729813A818C
:102240004B815C816D817E818F81988528960FB648
:10225000F894DEBF0FBECDBFDF91CF911F910F91DC
:10226000089589E592E00895CF93DF9320913B0391
:1022700021117FC0EC010E947207DC01DC96ED9118
:10228000FC91DD978685887F8687C830D10511F15E
:1022900048F4C630D10509F449C008F052C021976E
:1022A00071F05AC0C115B1E0DB0751F1C11584E0EE
:1022B000D80789F1C034D10509F04EC016C00E947C
:1022C0007207DC01DC96ED91FC91DD9786858160DB
:1022D00086874CC00E947207DC01DC96ED91FC9170
:1022E000DD9786858260868741C00E947207DC0187
:1022F000DC96ED91FC91DD9786858360868736C0FC
:102300000E947207DC01DC96ED91FC91DD978685D9
:10231000846086872BC00E947207DC01DC96ED91F9
:10232000FC91DD9786858560868720C00E947207B4
:10233000DC01DC96ED91FC91DD97868586608687D1
:1023400015C00E947207DC01DC96ED91FC91DD97CF
:102350008685876086870AC00E947207DC01DC964A
:10236000ED91FC91DD9786858560868785E5809374
:102370003B0380913B03DF91CF910895CF93C82F0A
:102380000E947207DC01DC96ED91FC91DD97878558
:102390008F738787C230C9F0C33061F1C130F1F566
:1023A0000E947207DC019496ED91FC9195978181D2
:1023B000886081830E947207DC01DC96ED91FC91BC
:1023C000DD9787858064878729C00E947207DC01BA
:1023D0009496ED91FC9195978181886081830E940C
:1023E0007207DC01DC96ED91FC91DD9787858068B2
:1023F000878714C00E947207DC019496ED91FC91CE
:1024000095978181886081830E947207DC01DC9648
:10241000ED91FC91DD978785806C8787CF9108953A
:10242000CF93C82F0E947207DC01DC96ED91FC91DE
:10243000DD9787858F7C8787C230C9F0C33061F113
:10244000C130F1F50E947207DC019496ED91FC9188
:1024500095978181806181830E947207DC01DC96FF
:10246000ED91FC91DD9787858061878729C00E9467
:102470007207DC019496ED91FC91959781818061C2
:1024800081830E947207DC01DC96ED91FC91DD975F
:1024900087858062878714C00E947207DC0194964A
:1024A000ED91FC9195978181806181830E947207F3
:1024B000DC01DC96ED91FC91DD9787858063878751
:1024C000CF910895CF93C82F0E947207DC01DC964C
:1024D000ED91FC91DD978785837F8787C230C9F0B6
:1024E000C33061F1C130F1F50E947207DC019496AE
:1024F000ED91FC9195978181806281830E947207A2
:10250000DC01DC96ED91FC91DD97878584608787FF
:1025100029C00E947207DC019496ED91FC91959779
:102520008181806281830E947207DC01DC96ED91DB
:10253000FC91DD9787858860878714C00E947207A9
:10254000DC019496ED91FC91959781818062818365
:102550000E947207DC01DC96ED91FC91DD97878586
:102560008C608787CF9108950E947207DC01DC960A
:10257000ED91FC91DD978685887F868710923B03DD
:1025800080E008950F931F93CF93DF938C010E94F7
:102590007207FC01C4ADD5ADC8010E9432279B87EC
:1025A0008A87DF91CF911F910F9108950F931F9309
:1025B000CF93DF938C010E947207FC01C4ADD5ADAF
:1025C000C8010E94322799878887DF91CF911F9198
:1025D0000F9108950F931F93CF93DF938C010E9467
:1025E0007207FC01C4ADD5ADC8010E9432279F839C
:1025F0008E83DF91CF911F910F9108950F931F93B9
:10260000CF93DF93EC01062F142F10923B030E940F
:102610007207DC01DC96ED91FC91DD9787858C7F5C
:1026200087870E947207DC01DC96ED91FC91DD97B3
:102630008685877E8687802F90E0FC013197EF307A
:10264000F10508F002C1E758FF4F0C9493300E9447
:102650007207DC01DC96ED91FC91DD978785816046
:102660008787F3C00E947207DC01DC96ED91FC9134
:10267000DD97878582608787E8C00E947207DC014A
:10268000DC96ED91FC91DD97878583608787DDC0BF
:102690000E947207DC01DC96ED91FC91DD97868546
:1026A00088608687D2C00E947207DC01DC96ED91BB
:1026B000FC91DD978785816087870E947207DC0126
:1026C000DC96ED91FC91DD97868588608687BDC09C
:1026D0000E947207DC01DC96ED91FC91DD97878505
:1026E000826087870E947207DC01DC96ED91FC9185
:1026F000DD97868588608687A8C00E947207DC0106
:10270000DC96ED91FC91DD978785836087870E9439
:102710007207DC01DC96ED91FC91DD97868588607F
:10272000868793C00E947207DC01DC96ED91FC91D4
:10273000DD9786858061868788C00E947207DC01EC
:10274000DC96ED91FC91DD978785816087870E94FB
:102750007207DC01DC96ED91FC91DD978685806146
:10276000868773C00E947207DC01DC96ED91FC91B4
:10277000DD978785826087870E947207DC01DC967F
:10278000ED91FC91DD978685806186875EC00E9411
:102790007207DC01DC96ED91FC91DD978785836003
:1027A00087870E947207DC01DC96ED91FC91DD9732
:1027B00086858061868749C00E947207DC01DC96AD
:1027C000ED91FC91DD978685886186873EC00E94E9
:1027D0007207DC01DC96ED91FC91DD9787858160C5
:1027E00087870E947207DC01DC96ED91FC91DD97F2
:1027F00086858861868729C00E947207DC01DC9685
:10280000ED91FC91DD978785826087870E94720732
:10281000DC01DC96ED91FC91DD97868588618687E9
:1028200014C00E947207DC01DC96ED91FC91DD97EB
:102830008785836087870E947207DC01DC96ED91B3
:10284000FC91DD978685886186870E947207DC018E
:10285000DC96ED91FC91DD978785837087870E94D8
:102860007207DC01DC96ED91FC91DD978181817C22
:102870008183412F50E0FA013197EC30F10508F0E7
:10288000FFC0E857FF4F0C9493300E947207DC01A1
:10289000DC96ED91FC91DD978181846081830E94BB
:1028A0007207DC011E96ED91FC911F97838580686D
:1028B0008387E6C00E947207DC01DC96ED91FC91F3
:1028C000DD978181806181830E947207DC011E9601
:1028D000ED91FC911F97838580688387D1C00E940A
:1028E0007207DC01DC96ED91FC91DD9781818860B7
:1028F00081830E947207DC011E96ED91FC911F9767
:10290000838580688387BCC00E947207DC01DC96E7
:10291000ED91FC91DD978181826081830E94720735
:10292000DC011E96ED91FC911F978385806883875B
:10293000A7C00E947207DC01DC96ED91FC91DD9747
:102940008181806281830E947207DC011E96ED9175
:10295000FC911F9783858068838792C00E947207CD
:10296000DC01DC96ED91FC91DD97818184618183AE
:102970000E947207DC011E96ED91FC911F978385E2
:10298000806883877DC00E947207DC01DC96ED9130
:10299000FC91DD9781818C6081830E947207DC014C
:1029A0001E96ED91FC911F9783858068838768C090
:1029B0000E947207DC01DC96ED91FC91DD9781812C
:1029C000866081830E947207DC011E96ED91FC9166
:1029D0001F9783858068838753C00E947207DC013C
:1029E000DC96ED91FC91DD978181846281830E9468
:1029F0007207DC011E96ED91FC911F97838580681C
:102A000083873EC00E947207DC01DC96ED91FC9149
:102A1000DD9781818C6181830E947207DC011E96A3
:102A2000ED91FC911F9783858068838729C00E9460
:102A30007207DC01DC96ED91FC91DD9781818E615E
:102A400081830E947207DC011E96ED91FC911F9715
:102A500083858068838714C00E947207DC01DC963E
:102A6000ED91FC91DD9781818A6181830E947207DB
:102A7000DC011E96ED91FC911F978385806883870A
:102A80000E947207FC0104AD15AD8FEF9FEF0E940D
:102A90003227D8011B969C938E931A970E94720737
:102AA000FC0104AD15AD8FEF9FEF0E943227D801D6
:102AB00019969C938E9318970E947207FC0104AD9F
:102AC00015AD8FEF9FEF0E943227D80117969C9388
:102AD0008E931697E1E6F2E08EEB91E1918380838D
:102AE00080E192E19383828382E692E195838483FD
:102AF00082EC92E19783868386ED92E191878087CD
:102B00008AEE92E19387828784E391E195878487B7
:102B100084EB92E19787868780E1DE0101900D9238
:102B20008A95E1F7CE01DF91CF911F910F91089522
:102B300081E692E008950E9472078E5A9F4FDC0151
:102B4000ED91FC918181887F08950E9472078E5AD1
:102B50009F4FDC01ED91FC9184E984838FE891E043
:102B60000197F1F700C00000089581E792E0089511
:102B70000F931F93CF93DF93D82FC62F1816BCF453
:102B80000E9472078E5A9F4FDC01ED91FC91DD0F80
:102B900082818170D82BD2830E9472078E5A9F4FF8
:102BA000DC01ED91FC918281816082830AC00E94E8
:102BB00072078E5A9F4FDC01ED91FC9182818160FA
:102BC00082830E947207DC019296ED91FC919397AB
:102BD0008181836081830E947207DC019296ED916E
:102BE000FC919397828183608283C430A1F018F4B2
:102BF000C13031F033C0C031D1F0C03421F12EC02A
:102C00000E9472078E5A9F4FDC01ED91FC918181E9
:102C10008C7F81832EC00E9472078E5A9F4FDC01E9
:102C2000ED91FC9181818C7F8160818322C00E9423
:102C300072078E5A9F4FDC01ED91FC9181818C7F50
:102C40008260818316C00E9472078E5A9F4FDC01FA
:102C5000ED91FC918181836081830BC00E9472079A
:102C60008E5A9F4FDC01ED91FC9181818C7F818395
:102C7000C1E00E9472078E5A9F4FFC0100811181B2
:102C80002C2F30E0220F331F032E000C440B550B6A
:102C900060E970E080E090E00E945530D8012C930C
:102CA000DF91CF911F910F910895CF93DF93EC01A6
:102CB000862FE1E7F2E02CE936E1318320832DEA2B
:102CC00036E13383228325EA35E13187208722EDFF
:102CD00036E1358324832EEE36E1378326832BE9D4
:102CE00035E133872287642F43DF8CE0E1E7F2E0B0
:102CF000DE0101900D928A95E1F7CE01DF91CF912F
:102D000008950F931F93CF93DF938C01C0E0D0E021
:102D100004C00C171D0758F021960E9472078E5AA6
:102D20009F4FDC01ED91FC918481882394F7DF9122
:102D3000CF911F910F9108950E9472078E5A9F4F55
:102D4000DC01ED91FC9184EA84838FEF93E0D9DF7D
:102D5000F2DE883009F0F9CE0895CF93662321F092
:102D6000C82FCC0FC16002C0C82FCC0F0E947207C1
:102D70008E5A9F4FDC01ED91FC91C3830E94720734
:102D80008E5A9F4FDC01ED91FC9184E884838FEF94
:102D900093E0B7DFD0DE883119F0803409F0D5DE5A
:102DA000CF910895CF93C82F0E9472078E5A9F4FDC
:102DB000DC01ED91FC91C3830E9472078E5A9F4FF4
:102DC000DC01ED91FC9184E884838FEF93E099DF3F
:102DD000B2DE883209F0B9DECF910895CF9388230F
:102DE00011F0C0E401C0C0E0C4680E9472078E5AAE
:102DF0009F4FDC01ED91FC91C4838FEF93E081DF65
:102E00009ADE883309F4A1DE0E9472078E5A9F4F22
:102E1000DC01ED91FC918381CF91089580915D0358
:102E200010925D030895E0916603F09167038EE5CB
:102E300093E009950895E0916803F09169038EE5A8
:102E400093E0099510926A030895CF93C82F0E94CA
:102E5000DE26FC019181906291830E94DE26FC01B6
:102E6000C3835D9906C088E592E05D9902C0019731
:102E7000E1F7CF910895E9CF0895CF93DF93EC0167
:102E80008881882329F02196E0DF89918111FCCF88
:102E9000DF91CF91089580915D0310925D030895B5
:102EA0008EE792E008951F920F920FB60F921124B1
:102EB0000BB60F922F933F934F935F936F937F9334
:102EC0008F939F93AF93BF93EF93FF930E94DE2660
:102ED000FC0191819F7D9183FF91EF91BF91AF9113
:102EE0009F918F917F916F915F914F913F912F9122
:102EF0000F900BBE0F900FBE0F901F9018958BB1C7
:102F000042E063E00C94E42608951F920F920FB6FE
:102F10000F9211240BB60F922F933F934F935F9311
:102F20006F937F938F939F93AF93BF93CF93EF93C1
:102F3000FF93E5DFC82F0E94DE26FC018181C111CD
:102F4000C0936A030E94DE26FC01638160935D03E7
:102F5000E0916403F09165038EE593E00995FF919C
:102F6000EF91CF91BF91AF919F918F917F916F9191
:102F70005F914F913F912F910F900BBE0F900FBE1D
:102F80000F901F90189521E041E064E08BE290E003
:102F90000C94012708952F923F924F925F926F9267
:102FA0007F928F929F92AF92BF92CF92DF92EF92D9
:102FB000FF920F931F93CF93DF93CDB7DEB72C977C
:102FC0000FB6F894DEBF0FBECDBF1C012A013B0136
:102FD000690181E080937D024CE353E060E2CE0121
:102FE0000196C6D38CE0FE013196AEE5B3E00190C8
:102FF0000D928A95E1F7C301B2010E9433275C016B
:103000000E94DE26EEE7F2E0918380838EE097E176
:10301000938382838BE497E19583848383E197E1B3
:10302000978386838BE197E19187808785E297E19B
:10303000938782878BE397E1958784878DE397E178
:1030400097878687BB2034F49EDFC301B2010E94BC
:1030500041275C010E94DE264C01C5010E943227F7
:10306000F401E959FF4F90830E94DE264C01C5010F
:103070000E943227F40180830E94DE2628E9FC01A9
:103080002183F7E0CF16D10499F158F4E5E0CE168C
:10309000D10409F45BC0F6E0CF16D10409F43FC0B7
:1030A00064C088E0C816D104A1F0E9E0CE16D104CE
:1030B00009F05BC00E94DE26FC019181946091833F
:1030C0000E94DE26FC01E459FF4F908196609083B8
:1030D0005AC00E94DE26FC0191819B7F91830E9451
:1030E000DE26FC01E459FF4F9081966090834BC02F
:1030F0000E94DE26FC0191819B7F91830E94DE2647
:10310000FC01E459FF4F9081946090830E94DE2679
:10311000FC01E459FF4F90819D7F908334C00E9451
:10312000DE26FC0191819B7F91830E94DE26FC01BB
:10313000E459FF4F90819B7F90830E94DE26FC0123
:10314000E459FF4F9081926090831DC00E94DE265B
:10315000FC0191819B7F91830E94DE26FC01E45952
:10316000FF4F9081997F90830EC00E94DE26FC0164
:1031700091819B7F91830E94DE26FC01E459FF4FE1
:103180009081966090830130110521F00230110585
:1031900051F012C00E94DE26FC01E459FF4F9081DD
:1031A000977F908311C00E94DE26FC01E459FF4FF7
:1031B00090819860908308C00E94DE26FC01E4594B
:1031C000FF4F9081977F9083F2E0EF16F10479F042
:1031D00083E0E816F104E1F0EF2819F50E94DE26FD
:1031E000FC01E459FF4F90819F7C908322C00E9494
:1031F000DE26FC01E459FF4F9081906290830E948B
:10320000DE26FC01E459FF4F90819F7E908311C020
:103210000E94DE26FC01E459FF4F90819063908369
:1032200008C00E94DE26FC01E459FF4F90819F7C7C
:1032300090830E94DB26FC0123852068238780E1A0
:10324000EEE7F2E0D10101900D928A95E1F7C1011C
:103250002C960FB6F894DEBF0FBECDBFDF91CF9195
:103260001F910F91FF90EF90DF90CF90BF90AF90A4
:103270009F908F907F906F905F904F903F902F9096
:10328000089580916B0310926B030895E09196036B
:10329000F09197038EE893E009950895E0919803E3
:1032A000F09199038EE893E0099510928D030895AB
:1032B000CF93C82F0E94E126FC01928190629283F5
:1032C0000E94E126FC01C48380919B0085FD09C01A
:1032D00088E592E0EBE9F0E0208125FD02C001974E
:1032E000D9F7CF910895E4CF0895CF93DF93EC0100
:1032F0008881882329F02196DBDF89918111FCCF19
:10330000DF91CF91089580916B0310926B03089524
:103310008FE892E008951F920F920FB60F9211243A
:103320000BB60F922F933F934F935F936F937F93BF
:103330008F939F93AF93BF93EF93FF930E94E126E8
:10334000FC0192819F7D9283FF91EF91BF91AF919C
:103350009F918F917F916F915F914F913F912F91AD
:103360000F900BBE0F900FBE0F901F90189580917D
:103370009B0042E063E00C94E42608951F920F92B4
:103380000FB60F9211240BB60F922F933F934F93CA
:103390005F936F937F938F939F93AF93BF93CF93DD
:1033A000EF93FF93E4DFC82F0E94E126FC018281A6
:1033B000C111C0938D030E94E126FC0164816093DA
:1033C0006B03E0919403F09195038EE893E00995E7
:1033D000FF91EF91CF91BF91AF919F918F917F918D
:1033E0006F915F914F913F912F910F900BBE0F9076
:1033F0000FBE0F901F90189521E041E064E08BE92B
:1034000090E00C94012708954F925F926F927F9203
:103410008F929F92AF92BF92CF92DF92EF92FF92E4
:103420000F931F93CF93DF93CDB7DEB72C970FB6D3
:10343000F894DEBF0FBECDBF4C012A013B016901EC
:1034400081E080938E024CE653E060E2CE0101966B
:103450008FD18CE0FE013196AEE8B3E001900D9281
:103460008A95E1F7C301B2010E9433275C010E94F3
:10347000E126EFE8F2E09183808381E499E1938390
:10348000828383E899E19583848386E499E1978335
:1034900086838EE499E19187808788E599E1938717
:1034A000828783E799E19587848785E799E1978704
:1034B0008687BB2034F4A0DFC301B2010E944127FC
:1034C0005C010E94E1263C01C5010E943227F30104
:1034D00090830E94E1263C01C5010E943227F3013E
:1034E00081830E94E12628E9FC012283F7E0CF16C0
:1034F000D10471F150F4E5E0CE16D10409F44EC0C8
:10350000F6E0CF16D104B9F156C088E0C816D10450
:1035100091F0E9E0CE16D10409F04DC00E94E126F9
:10352000FC019281946092830E94E126FC019581C6
:10353000966095834CC00E94E126FC0192819B7F9E
:1035400092830E94E126FC019581966095833FC09D
:103550000E94E126FC0192819B7F92830E94E126DA
:10356000FC019581946095830E94E126FC01958180
:103570009D7F95832CC00E94E126FC0192819B7F58
:1035800092830E94E126FC0195819B7F95830E9496
:10359000E126FC0195819260958319C00E94E12685
:1035A000FC0192819B7F92830E94E126FC01958120
:1035B000997F95830CC00E94E126FC0192819B7F3C
:1035C00092830E94E126FC019581966095830130EB
:1035D000110521F00230110541F00EC00E94E126D4
:1035E000FC019581977F95830DC00E94E126FC0127
:1035F00095819860958306C00E94E126FC01958123
:10360000977F9583F2E0EF16F10469F083E0E81606
:10361000F104B1F0EF28D9F40E94E126FC01958174
:103620009F7C95831AC00E94E126FC0195819062DF
:1036300095830E94E126FC0195819F7E95830DC0B4
:103640000E94E126FC0195819063958306C00E944B
:10365000E126FC0195819F7C95830E94DB26FC017D
:1036600023852068238780E1EFE8F2E0D401019010
:103670000D928A95E1F7C4012C960FB6F894DEBF3F
:103680000FBECDBFDF91CF911F910F91FF90EF90B3
:10369000DF90CF90BF90AF909F908F907F906F9072
:1036A0005F904F900895EFE9F2E02AEA33E3318327
:1036B00020832CEE33E33383228326EC33E33583FC
:1036C000248322EB33E3378326832EEF33E33187E2
:1036D00020872FED33E33387228729EF33E33787C2
:1036E000268729EF33E3358B248B27ED33E3378BA4
:1036F000268B2AE933E3318F208F23EE33E3338F98
:10370000228F27EB33E3358F248F2EE1DC010190EC
:103710000D922A95E1F708958FE992E008956623C6
:10372000C1F0DC011296ED91FC91139714962D9146
:103730003C911597E217F30729F4ED91FC91DF0115
:10374000119602C0DF01119660831C92FC01B383C5
:10375000A2830895FC01808191810895DC01ED919F
:10376000FC9111971396FC93EE9312971082089593
:10377000FC015183408353834283460F511D55837F
:1037800044838FE89BE1978386838AEA9BE1918754
:1037900080878EEA9BE193878287CF010895FC01A1
:1037A000818180836183982F96239283982F962B13
:1037B00090959383982F9627692364838923858323
:1037C0000895CF93DF93CDB7DEB760970FB6F89427
:1037D000DEBF0FBECDBF19861A868FEC9BE1988B9A
:1037E0008F8788E0FE013996DE01119601900D92D7
:1037F0008A95E1F729813A814B815C816D817E81D7
:103800008F81988560960FB6F894DEBF0FBECDBF4E
:10381000DF91CF91089521E030E0042E02C0220F05
:10382000331F0A94E2F72150310962237323822364
:1038300093239C012627372762237323CB0102C0E1
:10384000880F991F4A95E2F7822B932B0895CF9208
:10385000DF92EF92FF920F931F93FC010081118181
:1038600022813381FB01C080D180E280F380FC01A2
:10387000C082D182E282F382FB0100831183228322
:1038800033831F910F91FF90EF90DF90CF900895B9
:10389000FB012081FC012083222339F0DB011196FA
:1038A00031969D9191939111FCCF0895CF93DF9321
:1038B000EC019881992399F0FE01319620E030E0E7
:1038C000492F50E04617570731F0DE01A20FB31F12
:1038D0009C932F5F3F4F91919111F2CF02C020E056
:1038E00030E0FE01E20FF31F1082DF91CF910895C7
:1038F0002F923F924F925F926F927F928F929F9200
:10390000AF92BF92CF92DF92EF92FF920F931F93ED
:10391000CF93DF9300D000D0CDB7DEB72C011B01D1
:103920004B0177231CF42FEF821A920A9594879407
:10393000181419040CF451C06AC09601DD209CF1E2
:10394000F50140815181F40160817181641775072F
:1039500054F58C010A0D1B1DD401BC82AB82BA82C6
:10396000A982EB81FC817183608311965C934E93F5
:103970002E193F09C2F0F80140815181E981FA8195
:1039800060817181080F191FE80FF91FFA83E9831D
:10399000EB81FC81E80FF91FFC83EB83A80FB91FB3
:1039A00064177507F4F2FFEFCF1ADF0A22E0A20EC8
:1039B000B11CE2E08E0E911CC614D70409F0BDCFF5
:1039C0004701FF201CF4FFEF8F1A9F0A95948794FC
:1039D00018141904E4F4740101C0740182149304EE
:1039E0007CF76401CE18DF085601AA0CBB1CA40C9E
:1039F000B51C880C991C840C951C31016E187F082D
:103A0000C701880F991F91958195910996CF0F90C5
:103A10000F900F900F90DF91CF911F910F91FF901A
:103A2000EF90DF90CF90BF90AF909F908F907F905E
:103A30006F905F904F903F902F9008958617970753
:103A40000CF4CB0108959B01672B11F408959A01A2
:103A5000B9010E944230AC01822F932F41155105CC
:103A6000B1F70895FC01908180ED890F8A30D0F480
:103A7000319620E030E0A901440F551F220F331F7B
:103A8000220F331F220F331F420F531F292F30E005
:103A900020533109240F351F919180ED890F8A3011
:103AA00050F302C020E030E0C901089587FF08C04C
:103AB00091958195910999279195819591090895FD
:103AC0008F779927089591FF08C091958195910965
:103AD0009370919581959109089591700895615021
:103AE00021E030E002C0220F331F6A95E2F7A901FE
:103AF00041505109B90168237923672B29F08423A8
:103B00009523821B930B08958423952308959DECA0
:103B1000899F912D1124969596959695392F330F5F
:103B2000232F220F220F230F821B20E1929F800D53
:103B300011240895982F92959F70990F292F220F85
:103B4000220F920F8F70890F0895FC01DB01A3549F
:103B5000BD4F1C921616170614F5908191110CC0DA
:103B600017C0919191110DC015C081932F5F3F4FE8
:103B700026173707D4F313C0ADEBB2E0319620E03F
:103B800030E09D932F5F3F4F6217730751F707C0D7
:103B900020E030E0F901E354FD4F80E2E6CF8DEB09
:103BA00092E008954F925F926F927F92AF92BF9290
:103BB000CF92DF92EF92FF920F931F93CF93DF93F9
:103BC000CDB7DEB729013A019B01AC0124193509B3
:103BD0004609570989899A89AB89BC89BC01CD01FD
:103BE0006A197B098C099D090E941F30A801970161
:103BF00024193509460957090E947730CA01B901CD
:103C00006A0D7B1D8C1D9D1DDF91CF911F910F9122
:103C1000FF90EF90DF90CF90BF90AF907F906F902C
:103C20005F904F900895FC012081222341F031964E
:103C300080E090E0019621912111FCCF089580E071
:103C400090E00895CF93DF93EC01EDDF9C012150CC
:103C5000310962F0FE01E80FF91F9291903219F0DC
:103C60009950923018F421503109B8F7C20FD31F80
:103C70001982C901DF91CF910895CF93DF93EC01B1
:103C8000D2DF9C01215031091216130684F4DE01A3
:103C9000A80FB91FFE0180E090E040815E91519332
:103CA0004C9301962150310982179307B4F3DF91A9
:103CB000CF910895CF92DF92EF92FF921F93CF930F
:103CC000DF932AE030E040E050E00E945530605D34
:103CD0006093BD02622F732F842F952F611571059C
:103CE00081059105F1F0C1E00F2EFAE0CF2ED12C25
:103CF000E12CF12CF02D11E01C0FD0E0C354DD4F6E
:103D0000A70196010E945530605D6883622F732F72
:103D1000842F952FC12F611571058105910559F7E4
:103D200001C011E0E12FF0E0E354FD4F10828DEB74
:103D300092E0A3DF8DEB92E0DF91CF911F91FF9096
:103D4000EF90DF90CF9008958F929F92AF92BF92A5
:103D5000CF92DF92EF92FF920F931F93CF93DF9357
:103D60006B017C01DC01CB01FF203CF48827992703
:103D7000DC018C199D09AE09BF09BC01CD0110E021
:103D80000F2EFAE08F2E912CA12CB12CF02D01C01A
:103D9000102F01E0010FC12FD0E0C354DD4FA5016A
:103DA00094010E947730605D6883622F732F842FA7
:103DB000952F161617061806190654F3FF2044F41B
:103DC000E02FF0E0E354FD4F8DE2808302E0010F2D
:103DD000E02FF0E0E354FD4F10828DEB92E04DDFD9
:103DE0008DEB92E0DF91CF911F910F91FF90EF90BB
:103DF000DF90CF90BF90AF909F908F9008950F93DA
:103E00001F93CF93DF93EC01992324F488279927FC
:103E10008C1B9D0B20E00AE010E001C0232F31E055
:103E2000320FE22FF0E0E354FD4FB8010E94423020
:103E3000805D8083862F972F181619067CF3DD236B
:103E400044F4E32FF0E0E354FD4F8DE2808332E051
:103E5000320FE32FF0E0E354FD4F10828DEB92E040
:103E60000CDF8DEB92E0DF91CF911F910F910895C0
:103E7000CF93AC019C01ADECBCEC0E949C309695BC
:103E8000879596958795969587959C01220F331F68
:103E9000880F991F880F991F880F991F820F931FF2
:103EA0009A01281B390BC901805D8093BD029A01DC
:103EB0000E949C30AC01569547955695479556956E
:103EC00047954115510589F1E1E0C1E0CE0FF0E0E1
:103ED000E354FD4F9A01ADECBCEC0E949C309695EA
:103EE000879596958795969587959C01220F331F08
:103EF000880F991F880F991F880F991F820F931F92
:103F00009A01281B390BC901805D80839A010E94A8
:103F10009C30AC01569547955695479556954795D3
:103F2000EC2F4115510589F601C0C1E0EC2FF0E0FE
:103F3000E354FD4F10828DEB92E09FDE8DEB92E01B
:103F4000CF910895982F92959F70990F292F220F46
:103F5000220F920F8F70890F0895AC019C01ADEC78
:103F6000BCEC0E949C309695879596958795969582
:103F70008795BC01660F771F9C01220F331F220F0C
:103F8000331F220F331F260F371F421B530B342FB3
:103F900020E1829F300D1124832F0895CF92DF926C
:103FA000EF92FF92CF93DF93CDB7DEB728970FB68E
:103FB000F894DEBF0FBECDBF6B017C0169837A83AD
:103FC0008B839C832D833E834F835887C216D306F1
:103FD000E406F50634F4BE016B5F7F4FCE01019617
:103FE00036DC8D819E81AF81B885892B8A2B8B2B06
:103FF00071F469817A818B819C8120E030E0A90194
:104000000E947730611571058105910529F46D8154
:104010007E818F81988505C06D837E838F8398878D
:10402000F6CF28960FB6F894DEBF0FBECDBFDF9156
:10403000CF91FF90EF90DF90CF9008959C01215099
:10404000310981E090E002C0880F991F2A95E2F7BC
:104050000097B1F0EDEBF2E020E030E0B0E3A1E357
:10406000AB0148235923452B11F0A08301C0B08335
:10407000969587952F5F3F4F3196009789F702C03D
:1040800020E030E0F901E354FD4F10828DEB92E027
:104090000895AB01BC011092BD02411551056105A7
:1040A000710509F442C021E0EFEFE20FDB01CA0124
:1040B0008F709927AA27B078BB2354F40197A109E0
:1040C000B109806F9F6FAF6FBF6F0196A11DB11DCA
:1040D0008A309105A105B10534F4F0E0E354FD4FB9
:1040E000805D808305C0F0E0E354FD4F895C8083F0
:1040F000E22FF0E0E354FD4F1082DB01CA01772389
:104100001CF40F96A11DB11DAC01BD01689413F8FC
:1041100075956795579547951694D1F72F5F41157B
:1041200051056105710509F0BFCF8DEB92E0A5DD6A
:104130008DEB92E008959827892798270895FB0131
:104140002081222339F0A82FB92F31962D93219168
:104150002111FCCF0895CF93DF93CDB7DEB79E0139
:104160002B5F3F4FF901419151919F016FE170E049
:104170008DEB92E00E94B53099231CF08DEB92E01C
:1041800002C080E090E0DF91CF9108951092DC02B0
:10419000EDEDF2E023E13EE1318320832DE33EE1CA
:1041A000338322832BE03CE13583248327E23CE107
:1041B0003783268328E43CE13187208726E53CE1EC
:1041C0003387228728E73CE1358724872FEF3EE1BC
:1041D0003787268728E33FE1318B208B24EA3EE1B5
:1041E000338B228B2AE53EE1358B248B22E23EE1A4
:1041F000378B268B2EE13DE1318F208F23E23DE18D
:10420000338F228F22E33DE1358F248F26E53DE178
:10421000378F268F23E63DE131A320A32FE63DE132
:1042200033A322A327E83DE135A324A32AE93DE1F6
:1042300037A326A325EA3DE131A720A722ED3DE1E2
:1042400033A722A722EA3FE135A724A72DEA3FE1C1
:1042500037A726A72EEC3FE131AB20AB2EE130E2B1
:1042600033AB22AB2AEE31E235AB24AB29E430E2AA
:1042700037AB26AB2BE930E231AF20AF2BEA30E28F
:1042800033AF22AF2FE930E235AF24AF2EE3DC01AC
:1042900001900D922A95E1F70895CF92DF92EF9267
:1042A000FF920F931F93CF93DF93C1E0C40F042FAE
:1042B00010E003541D4F2AE030E040E050E00E943F
:1042C0005530605DF8016083622F732F842F952F26
:1042D0006115710581059105E9F00F2EFAE0CF2EE9
:1042E000D12CE12CF12CF02D11E01C0FD0E0C354A7
:1042F000DD4FA70196010E945530605D6883622FF3
:10430000732F842F952FC12F61157105810591059C
:1043100059F701C01C2FE12FF0E0E354FD4F10824C
:10432000812FDF91CF911F910F91FF90EF90DF9040
:10433000CF900895CF92DF92EF92FF920F931F9349
:10434000CF93DF93C42F022F20E030E040E251E40E
:104350000E94BC2F6B017C01002361F10C0F11E066
:104360001C0FD0E0C354DD4F20E030E040E452E4C5
:10437000C701B6010E94052E0E94DA2E6883C7018C
:10438000B6010E94DA2E70E080E090E00E94082FD3
:104390009B01AC01C701B6010E94042E20E030E071
:1043A00040E251E40E94BC2F6B017C01C12F01133C
:1043B000D6CF01C00C2FE02FF0E0E354FD4F108268
:1043C000802FDF91CF911F910F91FF90EF90DF90A1
:1043D000CF9008958F929F92AF92BF92CF92DF922B
:1043E000EF92FF920F931F93CF93DF936B017C01AA
:1043F000D42F20E030E0A9010E94692E88230CF51B
:10440000F7FAF094F7F8F094C701B6010E94DA2E9B
:104410004B015C010E94062F9B01AC01C701B60154
:104420000E94042E6B017C0140E0C501B40135DF20
:10443000C1E0C80FE82FF0E0E354FD4F8DE2808328
:1044400015C0C701B6010E94DA2E4B015C010E9423
:10445000062F9B01AC01C701B6010E94042E6B011F
:104460007C0140E0C501B40118DFC82F0C2F10E01B
:1044700003541D4FF80110828DEB92E0FEDB8EE2BB
:10448000F801808341E04C0F2D2FC701B60152DFA8
:104490008DEB92E0DF91CF911F910F91FF90EF9004
:1044A000DF90CF90BF90AF909F908F900895FC01C8
:1044B00082810895E0919D03F0919E03208181E027
:1044C00090E00090A10302C0880F991F0A94E2F7C0
:1044D000822B808384E290E00197F1F7E0919B03C7
:1044E000F0919C03408121E030E0C90100909A03E3
:1044F00002C0880F991F0A94E2F7E0919D03F091A2
:104500009E0390810090A10302C0220F331F0A94E2
:10451000E2F720952923208384230895603479F0DD
:10452000603819F0603281F405C021E0FC0122837B
:104530002383089522E0FC0122832383089523E04E
:10454000FC0122832383089521E0FC01228323833D
:104550000895FC012081211114C0E0919B03F0918A
:104560009C03208130E000909A0302C03595279586
:104570000A94E2F720FD07C02FEFFC0120838FEFA4
:10458000089580E0089580E008950F931F93CF93DE
:10459000DF93EC018981882399F18A89861798F441
:1045A0000E851F85288939894A855B856C857D85BF
:1045B000400F511F621F731F4E875F87688B798B77
:1045C0008F5F8A8B1CC0262F30E040E050E06E8564
:1045D0007F85888999890E947730CA01B9010E9434
:1045E000082F6B8B7C8B8D8B9E8B8A859B85AC85F6
:1045F000BD858E879F87A88BB98B81E08A8B1982B6
:104600006B897C898D899E89DF91CF911F910F9154
:104610000895FC0180810895479608950F931F9394
:10462000CF93DF93EC0109851C8105969093A0033D
:1046300080939F038881882309F444C0112329F1C2
:1046400039DF8823A9F00150802F90E0FE01E80FA8
:10465000F91F115028E0029F1019112481E090E009
:1046600002C0880F991F1A95E2F79581892B8583DF
:104670008C8181508C83803119F482E0898722C03B
:10468000883001F581E089871DC08B81882329F05E
:1046900011DF8B8181508B8315C08D819E81AF810D
:1046A000B8858A879B87AC87BD8788E18C8383E048
:1046B00089878A818B831D821E821F82188681E0F2
:1046C000898318826A857B858C859D85DF91CF9152
:1046D0001F910F910895EF920F931F93FC01DA0140
:1046E0005FB78FB78F778FBF7093A3036093A203D9
:1046F000B0939C03A0939B0330939E0320939D0350
:1047000000939A03E092A103DB014C9181E090E0D9
:104710009C0102C0220F331FEA94E2F7242B2C9352
:10472000A0919D03B0919E032C9102C0880F991F08
:104730000A95E2F7822B8C931082118281E08283AA
:10474000838388E18483158216821782108683E032
:104750008187128613861486158616861786108A18
:10476000118A128A138A148A158A168AA0E0B1E087
:104770000D911D912D913C911397078B108F218FD7
:10478000328F14960D911D912D913C911797038FA7
:10479000148F258F368F18960D911D912D913C9178
:1047A0001B97078F10A321A332A31C968C911C97F3
:1047B00083A31D968C911D9784A31E968C911E97A2
:1047C00085A31F968C911F9786A3B093A503A093F2
:1047D000A40387E592E290A787A38AE592E292A7D5
:1047E00081A78EE892E294A783A789EA92E296A72E
:1047F00085A78EE093E290AB87A785EC92E292AB1F
:1048000081AB89E093E294AB83AB8CE093E296AB0F
:1048100085AB5FBFCF011F910F91EF9008958BE1A2
:1048200093E00895E091B003F091B10380818B7F14
:104830008083E091B003F091B10380818460808334
:1048400008950F931F93CF93C82F8B01E091B0036E
:10485000F091B10380818D7F8083E091AD03F09171
:10486000AE038081806F8083672B41F0E091B003BD
:10487000F091B10380818160808307C0E091B00333
:10488000F091B10380818E7F808380E090E0CADF69
:10489000CC2344F4E091B003F091B10380818068AF
:1048A000808307C0E091B003F091B10380818F77DE
:1048B0008083C6FF08C0E091B003F091B10380810E
:1048C0008064808307C0E091B003F091B1038081E0
:1048D0008F7B8083C5FF08C0E091B003F091B103E6
:1048E00080818062808307C0E091B003F091B103C2
:1048F00080818F7D8083C4FF08C0E091B003F09178
:10490000B10380818061808307C0E091B003F091A2
:10491000B10380818F7E8083012B41F0E091B00351
:10492000F091B10380818160808307C0E091B00382
:10493000F091B10380818E7F808380E090E072DF10
:10494000C3FF08C0E091B003F091B103808180689B
:10495000808307C0E091B003F091B10380818F772D
:104960008083C2FF08C0E091B003F091B103808161
:104970008064808307C0E091B003F091B10380812F
:104980008F7B8083C1FF08C0E091B003F091B10339
:1049900080818062808307C0E091B003F091B10311
:1049A00080818F7D8083C0FF08C0E091B003F091CB
:1049B000B10380818061808307C0E091B003F091F2
:1049C000B10380818F7E8083E091B003F091B103C9
:1049D00080818B7F8083CF911F910F91089560E03C
:1049E00070E081E02EDF87EE97E10197F1F700C0DC
:1049F000000008950F931F93CF938C01E091AD03B6
:104A0000F091AE0380818F708083E091B003F091CC
:104A1000B1038081806F8083E091B003F091B10396
:104A20008081826080830115110541F0E091B0031F
:104A3000F091B10380818160808307C0E091B00371
:104A4000F091B10380818E7F808380E090E0EADE88
:104A5000E091A603F091A7038081882314F0C0E0C1
:104A600001C0C0E8808186FF02C0C06401C0CF7B66
:104A7000808185FF02C0C06201C0CF7D808184FF3C
:104A800002C0C06101C0CF7E012B41F0E091B003B4
:104A9000F091B10380818160808307C0E091B00311
:104AA000F091B10380818E7F808380E090E0BADE58
:104AB000E091A603F091A703808188231CF48C2F3A
:104AC000886002C08C2F877F908196FF02C084602F
:104AD00001C08B7F908195FF02C0826001C08D7FF5
:104AE000908194FF02C0816001C08E7FE091B0038D
:104AF000F091B10390819B7F9083CF911F910F9193
:104B0000089580E090E076DF882344F480E090E030
:104B100071DF88231CF480E090E06CCF089561E0A1
:104B200070E08FDEEECF0895CF93DF93EC018881A4
:104B3000882329F02196F3DF89918111FCCFDF9141
:104B4000CF9108950F931F93CF93DF93FC01D62F3E
:104B50008081882351F08F010F5F1F4F611109C0C1
:104B600015C0CF5FDC1730F401C0C0E0CD1748F0AE
:104B70000DC0C1E0D4DFF80181918F018111F1CF27
:104B8000F5CF80E2CCDFCF5FCD17D8F3DF91CF91A7
:104B90001F910F910895CF93C82F882321F080E2B1
:104BA000BEDFC150E1F7CF910895262F81309105E6
:104BB00071F030F08230910589F00397B1F00895DB
:104BC00060E070E080E8820F3CDE9BCF089560E0FB
:104BD00070E080EC820F35DE94CF089560E070E0E5
:104BE00084E9820F2EDE8DCF089560E070E084EDC1
:104BF000820F27DE86CF0895E091AD03F091AE03DA
:104C000087E08083E091B003F091B10388E0808376
:104C10002FEF83EF91E0215080409040E1F700C0FA
:104C2000000060E070E088E30CDE20ED2A95F1F7EB
:104C300060E070E088E305DE80ED8A95F1F760E0E2
:104C400070E088E3FEDD90ED9A95F1F760E070E0AA
:104C500088E2F7DD25EC2A95F1F7000060E070E0CE
:104C600088E2EFDD85EC8A95F1F7000060E070E006
:104C700088E2E7DD46DF60E070E088E2E2DD41DF08
:104C800060E070E08CE0DDDD3CDF60E070E08CE057
:104C9000D8DD37DF60E070E081E0D3DD32DF60E057
:104CA00070E081E0CEDD2DDF60E070E086E0C9DD00
:104CB00028DF60E070E086E0C4DD23DF60E070E0C4
:104CC00080E090E072CF0895CF93DF93EC01709372
:104CD000AE036093AD035093A7034093A6033093B4
:104CE000B1032093B003FB011082E091B003F09177
:104CF000B1038FEF8083E091A603F091A703808139
:104D000088708093AF03EBE1F3E081E294E291835A
:104D100080838AEF94E29383828381E895E295838E
:104D200084838FE895E2978386838FEC96E2918760
:104D3000808784E995E29387828782EA95E2958766
:104D400084878BEC95E2978786878FEE94E2918B30
:104D5000808B85ED95E2938B828B8EEB96E2958B23
:104D6000848B4ADF86E1EBE1F3E0DE0101900D92F6
:104D70008A95E1F7CE01DF91CF910895CF93E0912D
:104D8000A603F091A703C081C8708091AF038C2760
:104D90008C2309F031DFC093AF03CF910895CF93F7
:104DA00081E090E027DEC82FACDE8C2FCF910895F4
:104DB00080E090E0089584E590E0089589E290E035
:104DC000089588E990E00895483008F040E069309F
:104DD00008F068E021E030E002C0220F331F6A953E
:104DE000E2F7215030E0042E02C0220F331F0A9454
:104DF000E2F7822390E002C0959587954A95E2F705
:104E00000895FC01483008F040E0862F693008F032
:104E100088E061E070E002C0660F771F8A95E2F7D4
:104E20009FEF960F8081692F70E0042E02C0660FFD
:104E3000771F0A94E2F7609568236083808192234C
:104E4000292F30E002C0220F331F4A95E2F7282BAA
:104E500020830895292F30E0322F2227A901482BE3
:104E6000CA01089508959B01AC0160E472E48FE0EB
:104E700090E00E945530DA01C9010197A109B109FA
:104E800008959B01AC0160E874E88EE190E00E9417
:104E90005530DA01C9010197A109B1090895E2E687
:104EA000F0E080818F6380838FEF84BB85BB0895A2
:104EB000CF93DF93CDB7DEB7CF5BD1090FB6F894B0
:104EC000DEBF0FBECDBFCE018F5A9F4F0E94650639
:104ED000E6DF0F2EFEEDAF2EF3E0BF2EF02DB092E9
:104EE000EF03A092EE030E94E11BE9E4F4E02083CB
:104EF0003183428353836483758386839783CE0192
:104F0000019644D989899A89C254DF4F998388834D
:104F1000CE5BD040ADA9BEA9C454DF4FB983A883EE
:104F2000CC5BD0402BE330E049E350E06AE370E033
:104F3000CE018F5A9F4FC8DE62E082E00E94720A63
:104F40000F2EF8EBCF2EF3E0DF2EF02DF6012083AD
:104F5000318342835383648375838683978342E0DE
:104F600064E0CE01CF960E94DD0C0F2EF7E0EF2E0D
:104F7000F02D06E022E630E040E250E061E670E02D
:104F8000CE018F5A9F4FA7DB87E3FE01EF5AFF4FF9
:104F9000A0E1B4E001900D928A95E1F7CE018F5A1D
:104FA0009F4F0E94531B8EE1FE01EF5AFF4FA0EC72
:104FB000B3E001900D928A95E1F700E114E0D80189
:104FC000D596ED91FC91D697C8010995FC01808199
:104FD0009181A281B381F50180839183A283B38300
:104FE000D801D596ED91FC91D697C8010995FC01A1
:104FF00084819581A681B781F50184839583A683F9
:10500000B783D801D596ED91FC91D697C801099543
:10501000FC0180859185A285B385F5018087918704
:10502000A287B387D801D596ED91FC91D697C80198
:105030000995FC018485D5011C968C93D801D596E1
:10504000ED91FC91D697C8010995FC018585D501A4
:105050001D968C93D801D596ED91FC91D697C801F9
:105060000995FC018685D5011E968C93D801D596AD
:10507000ED91FC91D697C8010995FC018785D50172
:105080001F968C93D601ED91FC9181E00995D60194
:105090001296ED91FC9113978CE30995D601149625
:1050A000ED91FC91159788E090E009952396EEAD7F
:1050B000FFAD239781E009952996EEADFFAD2997C5
:1050C00080E595EF09952F96EEADFFAD2F9780E027
:1050D00091E00995D8019B96ED91FC919C9760E435
:1050E000C8010995D8019796ED91FC919897C80150
:1050F0000995C554DF4F8883CB5BD040813041F4A4
:105100008091EC0390E090934804809347041DC085
:10511000C554DF4FB881CB5BD040B23041F48091B1
:10512000EA0390E090934804809347040EC0C5546E
:10513000DF4FE881CB5BD040E33039F48091EB0363
:1051400090E09093480480934704E091D803F09155
:10515000D90340E150E060E070E08091EE0390916F
:10516000EF030995E091EE03F091EF03878581301D
:1051700009F072C000E114E0D801D596ED91FC91E0
:10518000D697C8010995E091EE03F091EF034081B5
:10519000518162817381FC014083518362837383F7
:1051A000D801D596ED91FC91D697C8010995E0916B
:1051B000EE03F091EF034481558166817781FC0114
:1051C0004483558366837783D801D596ED91FC910E
:1051D000D697C8010995E091EE03F091EF03408561
:1051E000518562857385FC0140875187628773878B
:1051F000D801D596ED91FC91D697C8010995E0911B
:10520000EE03F091EF032485FC012487D801D596A5
:10521000ED91FC91D697C8010995E091EE03F091CC
:10522000EF032585FC012587D801D596ED91FC91EA
:10523000D697C8010995E091EE03F091EF0326851A
:10524000FC012687D801D596ED91FC91D697C8012F
:105250000995FC011786AD98412C512C32010F2E77
:10526000F9E4AF2EF4E0BF2EF02D00E114E0E02EC3
:10527000F12E0F2EFEED2F2EF3E03F2EF02DDD242C
:10528000D3940F2EF1E3CF2EF02DC9DADC01549622
:10529000ED91FC915597099560B1D5011696ED9168
:1052A000FC911797C5010995809131038130F1F484
:1052B000B2E3B093110110923103B1DADC015096E0
:1052C000ED91FC915197099511C0D801D196ED91BE
:1052D000FC91D29768E18E2D9F2D09956093B403C0
:1052E0007093B5038093B6039093B703D8019D964E
:1052F000ED91FC919E978E2D9F2D09958111E5CF03
:1053000080911101813321F0823309F499C14EC398
:1053100086DADC015296ED91FC91539764E070E0DF
:1053200080E090E009957BDADC011C96ED91FC9120
:105330001D976CE082E191E00995F501858180FF80
:105340006FC06091B4037091B5038091B6039091E2
:10535000B7032BD5D1016D937D938D939C931397B8
:10536000F101648375838683978318966D937D938B
:105370008D939C931B971F96DC92E091DC03F09138
:10538000DD0340E150E060E070E08091EE03909139
:10539000EF030995D801D596ED91FC91D697C801F8
:1053A0000995E091EE03F091EF0340815181628114
:1053B0007381FC014083518362837383D801D59646
:1053C000ED91FC91D697C8010995E091EE03F0911B
:1053D000EF034481558166817781FC0144835583C5
:1053E00066837783D801D596ED91FC91D697C80155
:1053F0000995E091EE03F091EF03408551856285B8
:105400007385FC014087518762877387D801D596E1
:10541000ED91FC91D697C8010995FC011786AD98CE
:10542000C554DF4FF881CB5BD040F13011F0FB3039
:1054300081F54090B4035090B5036090B60370902E
:10544000B703D801D596ED91FC91D697C80109957F
:10545000FC016085718582859385DAD49B01AC015E
:10546000C301B201D1D32B013C01D801D596ED91F6
:10547000FC91D697C8010995FC01668570E080E033
:1054800090E0C6D49B01AC01C301B20126D42B012C
:105490003C01C554DF4FF881CB5BD040F23011F0B6
:1054A000F53181F54090B4035090B5036090B60398
:1054B0007090B703D801D596ED91FC91D697C801AD
:1054C0000995FC016081718182819381A1D49B0146
:1054D000AC01C301B20198D32B013C01D801D59690
:1054E000ED91FC91D697C8010995FC01648570E0A7
:1054F00080E090E08DD49B01AC01C301B201EDD3FB
:105500002B013C01C554DF4FF881CB5BD040F33019
:1055100011F0FF3181F54090B4035090B5036090D5
:10552000B6037090B703D801D596ED91FC91D6974C
:10553000C8010995FC01648175818681978168D4D1
:105540009B01AC01C301B2015FD32B013C01D80127
:10555000D596ED91FC91D697C8010995FC0165851A
:1055600070E080E090E054D49B01AC01C301B20133
:10557000B4D32B013C0120E030E04AE754E4C301FE
:10558000B201F6D418164CF020E030E04AE754ECB3
:10559000C301B2019ED3882364F541D9DC01529640
:1055A000ED91FC91539761E070E082E090E0099505
:1055B00036D9FC018484958420E030E04AE754E445
:1055C000C301B2018AD343E0C454DF4FE881F981BB
:1055D000CC5BD04009956DE0F401099520D9DC0140
:1055E0001C96ED91FC911D9764E08FE191E0099587
:1055F0004CCE15D9DC015296ED91FC91539761E0A8
:1056000070E082E090E009950AD9FC0184849584D9
:1056100040E0C301B201C454DF4FE881F981CC5BA3
:10562000D04009956DE0F4010995F9D8DC011C968C
:10563000ED91FC911D9764E082E291E0099525CE01
:10564000EED8DC015296ED91FC91539761E070E049
:1056500080E090E00995E3D8DC011C96ED91FC9187
:105660001D9761E187E291E00995C554DF4FB8814C
:10567000CB5BD040B33009F4DAC030F4B13099F0EC
:10568000B23009F472C037C1C554DF4FE881CB5B3B
:10569000D040E53109F47EC0EF3109F4DDC0EB30D4
:1056A00009F029C115C0D801D596ED91FC91D69786
:1056B000C8010995FC01868590E090934804809389
:1056C0004704FBE0C554DF4FF883CB5BD04019C1E2
:1056D000A6D8DC015296ED91FC91539769E070E0F9
:1056E00082E090E00995F5018581883089F4809108
:1056F00047049091480401968F3F910509F008F402
:1057000058C18FEF90E0909348048093470413C0F2
:10571000803189F48091470490914804019729F0E1
:10572000909348048093470406C081E090E09093F2
:10573000480480934704A7E4B4E08C91F101868784
:105740006ED8DC011C968D909C901D97809147042B
:1057500090914804C254DF4FE881F981CE5BD0407C
:10576000099566E0F4010995CCC0D801D596ED9174
:10577000FC91D697C8010995FC01848590E090932F
:10578000480480934704F5E1C554DF4FF883CB5BB1
:10579000D040B7C044D8DC015296ED91FC915397AC
:1057A00069E070E082E090E00995F501858188303C
:1057B00089F4809147049091480401968F3F9105A8
:1057C00009F008F4FBC08FEF90E0909348048093B9
:1057D000470413C0803189F48091470490914804B4
:1057E000019729F0909348048093470406C081E014
:1057F00090E09093480480934704A7E4B4E08C9130
:10580000F10184870CD8DC011C968D909C901D972B
:105810008091470490914804C254DF4FE881F98198
:10582000CE5BD040099566E0F40109956AC0D801C5
:10583000D596ED91FC91D697C8010995FC01858517
:1058400090E09093480480934704FFE1C554DF4FF4
:10585000F883CB5BD04055C00E940F24DC015296E8
:10586000ED91FC91539769E070E082E090E009953A
:10587000F5018581883089F480914704909148042E
:1058800001968F3F910509F008F49DC08FEF90E0DD
:10589000909348048093470413C0803189F4809129
:1058A000470490914804019729F09093480480930D
:1058B000470406C081E090E0909348048093470439
:1058C000A7E4B4E08C91F10185870E940F24DC01EC
:1058D0001C968D909C901D97809147049091480450
:1058E000C254DF4FE881F981CE5BD040099566E074
:1058F000F401099506C0F3E0C554DF4FF883CB5B94
:10590000D040D50113968C918F73803209F0BDCCB5
:10591000F101D786E091DC03F091DD0340E150E036
:1059200060E070E08091EE039091EF030995D8015B
:10593000D596ED91FC91D697C8010995E7E4F4E07E
:105940002081DC011C962C93D801D596ED91FC9119
:10595000D697C8010995E7E4F4E02081DC011D96A3
:105960002C93D801D596ED91FC91D697C801099555
:10597000E7E4F4E02081DC011E962C93D801D59653
:10598000ED91FC91D697C8010995FC011786AD9859
:10599000AF9A10923203C09211010E940F24DC01D1
:1059A0005096ED91FC91519709956FCCC0921101E1
:1059B0006CCC9093480480934704BDCE90934804E8
:1059C000809347041ACF909348048093470478CF7C
:1059D0001F920F920FB60F9211240BB60F922F93B6
:1059E0003F934F935F936F937F938F939F93AF9367
:1059F000BF93CF93EF93FF93CFB78FB78F778FBFBF
:105A0000E0913F04F091400480E194E00995CFBF1C
:105A1000FF91EF91CF91BF91AF919F918F917F9126
:105A20006F915F914F913F912F910F900BBE0F900F
:105A30000FBE0F901F9018951F920F920FB60F92E6
:105A400011240BB60F922F933F934F935F936F9355
:105A50007F938F939F93AF93BF93CF93DF93EF93F6
:105A6000FF9380914C048F73883049F48091330305
:105A70008F5F80933303863008F4A4C007C0809101
:105A80003303863018F4109233038FC086E080937E
:105A9000330395B380E4892785BB80911001815041
:105AA00080931001811181C0E091DC03F091DD034E
:105AB00040E150E060E070E08091A4039091A50384
:105AC0000995C0E1D4E0EDA9FEA9CE010995E091C8
:105AD000A403F091A5034081518162817381FC018F
